{
  "address": "0x24514A0E530b5433DC0D3c6C78EBC76dB40F01Ba",
  "abi": [
    {
      "anonymous": false,
      "inputs": [
        {
          "indexed": false,
          "internalType": "uint8",
          "name": "version",
          "type": "uint8"
        }
      ],
      "name": "Initialized",
      "type": "event"
    },
    {
      "anonymous": false,
      "inputs": [
        {
          "indexed": true,
          "internalType": "address",
          "name": "previousOwner",
          "type": "address"
        },
        {
          "indexed": true,
          "internalType": "address",
          "name": "newOwner",
          "type": "address"
        }
      ],
      "name": "OwnershipTransferStarted",
      "type": "event"
    },
    {
      "anonymous": false,
      "inputs": [
        {
          "indexed": true,
          "internalType": "address",
          "name": "previousOwner",
          "type": "address"
        },
        {
          "indexed": true,
          "internalType": "address",
          "name": "newOwner",
          "type": "address"
        }
      ],
      "name": "OwnershipTransferred",
      "type": "event"
    },
    {
      "anonymous": false,
      "inputs": [
        {
          "indexed": true,
          "internalType": "address",
          "name": "previousValidator",
          "type": "address"
        },
        {
          "indexed": true,
          "internalType": "address",
          "name": "validator",
          "type": "address"
        }
      ],
      "name": "ValidatorChanged",
      "type": "event"
    },
    {
      "inputs": [],
      "name": "acceptOwnership",
      "outputs": [],
      "stateMutability": "nonpayable",
      "type": "function"
    },
    {
      "inputs": [
        {
          "internalType": "address",
          "name": "validator_",
          "type": "address"
        }
      ],
      "name": "changeValidator",
      "outputs": [],
      "stateMutability": "nonpayable",
      "type": "function"
    },
    {
      "inputs": [
        {
          "internalType": "address",
          "name": "_validator",
          "type": "address"
        }
      ],
      "name": "initialize",
      "outputs": [],
      "stateMutability": "nonpayable",
      "type": "function"
    },
    {
      "inputs": [],
      "name": "owner",
      "outputs": [
        {
          "internalType": "address",
          "name": "",
          "type": "address"
        }
      ],
      "stateMutability": "view",
      "type": "function"
    },
    {
      "inputs": [],
      "name": "pendingOwner",
      "outputs": [
        {
          "internalType": "address",
          "name": "",
          "type": "address"
        }
      ],
      "stateMutability": "view",
      "type": "function"
    },
    {
      "inputs": [],
      "name": "renounceOwnership",
      "outputs": [],
      "stateMutability": "nonpayable",
      "type": "function"
    },
    {
      "inputs": [
        {
          "internalType": "address",
          "name": "newOwner",
          "type": "address"
        }
      ],
      "name": "transferOwnership",
      "outputs": [],
      "stateMutability": "nonpayable",
      "type": "function"
    },
    {
      "inputs": [],
      "name": "validator",
      "outputs": [
        {
          "internalType": "address",
          "name": "",
          "type": "address"
        }
      ],
      "stateMutability": "view",
      "type": "function"
    },
    {
      "inputs": [
        {
          "internalType": "bytes32",
          "name": "hash",
          "type": "bytes32"
        },
        {
          "internalType": "bytes",
          "name": "signature",
          "type": "bytes"
        }
      ],
      "name": "verify",
      "outputs": [
        {
          "internalType": "bool",
          "name": "",
          "type": "bool"
        }
      ],
      "stateMutability": "view",
      "type": "function"
    },
    {
      "inputs": [
        {
          "internalType": "address",
          "name": "holder",
          "type": "address"
        },
        {
          "internalType": "bytes32",
          "name": "deviceHash",
          "type": "bytes32"
        },
        {
          "internalType": "uint256",
          "name": "deviceTimestamp",
          "type": "uint256"
        },
        {
          "internalType": "uint256",
          "name": "verifyTimestamp",
          "type": "uint256"
        },
        {
          "internalType": "bytes",
          "name": "signature",
          "type": "bytes"
        }
      ],
      "name": "verifyDevice",
      "outputs": [
        {
          "internalType": "bool",
          "name": "",
          "type": "bool"
        }
      ],
      "stateMutability": "view",
      "type": "function"
    },
    {
      "inputs": [
        {
          "internalType": "address",
          "name": "holder",
          "type": "address"
        },
        {
          "internalType": "uint256",
          "name": "lat",
          "type": "uint256"
        },
        {
          "internalType": "uint256",
          "name": "long",
          "type": "uint256"
        },
        {
          "internalType": "uint256",
          "name": "distance",
          "type": "uint256"
        },
        {
          "internalType": "bytes32",
          "name": "deviceHash",
          "type": "bytes32"
        },
        {
          "internalType": "uint256",
          "name": "deviceTimestamp",
          "type": "uint256"
        },
        {
          "internalType": "uint256",
          "name": "verifyTimestamp",
          "type": "uint256"
        },
        {
          "internalType": "bytes",
          "name": "signature",
          "type": "bytes"
        }
      ],
      "name": "verifyLocationDistance",
      "outputs": [
        {
          "internalType": "bool",
          "name": "",
          "type": "bool"
        }
      ],
      "stateMutability": "view",
      "type": "function"
    }
  ],
  "transactionHash": "0xcc18cef1668671b0d9a73cbddc9556f6b104938beb7468de09e3d768e45b1ab1",
  "args": [],
  "numDeployments": 1,
  "solcInputHash": "423bf7d2145ba99a6717463299dfaba1",
  "bytecode": "0x608060405234801561001057600080fd5b50610ff8806100206000396000f3fe608060405234801561001057600080fd5b50600436106100c95760003560e01c806379ba509711610081578063e30c39781161005b578063e30c3978146101aa578063f2fde38b146101c8578063f6abfc76146101db57600080fd5b806379ba50971461016b5780638da5cb5b14610173578063c4d66de81461019757600080fd5b80633a5381b5116100b25780633a5381b5146101095780634c4d16871461014e578063715018a61461016157600080fd5b8063258ae582146100ce57806332d5af8a146100f6575b600080fd5b6100e16100dc366004610e0e565b6101ee565b60405190151581526020015b60405180910390f35b6100e1610104366004610e7e565b610289565b6002546101299073ffffffffffffffffffffffffffffffffffffffff1681565b60405173ffffffffffffffffffffffffffffffffffffffff90911681526020016100ed565b6100e161015c366004610ee9565b610302565b610169610393565b005b6101696103a7565b60005462010000900473ffffffffffffffffffffffffffffffffffffffff16610129565b6101696101a5366004610f71565b61047c565b60015473ffffffffffffffffffffffffffffffffffffffff16610129565b6101696101d6366004610f71565b61067d565b6101696101e9366004610f71565b610734565b60025460009073ffffffffffffffffffffffffffffffffffffffff1661026b83610265866040517f19457468657265756d205369676e6564204d6573736167653a0a3332000000006020820152603c8101829052600090605c01604051602081830303815290604052805190602001209050919050565b906107b3565b73ffffffffffffffffffffffffffffffffffffffff16149392505050565b6040517fffffffffffffffffffffffffffffffffffffffff000000000000000000000000606087901b16602082015260348101859052605481018490526074810183905260009081906094016040516020818303038152906040528051906020012090506102f781846101ee565b979650505050505050565b6040517fffffffffffffffffffffffffffffffffffffffff00000000000000000000000060608a901b1660208201526034810188905260548101879052607481018690526094810185905260b4810184905260d48101839052600090819060f40160405160208183030381529060405280519060200120905061038581846101ee565b9a9950505050505050505050565b61039b6107d7565b6103a5600061085f565b565b33806103c860015473ffffffffffffffffffffffffffffffffffffffff1690565b73ffffffffffffffffffffffffffffffffffffffff1614610470576040517f08c379a000000000000000000000000000000000000000000000000000000000815260206004820152602960248201527f4f776e61626c6532537465703a2063616c6c6572206973206e6f74207468652060448201527f6e6577206f776e6572000000000000000000000000000000000000000000000060648201526084015b60405180910390fd5b6104798161085f565b50565b600054610100900460ff161580801561049c5750600054600160ff909116105b806104b65750303b1580156104b6575060005460ff166001145b610542576040517f08c379a000000000000000000000000000000000000000000000000000000000815260206004820152602e60248201527f496e697469616c697a61626c653a20636f6e747261637420697320616c72656160448201527f647920696e697469616c697a65640000000000000000000000000000000000006064820152608401610467565b600080547fffffffffffffffffffffffffffffffffffffffffffffffffffffffffffffff0016600117905580156105a057600080547fffffffffffffffffffffffffffffffffffffffffffffffffffffffffffff00ff166101001790555b6105a8610890565b600280547fffffffffffffffffffffffff00000000000000000000000000000000000000001673ffffffffffffffffffffffffffffffffffffffff84169081179091556040516000907fe3aa0788b8cd86cefd82a46570f793f4dea3b88c048e5d23c3975921e985d177908290a3801561067957600080547fffffffffffffffffffffffffffffffffffffffffffffffffffffffffffff00ff169055604051600181527f7f26b83ff96e1f2b6a682f133852f6798a09c465da95921460cefb38474024989060200160405180910390a15b5050565b6106856107d7565b6001805473ffffffffffffffffffffffffffffffffffffffff83167fffffffffffffffffffffffff000000000000000000000000000000000000000090911681179091556106ef60005473ffffffffffffffffffffffffffffffffffffffff620100009091041690565b73ffffffffffffffffffffffffffffffffffffffff167f38d16b8cac22d99fc7c124b9cd0de2d3fa1faef420bfe791d8c362d765e2270060405160405180910390a350565b61073c6107d7565b6002805473ffffffffffffffffffffffffffffffffffffffff8381167fffffffffffffffffffffffff0000000000000000000000000000000000000000831681179093556040519116919082907fe3aa0788b8cd86cefd82a46570f793f4dea3b88c048e5d23c3975921e985d17790600090a35050565b60008060006107c2858561092f565b915091506107cf81610974565b509392505050565b60005473ffffffffffffffffffffffffffffffffffffffff620100009091041633146103a5576040517f08c379a000000000000000000000000000000000000000000000000000000000815260206004820181905260248201527f4f776e61626c653a2063616c6c6572206973206e6f7420746865206f776e65726044820152606401610467565b600180547fffffffffffffffffffffffff000000000000000000000000000000000000000016905561047981610b27565b600054610100900460ff16610927576040517f08c379a000000000000000000000000000000000000000000000000000000000815260206004820152602b60248201527f496e697469616c697a61626c653a20636f6e7472616374206973206e6f74206960448201527f6e697469616c697a696e670000000000000000000000000000000000000000006064820152608401610467565b6103a5610ba5565b60008082516041036109655760208301516040840151606085015160001a61095987828585610c45565b9450945050505061096d565b506000905060025b9250929050565b600081600481111561098857610988610f93565b036109905750565b60018160048111156109a4576109a4610f93565b03610a0b576040517f08c379a000000000000000000000000000000000000000000000000000000000815260206004820152601860248201527f45434453413a20696e76616c6964207369676e617475726500000000000000006044820152606401610467565b6002816004811115610a1f57610a1f610f93565b03610a86576040517f08c379a000000000000000000000000000000000000000000000000000000000815260206004820152601f60248201527f45434453413a20696e76616c6964207369676e6174757265206c656e677468006044820152606401610467565b6003816004811115610a9a57610a9a610f93565b03610479576040517f08c379a000000000000000000000000000000000000000000000000000000000815260206004820152602260248201527f45434453413a20696e76616c6964207369676e6174757265202773272076616c60448201527f75650000000000000000000000000000000000000000000000000000000000006064820152608401610467565b6000805473ffffffffffffffffffffffffffffffffffffffff838116620100008181027fffffffffffffffffffff0000000000000000000000000000000000000000ffff851617855560405193049190911692909183917f8be0079c531659141344cd1fd0a4f28419497f9722a3daafe3b4186f6b6457e091a35050565b600054610100900460ff16610c3c576040517f08c379a000000000000000000000000000000000000000000000000000000000815260206004820152602b60248201527f496e697469616c697a61626c653a20636f6e7472616374206973206e6f74206960448201527f6e697469616c697a696e670000000000000000000000000000000000000000006064820152608401610467565b6103a53361085f565b6000807f7fffffffffffffffffffffffffffffff5d576e7357a4501ddfe92f46681b20a0831115610c7c5750600090506003610d2b565b6040805160008082526020820180845289905260ff881692820192909252606081018690526080810185905260019060a0016020604051602081039080840390855afa158015610cd0573d6000803e3d6000fd5b50506040517fffffffffffffffffffffffffffffffffffffffffffffffffffffffffffffffe0015191505073ffffffffffffffffffffffffffffffffffffffff8116610d2457600060019250925050610d2b565b9150600090505b94509492505050565b7f4e487b7100000000000000000000000000000000000000000000000000000000600052604160045260246000fd5b600082601f830112610d7457600080fd5b813567ffffffffffffffff80821115610d8f57610d8f610d34565b604051601f83017fffffffffffffffffffffffffffffffffffffffffffffffffffffffffffffffe0908116603f01168101908282118183101715610dd557610dd5610d34565b81604052838152866020858801011115610dee57600080fd5b836020870160208301376000602085830101528094505050505092915050565b60008060408385031215610e2157600080fd5b82359150602083013567ffffffffffffffff811115610e3f57600080fd5b610e4b85828601610d63565b9150509250929050565b803573ffffffffffffffffffffffffffffffffffffffff81168114610e7957600080fd5b919050565b600080600080600060a08688031215610e9657600080fd5b610e9f86610e55565b9450602086013593506040860135925060608601359150608086013567ffffffffffffffff811115610ed057600080fd5b610edc88828901610d63565b9150509295509295909350565b600080600080600080600080610100898b031215610f0657600080fd5b610f0f89610e55565b97506020890135965060408901359550606089013594506080890135935060a0890135925060c0890135915060e089013567ffffffffffffffff811115610f5557600080fd5b610f618b828c01610d63565b9150509295985092959890939650565b600060208284031215610f8357600080fd5b610f8c82610e55565b9392505050565b7f4e487b7100000000000000000000000000000000000000000000000000000000600052602160045260246000fdfea26469706673582212208ecbc0cb60c0678e5df585e1c91846ea069a1446fc4e29f61de7a640ef120b9764736f6c63430008110033",
  "devdoc": {
    "kind": "dev",
    "methods": {},
    "version": 1
  },
  "userdoc": {
    "kind": "user",
    "methods": {},
    "version": 1
  },
  "storageLayout": {
    "storage": [
      {
        "astId": 119,
        "contract": "contracts/MetapebbleDataVerifier.sol:MetapebbleDataVerifier",
        "label": "_initialized",
        "offset": 0,
        "slot": "0",
        "type": "t_uint8"
      },
      {
        "astId": 122,
        "contract": "contracts/MetapebbleDataVerifier.sol:MetapebbleDataVerifier",
        "label": "_initializing",
        "offset": 1,
        "slot": "0",
        "type": "t_bool"
      },
      {
        "astId": 4955,
        "contract": "contracts/MetapebbleDataVerifier.sol:MetapebbleDataVerifier",
        "label": "_owner",
        "offset": 2,
        "slot": "0",
        "type": "t_address"
      },
      {
        "astId": 4876,
        "contract": "contracts/MetapebbleDataVerifier.sol:MetapebbleDataVerifier",
        "label": "_pendingOwner",
        "offset": 0,
        "slot": "1",
        "type": "t_address"
      },
      {
        "astId": 3950,
        "contract": "contracts/MetapebbleDataVerifier.sol:MetapebbleDataVerifier",
        "label": "validator",
        "offset": 0,
        "slot": "2",
        "type": "t_address"
      }
    ],
    "types": {
      "t_address": {
        "encoding": "inplace",
        "label": "address",
        "numberOfBytes": "20"
      },
      "t_bool": {
        "encoding": "inplace",
        "label": "bool",
        "numberOfBytes": "1"
      },
      "t_uint8": {
        "encoding": "inplace",
        "label": "uint8",
        "numberOfBytes": "1"
      }
    }
  }
}