{
  "address": "0x8e0dD6d904ab04f1E91475A905b5dbd04d8bBe6e",
  "abi": [
    {
      "inputs": [
        {
          "internalType": "int256",
          "name": "_lat",
          "type": "int256"
        },
        {
          "internalType": "int256",
          "name": "_long",
          "type": "int256"
        },
        {
          "internalType": "uint256",
          "name": "_maxDistance",
          "type": "uint256"
        },
        {
          "internalType": "address",
          "name": "_verifier",
          "type": "address"
        },
        {
          "internalType": "uint256",
          "name": "_amount",
          "type": "uint256"
        }
      ],
      "stateMutability": "nonpayable",
      "type": "constructor"
    },
    {
      "anonymous": false,
      "inputs": [
        {
          "indexed": true,
          "internalType": "address",
          "name": "holder",
          "type": "address"
        },
        {
          "indexed": true,
          "internalType": "bytes32",
          "name": "deviceHash",
          "type": "bytes32"
        },
        {
          "indexed": false,
          "internalType": "uint256",
          "name": "amount",
          "type": "uint256"
        }
      ],
      "name": "Claimed",
      "type": "event"
    },
    {
      "anonymous": false,
      "inputs": [
        {
          "indexed": true,
          "internalType": "address",
          "name": "previousOwner",
          "type": "address"
        },
        {
          "indexed": true,
          "internalType": "address",
          "name": "newOwner",
          "type": "address"
        }
      ],
      "name": "OwnershipTransferred",
      "type": "event"
    },
    {
      "inputs": [],
      "name": "AMOUNT_PER_DEVICE",
      "outputs": [
        {
          "internalType": "uint256",
          "name": "",
          "type": "uint256"
        }
      ],
      "stateMutability": "view",
      "type": "function"
    },
    {
      "inputs": [
        {
          "internalType": "address payable",
          "name": "holder",
          "type": "address"
        },
        {
          "internalType": "uint256",
          "name": "distance",
          "type": "uint256"
        },
        {
          "internalType": "bytes32",
          "name": "deviceHash",
          "type": "bytes32"
        },
        {
          "internalType": "uint256",
          "name": "startTimestamp",
          "type": "uint256"
        },
        {
          "internalType": "uint256",
          "name": "endTimestamp",
          "type": "uint256"
        },
        {
          "internalType": "bytes",
          "name": "signature",
          "type": "bytes"
        }
      ],
      "name": "claim",
      "outputs": [],
      "stateMutability": "payable",
      "type": "function"
    },
    {
      "inputs": [
        {
          "internalType": "uint256",
          "name": "distance",
          "type": "uint256"
        },
        {
          "internalType": "bytes32",
          "name": "deviceHash",
          "type": "bytes32"
        },
        {
          "internalType": "uint256",
          "name": "startTimestamp",
          "type": "uint256"
        },
        {
          "internalType": "uint256",
          "name": "endTimestamp",
          "type": "uint256"
        },
        {
          "internalType": "bytes",
          "name": "signature",
          "type": "bytes"
        }
      ],
      "name": "claim",
      "outputs": [],
      "stateMutability": "payable",
      "type": "function"
    },
    {
      "inputs": [],
      "name": "claimFee",
      "outputs": [
        {
          "internalType": "uint256",
          "name": "",
          "type": "uint256"
        }
      ],
      "stateMutability": "view",
      "type": "function"
    },
    {
      "inputs": [],
      "name": "claimable",
      "outputs": [
        {
          "internalType": "bool",
          "name": "",
          "type": "bool"
        }
      ],
      "stateMutability": "view",
      "type": "function"
    },
    {
      "inputs": [
        {
          "internalType": "bytes32",
          "name": "deviceHash_",
          "type": "bytes32"
        }
      ],
      "name": "claimed",
      "outputs": [
        {
          "internalType": "bool",
          "name": "",
          "type": "bool"
        }
      ],
      "stateMutability": "view",
      "type": "function"
    },
    {
      "inputs": [],
      "name": "lat",
      "outputs": [
        {
          "internalType": "int256",
          "name": "",
          "type": "int256"
        }
      ],
      "stateMutability": "view",
      "type": "function"
    },
    {
      "inputs": [],
      "name": "long",
      "outputs": [
        {
          "internalType": "int256",
          "name": "",
          "type": "int256"
        }
      ],
      "stateMutability": "view",
      "type": "function"
    },
    {
      "inputs": [],
      "name": "maxDistance",
      "outputs": [
        {
          "internalType": "uint256",
          "name": "",
          "type": "uint256"
        }
      ],
      "stateMutability": "view",
      "type": "function"
    },
    {
      "inputs": [],
      "name": "owner",
      "outputs": [
        {
          "internalType": "address",
          "name": "",
          "type": "address"
        }
      ],
      "stateMutability": "view",
      "type": "function"
    },
    {
      "inputs": [],
      "name": "refund",
      "outputs": [],
      "stateMutability": "nonpayable",
      "type": "function"
    },
    {
      "inputs": [],
      "name": "renounceOwnership",
      "outputs": [],
      "stateMutability": "nonpayable",
      "type": "function"
    },
    {
      "inputs": [
        {
          "internalType": "address",
          "name": "newOwner",
          "type": "address"
        }
      ],
      "name": "transferOwnership",
      "outputs": [],
      "stateMutability": "nonpayable",
      "type": "function"
    },
    {
      "inputs": [],
      "name": "verifier",
      "outputs": [
        {
          "internalType": "contract IMetapebbleDataVerifier",
          "name": "",
          "type": "address"
        }
      ],
      "stateMutability": "view",
      "type": "function"
    },
    {
      "stateMutability": "payable",
      "type": "receive"
    }
  ],
  "transactionHash": "0xaba9f7de319d25a755d5b0a4b05e9a657bfbc1ad029d47da126e52a9d9d2c951",
  "args": [
    120520000,
    30400000,
    1000,
    "0xB9ae925fF8318915e3266e0EA41a37408033caC6",
    "1000000000000000000"
  ],
  "numDeployments": 2,
  "solcInputHash": "047f822773662cf583524d333f3c2e6f",
  "bytecode": "0x608060405234801561001057600080fd5b5060405161111f38038061111f83398101604081905261002f91610104565b610038336100b4565b600180558061007e5760405162461bcd60e51b815260206004820152600e60248201526d1a5b9d985b1a5908185b5bdd5b9d60921b604482015260640160405180910390fd5b600594909455600692909255600755600380546001600160a01b0319166001600160a01b0390921691909117905560025561015f565b600080546001600160a01b038381166001600160a01b0319831681178455604051919092169283917f8be0079c531659141344cd1fd0a4f28419497f9722a3daafe3b4186f6b6457e09190a35050565b600080600080600060a0868803121561011c57600080fd5b855160208701516040880151606089015192975090955093506001600160a01b038116811461014a57600080fd5b80925050608086015190509295509295909350565b610fb18061016e6000396000f3fe6080604052600436106100e15760003560e01c80638da5cb5b1161007f578063a58db1a511610059578063a58db1a5146102a0578063af38d757146102b3578063cc3c0f06146102d7578063f2fde38b1461031c57600080fd5b80638da5cb5b1461024a57806399d32fc414610275578063a2abcfe81461028a57600080fd5b8063590e1ae3116100bb578063590e1ae3146101f75780635dd0d48c1461020c5780636e3dc9921461021f578063715018a61461023557600080fd5b806307bfce37146101665780632b7ac3f31461018f57806355d576cc146101e157600080fd5b36610161576002546100f39034610c22565b1561015f576040517f08c379a000000000000000000000000000000000000000000000000000000000815260206004820152600e60248201527f696e76616c696420616d6f756e7400000000000000000000000000000000000060448201526064015b60405180910390fd5b005b600080fd5b34801561017257600080fd5b5061017c60065481565b6040519081526020015b60405180910390f35b34801561019b57600080fd5b506003546101bc9073ffffffffffffffffffffffffffffffffffffffff1681565b60405173ffffffffffffffffffffffffffffffffffffffff9091168152602001610186565b3480156101ed57600080fd5b5061017c60055481565b34801561020357600080fd5b5061015f61033c565b61015f61021a366004610d59565b610373565b34801561022b57600080fd5b5061017c60075481565b34801561024157600080fd5b5061015f61038a565b34801561025657600080fd5b5060005473ffffffffffffffffffffffffffffffffffffffff166101bc565b34801561028157600080fd5b5061017c61039e565b34801561029657600080fd5b5061017c60025481565b61015f6102ae366004610dce565b610557565b3480156102bf57600080fd5b506002544710155b6040519015158152602001610186565b3480156102e357600080fd5b506102c76102f2366004610e32565b60009081526004602052604090205473ffffffffffffffffffffffffffffffffffffffff16151590565b34801561032857600080fd5b5061015f610337366004610e4b565b61056d565b610344610621565b60405133904780156108fc02916000818181858888f19350505050158015610370573d6000803e3d6000fd5b50565b610382868686868686346106a2565b505050505050565b610392610621565b61039c6000610b3a565b565b600354604080517fb17644c9000000000000000000000000000000000000000000000000000000008152905160009273ffffffffffffffffffffffffffffffffffffffff169163b17644c99160048083019260209291908290030181865afa15801561040e573d6000803e3d6000fd5b505050506040513d601f19601f820116820180604052508101906104329190610e6f565b6040517f3245b62200000000000000000000000000000000000000000000000000000000815230600482015273ffffffffffffffffffffffffffffffffffffffff9190911690633245b62290602401602060405180830381865afa15801561049e573d6000803e3d6000fd5b505050506040513d601f19601f820116820180604052508101906104c29190610e6f565b6040517f6fcca69b00000000000000000000000000000000000000000000000000000000815230600482015273ffffffffffffffffffffffffffffffffffffffff9190911690636fcca69b90602401602060405180830381865afa15801561052e573d6000803e3d6000fd5b505050506040513d601f19601f820116820180604052508101906105529190610e8c565b905090565b610566338686868686346106a2565b5050505050565b610575610621565b73ffffffffffffffffffffffffffffffffffffffff8116610618576040517f08c379a000000000000000000000000000000000000000000000000000000000815260206004820152602660248201527f4f776e61626c653a206e6577206f776e657220697320746865207a65726f206160448201527f64647265737300000000000000000000000000000000000000000000000000006064820152608401610156565b61037081610b3a565b60005473ffffffffffffffffffffffffffffffffffffffff16331461039c576040517f08c379a000000000000000000000000000000000000000000000000000000000815260206004820181905260248201527f4f776e61626c653a2063616c6c6572206973206e6f7420746865206f776e65726044820152606401610156565b6106aa610baf565b60008581526004602052604090205473ffffffffffffffffffffffffffffffffffffffff1615610736576040517f08c379a000000000000000000000000000000000000000000000000000000000815260206004820152600f60248201527f616c726561647920636c61696d656400000000000000000000000000000000006044820152606401610156565b6002546107433447610ea5565b10156107ab576040517f08c379a000000000000000000000000000000000000000000000000000000000815260206004820152600760248201527f6e6f2066756e64000000000000000000000000000000000000000000000000006044820152606401610156565b600754861115610817576040517f08c379a000000000000000000000000000000000000000000000000000000000815260206004820152601060248201527f696e76616c6964206c6f636174696f6e000000000000000000000000000000006044820152606401610156565b61081f61039e565b341015610888576040517f08c379a000000000000000000000000000000000000000000000000000000000815260206004820152601160248201527f6d697373207665726966696572206665650000000000000000000000000000006044820152606401610156565b6003546005546006546040517fb499ffd100000000000000000000000000000000000000000000000000000000815273ffffffffffffffffffffffffffffffffffffffff8b8116600483015260248201939093526044810191909152606481018990526084810188905260a4810187905260c48101869052600092919091169063b499ffd19060e401602060405180830381865afa15801561092e573d6000803e3d6000fd5b505050506040513d601f19601f820116820180604052508101906109529190610e8c565b6003546040517f258ae58200000000000000000000000000000000000000000000000000000000815291925073ffffffffffffffffffffffffffffffffffffffff169063258ae5829084906109ad9085908890600401610ee5565b60206040518083038185885af11580156109cb573d6000803e3d6000fd5b50505050506040513d601f19601f820116820180604052508101906109f09190610f59565b610a56576040517f08c379a000000000000000000000000000000000000000000000000000000000815260206004820152601160248201527f696e76616c6964207369676e61747572650000000000000000000000000000006044820152606401610156565b60008681526004602052604080822080547fffffffffffffffffffffffff00000000000000000000000000000000000000001673ffffffffffffffffffffffffffffffffffffffff8c16908117909155600254915190926108fc831502929190818181858888f19350505050158015610ad3573d6000803e3d6000fd5b50858873ffffffffffffffffffffffffffffffffffffffff167f9b01158d4bc10c112ba32b5240cda97e49e2eb86021f03f6a0f460342ac4dfda600254604051610b1f91815260200190565b60405180910390a350610b3160018055565b50505050505050565b6000805473ffffffffffffffffffffffffffffffffffffffff8381167fffffffffffffffffffffffff0000000000000000000000000000000000000000831681178455604051919092169283917f8be0079c531659141344cd1fd0a4f28419497f9722a3daafe3b4186f6b6457e09190a35050565b600260015403610c1b576040517f08c379a000000000000000000000000000000000000000000000000000000000815260206004820152601f60248201527f5265656e7472616e637947756172643a207265656e7472616e742063616c6c006044820152606401610156565b6002600155565b600082610c58577f4e487b7100000000000000000000000000000000000000000000000000000000600052601260045260246000fd5b500690565b73ffffffffffffffffffffffffffffffffffffffff8116811461037057600080fd5b7f4e487b7100000000000000000000000000000000000000000000000000000000600052604160045260246000fd5b600082601f830112610cbf57600080fd5b813567ffffffffffffffff80821115610cda57610cda610c7f565b604051601f83017fffffffffffffffffffffffffffffffffffffffffffffffffffffffffffffffe0908116603f01168101908282118183101715610d2057610d20610c7f565b81604052838152866020858801011115610d3957600080fd5b836020870160208301376000602085830101528094505050505092915050565b60008060008060008060c08789031215610d7257600080fd5b8635610d7d81610c5d565b95506020870135945060408701359350606087013592506080870135915060a087013567ffffffffffffffff811115610db557600080fd5b610dc189828a01610cae565b9150509295509295509295565b600080600080600060a08688031215610de657600080fd5b85359450602086013593506040860135925060608601359150608086013567ffffffffffffffff811115610e1957600080fd5b610e2588828901610cae565b9150509295509295909350565b600060208284031215610e4457600080fd5b5035919050565b600060208284031215610e5d57600080fd5b8135610e6881610c5d565b9392505050565b600060208284031215610e8157600080fd5b8151610e6881610c5d565b600060208284031215610e9e57600080fd5b5051919050565b81810381811115610edf577f4e487b7100000000000000000000000000000000000000000000000000000000600052601160045260246000fd5b92915050565b82815260006020604081840152835180604085015260005b81811015610f1957858101830151858201606001528201610efd565b5060006060828601015260607fffffffffffffffffffffffffffffffffffffffffffffffffffffffffffffffe0601f830116850101925050509392505050565b600060208284031215610f6b57600080fd5b81518015158114610e6857600080fdfea26469706673582212209c3bed353d8fce802c2399c3a2d6ad7185c57a5adf7aec2d29dfd4e627085f4564736f6c63430008110033",
  "devdoc": {
    "kind": "dev",
    "methods": {
      "owner()": {
        "details": "Returns the address of the current owner."
      },
      "renounceOwnership()": {
        "details": "Leaves the contract without owner. It will not be possible to call `onlyOwner` functions anymore. Can only be called by the current owner. NOTE: Renouncing ownership will leave the contract without an owner, thereby removing any functionality that is only available to the owner."
      },
      "transferOwnership(address)": {
        "details": "Transfers ownership of the contract to a new account (`newOwner`). Can only be called by the current owner."
      }
    },
    "version": 1
  },
  "userdoc": {
    "kind": "user",
    "methods": {},
    "version": 1
  },
  "storageLayout": {
    "storage": [
      {
        "astId": 7,
        "contract": "contracts/examples/MetapebbleVerifiedDrop.sol:MetapebbleVerifiedDrop",
        "label": "_owner",
        "offset": 0,
        "slot": "0",
        "type": "t_address"
      },
      {
        "astId": 123,
        "contract": "contracts/examples/MetapebbleVerifiedDrop.sol:MetapebbleVerifiedDrop",
        "label": "_status",
        "offset": 0,
        "slot": "1",
        "type": "t_uint256"
      },
      {
        "astId": 209,
        "contract": "contracts/examples/MetapebbleVerifiedDrop.sol:MetapebbleVerifiedDrop",
        "label": "AMOUNT_PER_DEVICE",
        "offset": 0,
        "slot": "2",
        "type": "t_uint256"
      },
      {
        "astId": 212,
        "contract": "contracts/examples/MetapebbleVerifiedDrop.sol:MetapebbleVerifiedDrop",
        "label": "verifier",
        "offset": 0,
        "slot": "3",
        "type": "t_contract(IMetapebbleDataVerifier)572"
      },
      {
        "astId": 216,
        "contract": "contracts/examples/MetapebbleVerifiedDrop.sol:MetapebbleVerifiedDrop",
        "label": "_claimedDevices",
        "offset": 0,
        "slot": "4",
        "type": "t_mapping(t_bytes32,t_address)"
      },
      {
        "astId": 218,
        "contract": "contracts/examples/MetapebbleVerifiedDrop.sol:MetapebbleVerifiedDrop",
        "label": "lat",
        "offset": 0,
        "slot": "5",
        "type": "t_int256"
      },
      {
        "astId": 220,
        "contract": "contracts/examples/MetapebbleVerifiedDrop.sol:MetapebbleVerifiedDrop",
        "label": "long",
        "offset": 0,
        "slot": "6",
        "type": "t_int256"
      },
      {
        "astId": 222,
        "contract": "contracts/examples/MetapebbleVerifiedDrop.sol:MetapebbleVerifiedDrop",
        "label": "maxDistance",
        "offset": 0,
        "slot": "7",
        "type": "t_uint256"
      }
    ],
    "types": {
      "t_address": {
        "encoding": "inplace",
        "label": "address",
        "numberOfBytes": "20"
      },
      "t_bytes32": {
        "encoding": "inplace",
        "label": "bytes32",
        "numberOfBytes": "32"
      },
      "t_contract(IMetapebbleDataVerifier)572": {
        "encoding": "inplace",
        "label": "contract IMetapebbleDataVerifier",
        "numberOfBytes": "20"
      },
      "t_int256": {
        "encoding": "inplace",
        "label": "int256",
        "numberOfBytes": "32"
      },
      "t_mapping(t_bytes32,t_address)": {
        "encoding": "mapping",
        "key": "t_bytes32",
        "label": "mapping(bytes32 => address)",
        "numberOfBytes": "32",
        "value": "t_address"
      },
      "t_uint256": {
        "encoding": "inplace",
        "label": "uint256",
        "numberOfBytes": "32"
      }
    }
  }
}