{
  "address": "0x3536262DA3076381272db0582Ad01E018dca2392",
  "abi": [
    {
      "anonymous": false,
      "inputs": [
        {
          "indexed": false,
          "internalType": "uint8",
          "name": "version",
          "type": "uint8"
        }
      ],
      "name": "Initialized",
      "type": "event"
    },
    {
      "anonymous": false,
      "inputs": [
        {
          "indexed": true,
          "internalType": "address",
          "name": "previousOwner",
          "type": "address"
        },
        {
          "indexed": true,
          "internalType": "address",
          "name": "newOwner",
          "type": "address"
        }
      ],
      "name": "OwnershipTransferStarted",
      "type": "event"
    },
    {
      "anonymous": false,
      "inputs": [
        {
          "indexed": true,
          "internalType": "address",
          "name": "previousOwner",
          "type": "address"
        },
        {
          "indexed": true,
          "internalType": "address",
          "name": "newOwner",
          "type": "address"
        }
      ],
      "name": "OwnershipTransferred",
      "type": "event"
    },
    {
      "anonymous": false,
      "inputs": [
        {
          "indexed": true,
          "internalType": "address",
          "name": "validator",
          "type": "address"
        }
      ],
      "name": "ValidatorAdded",
      "type": "event"
    },
    {
      "anonymous": false,
      "inputs": [
        {
          "indexed": true,
          "internalType": "address",
          "name": "validator",
          "type": "address"
        }
      ],
      "name": "ValidatorRemoved",
      "type": "event"
    },
    {
      "inputs": [],
      "name": "acceptOwnership",
      "outputs": [],
      "stateMutability": "nonpayable",
      "type": "function"
    },
    {
      "inputs": [
        {
          "internalType": "address",
          "name": "_validator",
          "type": "address"
        }
      ],
      "name": "addValidator",
      "outputs": [],
      "stateMutability": "nonpayable",
      "type": "function"
    },
    {
      "inputs": [
        {
          "internalType": "address",
          "name": "_verifyFeeSelector",
          "type": "address"
        }
      ],
      "name": "changeVerifyFeeSelector",
      "outputs": [],
      "stateMutability": "nonpayable",
      "type": "function"
    },
    {
      "inputs": [
        {
          "internalType": "address",
          "name": "holder",
          "type": "address"
        },
        {
          "internalType": "bytes32",
          "name": "deviceHash",
          "type": "bytes32"
        },
        {
          "internalType": "uint256",
          "name": "startTimestamp",
          "type": "uint256"
        },
        {
          "internalType": "uint256",
          "name": "endTimestamp",
          "type": "uint256"
        }
      ],
      "name": "generateDeviceDigest",
      "outputs": [
        {
          "internalType": "bytes32",
          "name": "",
          "type": "bytes32"
        }
      ],
      "stateMutability": "pure",
      "type": "function"
    },
    {
      "inputs": [
        {
          "internalType": "address",
          "name": "holder",
          "type": "address"
        },
        {
          "internalType": "int256",
          "name": "lat",
          "type": "int256"
        },
        {
          "internalType": "int256",
          "name": "long",
          "type": "int256"
        },
        {
          "internalType": "uint256",
          "name": "distance",
          "type": "uint256"
        },
        {
          "internalType": "bytes32",
          "name": "deviceHash",
          "type": "bytes32"
        },
        {
          "internalType": "uint256",
          "name": "startTimestamp",
          "type": "uint256"
        },
        {
          "internalType": "uint256",
          "name": "endTimestamp",
          "type": "uint256"
        }
      ],
      "name": "generateLocationDistanceDigest",
      "outputs": [
        {
          "internalType": "bytes32",
          "name": "",
          "type": "bytes32"
        }
      ],
      "stateMutability": "pure",
      "type": "function"
    },
    {
      "inputs": [
        {
          "internalType": "address[]",
          "name": "_validators",
          "type": "address[]"
        },
        {
          "internalType": "address",
          "name": "_verifyFeeSelector",
          "type": "address"
        }
      ],
      "name": "initialize",
      "outputs": [],
      "stateMutability": "nonpayable",
      "type": "function"
    },
    {
      "inputs": [
        {
          "internalType": "address",
          "name": "_account",
          "type": "address"
        }
      ],
      "name": "isValidator",
      "outputs": [
        {
          "internalType": "bool",
          "name": "",
          "type": "bool"
        }
      ],
      "stateMutability": "view",
      "type": "function"
    },
    {
      "inputs": [],
      "name": "owner",
      "outputs": [
        {
          "internalType": "address",
          "name": "",
          "type": "address"
        }
      ],
      "stateMutability": "view",
      "type": "function"
    },
    {
      "inputs": [],
      "name": "pendingOwner",
      "outputs": [
        {
          "internalType": "address",
          "name": "",
          "type": "address"
        }
      ],
      "stateMutability": "view",
      "type": "function"
    },
    {
      "inputs": [
        {
          "internalType": "address",
          "name": "_prevValidator",
          "type": "address"
        },
        {
          "internalType": "address",
          "name": "_validator",
          "type": "address"
        }
      ],
      "name": "removeValidator",
      "outputs": [],
      "stateMutability": "nonpayable",
      "type": "function"
    },
    {
      "inputs": [],
      "name": "renounceOwnership",
      "outputs": [],
      "stateMutability": "nonpayable",
      "type": "function"
    },
    {
      "inputs": [
        {
          "internalType": "address",
          "name": "newOwner",
          "type": "address"
        }
      ],
      "name": "transferOwnership",
      "outputs": [],
      "stateMutability": "nonpayable",
      "type": "function"
    },
    {
      "inputs": [
        {
          "internalType": "bytes32",
          "name": "hash",
          "type": "bytes32"
        },
        {
          "internalType": "bytes",
          "name": "signature",
          "type": "bytes"
        }
      ],
      "name": "verify",
      "outputs": [
        {
          "internalType": "bool",
          "name": "",
          "type": "bool"
        }
      ],
      "stateMutability": "payable",
      "type": "function"
    },
    {
      "inputs": [],
      "name": "verifyFeeSelector",
      "outputs": [
        {
          "internalType": "contract IVerifyFeeSelector",
          "name": "",
          "type": "address"
        }
      ],
      "stateMutability": "view",
      "type": "function"
    },
    {
      "inputs": [
        {
          "internalType": "address payable",
          "name": "to",
          "type": "address"
        },
        {
          "internalType": "uint256",
          "name": "amount",
          "type": "uint256"
        }
      ],
      "name": "withdrawFee",
      "outputs": [],
      "stateMutability": "nonpayable",
      "type": "function"
    }
  ],
  "transactionHash": "0x837a1a82b204a17855229e493d00045a4d625fe01f097ee66aaa2c229d9740a3",
  "args": [],
  "numDeployments": 1,
  "solcInputHash": "c278b9be090bcac898054e7530e910b4",
  "bytecode": "0x608060405234801561001057600080fd5b50611a71806100206000396000f3fe6080604052600436106100e85760003560e01c80638da5cb5b1161008a578063e30c397811610059578063e30c39781461028e578063f2fde38b146102b9578063facd743b146102d9578063fd9be522146102f957600080fd5b80638da5cb5b146101cf57806396cb4c0d14610221578063b17644c914610241578063b499ffd11461026e57600080fd5b8063462d0b2e116100c6578063462d0b2e146101655780634d238c8e14610185578063715018a6146101a557806379ba5097146101ba57600080fd5b80631618d100146100ed578063258ae5821461010f57806343d4b6a714610137575b600080fd5b3480156100f957600080fd5b5061010d610108366004611627565b610319565b005b61012261011d3660046116c9565b6103d0565b60405190151581526020015b60405180910390f35b34801561014357600080fd5b50610157610152366004611786565b6105c3565b60405190815260200161012e565b34801561017157600080fd5b5061010d6101803660046117c1565b61067c565b34801561019157600080fd5b5061010d6101a0366004611627565b610a5a565b3480156101b157600080fd5b5061010d610c30565b3480156101c657600080fd5b5061010d610c44565b3480156101db57600080fd5b5060005462010000900473ffffffffffffffffffffffffffffffffffffffff165b60405173ffffffffffffffffffffffffffffffffffffffff909116815260200161012e565b34801561022d57600080fd5b5061010d61023c366004611885565b610cfa565b34801561024d57600080fd5b506003546101fc9073ffffffffffffffffffffffffffffffffffffffff1681565b34801561027a57600080fd5b506101576102893660046118be565b610e98565b34801561029a57600080fd5b5060015473ffffffffffffffffffffffffffffffffffffffff166101fc565b3480156102c557600080fd5b5061010d6102d4366004611627565b610f69565b3480156102e557600080fd5b506101226102f4366004611627565b611020565b34801561030557600080fd5b5061010d610314366004611913565b611075565b610321611110565b73ffffffffffffffffffffffffffffffffffffffff81166103895760405162461bcd60e51b815260206004820152601060248201527f696e76616c69642073656c6563746f720000000000000000000000000000000060448201526064015b60405180910390fd5b600380547fffffffffffffffffffffffff00000000000000000000000000000000000000001673ffffffffffffffffffffffffffffffffffffffff92909216919091179055565b6003546040517f3245b622000000000000000000000000000000000000000000000000000000008152336004820152600091829173ffffffffffffffffffffffffffffffffffffffff90911690633245b62290602401602060405180830381865afa158015610443573d6000803e3d6000fd5b505050506040513d601f19601f82011682018060405250810190610467919061193f565b6040517f6704fe9f00000000000000000000000000000000000000000000000000000000815233600482015234602482015290915073ffffffffffffffffffffffffffffffffffffffff821690636704fe9f906044016020604051808303816000875af11580156104dc573d6000803e3d6000fd5b505050506040513d601f19601f82011682018060405250810190610500919061195c565b61054c5760405162461bcd60e51b815260206004820152600b60248201527f696e76616c6964206665650000000000000000000000000000000000000000006044820152606401610380565b60006105af846105a9876040517f19457468657265756d205369676e6564204d6573736167653a0a3332000000006020820152603c8101829052600090605c01604051602081830303815290604052805190602001209050919050565b9061117e565b90506105ba81611020565b95945050505050565b6000828210156106155760405162461bcd60e51b815260206004820152601160248201527f696e76616c69642074696d657374616d700000000000000000000000000000006044820152606401610380565b6040517fffffffffffffffffffffffffffffffffffffffff000000000000000000000000606087901b166020820152603481018590526054810184905260748101839052609401604051602081830303815290604052805190602001209050949350505050565b600054610100900460ff161580801561069c5750600054600160ff909116105b806106b65750303b1580156106b6575060005460ff166001145b6107285760405162461bcd60e51b815260206004820152602e60248201527f496e697469616c697a61626c653a20636f6e747261637420697320616c72656160448201527f647920696e697469616c697a65640000000000000000000000000000000000006064820152608401610380565b600080547fffffffffffffffffffffffffffffffffffffffffffffffffffffffffffffff00166001179055801561078657600080547fffffffffffffffffffffffffffffffffffffffffffffffffffffffffffff00ff166101001790555b61078e6111a2565b600160005b845181101561098f5760008582815181106107b0576107b061197e565b60200260200101519050600073ffffffffffffffffffffffffffffffffffffffff168173ffffffffffffffffffffffffffffffffffffffff161415801561080e575073ffffffffffffffffffffffffffffffffffffffff8116600114155b8015610830575073ffffffffffffffffffffffffffffffffffffffff81163014155b801561086857508073ffffffffffffffffffffffffffffffffffffffff168373ffffffffffffffffffffffffffffffffffffffff1614155b6108b45760405162461bcd60e51b815260206004820152601160248201527f696e76616c69642076616c696461746f720000000000000000000000000000006044820152606401610380565b73ffffffffffffffffffffffffffffffffffffffff81811660009081526002602052604090205416156109295760405162461bcd60e51b815260206004820152601260248201527f72657065617465642076616c696461746f7200000000000000000000000000006044820152606401610380565b73ffffffffffffffffffffffffffffffffffffffff928316600090815260026020526040902080547fffffffffffffffffffffffff0000000000000000000000000000000000000000169382169390931790925580610987816119ad565b915050610793565b5073ffffffffffffffffffffffffffffffffffffffff9081166000908152600260205260409020805460017fffffffffffffffffffffffff000000000000000000000000000000000000000091821617909155600380549091169184169190911790558015610a5557600080547fffffffffffffffffffffffffffffffffffffffffffffffffffffffffffff00ff169055604051600181527f7f26b83ff96e1f2b6a682f133852f6798a09c465da95921460cefb38474024989060200160405180910390a15b505050565b610a62611110565b73ffffffffffffffffffffffffffffffffffffffff811615801590610a9e575073ffffffffffffffffffffffffffffffffffffffff8116600114155b8015610ac0575073ffffffffffffffffffffffffffffffffffffffff81163014155b610b0c5760405162461bcd60e51b815260206004820152601160248201527f696e76616c69642076616c696461746f720000000000000000000000000000006044820152606401610380565b73ffffffffffffffffffffffffffffffffffffffff8181166000908152600260205260409020541615610b815760405162461bcd60e51b815260206004820152601060248201527f76616c696461746f7220657869737473000000000000000000000000000000006044820152606401610380565b60026020527fe90b7bceb6e7df5418fb78d8ee546e97c83a08bbccc01a0644d599ccd2a7c2e0805473ffffffffffffffffffffffffffffffffffffffff838116600081815260408082208054949095167fffffffffffffffffffffffff000000000000000000000000000000000000000094851617909455600181528454909216811790935590517fe366c1c0452ed8eec96861e9e54141ebff23c9ec89fe27b996b45f5ec38849879190a250565b610c38611110565b610c426000611227565b565b3380610c6560015473ffffffffffffffffffffffffffffffffffffffff1690565b73ffffffffffffffffffffffffffffffffffffffff1614610cee5760405162461bcd60e51b815260206004820152602960248201527f4f776e61626c6532537465703a2063616c6c6572206973206e6f74207468652060448201527f6e6577206f776e657200000000000000000000000000000000000000000000006064820152608401610380565b610cf781611227565b50565b610d02611110565b73ffffffffffffffffffffffffffffffffffffffff811615801590610d3e575073ffffffffffffffffffffffffffffffffffffffff8116600114155b610d8a5760405162461bcd60e51b815260206004820152601160248201527f696e76616c69642076616c696461746f720000000000000000000000000000006044820152606401610380565b73ffffffffffffffffffffffffffffffffffffffff828116600090815260026020526040902054811690821614610e035760405162461bcd60e51b815260206004820152601860248201527f6572726f722070726576696f75732076616c696461746f7200000000000000006044820152606401610380565b73ffffffffffffffffffffffffffffffffffffffff818116600081815260026020526040808220805487861684528284208054919096167fffffffffffffffffffffffff0000000000000000000000000000000000000000918216179095558383528054909416909355915190917fe1434e25d6611e0db941968fdc97811c982ac1602e951637d206f5fdda9dd8f191a25050565b600082821015610eea5760405162461bcd60e51b815260206004820152601160248201527f696e76616c69642074696d657374616d700000000000000000000000000000006044820152606401610380565b6040517fffffffffffffffffffffffffffffffffffffffff00000000000000000000000060608a901b1660208201526034810188905260548101879052607481018690526094810185905260b4810184905260d4810183905260f401604051602081830303815290604052805190602001209050979650505050505050565b610f71611110565b6001805473ffffffffffffffffffffffffffffffffffffffff83167fffffffffffffffffffffffff00000000000000000000000000000000000000009091168117909155610fdb60005473ffffffffffffffffffffffffffffffffffffffff620100009091041690565b73ffffffffffffffffffffffffffffffffffffffff167f38d16b8cac22d99fc7c124b9cd0de2d3fa1faef420bfe791d8c362d765e2270060405160405180910390a350565b600073ffffffffffffffffffffffffffffffffffffffff821660011480159061106f575073ffffffffffffffffffffffffffffffffffffffff8281166000908152600260205260409020541615155b92915050565b61107d611110565b804710156110cd5760405162461bcd60e51b815260206004820152601460248201527f696e73756666696369656e742062616c616e63650000000000000000000000006044820152606401610380565b60405173ffffffffffffffffffffffffffffffffffffffff83169082156108fc029083906000818181858888f19350505050158015610a55573d6000803e3d6000fd5b60005473ffffffffffffffffffffffffffffffffffffffff62010000909104163314610c425760405162461bcd60e51b815260206004820181905260248201527f4f776e61626c653a2063616c6c6572206973206e6f7420746865206f776e65726044820152606401610380565b600080600061118d8585611258565b9150915061119a8161129d565b509392505050565b600054610100900460ff1661121f5760405162461bcd60e51b815260206004820152602b60248201527f496e697469616c697a61626c653a20636f6e7472616374206973206e6f74206960448201527f6e697469616c697a696e670000000000000000000000000000000000000000006064820152608401610380565b610c42611402565b600180547fffffffffffffffffffffffff0000000000000000000000000000000000000000169055610cf781611488565b600080825160410361128e5760208301516040840151606085015160001a61128287828585611506565b94509450505050611296565b506000905060025b9250929050565b60008160048111156112b1576112b1611a0c565b036112b95750565b60018160048111156112cd576112cd611a0c565b0361131a5760405162461bcd60e51b815260206004820152601860248201527f45434453413a20696e76616c6964207369676e617475726500000000000000006044820152606401610380565b600281600481111561132e5761132e611a0c565b0361137b5760405162461bcd60e51b815260206004820152601f60248201527f45434453413a20696e76616c6964207369676e6174757265206c656e677468006044820152606401610380565b600381600481111561138f5761138f611a0c565b03610cf75760405162461bcd60e51b815260206004820152602260248201527f45434453413a20696e76616c6964207369676e6174757265202773272076616c60448201527f75650000000000000000000000000000000000000000000000000000000000006064820152608401610380565b600054610100900460ff1661147f5760405162461bcd60e51b815260206004820152602b60248201527f496e697469616c697a61626c653a20636f6e7472616374206973206e6f74206960448201527f6e697469616c697a696e670000000000000000000000000000000000000000006064820152608401610380565b610c4233611227565b6000805473ffffffffffffffffffffffffffffffffffffffff838116620100008181027fffffffffffffffffffff0000000000000000000000000000000000000000ffff851617855560405193049190911692909183917f8be0079c531659141344cd1fd0a4f28419497f9722a3daafe3b4186f6b6457e091a35050565b6000807f7fffffffffffffffffffffffffffffff5d576e7357a4501ddfe92f46681b20a083111561153d57506000905060036115ec565b6040805160008082526020820180845289905260ff881692820192909252606081018690526080810185905260019060a0016020604051602081039080840390855afa158015611591573d6000803e3d6000fd5b50506040517fffffffffffffffffffffffffffffffffffffffffffffffffffffffffffffffe0015191505073ffffffffffffffffffffffffffffffffffffffff81166115e5576000600192509250506115ec565b9150600090505b94509492505050565b73ffffffffffffffffffffffffffffffffffffffff81168114610cf757600080fd5b8035611622816115f5565b919050565b60006020828403121561163957600080fd5b8135611644816115f5565b9392505050565b7f4e487b7100000000000000000000000000000000000000000000000000000000600052604160045260246000fd5b604051601f82017fffffffffffffffffffffffffffffffffffffffffffffffffffffffffffffffe016810167ffffffffffffffff811182821017156116c1576116c161164b565b604052919050565b600080604083850312156116dc57600080fd5b8235915060208084013567ffffffffffffffff808211156116fc57600080fd5b818601915086601f83011261171057600080fd5b8135818111156117225761172261164b565b611752847fffffffffffffffffffffffffffffffffffffffffffffffffffffffffffffffe0601f8401160161167a565b9150808252878482850101111561176857600080fd5b80848401858401376000848284010152508093505050509250929050565b6000806000806080858703121561179c57600080fd5b84356117a7816115f5565b966020860135965060408601359560600135945092505050565b600080604083850312156117d457600080fd5b823567ffffffffffffffff808211156117ec57600080fd5b818501915085601f83011261180057600080fd5b81356020828211156118145761181461164b565b8160051b925061182581840161167a565b828152928401810192818101908985111561183f57600080fd5b948201945b848610156118695785359350611859846115f5565b8382529482019490820190611844565b96506118789050878201611617565b9450505050509250929050565b6000806040838503121561189857600080fd5b82356118a3816115f5565b915060208301356118b3816115f5565b809150509250929050565b600080600080600080600060e0888a0312156118d957600080fd5b87356118e4816115f5565b9960208901359950604089013598606081013598506080810135975060a0810135965060c00135945092505050565b6000806040838503121561192657600080fd5b8235611931816115f5565b946020939093013593505050565b60006020828403121561195157600080fd5b8151611644816115f5565b60006020828403121561196e57600080fd5b8151801515811461164457600080fd5b7f4e487b7100000000000000000000000000000000000000000000000000000000600052603260045260246000fd5b60007fffffffffffffffffffffffffffffffffffffffffffffffffffffffffffffffff8203611a05577f4e487b7100000000000000000000000000000000000000000000000000000000600052601160045260246000fd5b5060010190565b7f4e487b7100000000000000000000000000000000000000000000000000000000600052602160045260246000fdfea264697066735822122070395e7ee866d53cdb2112a505ee9bc7aa1a09044b7346463e3418be03dca42164736f6c63430008110033",
  "devdoc": {
    "kind": "dev",
    "methods": {},
    "version": 1
  },
  "userdoc": {
    "kind": "user",
    "methods": {},
    "version": 1
  },
  "storageLayout": {
    "storage": [
      {
        "astId": 119,
        "contract": "contracts/MetapebbleDataVerifier.sol:MetapebbleDataVerifier",
        "label": "_initialized",
        "offset": 0,
        "slot": "0",
        "type": "t_uint8"
      },
      {
        "astId": 122,
        "contract": "contracts/MetapebbleDataVerifier.sol:MetapebbleDataVerifier",
        "label": "_initializing",
        "offset": 1,
        "slot": "0",
        "type": "t_bool"
      },
      {
        "astId": 2660,
        "contract": "contracts/MetapebbleDataVerifier.sol:MetapebbleDataVerifier",
        "label": "_owner",
        "offset": 2,
        "slot": "0",
        "type": "t_address"
      },
      {
        "astId": 2581,
        "contract": "contracts/MetapebbleDataVerifier.sol:MetapebbleDataVerifier",
        "label": "_pendingOwner",
        "offset": 0,
        "slot": "1",
        "type": "t_address"
      },
      {
        "astId": 2077,
        "contract": "contracts/MetapebbleDataVerifier.sol:MetapebbleDataVerifier",
        "label": "validators",
        "offset": 0,
        "slot": "2",
        "type": "t_mapping(t_address,t_address)"
      },
      {
        "astId": 2080,
        "contract": "contracts/MetapebbleDataVerifier.sol:MetapebbleDataVerifier",
        "label": "verifyFeeSelector",
        "offset": 0,
        "slot": "3",
        "type": "t_contract(IVerifyFeeSelector)2560"
      }
    ],
    "types": {
      "t_address": {
        "encoding": "inplace",
        "label": "address",
        "numberOfBytes": "20"
      },
      "t_bool": {
        "encoding": "inplace",
        "label": "bool",
        "numberOfBytes": "1"
      },
      "t_contract(IVerifyFeeSelector)2560": {
        "encoding": "inplace",
        "label": "contract IVerifyFeeSelector",
        "numberOfBytes": "20"
      },
      "t_mapping(t_address,t_address)": {
        "encoding": "mapping",
        "key": "t_address",
        "label": "mapping(address => address)",
        "numberOfBytes": "32",
        "value": "t_address"
      },
      "t_uint8": {
        "encoding": "inplace",
        "label": "uint8",
        "numberOfBytes": "1"
      }
    }
  }
}