{
  "address": "0x5F20fB1baA05c4E9975EF26eb73778557bB26ED7",
  "abi": [
    {
      "inputs": [
        {
          "internalType": "int256",
          "name": "_lat",
          "type": "int256"
        },
        {
          "internalType": "int256",
          "name": "_long",
          "type": "int256"
        },
        {
          "internalType": "uint256",
          "name": "_maxDistance",
          "type": "uint256"
        },
        {
          "internalType": "uint256",
          "name": "_startTimestamp",
          "type": "uint256"
        },
        {
          "internalType": "uint256",
          "name": "_endTimestamp",
          "type": "uint256"
        },
        {
          "internalType": "address",
          "name": "_verifier",
          "type": "address"
        },
        {
          "internalType": "uint256",
          "name": "_amount",
          "type": "uint256"
        }
      ],
      "stateMutability": "nonpayable",
      "type": "constructor"
    },
    {
      "anonymous": false,
      "inputs": [
        {
          "indexed": true,
          "internalType": "address",
          "name": "holder",
          "type": "address"
        },
        {
          "indexed": true,
          "internalType": "bytes32",
          "name": "deviceHash",
          "type": "bytes32"
        },
        {
          "indexed": false,
          "internalType": "uint256",
          "name": "amount",
          "type": "uint256"
        }
      ],
      "name": "Claimed",
      "type": "event"
    },
    {
      "anonymous": false,
      "inputs": [
        {
          "indexed": true,
          "internalType": "address",
          "name": "previousOwner",
          "type": "address"
        },
        {
          "indexed": true,
          "internalType": "address",
          "name": "newOwner",
          "type": "address"
        }
      ],
      "name": "OwnershipTransferred",
      "type": "event"
    },
    {
      "inputs": [],
      "name": "AMOUNT_PER_DEVICE",
      "outputs": [
        {
          "internalType": "uint256",
          "name": "",
          "type": "uint256"
        }
      ],
      "stateMutability": "view",
      "type": "function"
    },
    {
      "inputs": [
        {
          "internalType": "uint256",
          "name": "distance",
          "type": "uint256"
        },
        {
          "internalType": "bytes32",
          "name": "deviceHash",
          "type": "bytes32"
        },
        {
          "internalType": "bytes",
          "name": "signature",
          "type": "bytes"
        }
      ],
      "name": "claim",
      "outputs": [],
      "stateMutability": "payable",
      "type": "function"
    },
    {
      "inputs": [
        {
          "internalType": "address payable",
          "name": "holder",
          "type": "address"
        },
        {
          "internalType": "uint256",
          "name": "distance",
          "type": "uint256"
        },
        {
          "internalType": "bytes32",
          "name": "deviceHash",
          "type": "bytes32"
        },
        {
          "internalType": "bytes",
          "name": "signature",
          "type": "bytes"
        }
      ],
      "name": "claim",
      "outputs": [],
      "stateMutability": "payable",
      "type": "function"
    },
    {
      "inputs": [],
      "name": "claimFee",
      "outputs": [
        {
          "internalType": "uint256",
          "name": "",
          "type": "uint256"
        }
      ],
      "stateMutability": "view",
      "type": "function"
    },
    {
      "inputs": [],
      "name": "claimable",
      "outputs": [
        {
          "internalType": "bool",
          "name": "",
          "type": "bool"
        }
      ],
      "stateMutability": "view",
      "type": "function"
    },
    {
      "inputs": [
        {
          "internalType": "bytes32",
          "name": "deviceHash_",
          "type": "bytes32"
        }
      ],
      "name": "claimed",
      "outputs": [
        {
          "internalType": "bool",
          "name": "",
          "type": "bool"
        }
      ],
      "stateMutability": "view",
      "type": "function"
    },
    {
      "inputs": [],
      "name": "endTimestamp",
      "outputs": [
        {
          "internalType": "uint256",
          "name": "",
          "type": "uint256"
        }
      ],
      "stateMutability": "view",
      "type": "function"
    },
    {
      "inputs": [],
      "name": "lat",
      "outputs": [
        {
          "internalType": "int256",
          "name": "",
          "type": "int256"
        }
      ],
      "stateMutability": "view",
      "type": "function"
    },
    {
      "inputs": [],
      "name": "long",
      "outputs": [
        {
          "internalType": "int256",
          "name": "",
          "type": "int256"
        }
      ],
      "stateMutability": "view",
      "type": "function"
    },
    {
      "inputs": [],
      "name": "maxDistance",
      "outputs": [
        {
          "internalType": "uint256",
          "name": "",
          "type": "uint256"
        }
      ],
      "stateMutability": "view",
      "type": "function"
    },
    {
      "inputs": [],
      "name": "owner",
      "outputs": [
        {
          "internalType": "address",
          "name": "",
          "type": "address"
        }
      ],
      "stateMutability": "view",
      "type": "function"
    },
    {
      "inputs": [],
      "name": "refund",
      "outputs": [],
      "stateMutability": "nonpayable",
      "type": "function"
    },
    {
      "inputs": [],
      "name": "renounceOwnership",
      "outputs": [],
      "stateMutability": "nonpayable",
      "type": "function"
    },
    {
      "inputs": [],
      "name": "startTimestamp",
      "outputs": [
        {
          "internalType": "uint256",
          "name": "",
          "type": "uint256"
        }
      ],
      "stateMutability": "view",
      "type": "function"
    },
    {
      "inputs": [
        {
          "internalType": "address",
          "name": "newOwner",
          "type": "address"
        }
      ],
      "name": "transferOwnership",
      "outputs": [],
      "stateMutability": "nonpayable",
      "type": "function"
    },
    {
      "inputs": [],
      "name": "verifier",
      "outputs": [
        {
          "internalType": "contract IMetapebbleDataVerifier",
          "name": "",
          "type": "address"
        }
      ],
      "stateMutability": "view",
      "type": "function"
    },
    {
      "stateMutability": "payable",
      "type": "receive"
    }
  ],
  "transactionHash": "0x22c5d791f1d4e44521ed95b136716a7c1f297be5518d649f56694e1f33117aad",
  "args": [
    120520000,
    30400000,
    1000,
    1675928762,
    1676792762,
    "0xB9ae925fF8318915e3266e0EA41a37408033caC6",
    "1000000000000000000"
  ],
  "numDeployments": 3,
  "solcInputHash": "9a1867230a87fb8ee6b40b5b8aa18c82",
  "bytecode": "0x608060405234801561001057600080fd5b506040516111e63803806111e683398101604081905261002f916101a0565b61003833610150565b600180558061007f5760405162461bcd60e51b815260206004820152600e60248201526d1a5b9d985b1a5908185b5bdd5b9d60921b60448201526064015b60405180910390fd5b428411801561008d57508383115b6100ce5760405162461bcd60e51b8152602060048201526012602482015271696e76616c69642074696d652072616e676560701b6044820152606401610076565b846000036101115760405162461bcd60e51b815260206004820152601060248201526f696e76616c69642064697374616e636560801b6044820152606401610076565b600596909655600694909455600792909255600855600955600380546001600160a01b0319166001600160a01b0390921691909117905560025561020f565b600080546001600160a01b038381166001600160a01b0319831681178455604051919092169283917f8be0079c531659141344cd1fd0a4f28419497f9722a3daafe3b4186f6b6457e09190a35050565b600080600080600080600060e0888a0312156101bb57600080fd5b8751602089015160408a015160608b015160808c015160a08d0151949b50929950909750955093506001600160a01b03811681146101f857600080fd5b8092505060c0880151905092959891949750929550565b610fc88061021e6000396000f3fe6080604052600436106100f75760003560e01c80638da5cb5b1161008a578063af38d75711610059578063af38d757146102df578063cc3c0f0614610303578063e6fd48bc14610348578063f2fde38b1461035e57600080fd5b80638da5cb5b1461027357806399d32fc41461029e578063a2abcfe8146102b3578063a85adeab146102c957600080fd5b80636e3dc992116100c65780636e3dc99214610222578063715018a6146102385780638127bcf21461024d5780638d9fa7bb1461026057600080fd5b806307bfce371461017c5780632b7ac3f3146101a557806355d576cc146101f7578063590e1ae31461020d57600080fd5b36610177576002546101099034610c5f565b15610175576040517f08c379a000000000000000000000000000000000000000000000000000000000815260206004820152600e60248201527f696e76616c696420616d6f756e7400000000000000000000000000000000000060448201526064015b60405180910390fd5b005b600080fd5b34801561018857600080fd5b5061019260065481565b6040519081526020015b60405180910390f35b3480156101b157600080fd5b506003546101d29073ffffffffffffffffffffffffffffffffffffffff1681565b60405173ffffffffffffffffffffffffffffffffffffffff909116815260200161019c565b34801561020357600080fd5b5061019260055481565b34801561021957600080fd5b5061017561037e565b34801561022e57600080fd5b5061019260075481565b34801561024457600080fd5b506101756103b5565b61017561025b366004610d74565b6103c9565b61017561026e366004610de6565b6103db565b34801561027f57600080fd5b5060005473ffffffffffffffffffffffffffffffffffffffff166101d2565b3480156102aa57600080fd5b506101926103ee565b3480156102bf57600080fd5b5061019260025481565b3480156102d557600080fd5b5061019260095481565b3480156102eb57600080fd5b506002544710155b604051901515815260200161019c565b34801561030f57600080fd5b506102f361031e366004610e49565b60009081526004602052604090205473ffffffffffffffffffffffffffffffffffffffff16151590565b34801561035457600080fd5b5061019260085481565b34801561036a57600080fd5b50610175610379366004610e62565b6105a7565b61038661065b565b60405133904780156108fc02916000818181858888f193505050501580156103b2573d6000803e3d6000fd5b50565b6103bd61065b565b6103c760006106dc565b565b6103d63384848434610751565b505050565b6103e88484848434610751565b50505050565b600354604080517fb17644c9000000000000000000000000000000000000000000000000000000008152905160009273ffffffffffffffffffffffffffffffffffffffff169163b17644c99160048083019260209291908290030181865afa15801561045e573d6000803e3d6000fd5b505050506040513d601f19601f820116820180604052508101906104829190610e86565b6040517f3245b62200000000000000000000000000000000000000000000000000000000815230600482015273ffffffffffffffffffffffffffffffffffffffff9190911690633245b62290602401602060405180830381865afa1580156104ee573d6000803e3d6000fd5b505050506040513d601f19601f820116820180604052508101906105129190610e86565b6040517f6fcca69b00000000000000000000000000000000000000000000000000000000815230600482015273ffffffffffffffffffffffffffffffffffffffff9190911690636fcca69b90602401602060405180830381865afa15801561057e573d6000803e3d6000fd5b505050506040513d601f19601f820116820180604052508101906105a29190610ea3565b905090565b6105af61065b565b73ffffffffffffffffffffffffffffffffffffffff8116610652576040517f08c379a000000000000000000000000000000000000000000000000000000000815260206004820152602660248201527f4f776e61626c653a206e6577206f776e657220697320746865207a65726f206160448201527f6464726573730000000000000000000000000000000000000000000000000000606482015260840161016c565b6103b2816106dc565b60005473ffffffffffffffffffffffffffffffffffffffff1633146103c7576040517f08c379a000000000000000000000000000000000000000000000000000000000815260206004820181905260248201527f4f776e61626c653a2063616c6c6572206973206e6f7420746865206f776e6572604482015260640161016c565b6000805473ffffffffffffffffffffffffffffffffffffffff8381167fffffffffffffffffffffffff0000000000000000000000000000000000000000831681178455604051919092169283917f8be0079c531659141344cd1fd0a4f28419497f9722a3daafe3b4186f6b6457e09190a35050565b610759610bec565b60008381526004602052604090205473ffffffffffffffffffffffffffffffffffffffff16156107e5576040517f08c379a000000000000000000000000000000000000000000000000000000000815260206004820152600f60248201527f616c726561647920636c61696d65640000000000000000000000000000000000604482015260640161016c565b6002546107f23447610ebc565b101561085a576040517f08c379a000000000000000000000000000000000000000000000000000000000815260206004820152600760248201527f6e6f2066756e6400000000000000000000000000000000000000000000000000604482015260640161016c565b6007548411156108c6576040517f08c379a000000000000000000000000000000000000000000000000000000000815260206004820152601060248201527f696e76616c6964206c6f636174696f6e00000000000000000000000000000000604482015260640161016c565b6108ce6103ee565b341015610937576040517f08c379a000000000000000000000000000000000000000000000000000000000815260206004820152601160248201527f6d69737320766572696669657220666565000000000000000000000000000000604482015260640161016c565b6003546005546006546008546009546040517fb499ffd100000000000000000000000000000000000000000000000000000000815273ffffffffffffffffffffffffffffffffffffffff8b8116600483015260248201959095526044810193909352606483018990526084830188905260a483019190915260c4820152600092919091169063b499ffd19060e401602060405180830381865afa1580156109e2573d6000803e3d6000fd5b505050506040513d601f19601f82011682018060405250810190610a069190610ea3565b6003546040517f258ae58200000000000000000000000000000000000000000000000000000000815291925073ffffffffffffffffffffffffffffffffffffffff169063258ae582908490610a619085908890600401610efc565b60206040518083038185885af1158015610a7f573d6000803e3d6000fd5b50505050506040513d601f19601f82011682018060405250810190610aa49190610f70565b610b0a576040517f08c379a000000000000000000000000000000000000000000000000000000000815260206004820152601160248201527f696e76616c6964207369676e6174757265000000000000000000000000000000604482015260640161016c565b60008481526004602052604080822080547fffffffffffffffffffffffff00000000000000000000000000000000000000001673ffffffffffffffffffffffffffffffffffffffff8a16908117909155600254915190926108fc831502929190818181858888f19350505050158015610b87573d6000803e3d6000fd5b50838673ffffffffffffffffffffffffffffffffffffffff167f9b01158d4bc10c112ba32b5240cda97e49e2eb86021f03f6a0f460342ac4dfda600254604051610bd391815260200190565b60405180910390a350610be560018055565b5050505050565b600260015403610c58576040517f08c379a000000000000000000000000000000000000000000000000000000000815260206004820152601f60248201527f5265656e7472616e637947756172643a207265656e7472616e742063616c6c00604482015260640161016c565b6002600155565b600082610c95577f4e487b7100000000000000000000000000000000000000000000000000000000600052601260045260246000fd5b500690565b7f4e487b7100000000000000000000000000000000000000000000000000000000600052604160045260246000fd5b600082601f830112610cda57600080fd5b813567ffffffffffffffff80821115610cf557610cf5610c9a565b604051601f83017fffffffffffffffffffffffffffffffffffffffffffffffffffffffffffffffe0908116603f01168101908282118183101715610d3b57610d3b610c9a565b81604052838152866020858801011115610d5457600080fd5b836020870160208301376000602085830101528094505050505092915050565b600080600060608486031215610d8957600080fd5b8335925060208401359150604084013567ffffffffffffffff811115610dae57600080fd5b610dba86828701610cc9565b9150509250925092565b73ffffffffffffffffffffffffffffffffffffffff811681146103b257600080fd5b60008060008060808587031215610dfc57600080fd5b8435610e0781610dc4565b93506020850135925060408501359150606085013567ffffffffffffffff811115610e3157600080fd5b610e3d87828801610cc9565b91505092959194509250565b600060208284031215610e5b57600080fd5b5035919050565b600060208284031215610e7457600080fd5b8135610e7f81610dc4565b9392505050565b600060208284031215610e9857600080fd5b8151610e7f81610dc4565b600060208284031215610eb557600080fd5b5051919050565b81810381811115610ef6577f4e487b7100000000000000000000000000000000000000000000000000000000600052601160045260246000fd5b92915050565b82815260006020604081840152835180604085015260005b81811015610f3057858101830151858201606001528201610f14565b5060006060828601015260607fffffffffffffffffffffffffffffffffffffffffffffffffffffffffffffffe0601f830116850101925050509392505050565b600060208284031215610f8257600080fd5b81518015158114610e7f57600080fdfea2646970667358221220d8a3179214daf4b8c5a302371ac0b915acfcab0f262ec6a367b85743c54f9e9664736f6c63430008110033",
  "devdoc": {
    "kind": "dev",
    "methods": {
      "owner()": {
        "details": "Returns the address of the current owner."
      },
      "renounceOwnership()": {
        "details": "Leaves the contract without owner. It will not be possible to call `onlyOwner` functions anymore. Can only be called by the current owner. NOTE: Renouncing ownership will leave the contract without an owner, thereby removing any functionality that is only available to the owner."
      },
      "transferOwnership(address)": {
        "details": "Transfers ownership of the contract to a new account (`newOwner`). Can only be called by the current owner."
      }
    },
    "version": 1
  },
  "userdoc": {
    "kind": "user",
    "methods": {},
    "version": 1
  },
  "storageLayout": {
    "storage": [
      {
        "astId": 7,
        "contract": "contracts/examples/MetapebbleVerifiedDrop.sol:MetapebbleVerifiedDrop",
        "label": "_owner",
        "offset": 0,
        "slot": "0",
        "type": "t_address"
      },
      {
        "astId": 123,
        "contract": "contracts/examples/MetapebbleVerifiedDrop.sol:MetapebbleVerifiedDrop",
        "label": "_status",
        "offset": 0,
        "slot": "1",
        "type": "t_uint256"
      },
      {
        "astId": 209,
        "contract": "contracts/examples/MetapebbleVerifiedDrop.sol:MetapebbleVerifiedDrop",
        "label": "AMOUNT_PER_DEVICE",
        "offset": 0,
        "slot": "2",
        "type": "t_uint256"
      },
      {
        "astId": 212,
        "contract": "contracts/examples/MetapebbleVerifiedDrop.sol:MetapebbleVerifiedDrop",
        "label": "verifier",
        "offset": 0,
        "slot": "3",
        "type": "t_contract(IMetapebbleDataVerifier)591"
      },
      {
        "astId": 216,
        "contract": "contracts/examples/MetapebbleVerifiedDrop.sol:MetapebbleVerifiedDrop",
        "label": "_claimedDevices",
        "offset": 0,
        "slot": "4",
        "type": "t_mapping(t_bytes32,t_address)"
      },
      {
        "astId": 218,
        "contract": "contracts/examples/MetapebbleVerifiedDrop.sol:MetapebbleVerifiedDrop",
        "label": "lat",
        "offset": 0,
        "slot": "5",
        "type": "t_int256"
      },
      {
        "astId": 220,
        "contract": "contracts/examples/MetapebbleVerifiedDrop.sol:MetapebbleVerifiedDrop",
        "label": "long",
        "offset": 0,
        "slot": "6",
        "type": "t_int256"
      },
      {
        "astId": 222,
        "contract": "contracts/examples/MetapebbleVerifiedDrop.sol:MetapebbleVerifiedDrop",
        "label": "maxDistance",
        "offset": 0,
        "slot": "7",
        "type": "t_uint256"
      },
      {
        "astId": 224,
        "contract": "contracts/examples/MetapebbleVerifiedDrop.sol:MetapebbleVerifiedDrop",
        "label": "startTimestamp",
        "offset": 0,
        "slot": "8",
        "type": "t_uint256"
      },
      {
        "astId": 226,
        "contract": "contracts/examples/MetapebbleVerifiedDrop.sol:MetapebbleVerifiedDrop",
        "label": "endTimestamp",
        "offset": 0,
        "slot": "9",
        "type": "t_uint256"
      }
    ],
    "types": {
      "t_address": {
        "encoding": "inplace",
        "label": "address",
        "numberOfBytes": "20"
      },
      "t_bytes32": {
        "encoding": "inplace",
        "label": "bytes32",
        "numberOfBytes": "32"
      },
      "t_contract(IMetapebbleDataVerifier)591": {
        "encoding": "inplace",
        "label": "contract IMetapebbleDataVerifier",
        "numberOfBytes": "20"
      },
      "t_int256": {
        "encoding": "inplace",
        "label": "int256",
        "numberOfBytes": "32"
      },
      "t_mapping(t_bytes32,t_address)": {
        "encoding": "mapping",
        "key": "t_bytes32",
        "label": "mapping(bytes32 => address)",
        "numberOfBytes": "32",
        "value": "t_address"
      },
      "t_uint256": {
        "encoding": "inplace",
        "label": "uint256",
        "numberOfBytes": "32"
      }
    }
  }
}