{
  "address": "0x78053d8056d64Fa424fb0A8e3949de14b4805242",
  "abi": [
    {
      "anonymous": false,
      "inputs": [
        {
          "indexed": false,
          "internalType": "uint8",
          "name": "version",
          "type": "uint8"
        }
      ],
      "name": "Initialized",
      "type": "event"
    },
    {
      "anonymous": false,
      "inputs": [
        {
          "indexed": true,
          "internalType": "address",
          "name": "previousOwner",
          "type": "address"
        },
        {
          "indexed": true,
          "internalType": "address",
          "name": "newOwner",
          "type": "address"
        }
      ],
      "name": "OwnershipTransferStarted",
      "type": "event"
    },
    {
      "anonymous": false,
      "inputs": [
        {
          "indexed": true,
          "internalType": "address",
          "name": "previousOwner",
          "type": "address"
        },
        {
          "indexed": true,
          "internalType": "address",
          "name": "newOwner",
          "type": "address"
        }
      ],
      "name": "OwnershipTransferred",
      "type": "event"
    },
    {
      "anonymous": false,
      "inputs": [
        {
          "indexed": true,
          "internalType": "address",
          "name": "validator",
          "type": "address"
        }
      ],
      "name": "ValidatorAdded",
      "type": "event"
    },
    {
      "anonymous": false,
      "inputs": [
        {
          "indexed": true,
          "internalType": "address",
          "name": "validator",
          "type": "address"
        }
      ],
      "name": "ValidatorRemoved",
      "type": "event"
    },
    {
      "inputs": [],
      "name": "acceptOwnership",
      "outputs": [],
      "stateMutability": "nonpayable",
      "type": "function"
    },
    {
      "inputs": [
        {
          "internalType": "address",
          "name": "_validator",
          "type": "address"
        }
      ],
      "name": "addValidator",
      "outputs": [],
      "stateMutability": "nonpayable",
      "type": "function"
    },
    {
      "inputs": [
        {
          "internalType": "address",
          "name": "_verifyFeeSelector",
          "type": "address"
        }
      ],
      "name": "changeVerifyFeeSelector",
      "outputs": [],
      "stateMutability": "nonpayable",
      "type": "function"
    },
    {
      "inputs": [
        {
          "internalType": "address",
          "name": "holder",
          "type": "address"
        },
        {
          "internalType": "bytes32",
          "name": "deviceHash",
          "type": "bytes32"
        },
        {
          "internalType": "uint256",
          "name": "startTimestamp",
          "type": "uint256"
        },
        {
          "internalType": "uint256",
          "name": "endTimestamp",
          "type": "uint256"
        }
      ],
      "name": "generateDeviceDigest",
      "outputs": [
        {
          "internalType": "bytes32",
          "name": "",
          "type": "bytes32"
        }
      ],
      "stateMutability": "pure",
      "type": "function"
    },
    {
      "inputs": [
        {
          "internalType": "address",
          "name": "holder",
          "type": "address"
        },
        {
          "internalType": "int256",
          "name": "lat",
          "type": "int256"
        },
        {
          "internalType": "int256",
          "name": "long",
          "type": "int256"
        },
        {
          "internalType": "uint256",
          "name": "distance",
          "type": "uint256"
        },
        {
          "internalType": "bytes32",
          "name": "deviceHash",
          "type": "bytes32"
        },
        {
          "internalType": "uint256",
          "name": "startTimestamp",
          "type": "uint256"
        },
        {
          "internalType": "uint256",
          "name": "endTimestamp",
          "type": "uint256"
        }
      ],
      "name": "generateLocationDistanceDigest",
      "outputs": [
        {
          "internalType": "bytes32",
          "name": "",
          "type": "bytes32"
        }
      ],
      "stateMutability": "pure",
      "type": "function"
    },
    {
      "inputs": [
        {
          "internalType": "address[]",
          "name": "_validators",
          "type": "address[]"
        },
        {
          "internalType": "address",
          "name": "_verifyFeeSelector",
          "type": "address"
        }
      ],
      "name": "initialize",
      "outputs": [],
      "stateMutability": "nonpayable",
      "type": "function"
    },
    {
      "inputs": [
        {
          "internalType": "address",
          "name": "_account",
          "type": "address"
        }
      ],
      "name": "isValidator",
      "outputs": [
        {
          "internalType": "bool",
          "name": "",
          "type": "bool"
        }
      ],
      "stateMutability": "view",
      "type": "function"
    },
    {
      "inputs": [],
      "name": "owner",
      "outputs": [
        {
          "internalType": "address",
          "name": "",
          "type": "address"
        }
      ],
      "stateMutability": "view",
      "type": "function"
    },
    {
      "inputs": [],
      "name": "pendingOwner",
      "outputs": [
        {
          "internalType": "address",
          "name": "",
          "type": "address"
        }
      ],
      "stateMutability": "view",
      "type": "function"
    },
    {
      "inputs": [
        {
          "internalType": "address",
          "name": "_prevValidator",
          "type": "address"
        },
        {
          "internalType": "address",
          "name": "_validator",
          "type": "address"
        }
      ],
      "name": "removeValidator",
      "outputs": [],
      "stateMutability": "nonpayable",
      "type": "function"
    },
    {
      "inputs": [],
      "name": "renounceOwnership",
      "outputs": [],
      "stateMutability": "nonpayable",
      "type": "function"
    },
    {
      "inputs": [
        {
          "internalType": "address",
          "name": "newOwner",
          "type": "address"
        }
      ],
      "name": "transferOwnership",
      "outputs": [],
      "stateMutability": "nonpayable",
      "type": "function"
    },
    {
      "inputs": [
        {
          "internalType": "bytes32",
          "name": "hash",
          "type": "bytes32"
        },
        {
          "internalType": "bytes",
          "name": "signature",
          "type": "bytes"
        }
      ],
      "name": "verify",
      "outputs": [
        {
          "internalType": "bool",
          "name": "",
          "type": "bool"
        }
      ],
      "stateMutability": "payable",
      "type": "function"
    },
    {
      "inputs": [
        {
          "internalType": "address payable",
          "name": "to",
          "type": "address"
        },
        {
          "internalType": "uint256",
          "name": "amount",
          "type": "uint256"
        }
      ],
      "name": "withdrawFee",
      "outputs": [],
      "stateMutability": "nonpayable",
      "type": "function"
    }
  ],
  "transactionHash": "0x100f8a759abb7bca5ce0b20325499c833f3e4b52cde9f65dcc06caa994928172",
  "args": [],
  "numDeployments": 1,
  "solcInputHash": "3f4cc54d1bb84f573f53fbb2075c5258",
  "bytecode": "0x608060405234801561001057600080fd5b50611a39806100206000396000f3fe6080604052600436106100dd5760003560e01c80638da5cb5b1161007f578063e30c397811610059578063e30c397814610256578063f2fde38b14610281578063facd743b146102a1578063fd9be522146102c157600080fd5b80638da5cb5b146101c457806396cb4c0d14610216578063b499ffd11461023657600080fd5b8063462d0b2e116100bb578063462d0b2e1461015a5780634d238c8e1461017a578063715018a61461019a57806379ba5097146101af57600080fd5b80631618d100146100e2578063258ae5821461010457806343d4b6a71461012c575b600080fd5b3480156100ee57600080fd5b506101026100fd3660046115ef565b6102e1565b005b610117610112366004611691565b610398565b60405190151581526020015b60405180910390f35b34801561013857600080fd5b5061014c61014736600461174e565b61058b565b604051908152602001610123565b34801561016657600080fd5b50610102610175366004611789565b610644565b34801561018657600080fd5b506101026101953660046115ef565b610a22565b3480156101a657600080fd5b50610102610bf8565b3480156101bb57600080fd5b50610102610c0c565b3480156101d057600080fd5b5060005462010000900473ffffffffffffffffffffffffffffffffffffffff165b60405173ffffffffffffffffffffffffffffffffffffffff9091168152602001610123565b34801561022257600080fd5b5061010261023136600461184d565b610cc2565b34801561024257600080fd5b5061014c610251366004611886565b610e60565b34801561026257600080fd5b5060015473ffffffffffffffffffffffffffffffffffffffff166101f1565b34801561028d57600080fd5b5061010261029c3660046115ef565b610f31565b3480156102ad57600080fd5b506101176102bc3660046115ef565b610fe8565b3480156102cd57600080fd5b506101026102dc3660046118db565b61103d565b6102e96110d8565b73ffffffffffffffffffffffffffffffffffffffff81166103515760405162461bcd60e51b815260206004820152601060248201527f696e76616c69642073656c6563746f720000000000000000000000000000000060448201526064015b60405180910390fd5b600380547fffffffffffffffffffffffff00000000000000000000000000000000000000001673ffffffffffffffffffffffffffffffffffffffff92909216919091179055565b6003546040517f3245b622000000000000000000000000000000000000000000000000000000008152336004820152600091829173ffffffffffffffffffffffffffffffffffffffff90911690633245b62290602401602060405180830381865afa15801561040b573d6000803e3d6000fd5b505050506040513d601f19601f8201168201806040525081019061042f9190611907565b6040517f6704fe9f00000000000000000000000000000000000000000000000000000000815233600482015234602482015290915073ffffffffffffffffffffffffffffffffffffffff821690636704fe9f906044016020604051808303816000875af11580156104a4573d6000803e3d6000fd5b505050506040513d601f19601f820116820180604052508101906104c89190611924565b6105145760405162461bcd60e51b815260206004820152600b60248201527f696e76616c6964206665650000000000000000000000000000000000000000006044820152606401610348565b600061057784610571876040517f19457468657265756d205369676e6564204d6573736167653a0a3332000000006020820152603c8101829052600090605c01604051602081830303815290604052805190602001209050919050565b90611146565b905061058281610fe8565b95945050505050565b6000828210156105dd5760405162461bcd60e51b815260206004820152601160248201527f696e76616c69642074696d657374616d700000000000000000000000000000006044820152606401610348565b6040517fffffffffffffffffffffffffffffffffffffffff000000000000000000000000606087901b166020820152603481018590526054810184905260748101839052609401604051602081830303815290604052805190602001209050949350505050565b600054610100900460ff16158080156106645750600054600160ff909116105b8061067e5750303b15801561067e575060005460ff166001145b6106f05760405162461bcd60e51b815260206004820152602e60248201527f496e697469616c697a61626c653a20636f6e747261637420697320616c72656160448201527f647920696e697469616c697a65640000000000000000000000000000000000006064820152608401610348565b600080547fffffffffffffffffffffffffffffffffffffffffffffffffffffffffffffff00166001179055801561074e57600080547fffffffffffffffffffffffffffffffffffffffffffffffffffffffffffff00ff166101001790555b61075661116a565b600160005b845181101561095757600085828151811061077857610778611946565b60200260200101519050600073ffffffffffffffffffffffffffffffffffffffff168173ffffffffffffffffffffffffffffffffffffffff16141580156107d6575073ffffffffffffffffffffffffffffffffffffffff8116600114155b80156107f8575073ffffffffffffffffffffffffffffffffffffffff81163014155b801561083057508073ffffffffffffffffffffffffffffffffffffffff168373ffffffffffffffffffffffffffffffffffffffff1614155b61087c5760405162461bcd60e51b815260206004820152601160248201527f696e76616c69642076616c696461746f720000000000000000000000000000006044820152606401610348565b73ffffffffffffffffffffffffffffffffffffffff81811660009081526002602052604090205416156108f15760405162461bcd60e51b815260206004820152601260248201527f72657065617465642076616c696461746f7200000000000000000000000000006044820152606401610348565b73ffffffffffffffffffffffffffffffffffffffff928316600090815260026020526040902080547fffffffffffffffffffffffff000000000000000000000000000000000000000016938216939093179092558061094f81611975565b91505061075b565b5073ffffffffffffffffffffffffffffffffffffffff9081166000908152600260205260409020805460017fffffffffffffffffffffffff000000000000000000000000000000000000000091821617909155600380549091169184169190911790558015610a1d57600080547fffffffffffffffffffffffffffffffffffffffffffffffffffffffffffff00ff169055604051600181527f7f26b83ff96e1f2b6a682f133852f6798a09c465da95921460cefb38474024989060200160405180910390a15b505050565b610a2a6110d8565b73ffffffffffffffffffffffffffffffffffffffff811615801590610a66575073ffffffffffffffffffffffffffffffffffffffff8116600114155b8015610a88575073ffffffffffffffffffffffffffffffffffffffff81163014155b610ad45760405162461bcd60e51b815260206004820152601160248201527f696e76616c69642076616c696461746f720000000000000000000000000000006044820152606401610348565b73ffffffffffffffffffffffffffffffffffffffff8181166000908152600260205260409020541615610b495760405162461bcd60e51b815260206004820152601060248201527f76616c696461746f7220657869737473000000000000000000000000000000006044820152606401610348565b60026020527fe90b7bceb6e7df5418fb78d8ee546e97c83a08bbccc01a0644d599ccd2a7c2e0805473ffffffffffffffffffffffffffffffffffffffff838116600081815260408082208054949095167fffffffffffffffffffffffff000000000000000000000000000000000000000094851617909455600181528454909216811790935590517fe366c1c0452ed8eec96861e9e54141ebff23c9ec89fe27b996b45f5ec38849879190a250565b610c006110d8565b610c0a60006111ef565b565b3380610c2d60015473ffffffffffffffffffffffffffffffffffffffff1690565b73ffffffffffffffffffffffffffffffffffffffff1614610cb65760405162461bcd60e51b815260206004820152602960248201527f4f776e61626c6532537465703a2063616c6c6572206973206e6f74207468652060448201527f6e6577206f776e657200000000000000000000000000000000000000000000006064820152608401610348565b610cbf816111ef565b50565b610cca6110d8565b73ffffffffffffffffffffffffffffffffffffffff811615801590610d06575073ffffffffffffffffffffffffffffffffffffffff8116600114155b610d525760405162461bcd60e51b815260206004820152601160248201527f696e76616c69642076616c696461746f720000000000000000000000000000006044820152606401610348565b73ffffffffffffffffffffffffffffffffffffffff828116600090815260026020526040902054811690821614610dcb5760405162461bcd60e51b815260206004820152601860248201527f6572726f722070726576696f75732076616c696461746f7200000000000000006044820152606401610348565b73ffffffffffffffffffffffffffffffffffffffff818116600081815260026020526040808220805487861684528284208054919096167fffffffffffffffffffffffff0000000000000000000000000000000000000000918216179095558383528054909416909355915190917fe1434e25d6611e0db941968fdc97811c982ac1602e951637d206f5fdda9dd8f191a25050565b600082821015610eb25760405162461bcd60e51b815260206004820152601160248201527f696e76616c69642074696d657374616d700000000000000000000000000000006044820152606401610348565b6040517fffffffffffffffffffffffffffffffffffffffff00000000000000000000000060608a901b1660208201526034810188905260548101879052607481018690526094810185905260b4810184905260d4810183905260f401604051602081830303815290604052805190602001209050979650505050505050565b610f396110d8565b6001805473ffffffffffffffffffffffffffffffffffffffff83167fffffffffffffffffffffffff00000000000000000000000000000000000000009091168117909155610fa360005473ffffffffffffffffffffffffffffffffffffffff620100009091041690565b73ffffffffffffffffffffffffffffffffffffffff167f38d16b8cac22d99fc7c124b9cd0de2d3fa1faef420bfe791d8c362d765e2270060405160405180910390a350565b600073ffffffffffffffffffffffffffffffffffffffff8216600114801590611037575073ffffffffffffffffffffffffffffffffffffffff8281166000908152600260205260409020541615155b92915050565b6110456110d8565b804710156110955760405162461bcd60e51b815260206004820152601460248201527f696e73756666696369656e742062616c616e63650000000000000000000000006044820152606401610348565b60405173ffffffffffffffffffffffffffffffffffffffff83169082156108fc029083906000818181858888f19350505050158015610a1d573d6000803e3d6000fd5b60005473ffffffffffffffffffffffffffffffffffffffff62010000909104163314610c0a5760405162461bcd60e51b815260206004820181905260248201527f4f776e61626c653a2063616c6c6572206973206e6f7420746865206f776e65726044820152606401610348565b60008060006111558585611220565b9150915061116281611265565b509392505050565b600054610100900460ff166111e75760405162461bcd60e51b815260206004820152602b60248201527f496e697469616c697a61626c653a20636f6e7472616374206973206e6f74206960448201527f6e697469616c697a696e670000000000000000000000000000000000000000006064820152608401610348565b610c0a6113ca565b600180547fffffffffffffffffffffffff0000000000000000000000000000000000000000169055610cbf81611450565b60008082516041036112565760208301516040840151606085015160001a61124a878285856114ce565b9450945050505061125e565b506000905060025b9250929050565b6000816004811115611279576112796119d4565b036112815750565b6001816004811115611295576112956119d4565b036112e25760405162461bcd60e51b815260206004820152601860248201527f45434453413a20696e76616c6964207369676e617475726500000000000000006044820152606401610348565b60028160048111156112f6576112f66119d4565b036113435760405162461bcd60e51b815260206004820152601f60248201527f45434453413a20696e76616c6964207369676e6174757265206c656e677468006044820152606401610348565b6003816004811115611357576113576119d4565b03610cbf5760405162461bcd60e51b815260206004820152602260248201527f45434453413a20696e76616c6964207369676e6174757265202773272076616c60448201527f75650000000000000000000000000000000000000000000000000000000000006064820152608401610348565b600054610100900460ff166114475760405162461bcd60e51b815260206004820152602b60248201527f496e697469616c697a61626c653a20636f6e7472616374206973206e6f74206960448201527f6e697469616c697a696e670000000000000000000000000000000000000000006064820152608401610348565b610c0a336111ef565b6000805473ffffffffffffffffffffffffffffffffffffffff838116620100008181027fffffffffffffffffffff0000000000000000000000000000000000000000ffff851617855560405193049190911692909183917f8be0079c531659141344cd1fd0a4f28419497f9722a3daafe3b4186f6b6457e091a35050565b6000807f7fffffffffffffffffffffffffffffff5d576e7357a4501ddfe92f46681b20a083111561150557506000905060036115b4565b6040805160008082526020820180845289905260ff881692820192909252606081018690526080810185905260019060a0016020604051602081039080840390855afa158015611559573d6000803e3d6000fd5b50506040517fffffffffffffffffffffffffffffffffffffffffffffffffffffffffffffffe0015191505073ffffffffffffffffffffffffffffffffffffffff81166115ad576000600192509250506115b4565b9150600090505b94509492505050565b73ffffffffffffffffffffffffffffffffffffffff81168114610cbf57600080fd5b80356115ea816115bd565b919050565b60006020828403121561160157600080fd5b813561160c816115bd565b9392505050565b7f4e487b7100000000000000000000000000000000000000000000000000000000600052604160045260246000fd5b604051601f82017fffffffffffffffffffffffffffffffffffffffffffffffffffffffffffffffe016810167ffffffffffffffff8111828210171561168957611689611613565b604052919050565b600080604083850312156116a457600080fd5b8235915060208084013567ffffffffffffffff808211156116c457600080fd5b818601915086601f8301126116d857600080fd5b8135818111156116ea576116ea611613565b61171a847fffffffffffffffffffffffffffffffffffffffffffffffffffffffffffffffe0601f84011601611642565b9150808252878482850101111561173057600080fd5b80848401858401376000848284010152508093505050509250929050565b6000806000806080858703121561176457600080fd5b843561176f816115bd565b966020860135965060408601359560600135945092505050565b6000806040838503121561179c57600080fd5b823567ffffffffffffffff808211156117b457600080fd5b818501915085601f8301126117c857600080fd5b81356020828211156117dc576117dc611613565b8160051b92506117ed818401611642565b828152928401810192818101908985111561180757600080fd5b948201945b848610156118315785359350611821846115bd565b838252948201949082019061180c565b965061184090508782016115df565b9450505050509250929050565b6000806040838503121561186057600080fd5b823561186b816115bd565b9150602083013561187b816115bd565b809150509250929050565b600080600080600080600060e0888a0312156118a157600080fd5b87356118ac816115bd565b9960208901359950604089013598606081013598506080810135975060a0810135965060c00135945092505050565b600080604083850312156118ee57600080fd5b82356118f9816115bd565b946020939093013593505050565b60006020828403121561191957600080fd5b815161160c816115bd565b60006020828403121561193657600080fd5b8151801515811461160c57600080fd5b7f4e487b7100000000000000000000000000000000000000000000000000000000600052603260045260246000fd5b60007fffffffffffffffffffffffffffffffffffffffffffffffffffffffffffffffff82036119cd577f4e487b7100000000000000000000000000000000000000000000000000000000600052601160045260246000fd5b5060010190565b7f4e487b7100000000000000000000000000000000000000000000000000000000600052602160045260246000fdfea2646970667358221220b2486471fef6598b596ac404d88ebfd5e482d679ba0a590c81f13e7693eb834d64736f6c63430008110033",
  "devdoc": {
    "kind": "dev",
    "methods": {},
    "version": 1
  },
  "userdoc": {
    "kind": "user",
    "methods": {},
    "version": 1
  },
  "storageLayout": {
    "storage": [
      {
        "astId": 119,
        "contract": "contracts/MetapebbleDataVerifier.sol:MetapebbleDataVerifier",
        "label": "_initialized",
        "offset": 0,
        "slot": "0",
        "type": "t_uint8"
      },
      {
        "astId": 122,
        "contract": "contracts/MetapebbleDataVerifier.sol:MetapebbleDataVerifier",
        "label": "_initializing",
        "offset": 1,
        "slot": "0",
        "type": "t_bool"
      },
      {
        "astId": 6452,
        "contract": "contracts/MetapebbleDataVerifier.sol:MetapebbleDataVerifier",
        "label": "_owner",
        "offset": 2,
        "slot": "0",
        "type": "t_address"
      },
      {
        "astId": 6373,
        "contract": "contracts/MetapebbleDataVerifier.sol:MetapebbleDataVerifier",
        "label": "_pendingOwner",
        "offset": 0,
        "slot": "1",
        "type": "t_address"
      },
      {
        "astId": 4397,
        "contract": "contracts/MetapebbleDataVerifier.sol:MetapebbleDataVerifier",
        "label": "validators",
        "offset": 0,
        "slot": "2",
        "type": "t_mapping(t_address,t_address)"
      },
      {
        "astId": 4400,
        "contract": "contracts/MetapebbleDataVerifier.sol:MetapebbleDataVerifier",
        "label": "verifyFeeSelector",
        "offset": 0,
        "slot": "3",
        "type": "t_contract(IVerifyFeeSelector)6352"
      }
    ],
    "types": {
      "t_address": {
        "encoding": "inplace",
        "label": "address",
        "numberOfBytes": "20"
      },
      "t_bool": {
        "encoding": "inplace",
        "label": "bool",
        "numberOfBytes": "1"
      },
      "t_contract(IVerifyFeeSelector)6352": {
        "encoding": "inplace",
        "label": "contract IVerifyFeeSelector",
        "numberOfBytes": "20"
      },
      "t_mapping(t_address,t_address)": {
        "encoding": "mapping",
        "key": "t_address",
        "label": "mapping(address => address)",
        "numberOfBytes": "32",
        "value": "t_address"
      },
      "t_uint8": {
        "encoding": "inplace",
        "label": "uint8",
        "numberOfBytes": "1"
      }
    }
  }
}