{
  "address": "0xf31560a8f1474631412EfC2656B1bB68c1913C47",
  "abi": [
    {
      "inputs": [],
      "stateMutability": "nonpayable",
      "type": "constructor"
    },
    {
      "anonymous": false,
      "inputs": [
        {
          "indexed": true,
          "internalType": "address",
          "name": "account",
          "type": "address"
        },
        {
          "indexed": true,
          "internalType": "address",
          "name": "operator",
          "type": "address"
        },
        {
          "indexed": false,
          "internalType": "bool",
          "name": "approved",
          "type": "bool"
        }
      ],
      "name": "ApprovalForAll",
      "type": "event"
    },
    {
      "anonymous": false,
      "inputs": [
        {
          "indexed": true,
          "internalType": "address",
          "name": "previousOwner",
          "type": "address"
        },
        {
          "indexed": true,
          "internalType": "address",
          "name": "newOwner",
          "type": "address"
        }
      ],
      "name": "OwnershipTransferred",
      "type": "event"
    },
    {
      "anonymous": false,
      "inputs": [
        {
          "indexed": true,
          "internalType": "address",
          "name": "operator",
          "type": "address"
        },
        {
          "indexed": true,
          "internalType": "address",
          "name": "from",
          "type": "address"
        },
        {
          "indexed": true,
          "internalType": "address",
          "name": "to",
          "type": "address"
        },
        {
          "indexed": false,
          "internalType": "uint256[]",
          "name": "ids",
          "type": "uint256[]"
        },
        {
          "indexed": false,
          "internalType": "uint256[]",
          "name": "values",
          "type": "uint256[]"
        }
      ],
      "name": "TransferBatch",
      "type": "event"
    },
    {
      "anonymous": false,
      "inputs": [
        {
          "indexed": true,
          "internalType": "address",
          "name": "operator",
          "type": "address"
        },
        {
          "indexed": true,
          "internalType": "address",
          "name": "from",
          "type": "address"
        },
        {
          "indexed": true,
          "internalType": "address",
          "name": "to",
          "type": "address"
        },
        {
          "indexed": false,
          "internalType": "uint256",
          "name": "id",
          "type": "uint256"
        },
        {
          "indexed": false,
          "internalType": "uint256",
          "name": "value",
          "type": "uint256"
        }
      ],
      "name": "TransferSingle",
      "type": "event"
    },
    {
      "anonymous": false,
      "inputs": [
        {
          "indexed": false,
          "internalType": "string",
          "name": "value",
          "type": "string"
        },
        {
          "indexed": true,
          "internalType": "uint256",
          "name": "id",
          "type": "uint256"
        }
      ],
      "name": "URI",
      "type": "event"
    },
    {
      "inputs": [
        {
          "internalType": "uint256",
          "name": "_tokenId",
          "type": "uint256"
        }
      ],
      "name": "addToken",
      "outputs": [],
      "stateMutability": "nonpayable",
      "type": "function"
    },
    {
      "inputs": [
        {
          "internalType": "address",
          "name": "account",
          "type": "address"
        },
        {
          "internalType": "uint256",
          "name": "id",
          "type": "uint256"
        }
      ],
      "name": "balanceOf",
      "outputs": [
        {
          "internalType": "uint256",
          "name": "",
          "type": "uint256"
        }
      ],
      "stateMutability": "view",
      "type": "function"
    },
    {
      "inputs": [
        {
          "internalType": "address[]",
          "name": "accounts",
          "type": "address[]"
        },
        {
          "internalType": "uint256[]",
          "name": "ids",
          "type": "uint256[]"
        }
      ],
      "name": "balanceOfBatch",
      "outputs": [
        {
          "internalType": "uint256[]",
          "name": "",
          "type": "uint256[]"
        }
      ],
      "stateMutability": "view",
      "type": "function"
    },
    {
      "inputs": [
        {
          "internalType": "address",
          "name": "account",
          "type": "address"
        },
        {
          "internalType": "address",
          "name": "operator",
          "type": "address"
        }
      ],
      "name": "isApprovedForAll",
      "outputs": [
        {
          "internalType": "bool",
          "name": "",
          "type": "bool"
        }
      ],
      "stateMutability": "view",
      "type": "function"
    },
    {
      "inputs": [
        {
          "internalType": "address",
          "name": "account",
          "type": "address"
        },
        {
          "internalType": "uint256",
          "name": "id",
          "type": "uint256"
        }
      ],
      "name": "mint",
      "outputs": [],
      "stateMutability": "nonpayable",
      "type": "function"
    },
    {
      "inputs": [],
      "name": "owner",
      "outputs": [
        {
          "internalType": "address",
          "name": "",
          "type": "address"
        }
      ],
      "stateMutability": "view",
      "type": "function"
    },
    {
      "inputs": [],
      "name": "renounceOwnership",
      "outputs": [],
      "stateMutability": "nonpayable",
      "type": "function"
    },
    {
      "inputs": [
        {
          "internalType": "address",
          "name": "from",
          "type": "address"
        },
        {
          "internalType": "address",
          "name": "to",
          "type": "address"
        },
        {
          "internalType": "uint256[]",
          "name": "ids",
          "type": "uint256[]"
        },
        {
          "internalType": "uint256[]",
          "name": "amounts",
          "type": "uint256[]"
        },
        {
          "internalType": "bytes",
          "name": "data",
          "type": "bytes"
        }
      ],
      "name": "safeBatchTransferFrom",
      "outputs": [],
      "stateMutability": "nonpayable",
      "type": "function"
    },
    {
      "inputs": [
        {
          "internalType": "address",
          "name": "from",
          "type": "address"
        },
        {
          "internalType": "address",
          "name": "to",
          "type": "address"
        },
        {
          "internalType": "uint256",
          "name": "id",
          "type": "uint256"
        },
        {
          "internalType": "uint256",
          "name": "amount",
          "type": "uint256"
        },
        {
          "internalType": "bytes",
          "name": "data",
          "type": "bytes"
        }
      ],
      "name": "safeTransferFrom",
      "outputs": [],
      "stateMutability": "nonpayable",
      "type": "function"
    },
    {
      "inputs": [
        {
          "internalType": "address",
          "name": "operator",
          "type": "address"
        },
        {
          "internalType": "bool",
          "name": "approved",
          "type": "bool"
        }
      ],
      "name": "setApprovalForAll",
      "outputs": [],
      "stateMutability": "nonpayable",
      "type": "function"
    },
    {
      "inputs": [
        {
          "internalType": "string",
          "name": "uri_",
          "type": "string"
        }
      ],
      "name": "setURI",
      "outputs": [],
      "stateMutability": "nonpayable",
      "type": "function"
    },
    {
      "inputs": [
        {
          "internalType": "bytes4",
          "name": "interfaceId",
          "type": "bytes4"
        }
      ],
      "name": "supportsInterface",
      "outputs": [
        {
          "internalType": "bool",
          "name": "",
          "type": "bool"
        }
      ],
      "stateMutability": "view",
      "type": "function"
    },
    {
      "inputs": [
        {
          "internalType": "address",
          "name": "newOwner",
          "type": "address"
        }
      ],
      "name": "transferOwnership",
      "outputs": [],
      "stateMutability": "nonpayable",
      "type": "function"
    },
    {
      "inputs": [
        {
          "internalType": "uint256",
          "name": "_tokenId",
          "type": "uint256"
        }
      ],
      "name": "uri",
      "outputs": [
        {
          "internalType": "string",
          "name": "",
          "type": "string"
        }
      ],
      "stateMutability": "view",
      "type": "function"
    }
  ],
  "transactionHash": "0x66da6ec54265c54d71d59cf2d459b2fc8784092c8c435bf10a4896f283da8445",
  "args": [],
  "numDeployments": 2,
  "solcInputHash": "a66546c8c56fb1658b257cc570ad1b5f",
  "bytecode": "0x60806040523480156200001157600080fd5b506040805160208101909152600081526200002c816200005d565b5062000038336200006f565b60408051602081019091526000815260049062000056908262000166565b5062000232565b60026200006b828262000166565b5050565b600380546001600160a01b038381166001600160a01b0319831681179093556040519116919082907f8be0079c531659141344cd1fd0a4f28419497f9722a3daafe3b4186f6b6457e090600090a35050565b634e487b7160e01b600052604160045260246000fd5b600181811c90821680620000ec57607f821691505b6020821081036200010d57634e487b7160e01b600052602260045260246000fd5b50919050565b601f8211156200016157600081815260208120601f850160051c810160208610156200013c5750805b601f850160051c820191505b818110156200015d5782815560010162000148565b5050505b505050565b81516001600160401b03811115620001825762000182620000c1565b6200019a81620001938454620000d7565b8462000113565b602080601f831160018114620001d25760008415620001b95750858301515b600019600386901b1c1916600185901b1785556200015d565b600085815260208120601f198616915b828110156200020357888601518255948401946001909101908401620001e2565b5085821015620002225787850151600019600388901b60f8161c191681555b5050505050600190811b01905550565b61217180620002426000396000f3fe608060405234801561001057600080fd5b50600436106100e95760003560e01c80634e1273f41161008c578063a22cb46511610066578063a22cb465146101f5578063e985e9c514610208578063f242432a14610251578063f2fde38b1461026457600080fd5b80634e1273f4146101a5578063715018a6146101c55780638da5cb5b146101cd57600080fd5b80630e89341c116100c85780630e89341c1461014c578063179d375c1461016c5780632eb2c2d61461017f57806340c10f191461019257600080fd5b8062fdd58e146100ee57806301ffc9a71461011457806302fe530514610137575b600080fd5b6101016100fc366004611774565b610277565b6040519081526020015b60405180910390f35b6101276101223660046117cc565b61033d565b604051901515815260200161010b565b61014a6101453660046118a3565b610420565b005b61015f61015a3660046118f4565b610434565b60405161010b919061195d565b61014a61017a3660046118f4565b61049c565b61014a61018d366004611a25565b6104f4565b61014a6101a0366004611774565b6105a3565b6101b86101b3366004611acf565b6105cc565b60405161010b9190611bd5565b61014a61070a565b60035460405173ffffffffffffffffffffffffffffffffffffffff909116815260200161010b565b61014a610203366004611be8565b61071e565b610127610216366004611c24565b73ffffffffffffffffffffffffffffffffffffffff918216600090815260016020908152604080832093909416825291909152205460ff1690565b61014a61025f366004611c57565b610729565b61014a610272366004611cbc565b6107d1565b600073ffffffffffffffffffffffffffffffffffffffff83166103075760405162461bcd60e51b815260206004820152602a60248201527f455243313135353a2061646472657373207a65726f206973206e6f742061207660448201527f616c6964206f776e65720000000000000000000000000000000000000000000060648201526084015b60405180910390fd5b5060008181526020818152604080832073ffffffffffffffffffffffffffffffffffffffff861684529091529020545b92915050565b60007fffffffff0000000000000000000000000000000000000000000000000000000082167fd9b67a260000000000000000000000000000000000000000000000000000000014806103d057507fffffffff0000000000000000000000000000000000000000000000000000000082167f0e89341c00000000000000000000000000000000000000000000000000000000145b8061033757507f01ffc9a7000000000000000000000000000000000000000000000000000000007fffffffff00000000000000000000000000000000000000000000000000000000831614610337565b61042861086b565b610431816108d2565b50565b606061043f826108de565b600061044a8361093c565b9050600081511161046a5760405180602001604052806000815250610495565b80610474846109d0565b604051602001610485929190611cd7565b6040516020818303038152906040525b9392505050565b6104a461086b565b60008181526005602052604090205460ff1661043157600081815260056020526040902080547fffffffffffffffffffffffffffffffffffffffffffffffffffffffffffffff0016600117905550565b73ffffffffffffffffffffffffffffffffffffffff851633148061051d575061051d8533610216565b61058f5760405162461bcd60e51b815260206004820152602e60248201527f455243313135353a2063616c6c6572206973206e6f7420746f6b656e206f776e60448201527f6572206f7220617070726f76656400000000000000000000000000000000000060648201526084016102fe565b61059c8585858585610a8e565b5050505050565b6105ac816108de565b6105c88282600160405180602001604052806000815250610d7a565b5050565b606081518351146106455760405162461bcd60e51b815260206004820152602960248201527f455243313135353a206163636f756e747320616e6420696473206c656e67746860448201527f206d69736d61746368000000000000000000000000000000000000000000000060648201526084016102fe565b6000835167ffffffffffffffff811115610661576106616117e9565b60405190808252806020026020018201604052801561068a578160200160208202803683370190505b50905060005b8451811015610702576106d58582815181106106ae576106ae611d2e565b60200260200101518583815181106106c8576106c8611d2e565b6020026020010151610277565b8282815181106106e7576106e7611d2e565b60209081029190910101526106fb81611d8c565b9050610690565b509392505050565b61071261086b565b61071c6000610ed1565b565b6105c8338383610f48565b73ffffffffffffffffffffffffffffffffffffffff851633148061075257506107528533610216565b6107c45760405162461bcd60e51b815260206004820152602e60248201527f455243313135353a2063616c6c6572206973206e6f7420746f6b656e206f776e60448201527f6572206f7220617070726f76656400000000000000000000000000000000000060648201526084016102fe565b61059c8585858585611081565b6107d961086b565b73ffffffffffffffffffffffffffffffffffffffff81166108625760405162461bcd60e51b815260206004820152602660248201527f4f776e61626c653a206e6577206f776e657220697320746865207a65726f206160448201527f646472657373000000000000000000000000000000000000000000000000000060648201526084016102fe565b61043181610ed1565b60035473ffffffffffffffffffffffffffffffffffffffff16331461071c5760405162461bcd60e51b815260206004820181905260248201527f4f776e61626c653a2063616c6c6572206973206e6f7420746865206f776e657260448201526064016102fe565b60026105c88282611e62565b60008181526005602052604090205460ff166104315760405162461bcd60e51b815260206004820152601060248201527f696e76616c696420746f6b656e2049440000000000000000000000000000000060448201526064016102fe565b60606002805461094b90611dc4565b80601f016020809104026020016040519081016040528092919081815260200182805461097790611dc4565b80156109c45780601f10610999576101008083540402835291602001916109c4565b820191906000526020600020905b8154815290600101906020018083116109a757829003601f168201915b50505050509050919050565b606060006109dd8361128b565b600101905060008167ffffffffffffffff8111156109fd576109fd6117e9565b6040519080825280601f01601f191660200182016040528015610a27576020820181803683370190505b5090508181016020015b7fffffffffffffffffffffffffffffffffffffffffffffffffffffffffffffffff017f3031323334353637383961626364656600000000000000000000000000000000600a86061a8153600a8504945084610a3157509392505050565b8151835114610b055760405162461bcd60e51b815260206004820152602860248201527f455243313135353a2069647320616e6420616d6f756e7473206c656e6774682060448201527f6d69736d6174636800000000000000000000000000000000000000000000000060648201526084016102fe565b73ffffffffffffffffffffffffffffffffffffffff8416610b8e5760405162461bcd60e51b815260206004820152602560248201527f455243313135353a207472616e7366657220746f20746865207a65726f20616460448201527f647265737300000000000000000000000000000000000000000000000000000060648201526084016102fe565b3360005b8451811015610ce5576000858281518110610baf57610baf611d2e565b602002602001015190506000858381518110610bcd57610bcd611d2e565b6020908102919091018101516000848152808352604080822073ffffffffffffffffffffffffffffffffffffffff8e168352909352919091205490915081811015610c805760405162461bcd60e51b815260206004820152602a60248201527f455243313135353a20696e73756666696369656e742062616c616e636520666f60448201527f72207472616e736665720000000000000000000000000000000000000000000060648201526084016102fe565b60008381526020818152604080832073ffffffffffffffffffffffffffffffffffffffff8e8116855292528083208585039055908b16825281208054849290610cca908490611f5e565b9250508190555050505080610cde90611d8c565b9050610b92565b508473ffffffffffffffffffffffffffffffffffffffff168673ffffffffffffffffffffffffffffffffffffffff168273ffffffffffffffffffffffffffffffffffffffff167f4a39dc06d4c0dbc64b70af90fd698a233a518aa5d07e595d983b8c0526c8f7fb8787604051610d5c929190611f71565b60405180910390a4610d7281878787878761136d565b505050505050565b73ffffffffffffffffffffffffffffffffffffffff8416610e035760405162461bcd60e51b815260206004820152602160248201527f455243313135353a206d696e7420746f20746865207a65726f2061646472657360448201527f730000000000000000000000000000000000000000000000000000000000000060648201526084016102fe565b336000610e0f8561158b565b90506000610e1c8561158b565b905060008681526020818152604080832073ffffffffffffffffffffffffffffffffffffffff8b16845290915281208054879290610e5b908490611f5e565b9091555050604080518781526020810187905273ffffffffffffffffffffffffffffffffffffffff808a1692600092918716917fc3d58168c5ae7397731d063d5bbf3d657854427343f4c083240f7aacaa2d0f62910160405180910390a4610ec8836000898989896115d6565b50505050505050565b6003805473ffffffffffffffffffffffffffffffffffffffff8381167fffffffffffffffffffffffff0000000000000000000000000000000000000000831681179093556040519116919082907f8be0079c531659141344cd1fd0a4f28419497f9722a3daafe3b4186f6b6457e090600090a35050565b8173ffffffffffffffffffffffffffffffffffffffff168373ffffffffffffffffffffffffffffffffffffffff1603610fe95760405162461bcd60e51b815260206004820152602960248201527f455243313135353a2073657474696e6720617070726f76616c2073746174757360448201527f20666f722073656c66000000000000000000000000000000000000000000000060648201526084016102fe565b73ffffffffffffffffffffffffffffffffffffffff83811660008181526001602090815260408083209487168084529482529182902080547fffffffffffffffffffffffffffffffffffffffffffffffffffffffffffffff001686151590811790915591519182527f17307eab39ab6107e8899845ad3d59bd9653f200f220920489ca2b5937696c31910160405180910390a3505050565b73ffffffffffffffffffffffffffffffffffffffff841661110a5760405162461bcd60e51b815260206004820152602560248201527f455243313135353a207472616e7366657220746f20746865207a65726f20616460448201527f647265737300000000000000000000000000000000000000000000000000000060648201526084016102fe565b3360006111168561158b565b905060006111238561158b565b905060008681526020818152604080832073ffffffffffffffffffffffffffffffffffffffff8c168452909152902054858110156111c95760405162461bcd60e51b815260206004820152602a60248201527f455243313135353a20696e73756666696369656e742062616c616e636520666f60448201527f72207472616e736665720000000000000000000000000000000000000000000060648201526084016102fe565b60008781526020818152604080832073ffffffffffffffffffffffffffffffffffffffff8d8116855292528083208985039055908a16825281208054889290611213908490611f5e565b9091555050604080518881526020810188905273ffffffffffffffffffffffffffffffffffffffff808b16928c821692918816917fc3d58168c5ae7397731d063d5bbf3d657854427343f4c083240f7aacaa2d0f62910160405180910390a4611280848a8a8a8a8a6115d6565b505050505050505050565b6000807a184f03e93ff9f4daa797ed6e38ed64bf6a1f01000000000000000083106112d4577a184f03e93ff9f4daa797ed6e38ed64bf6a1f010000000000000000830492506040015b6d04ee2d6d415b85acef81000000008310611300576d04ee2d6d415b85acef8100000000830492506020015b662386f26fc10000831061131e57662386f26fc10000830492506010015b6305f5e1008310611336576305f5e100830492506008015b612710831061134a57612710830492506004015b6064831061135c576064830492506002015b600a83106103375760010192915050565b73ffffffffffffffffffffffffffffffffffffffff84163b15610d72576040517fbc197c8100000000000000000000000000000000000000000000000000000000815273ffffffffffffffffffffffffffffffffffffffff85169063bc197c81906113e49089908990889088908890600401611f9f565b6020604051808303816000875af192505050801561141f575060408051601f3d908101601f1916820190925261141c9181019061200a565b60015b6114d45761142b612027565b806308c379a003611464575061143f612043565b8061144a5750611466565b8060405162461bcd60e51b81526004016102fe919061195d565b505b60405162461bcd60e51b815260206004820152603460248201527f455243313135353a207472616e7366657220746f206e6f6e2d4552433131353560448201527f526563656976657220696d706c656d656e74657200000000000000000000000060648201526084016102fe565b7fffffffff0000000000000000000000000000000000000000000000000000000081167fbc197c810000000000000000000000000000000000000000000000000000000014610ec85760405162461bcd60e51b815260206004820152602860248201527f455243313135353a204552433131353552656365697665722072656a6563746560448201527f6420746f6b656e7300000000000000000000000000000000000000000000000060648201526084016102fe565b604080516001808252818301909252606091600091906020808301908036833701905050905082816000815181106115c5576115c5611d2e565b602090810291909101015292915050565b73ffffffffffffffffffffffffffffffffffffffff84163b15610d72576040517ff23a6e6100000000000000000000000000000000000000000000000000000000815273ffffffffffffffffffffffffffffffffffffffff85169063f23a6e619061164d90899089908890889088906004016120eb565b6020604051808303816000875af1925050508015611688575060408051601f3d908101601f191682019092526116859181019061200a565b60015b6116945761142b612027565b7fffffffff0000000000000000000000000000000000000000000000000000000081167ff23a6e610000000000000000000000000000000000000000000000000000000014610ec85760405162461bcd60e51b815260206004820152602860248201527f455243313135353a204552433131353552656365697665722072656a6563746560448201527f6420746f6b656e7300000000000000000000000000000000000000000000000060648201526084016102fe565b803573ffffffffffffffffffffffffffffffffffffffff8116811461176f57600080fd5b919050565b6000806040838503121561178757600080fd5b6117908361174b565b946020939093013593505050565b7fffffffff000000000000000000000000000000000000000000000000000000008116811461043157600080fd5b6000602082840312156117de57600080fd5b81356104958161179e565b7f4e487b7100000000000000000000000000000000000000000000000000000000600052604160045260246000fd5b601f19601f830116810181811067ffffffffffffffff8211171561183e5761183e6117e9565b6040525050565b600067ffffffffffffffff83111561185f5761185f6117e9565b6040516118766020601f19601f8701160182611818565b80915083815284848401111561188b57600080fd5b83836020830137600060208583010152509392505050565b6000602082840312156118b557600080fd5b813567ffffffffffffffff8111156118cc57600080fd5b8201601f810184136118dd57600080fd5b6118ec84823560208401611845565b949350505050565b60006020828403121561190657600080fd5b5035919050565b60005b83811015611928578181015183820152602001611910565b50506000910152565b6000815180845261194981602086016020860161190d565b601f01601f19169290920160200192915050565b6020815260006104956020830184611931565b600067ffffffffffffffff82111561198a5761198a6117e9565b5060051b60200190565b600082601f8301126119a557600080fd5b813560206119b282611970565b6040516119bf8282611818565b83815260059390931b85018201928281019150868411156119df57600080fd5b8286015b848110156119fa57803583529183019183016119e3565b509695505050505050565b600082601f830112611a1657600080fd5b61049583833560208501611845565b600080600080600060a08688031215611a3d57600080fd5b611a468661174b565b9450611a546020870161174b565b9350604086013567ffffffffffffffff80821115611a7157600080fd5b611a7d89838a01611994565b94506060880135915080821115611a9357600080fd5b611a9f89838a01611994565b93506080880135915080821115611ab557600080fd5b50611ac288828901611a05565b9150509295509295909350565b60008060408385031215611ae257600080fd5b823567ffffffffffffffff80821115611afa57600080fd5b818501915085601f830112611b0e57600080fd5b81356020611b1b82611970565b604051611b288282611818565b83815260059390931b8501820192828101915089841115611b4857600080fd5b948201945b83861015611b6d57611b5e8661174b565b82529482019490820190611b4d565b96505086013592505080821115611b8357600080fd5b50611b9085828601611994565b9150509250929050565b600081518084526020808501945080840160005b83811015611bca57815187529582019590820190600101611bae565b509495945050505050565b6020815260006104956020830184611b9a565b60008060408385031215611bfb57600080fd5b611c048361174b565b915060208301358015158114611c1957600080fd5b809150509250929050565b60008060408385031215611c3757600080fd5b611c408361174b565b9150611c4e6020840161174b565b90509250929050565b600080600080600060a08688031215611c6f57600080fd5b611c788661174b565b9450611c866020870161174b565b93506040860135925060608601359150608086013567ffffffffffffffff811115611cb057600080fd5b611ac288828901611a05565b600060208284031215611cce57600080fd5b6104958261174b565b60008351611ce981846020880161190d565b835190830190611cfd81836020880161190d565b7f2e6a736f6e0000000000000000000000000000000000000000000000000000009101908152600501949350505050565b7f4e487b7100000000000000000000000000000000000000000000000000000000600052603260045260246000fd5b7f4e487b7100000000000000000000000000000000000000000000000000000000600052601160045260246000fd5b60007fffffffffffffffffffffffffffffffffffffffffffffffffffffffffffffffff8203611dbd57611dbd611d5d565b5060010190565b600181811c90821680611dd857607f821691505b602082108103611e11577f4e487b7100000000000000000000000000000000000000000000000000000000600052602260045260246000fd5b50919050565b601f821115611e5d57600081815260208120601f850160051c81016020861015611e3e5750805b601f850160051c820191505b81811015610d7257828155600101611e4a565b505050565b815167ffffffffffffffff811115611e7c57611e7c6117e9565b611e9081611e8a8454611dc4565b84611e17565b602080601f831160018114611ee35760008415611ead5750858301515b7fffffffffffffffffffffffffffffffffffffffffffffffffffffffffffffffff600386901b1c1916600185901b178555610d72565b600085815260208120601f198616915b82811015611f1257888601518255948401946001909101908401611ef3565b5085821015611f4e57878501517fffffffffffffffffffffffffffffffffffffffffffffffffffffffffffffffff600388901b60f8161c191681555b5050505050600190811b01905550565b8082018082111561033757610337611d5d565b604081526000611f846040830185611b9a565b8281036020840152611f968185611b9a565b95945050505050565b600073ffffffffffffffffffffffffffffffffffffffff808816835280871660208401525060a06040830152611fd860a0830186611b9a565b8281036060840152611fea8186611b9a565b90508281036080840152611ffe8185611931565b98975050505050505050565b60006020828403121561201c57600080fd5b81516104958161179e565b600060033d11156120405760046000803e5060005160e01c5b90565b600060443d10156120515790565b6040517ffffffffffffffffffffffffffffffffffffffffffffffffffffffffffffffffc803d016004833e81513d67ffffffffffffffff816024840111818411171561209f57505050505090565b82850191508151818111156120b75750505050505090565b843d87010160208285010111156120d15750505050505090565b6120e060208286010187611818565b509095945050505050565b600073ffffffffffffffffffffffffffffffffffffffff808816835280871660208401525084604083015283606083015260a0608083015261213060a0830184611931565b97965050505050505056fea2646970667358221220aecdb26bc6ab2e82faa27e05b66dd7c232236e883db9ce745bbb1ba859c0e8ce64736f6c63430008110033",
  "devdoc": {
    "kind": "dev",
    "methods": {
      "balanceOf(address,uint256)": {
        "details": "See {IERC1155-balanceOf}. Requirements: - `account` cannot be the zero address."
      },
      "balanceOfBatch(address[],uint256[])": {
        "details": "See {IERC1155-balanceOfBatch}. Requirements: - `accounts` and `ids` must have the same length."
      },
      "isApprovedForAll(address,address)": {
        "details": "See {IERC1155-isApprovedForAll}."
      },
      "owner()": {
        "details": "Returns the address of the current owner."
      },
      "renounceOwnership()": {
        "details": "Leaves the contract without owner. It will not be possible to call `onlyOwner` functions anymore. Can only be called by the current owner. NOTE: Renouncing ownership will leave the contract without an owner, thereby removing any functionality that is only available to the owner."
      },
      "safeBatchTransferFrom(address,address,uint256[],uint256[],bytes)": {
        "details": "See {IERC1155-safeBatchTransferFrom}."
      },
      "safeTransferFrom(address,address,uint256,uint256,bytes)": {
        "details": "See {IERC1155-safeTransferFrom}."
      },
      "setApprovalForAll(address,bool)": {
        "details": "See {IERC1155-setApprovalForAll}."
      },
      "supportsInterface(bytes4)": {
        "details": "See {IERC165-supportsInterface}."
      },
      "transferOwnership(address)": {
        "details": "Transfers ownership of the contract to a new account (`newOwner`). Can only be called by the current owner."
      }
    },
    "version": 1
  },
  "userdoc": {
    "kind": "user",
    "methods": {},
    "version": 1
  },
  "storageLayout": {
    "storage": [
      {
        "astId": 138,
        "contract": "contracts/examples/OpenStreetMapNFT.sol:OpenStreetMapNFT",
        "label": "_balances",
        "offset": 0,
        "slot": "0",
        "type": "t_mapping(t_uint256,t_mapping(t_address,t_uint256))"
      },
      {
        "astId": 144,
        "contract": "contracts/examples/OpenStreetMapNFT.sol:OpenStreetMapNFT",
        "label": "_operatorApprovals",
        "offset": 0,
        "slot": "1",
        "type": "t_mapping(t_address,t_mapping(t_address,t_bool))"
      },
      {
        "astId": 146,
        "contract": "contracts/examples/OpenStreetMapNFT.sol:OpenStreetMapNFT",
        "label": "_uri",
        "offset": 0,
        "slot": "2",
        "type": "t_string_storage"
      },
      {
        "astId": 7,
        "contract": "contracts/examples/OpenStreetMapNFT.sol:OpenStreetMapNFT",
        "label": "_owner",
        "offset": 0,
        "slot": "3",
        "type": "t_address"
      },
      {
        "astId": 2953,
        "contract": "contracts/examples/OpenStreetMapNFT.sol:OpenStreetMapNFT",
        "label": "_baseUri",
        "offset": 0,
        "slot": "4",
        "type": "t_string_storage"
      },
      {
        "astId": 2957,
        "contract": "contracts/examples/OpenStreetMapNFT.sol:OpenStreetMapNFT",
        "label": "_tokenIds",
        "offset": 0,
        "slot": "5",
        "type": "t_mapping(t_uint256,t_bool)"
      }
    ],
    "types": {
      "t_address": {
        "encoding": "inplace",
        "label": "address",
        "numberOfBytes": "20"
      },
      "t_bool": {
        "encoding": "inplace",
        "label": "bool",
        "numberOfBytes": "1"
      },
      "t_mapping(t_address,t_bool)": {
        "encoding": "mapping",
        "key": "t_address",
        "label": "mapping(address => bool)",
        "numberOfBytes": "32",
        "value": "t_bool"
      },
      "t_mapping(t_address,t_mapping(t_address,t_bool))": {
        "encoding": "mapping",
        "key": "t_address",
        "label": "mapping(address => mapping(address => bool))",
        "numberOfBytes": "32",
        "value": "t_mapping(t_address,t_bool)"
      },
      "t_mapping(t_address,t_uint256)": {
        "encoding": "mapping",
        "key": "t_address",
        "label": "mapping(address => uint256)",
        "numberOfBytes": "32",
        "value": "t_uint256"
      },
      "t_mapping(t_uint256,t_bool)": {
        "encoding": "mapping",
        "key": "t_uint256",
        "label": "mapping(uint256 => bool)",
        "numberOfBytes": "32",
        "value": "t_bool"
      },
      "t_mapping(t_uint256,t_mapping(t_address,t_uint256))": {
        "encoding": "mapping",
        "key": "t_uint256",
        "label": "mapping(uint256 => mapping(address => uint256))",
        "numberOfBytes": "32",
        "value": "t_mapping(t_address,t_uint256)"
      },
      "t_string_storage": {
        "encoding": "bytes",
        "label": "string",
        "numberOfBytes": "32"
      },
      "t_uint256": {
        "encoding": "inplace",
        "label": "uint256",
        "numberOfBytes": "32"
      }
    }
  }
}