{
  "address": "0x316AD7f200b120F60bB39381B52d675F9AB85A97",
  "abi": [
    {
      "inputs": [
        {
          "internalType": "address",
          "name": "_verifier",
          "type": "address"
        },
        {
          "internalType": "string",
          "name": "_name",
          "type": "string"
        },
        {
          "internalType": "string",
          "name": "_symbol",
          "type": "string"
        }
      ],
      "stateMutability": "nonpayable",
      "type": "constructor"
    },
    {
      "anonymous": false,
      "inputs": [
        {
          "indexed": true,
          "internalType": "address",
          "name": "owner",
          "type": "address"
        },
        {
          "indexed": true,
          "internalType": "address",
          "name": "spender",
          "type": "address"
        },
        {
          "indexed": false,
          "internalType": "uint256",
          "name": "value",
          "type": "uint256"
        }
      ],
      "name": "Approval",
      "type": "event"
    },
    {
      "anonymous": false,
      "inputs": [
        {
          "indexed": true,
          "internalType": "address",
          "name": "holder",
          "type": "address"
        },
        {
          "indexed": true,
          "internalType": "bytes32",
          "name": "deviceHash",
          "type": "bytes32"
        },
        {
          "indexed": false,
          "internalType": "uint256",
          "name": "amount",
          "type": "uint256"
        }
      ],
      "name": "Claimed",
      "type": "event"
    },
    {
      "anonymous": false,
      "inputs": [
        {
          "indexed": true,
          "internalType": "address",
          "name": "from",
          "type": "address"
        },
        {
          "indexed": true,
          "internalType": "address",
          "name": "to",
          "type": "address"
        },
        {
          "indexed": false,
          "internalType": "uint256",
          "name": "value",
          "type": "uint256"
        }
      ],
      "name": "Transfer",
      "type": "event"
    },
    {
      "inputs": [],
      "name": "CLAIM_PERIOD",
      "outputs": [
        {
          "internalType": "uint256",
          "name": "",
          "type": "uint256"
        }
      ],
      "stateMutability": "view",
      "type": "function"
    },
    {
      "inputs": [],
      "name": "TOKEN_PER_DAY",
      "outputs": [
        {
          "internalType": "uint256",
          "name": "",
          "type": "uint256"
        }
      ],
      "stateMutability": "view",
      "type": "function"
    },
    {
      "inputs": [
        {
          "internalType": "address",
          "name": "owner",
          "type": "address"
        },
        {
          "internalType": "address",
          "name": "spender",
          "type": "address"
        }
      ],
      "name": "allowance",
      "outputs": [
        {
          "internalType": "uint256",
          "name": "",
          "type": "uint256"
        }
      ],
      "stateMutability": "view",
      "type": "function"
    },
    {
      "inputs": [
        {
          "internalType": "address",
          "name": "spender",
          "type": "address"
        },
        {
          "internalType": "uint256",
          "name": "amount",
          "type": "uint256"
        }
      ],
      "name": "approve",
      "outputs": [
        {
          "internalType": "bool",
          "name": "",
          "type": "bool"
        }
      ],
      "stateMutability": "nonpayable",
      "type": "function"
    },
    {
      "inputs": [
        {
          "internalType": "address",
          "name": "account",
          "type": "address"
        }
      ],
      "name": "balanceOf",
      "outputs": [
        {
          "internalType": "uint256",
          "name": "",
          "type": "uint256"
        }
      ],
      "stateMutability": "view",
      "type": "function"
    },
    {
      "inputs": [
        {
          "internalType": "bytes32",
          "name": "deviceHash_",
          "type": "bytes32"
        },
        {
          "internalType": "uint256",
          "name": "deviceTimestamp_",
          "type": "uint256"
        },
        {
          "internalType": "bytes",
          "name": "signature",
          "type": "bytes"
        }
      ],
      "name": "claim",
      "outputs": [],
      "stateMutability": "nonpayable",
      "type": "function"
    },
    {
      "inputs": [
        {
          "internalType": "address",
          "name": "user_",
          "type": "address"
        }
      ],
      "name": "claimedAmount",
      "outputs": [
        {
          "internalType": "uint256",
          "name": "",
          "type": "uint256"
        }
      ],
      "stateMutability": "view",
      "type": "function"
    },
    {
      "inputs": [
        {
          "internalType": "address",
          "name": "user_",
          "type": "address"
        },
        {
          "internalType": "uint256",
          "name": "date_",
          "type": "uint256"
        }
      ],
      "name": "claimedAmount",
      "outputs": [
        {
          "internalType": "uint256",
          "name": "",
          "type": "uint256"
        }
      ],
      "stateMutability": "view",
      "type": "function"
    },
    {
      "inputs": [],
      "name": "currentPeriod",
      "outputs": [
        {
          "internalType": "uint256",
          "name": "",
          "type": "uint256"
        }
      ],
      "stateMutability": "view",
      "type": "function"
    },
    {
      "inputs": [],
      "name": "decimals",
      "outputs": [
        {
          "internalType": "uint8",
          "name": "",
          "type": "uint8"
        }
      ],
      "stateMutability": "view",
      "type": "function"
    },
    {
      "inputs": [
        {
          "internalType": "address",
          "name": "spender",
          "type": "address"
        },
        {
          "internalType": "uint256",
          "name": "subtractedValue",
          "type": "uint256"
        }
      ],
      "name": "decreaseAllowance",
      "outputs": [
        {
          "internalType": "bool",
          "name": "",
          "type": "bool"
        }
      ],
      "stateMutability": "nonpayable",
      "type": "function"
    },
    {
      "inputs": [
        {
          "internalType": "address",
          "name": "spender",
          "type": "address"
        },
        {
          "internalType": "uint256",
          "name": "addedValue",
          "type": "uint256"
        }
      ],
      "name": "increaseAllowance",
      "outputs": [
        {
          "internalType": "bool",
          "name": "",
          "type": "bool"
        }
      ],
      "stateMutability": "nonpayable",
      "type": "function"
    },
    {
      "inputs": [],
      "name": "name",
      "outputs": [
        {
          "internalType": "string",
          "name": "",
          "type": "string"
        }
      ],
      "stateMutability": "view",
      "type": "function"
    },
    {
      "inputs": [],
      "name": "symbol",
      "outputs": [
        {
          "internalType": "string",
          "name": "",
          "type": "string"
        }
      ],
      "stateMutability": "view",
      "type": "function"
    },
    {
      "inputs": [],
      "name": "totalSupply",
      "outputs": [
        {
          "internalType": "uint256",
          "name": "",
          "type": "uint256"
        }
      ],
      "stateMutability": "view",
      "type": "function"
    },
    {
      "inputs": [
        {
          "internalType": "address",
          "name": "to",
          "type": "address"
        },
        {
          "internalType": "uint256",
          "name": "amount",
          "type": "uint256"
        }
      ],
      "name": "transfer",
      "outputs": [
        {
          "internalType": "bool",
          "name": "",
          "type": "bool"
        }
      ],
      "stateMutability": "nonpayable",
      "type": "function"
    },
    {
      "inputs": [
        {
          "internalType": "address",
          "name": "from",
          "type": "address"
        },
        {
          "internalType": "address",
          "name": "to",
          "type": "address"
        },
        {
          "internalType": "uint256",
          "name": "amount",
          "type": "uint256"
        }
      ],
      "name": "transferFrom",
      "outputs": [
        {
          "internalType": "bool",
          "name": "",
          "type": "bool"
        }
      ],
      "stateMutability": "nonpayable",
      "type": "function"
    },
    {
      "inputs": [],
      "name": "verifier",
      "outputs": [
        {
          "internalType": "contract IMetapebbleDataVerifier",
          "name": "",
          "type": "address"
        }
      ],
      "stateMutability": "view",
      "type": "function"
    }
  ],
  "transactionHash": "0x186d350e8211b1bf3f7aa0fe0a2e6d82fd1da18dca23660b2f4a332314341d00",
  "args": [
    "0xB85aB715C54534Fc43308772A6be5d94bF508C3F",
    "Pebble Daily Tiken",
    "PDT"
  ],
  "numDeployments": 1,
  "solcInputHash": "a52e1aed1ceb7d3e43f75756b8a48982",
  "bytecode": "0x60806040523480156200001157600080fd5b506040516200126e3803806200126e833981016040819052620000349162000150565b6001600055828282818160046200004c838262000269565b5060056200005b828262000269565b5050600680546001600160a01b0319166001600160a01b0395909516949094179093555062000335945050505050565b634e487b7160e01b600052604160045260246000fd5b600082601f830112620000b357600080fd5b81516001600160401b0380821115620000d057620000d06200008b565b604051601f8301601f19908116603f01168101908282118183101715620000fb57620000fb6200008b565b816040528381526020925086838588010111156200011857600080fd5b600091505b838210156200013c57858201830151818301840152908201906200011d565b600093810190920192909252949350505050565b6000806000606084860312156200016657600080fd5b83516001600160a01b03811681146200017e57600080fd5b60208501519093506001600160401b03808211156200019c57600080fd5b620001aa87838801620000a1565b93506040860151915080821115620001c157600080fd5b50620001d086828701620000a1565b9150509250925092565b600181811c90821680620001ef57607f821691505b6020821081036200021057634e487b7160e01b600052602260045260246000fd5b50919050565b601f8211156200026457600081815260208120601f850160051c810160208610156200023f5750805b601f850160051c820191505b8181101562000260578281556001016200024b565b5050505b505050565b81516001600160401b038111156200028557620002856200008b565b6200029d81620002968454620001da565b8462000216565b602080601f831160018114620002d55760008415620002bc5750858301515b600019600386901b1c1916600185901b17855562000260565b600085815260208120601f198616915b828110156200030657888601518255948401946001909101908401620002e5565b5085821015620003255787850151600019600388901b60f8161c191681555b5050505050600190811b01905550565b610f2980620003456000396000f3fe608060405234801561001057600080fd5b50600436106101365760003560e01c806339509351116100b25780639159c40f11610081578063a457c2d711610066578063a457c2d7146102d2578063a9059cbb146102e5578063dd62ed3e146102f857600080fd5b80639159c40f146102bb57806395d89b41146102ca57600080fd5b8063395093511461021a57806355b4b1a41461022d57806370a08231146102705780637964ea87146102a657600080fd5b806318160ddd1161010957806323b872dd116100ee57806323b872dd146101b35780632b7ac3f3146101c6578063313ce5671461020b57600080fd5b806318160ddd146101a157806321241dfe146101a957600080fd5b806304e869031461013b578063060406181461016157806306fdde0314610169578063095ea7b31461017e575b600080fd5b61014e610149366004610bc9565b61033e565b6040519081526020015b60405180910390f35b61014e610352565b610171610371565b6040516101589190610c4f565b61019161018c366004610c62565b610403565b6040519015158152602001610158565b60035461014e565b61014e6201518081565b6101916101c1366004610c8c565b61041b565b6006546101e69073ffffffffffffffffffffffffffffffffffffffff1681565b60405173ffffffffffffffffffffffffffffffffffffffff9091168152602001610158565b60405160128152602001610158565b610191610228366004610c62565b61043f565b61014e61023b366004610c62565b73ffffffffffffffffffffffffffffffffffffffff919091166000908152600760209081526040808320938352929052205490565b61014e61027e366004610bc9565b73ffffffffffffffffffffffffffffffffffffffff1660009081526001602052604090205490565b6102b96102b4366004610cf7565b61048b565b005b61014e670de0b6b3a764000081565b61017161053f565b6101916102e0366004610c62565b61054e565b6101916102f3366004610c62565b61061f565b61014e610306366004610dd9565b73ffffffffffffffffffffffffffffffffffffffff918216600090815260026020908152604080832093909416825291909152205490565b600061034c8261023b610352565b92915050565b6000620151806103628142610e3b565b61036c9190610e76565b905090565b60606004805461038090610e8d565b80601f01602080910402602001604051908101604052809291908181526020018280546103ac90610e8d565b80156103f95780601f106103ce576101008083540402835291602001916103f9565b820191906000526020600020905b8154815290600101906020018083116103dc57829003601f168201915b5050505050905090565b60003361041181858561062d565b5060019392505050565b6000336104298582856107e0565b6104348585856108b7565b506001949350505050565b33600081815260026020908152604080832073ffffffffffffffffffffffffffffffffffffffff871684529091528120549091906104119082908690610486908790610ee0565b61062d565b610493610b2d565b33600061049e610352565b73ffffffffffffffffffffffffffffffffffffffff831660009081526007602090815260408083208484529091529020549091506040517f08c379a0000000000000000000000000000000000000000000000000000000008152600401610536906020808252600f908201527f616c726561647920636c61696d65640000000000000000000000000000000000604082015260600190565b60405180910390fd5b60606005805461038090610e8d565b33600081815260026020908152604080832073ffffffffffffffffffffffffffffffffffffffff8716845290915281205490919083811015610612576040517f08c379a000000000000000000000000000000000000000000000000000000000815260206004820152602560248201527f45524332303a2064656372656173656420616c6c6f77616e63652062656c6f7760448201527f207a65726f0000000000000000000000000000000000000000000000000000006064820152608401610536565b610434828686840361062d565b6000336104118185856108b7565b73ffffffffffffffffffffffffffffffffffffffff83166106cf576040517f08c379a0000000000000000000000000000000000000000000000000000000008152602060048201526024808201527f45524332303a20617070726f76652066726f6d20746865207a65726f2061646460448201527f72657373000000000000000000000000000000000000000000000000000000006064820152608401610536565b73ffffffffffffffffffffffffffffffffffffffff8216610772576040517f08c379a000000000000000000000000000000000000000000000000000000000815260206004820152602260248201527f45524332303a20617070726f766520746f20746865207a65726f20616464726560448201527f73730000000000000000000000000000000000000000000000000000000000006064820152608401610536565b73ffffffffffffffffffffffffffffffffffffffff83811660008181526002602090815260408083209487168084529482529182902085905590518481527f8c5be1e5ebec7d5bd14f71427d1e84f3dd0314c0f7b2291e5b200ac8c7c3b925910160405180910390a3505050565b73ffffffffffffffffffffffffffffffffffffffff8381166000908152600260209081526040808320938616835292905220547fffffffffffffffffffffffffffffffffffffffffffffffffffffffffffffffff81146108b157818110156108a4576040517f08c379a000000000000000000000000000000000000000000000000000000000815260206004820152601d60248201527f45524332303a20696e73756666696369656e7420616c6c6f77616e63650000006044820152606401610536565b6108b1848484840361062d565b50505050565b73ffffffffffffffffffffffffffffffffffffffff831661095a576040517f08c379a000000000000000000000000000000000000000000000000000000000815260206004820152602560248201527f45524332303a207472616e736665722066726f6d20746865207a65726f20616460448201527f64726573730000000000000000000000000000000000000000000000000000006064820152608401610536565b73ffffffffffffffffffffffffffffffffffffffff82166109fd576040517f08c379a000000000000000000000000000000000000000000000000000000000815260206004820152602360248201527f45524332303a207472616e7366657220746f20746865207a65726f206164647260448201527f65737300000000000000000000000000000000000000000000000000000000006064820152608401610536565b73ffffffffffffffffffffffffffffffffffffffff831660009081526001602052604090205481811015610ab3576040517f08c379a000000000000000000000000000000000000000000000000000000000815260206004820152602660248201527f45524332303a207472616e7366657220616d6f756e742065786365656473206260448201527f616c616e636500000000000000000000000000000000000000000000000000006064820152608401610536565b73ffffffffffffffffffffffffffffffffffffffff80851660008181526001602052604080822086860390559286168082529083902080548601905591517fddf252ad1be2c89b69c2b068fc378daa952ba7f163c4a11628f55a4df523b3ef90610b209086815260200190565b60405180910390a36108b1565b600260005403610b99576040517f08c379a000000000000000000000000000000000000000000000000000000000815260206004820152601f60248201527f5265656e7472616e637947756172643a207265656e7472616e742063616c6c006044820152606401610536565b6002600055565b803573ffffffffffffffffffffffffffffffffffffffff81168114610bc457600080fd5b919050565b600060208284031215610bdb57600080fd5b610be482610ba0565b9392505050565b6000815180845260005b81811015610c1157602081850181015186830182015201610bf5565b5060006020828601015260207fffffffffffffffffffffffffffffffffffffffffffffffffffffffffffffffe0601f83011685010191505092915050565b602081526000610be46020830184610beb565b60008060408385031215610c7557600080fd5b610c7e83610ba0565b946020939093013593505050565b600080600060608486031215610ca157600080fd5b610caa84610ba0565b9250610cb860208501610ba0565b9150604084013590509250925092565b7f4e487b7100000000000000000000000000000000000000000000000000000000600052604160045260246000fd5b600080600060608486031215610d0c57600080fd5b8335925060208401359150604084013567ffffffffffffffff80821115610d3257600080fd5b818601915086601f830112610d4657600080fd5b813581811115610d5857610d58610cc8565b604051601f82017fffffffffffffffffffffffffffffffffffffffffffffffffffffffffffffffe0908116603f01168101908382118183101715610d9e57610d9e610cc8565b81604052828152896020848701011115610db757600080fd5b8260208601602083013760006020848301015280955050505050509250925092565b60008060408385031215610dec57600080fd5b610df583610ba0565b9150610e0360208401610ba0565b90509250929050565b7f4e487b7100000000000000000000000000000000000000000000000000000000600052601160045260246000fd5b600082610e71577f4e487b7100000000000000000000000000000000000000000000000000000000600052601260045260246000fd5b500490565b808202811582820484141761034c5761034c610e0c565b600181811c90821680610ea157607f821691505b602082108103610eda577f4e487b7100000000000000000000000000000000000000000000000000000000600052602260045260246000fd5b50919050565b8082018082111561034c5761034c610e0c56fea26469706673582212203fcd2869f333d77d3516ad410cd2ca2374b9e3fb5153949008f42a22390498db64736f6c63430008110033",
  "devdoc": {
    "kind": "dev",
    "methods": {
      "allowance(address,address)": {
        "details": "See {IERC20-allowance}."
      },
      "approve(address,uint256)": {
        "details": "See {IERC20-approve}. NOTE: If `amount` is the maximum `uint256`, the allowance is not updated on `transferFrom`. This is semantically equivalent to an infinite approval. Requirements: - `spender` cannot be the zero address."
      },
      "balanceOf(address)": {
        "details": "See {IERC20-balanceOf}."
      },
      "decimals()": {
        "details": "Returns the number of decimals used to get its user representation. For example, if `decimals` equals `2`, a balance of `505` tokens should be displayed to a user as `5.05` (`505 / 10 ** 2`). Tokens usually opt for a value of 18, imitating the relationship between Ether and Wei. This is the value {ERC20} uses, unless this function is overridden; NOTE: This information is only used for _display_ purposes: it in no way affects any of the arithmetic of the contract, including {IERC20-balanceOf} and {IERC20-transfer}."
      },
      "decreaseAllowance(address,uint256)": {
        "details": "Atomically decreases the allowance granted to `spender` by the caller. This is an alternative to {approve} that can be used as a mitigation for problems described in {IERC20-approve}. Emits an {Approval} event indicating the updated allowance. Requirements: - `spender` cannot be the zero address. - `spender` must have allowance for the caller of at least `subtractedValue`."
      },
      "increaseAllowance(address,uint256)": {
        "details": "Atomically increases the allowance granted to `spender` by the caller. This is an alternative to {approve} that can be used as a mitigation for problems described in {IERC20-approve}. Emits an {Approval} event indicating the updated allowance. Requirements: - `spender` cannot be the zero address."
      },
      "name()": {
        "details": "Returns the name of the token."
      },
      "symbol()": {
        "details": "Returns the symbol of the token, usually a shorter version of the name."
      },
      "totalSupply()": {
        "details": "See {IERC20-totalSupply}."
      },
      "transfer(address,uint256)": {
        "details": "See {IERC20-transfer}. Requirements: - `to` cannot be the zero address. - the caller must have a balance of at least `amount`."
      },
      "transferFrom(address,address,uint256)": {
        "details": "See {IERC20-transferFrom}. Emits an {Approval} event indicating the updated allowance. This is not required by the EIP. See the note at the beginning of {ERC20}. NOTE: Does not update the allowance if the current allowance is the maximum `uint256`. Requirements: - `from` and `to` cannot be the zero address. - `from` must have a balance of at least `amount`. - the caller must have allowance for ``from``'s tokens of at least `amount`."
      }
    },
    "version": 1
  },
  "userdoc": {
    "kind": "user",
    "methods": {},
    "version": 1
  },
  "storageLayout": {
    "storage": [
      {
        "astId": 292,
        "contract": "contracts/examples/PebbleDailyToken.sol:PebbleDailyToken",
        "label": "_status",
        "offset": 0,
        "slot": "0",
        "type": "t_uint256"
      },
      {
        "astId": 351,
        "contract": "contracts/examples/PebbleDailyToken.sol:PebbleDailyToken",
        "label": "_balances",
        "offset": 0,
        "slot": "1",
        "type": "t_mapping(t_address,t_uint256)"
      },
      {
        "astId": 357,
        "contract": "contracts/examples/PebbleDailyToken.sol:PebbleDailyToken",
        "label": "_allowances",
        "offset": 0,
        "slot": "2",
        "type": "t_mapping(t_address,t_mapping(t_address,t_uint256))"
      },
      {
        "astId": 359,
        "contract": "contracts/examples/PebbleDailyToken.sol:PebbleDailyToken",
        "label": "_totalSupply",
        "offset": 0,
        "slot": "3",
        "type": "t_uint256"
      },
      {
        "astId": 361,
        "contract": "contracts/examples/PebbleDailyToken.sol:PebbleDailyToken",
        "label": "_name",
        "offset": 0,
        "slot": "4",
        "type": "t_string_storage"
      },
      {
        "astId": 363,
        "contract": "contracts/examples/PebbleDailyToken.sol:PebbleDailyToken",
        "label": "_symbol",
        "offset": 0,
        "slot": "5",
        "type": "t_string_storage"
      },
      {
        "astId": 5089,
        "contract": "contracts/examples/PebbleDailyToken.sol:PebbleDailyToken",
        "label": "verifier",
        "offset": 0,
        "slot": "6",
        "type": "t_contract(IMetapebbleDataVerifier)5844"
      },
      {
        "astId": 5237,
        "contract": "contracts/examples/PebbleDailyToken.sol:PebbleDailyToken",
        "label": "_claimed",
        "offset": 0,
        "slot": "7",
        "type": "t_mapping(t_address,t_mapping(t_uint256,t_uint256))"
      }
    ],
    "types": {
      "t_address": {
        "encoding": "inplace",
        "label": "address",
        "numberOfBytes": "20"
      },
      "t_contract(IMetapebbleDataVerifier)5844": {
        "encoding": "inplace",
        "label": "contract IMetapebbleDataVerifier",
        "numberOfBytes": "20"
      },
      "t_mapping(t_address,t_mapping(t_address,t_uint256))": {
        "encoding": "mapping",
        "key": "t_address",
        "label": "mapping(address => mapping(address => uint256))",
        "numberOfBytes": "32",
        "value": "t_mapping(t_address,t_uint256)"
      },
      "t_mapping(t_address,t_mapping(t_uint256,t_uint256))": {
        "encoding": "mapping",
        "key": "t_address",
        "label": "mapping(address => mapping(uint256 => uint256))",
        "numberOfBytes": "32",
        "value": "t_mapping(t_uint256,t_uint256)"
      },
      "t_mapping(t_address,t_uint256)": {
        "encoding": "mapping",
        "key": "t_address",
        "label": "mapping(address => uint256)",
        "numberOfBytes": "32",
        "value": "t_uint256"
      },
      "t_mapping(t_uint256,t_uint256)": {
        "encoding": "mapping",
        "key": "t_uint256",
        "label": "mapping(uint256 => uint256)",
        "numberOfBytes": "32",
        "value": "t_uint256"
      },
      "t_string_storage": {
        "encoding": "bytes",
        "label": "string",
        "numberOfBytes": "32"
      },
      "t_uint256": {
        "encoding": "inplace",
        "label": "uint256",
        "numberOfBytes": "32"
      }
    }
  }
}