{
  "address": "0xaCdFBEded6c5Eab92e6830081b6A1DED463643A1",
  "abi": [
    {
      "inputs": [
        {
          "internalType": "uint256",
          "name": "_lat",
          "type": "uint256"
        },
        {
          "internalType": "uint256",
          "name": "_long",
          "type": "uint256"
        },
        {
          "internalType": "uint256",
          "name": "_maxDistance",
          "type": "uint256"
        },
        {
          "internalType": "address",
          "name": "_verifier",
          "type": "address"
        },
        {
          "internalType": "string",
          "name": "_name",
          "type": "string"
        },
        {
          "internalType": "string",
          "name": "_symbol",
          "type": "string"
        }
      ],
      "stateMutability": "nonpayable",
      "type": "constructor"
    },
    {
      "anonymous": false,
      "inputs": [
        {
          "indexed": true,
          "internalType": "address",
          "name": "owner",
          "type": "address"
        },
        {
          "indexed": true,
          "internalType": "address",
          "name": "approved",
          "type": "address"
        },
        {
          "indexed": true,
          "internalType": "uint256",
          "name": "tokenId",
          "type": "uint256"
        }
      ],
      "name": "Approval",
      "type": "event"
    },
    {
      "anonymous": false,
      "inputs": [
        {
          "indexed": true,
          "internalType": "address",
          "name": "owner",
          "type": "address"
        },
        {
          "indexed": true,
          "internalType": "address",
          "name": "operator",
          "type": "address"
        },
        {
          "indexed": false,
          "internalType": "bool",
          "name": "approved",
          "type": "bool"
        }
      ],
      "name": "ApprovalForAll",
      "type": "event"
    },
    {
      "anonymous": false,
      "inputs": [
        {
          "indexed": true,
          "internalType": "address",
          "name": "holder",
          "type": "address"
        },
        {
          "indexed": true,
          "internalType": "bytes32",
          "name": "deviceHash",
          "type": "bytes32"
        },
        {
          "indexed": true,
          "internalType": "uint256",
          "name": "tokenId",
          "type": "uint256"
        }
      ],
      "name": "Claimed",
      "type": "event"
    },
    {
      "anonymous": false,
      "inputs": [
        {
          "indexed": true,
          "internalType": "address",
          "name": "previousOwner",
          "type": "address"
        },
        {
          "indexed": true,
          "internalType": "address",
          "name": "newOwner",
          "type": "address"
        }
      ],
      "name": "OwnershipTransferred",
      "type": "event"
    },
    {
      "anonymous": false,
      "inputs": [
        {
          "indexed": true,
          "internalType": "address",
          "name": "from",
          "type": "address"
        },
        {
          "indexed": true,
          "internalType": "address",
          "name": "to",
          "type": "address"
        },
        {
          "indexed": true,
          "internalType": "uint256",
          "name": "tokenId",
          "type": "uint256"
        }
      ],
      "name": "Transfer",
      "type": "event"
    },
    {
      "inputs": [
        {
          "internalType": "address",
          "name": "to",
          "type": "address"
        },
        {
          "internalType": "uint256",
          "name": "tokenId",
          "type": "uint256"
        }
      ],
      "name": "approve",
      "outputs": [],
      "stateMutability": "nonpayable",
      "type": "function"
    },
    {
      "inputs": [
        {
          "internalType": "address",
          "name": "owner",
          "type": "address"
        }
      ],
      "name": "balanceOf",
      "outputs": [
        {
          "internalType": "uint256",
          "name": "",
          "type": "uint256"
        }
      ],
      "stateMutability": "view",
      "type": "function"
    },
    {
      "inputs": [
        {
          "internalType": "uint256",
          "name": "lat_",
          "type": "uint256"
        },
        {
          "internalType": "uint256",
          "name": "long_",
          "type": "uint256"
        },
        {
          "internalType": "uint256",
          "name": "distance_",
          "type": "uint256"
        },
        {
          "internalType": "bytes32",
          "name": "deviceHash_",
          "type": "bytes32"
        },
        {
          "internalType": "uint256",
          "name": "deviceTimestamp_",
          "type": "uint256"
        },
        {
          "internalType": "uint256",
          "name": "verifyTimestamp_",
          "type": "uint256"
        },
        {
          "internalType": "bytes",
          "name": "signature",
          "type": "bytes"
        }
      ],
      "name": "claim",
      "outputs": [],
      "stateMutability": "nonpayable",
      "type": "function"
    },
    {
      "inputs": [
        {
          "internalType": "bytes32",
          "name": "deviceHash_",
          "type": "bytes32"
        }
      ],
      "name": "claimed",
      "outputs": [
        {
          "internalType": "bool",
          "name": "",
          "type": "bool"
        }
      ],
      "stateMutability": "view",
      "type": "function"
    },
    {
      "inputs": [
        {
          "internalType": "bytes32",
          "name": "deviceHash_",
          "type": "bytes32"
        }
      ],
      "name": "claimedUser",
      "outputs": [
        {
          "internalType": "address",
          "name": "",
          "type": "address"
        }
      ],
      "stateMutability": "view",
      "type": "function"
    },
    {
      "inputs": [
        {
          "internalType": "uint256",
          "name": "tokenId",
          "type": "uint256"
        }
      ],
      "name": "getApproved",
      "outputs": [
        {
          "internalType": "address",
          "name": "",
          "type": "address"
        }
      ],
      "stateMutability": "view",
      "type": "function"
    },
    {
      "inputs": [
        {
          "internalType": "address",
          "name": "owner",
          "type": "address"
        },
        {
          "internalType": "address",
          "name": "operator",
          "type": "address"
        }
      ],
      "name": "isApprovedForAll",
      "outputs": [
        {
          "internalType": "bool",
          "name": "",
          "type": "bool"
        }
      ],
      "stateMutability": "view",
      "type": "function"
    },
    {
      "inputs": [],
      "name": "name",
      "outputs": [
        {
          "internalType": "string",
          "name": "",
          "type": "string"
        }
      ],
      "stateMutability": "view",
      "type": "function"
    },
    {
      "inputs": [],
      "name": "owner",
      "outputs": [
        {
          "internalType": "address",
          "name": "",
          "type": "address"
        }
      ],
      "stateMutability": "view",
      "type": "function"
    },
    {
      "inputs": [
        {
          "internalType": "uint256",
          "name": "tokenId",
          "type": "uint256"
        }
      ],
      "name": "ownerOf",
      "outputs": [
        {
          "internalType": "address",
          "name": "",
          "type": "address"
        }
      ],
      "stateMutability": "view",
      "type": "function"
    },
    {
      "inputs": [],
      "name": "renounceOwnership",
      "outputs": [],
      "stateMutability": "nonpayable",
      "type": "function"
    },
    {
      "inputs": [
        {
          "internalType": "address",
          "name": "from",
          "type": "address"
        },
        {
          "internalType": "address",
          "name": "to",
          "type": "address"
        },
        {
          "internalType": "uint256",
          "name": "tokenId",
          "type": "uint256"
        }
      ],
      "name": "safeTransferFrom",
      "outputs": [],
      "stateMutability": "nonpayable",
      "type": "function"
    },
    {
      "inputs": [
        {
          "internalType": "address",
          "name": "from",
          "type": "address"
        },
        {
          "internalType": "address",
          "name": "to",
          "type": "address"
        },
        {
          "internalType": "uint256",
          "name": "tokenId",
          "type": "uint256"
        },
        {
          "internalType": "bytes",
          "name": "data",
          "type": "bytes"
        }
      ],
      "name": "safeTransferFrom",
      "outputs": [],
      "stateMutability": "nonpayable",
      "type": "function"
    },
    {
      "inputs": [
        {
          "internalType": "address",
          "name": "operator",
          "type": "address"
        },
        {
          "internalType": "bool",
          "name": "approved",
          "type": "bool"
        }
      ],
      "name": "setApprovalForAll",
      "outputs": [],
      "stateMutability": "nonpayable",
      "type": "function"
    },
    {
      "inputs": [
        {
          "internalType": "string",
          "name": "uri_",
          "type": "string"
        }
      ],
      "name": "setBaseURI",
      "outputs": [],
      "stateMutability": "nonpayable",
      "type": "function"
    },
    {
      "inputs": [
        {
          "internalType": "bytes4",
          "name": "interfaceId",
          "type": "bytes4"
        }
      ],
      "name": "supportsInterface",
      "outputs": [
        {
          "internalType": "bool",
          "name": "",
          "type": "bool"
        }
      ],
      "stateMutability": "view",
      "type": "function"
    },
    {
      "inputs": [],
      "name": "symbol",
      "outputs": [
        {
          "internalType": "string",
          "name": "",
          "type": "string"
        }
      ],
      "stateMutability": "view",
      "type": "function"
    },
    {
      "inputs": [
        {
          "internalType": "uint256",
          "name": "tokenId",
          "type": "uint256"
        }
      ],
      "name": "tokenURI",
      "outputs": [
        {
          "internalType": "string",
          "name": "",
          "type": "string"
        }
      ],
      "stateMutability": "view",
      "type": "function"
    },
    {
      "inputs": [
        {
          "internalType": "address",
          "name": "from",
          "type": "address"
        },
        {
          "internalType": "address",
          "name": "to",
          "type": "address"
        },
        {
          "internalType": "uint256",
          "name": "tokenId",
          "type": "uint256"
        }
      ],
      "name": "transferFrom",
      "outputs": [],
      "stateMutability": "nonpayable",
      "type": "function"
    },
    {
      "inputs": [
        {
          "internalType": "address",
          "name": "newOwner",
          "type": "address"
        }
      ],
      "name": "transferOwnership",
      "outputs": [],
      "stateMutability": "nonpayable",
      "type": "function"
    },
    {
      "inputs": [],
      "name": "verifier",
      "outputs": [
        {
          "internalType": "contract IMetapebbleDataVerifier",
          "name": "",
          "type": "address"
        }
      ],
      "stateMutability": "view",
      "type": "function"
    }
  ],
  "transactionHash": "0xc283fb950ede04f8192b6af6bf2cb522381c68210ca9717f7f8b1cac3efc6d2f",
  "args": [
    120520000,
    30400000,
    1000,
    "0xf8faB7B96AF5937edB27099BBd5E13783aA8c07f",
    "ShangHai Pebble NFT",
    "SHP"
  ],
  "numDeployments": 1,
  "solcInputHash": "423bf7d2145ba99a6717463299dfaba1",
  "bytecode": "0x60806040523480156200001157600080fd5b5060405162002405380380620024058339810160408190526200003491620001d5565b600160005582828281816200004933620000be565b60026200005783826200030c565b5060036200006682826200030c565b5050600880546001600160a01b0319166001600160a01b03861617905550604080516020810190915260008152600b90620000a290826200030c565b505050600c96909655505050600d91909155600e5550620003d8565b600180546001600160a01b038381166001600160a01b0319831681179093556040519116919082907f8be0079c531659141344cd1fd0a4f28419497f9722a3daafe3b4186f6b6457e090600090a35050565b634e487b7160e01b600052604160045260246000fd5b600082601f8301126200013857600080fd5b81516001600160401b038082111562000155576200015562000110565b604051601f8301601f19908116603f0116810190828211818310171562000180576200018062000110565b816040528381526020925086838588010111156200019d57600080fd5b600091505b83821015620001c15785820183015181830184015290820190620001a2565b600093810190920192909252949350505050565b60008060008060008060c08789031215620001ef57600080fd5b86516020880151604089015160608a015192985090965094506001600160a01b03811681146200021e57600080fd5b60808801519093506001600160401b03808211156200023c57600080fd5b6200024a8a838b0162000126565b935060a08901519150808211156200026157600080fd5b506200027089828a0162000126565b9150509295509295509295565b600181811c908216806200029257607f821691505b602082108103620002b357634e487b7160e01b600052602260045260246000fd5b50919050565b601f8211156200030757600081815260208120601f850160051c81016020861015620002e25750805b601f850160051c820191505b818110156200030357828155600101620002ee565b5050505b505050565b81516001600160401b0381111562000328576200032862000110565b62000340816200033984546200027d565b84620002b9565b602080601f8311600181146200037857600084156200035f5750858301515b600019600386901b1c1916600185901b17855562000303565b600085815260208120601f198616915b82811015620003a95788860151825594840194600190910190840162000388565b5085821015620003c85787850151600019600388901b60f8161c191681555b5050505050600190811b01905550565b61201d80620003e86000396000f3fe608060405234801561001057600080fd5b50600436106101775760003560e01c8063715018a6116100d8578063b76123461161008c578063cc3c0f0611610066578063cc3c0f061461030f578063e985e9c51461033a578063f2fde38b1461037657600080fd5b8063b7612346146102d6578063b88d4fde146102e9578063c87b56dd146102fc57600080fd5b80638da5cb5b116100bd5780638da5cb5b146102aa57806395d89b41146102bb578063a22cb465146102c357600080fd5b8063715018a6146102795780637d6fbd9e1461028157600080fd5b80632b7ac3f31161012f57806355f804b31161011457806355f804b3146102325780636352211e1461024557806370a082311461025857600080fd5b80632b7ac3f31461020c57806342842e0e1461021f57600080fd5b8063081812fc11610160578063081812fc146101b9578063095ea7b3146101e457806323b872dd146101f957600080fd5b806301ffc9a71461017c57806306fdde03146101a4575b600080fd5b61018f61018a3660046118ac565b610389565b60405190151581526020015b60405180910390f35b6101ac61046e565b60405161019b9190611937565b6101cc6101c736600461194a565b610500565b6040516001600160a01b03909116815260200161019b565b6101f76101f236600461197f565b610527565b005b6101f76102073660046119a9565b61067b565b6008546101cc906001600160a01b031681565b6101f761022d3660046119a9565b610702565b6101f76102403660046119e5565b61071d565b6101cc61025336600461194a565b610732565b61026b610266366004611a57565b610797565b60405190815260200161019b565b6101f7610831565b6101cc61028f36600461194a565b6000908152600960205260409020546001600160a01b031690565b6001546001600160a01b03166101cc565b6101ac610845565b6101f76102d1366004611a80565b610854565b6101f76102e4366004611b91565b610863565b6101f76102f7366004611c08565b61095e565b6101ac61030a36600461194a565b6109ec565b61018f61031d36600461194a565b6000908152600960205260409020546001600160a01b0316151590565b61018f610348366004611c70565b6001600160a01b03918216600090815260076020908152604080832093909416825291909152205460ff1690565b6101f7610384366004611a57565b610a53565b60007fffffffff0000000000000000000000000000000000000000000000000000000082167f80ac58cd00000000000000000000000000000000000000000000000000000000148061041c57507fffffffff0000000000000000000000000000000000000000000000000000000082167f5b5e139f00000000000000000000000000000000000000000000000000000000145b8061046857507f01ffc9a7000000000000000000000000000000000000000000000000000000007fffffffff000000000000000000000000000000000000000000000000000000008316145b92915050565b60606002805461047d90611ca3565b80601f01602080910402602001604051908101604052809291908181526020018280546104a990611ca3565b80156104f65780601f106104cb576101008083540402835291602001916104f6565b820191906000526020600020905b8154815290600101906020018083116104d957829003601f168201915b5050505050905090565b600061050b82610ae3565b506000908152600660205260409020546001600160a01b031690565b600061053282610732565b9050806001600160a01b0316836001600160a01b0316036105c05760405162461bcd60e51b815260206004820152602160248201527f4552433732313a20617070726f76616c20746f2063757272656e74206f776e6560448201527f720000000000000000000000000000000000000000000000000000000000000060648201526084015b60405180910390fd5b336001600160a01b03821614806105fa57506001600160a01b038116600090815260076020908152604080832033845290915290205460ff165b61066c5760405162461bcd60e51b815260206004820152603d60248201527f4552433732313a20617070726f76652063616c6c6572206973206e6f7420746f60448201527f6b656e206f776e6572206f7220617070726f76656420666f7220616c6c00000060648201526084016105b7565b6106768383610b47565b505050565b6106853382610bcd565b6106f75760405162461bcd60e51b815260206004820152602d60248201527f4552433732313a2063616c6c6572206973206e6f7420746f6b656e206f776e6560448201527f72206f7220617070726f7665640000000000000000000000000000000000000060648201526084016105b7565b610676838383610c4c565b6106768383836040518060200160405280600081525061095e565b610725610eb8565b600b610676828483611d44565b6000818152600460205260408120546001600160a01b0316806104685760405162461bcd60e51b815260206004820152601860248201527f4552433732313a20696e76616c696420746f6b656e204944000000000000000060448201526064016105b7565b60006001600160a01b0382166108155760405162461bcd60e51b815260206004820152602960248201527f4552433732313a2061646472657373207a65726f206973206e6f74206120766160448201527f6c6964206f776e6572000000000000000000000000000000000000000000000060648201526084016105b7565b506001600160a01b031660009081526005602052604090205490565b610839610eb8565b6108436000610f12565b565b60606003805461047d90611ca3565b61085f338383610f7c565b5050565b61086b611068565b6000848152600960205260409020546001600160a01b0316156108d05760405162461bcd60e51b815260206004820152600f60248201527f616c726561647920636c61696d6564000000000000000000000000000000000060448201526064016105b7565b600c54871480156108e25750600d5486145b80156108ef5750600e5485105b61093b5760405162461bcd60e51b815260206004820152601060248201527f696e76616c6964206c6f636174696f6e0000000000000000000000000000000060448201526064016105b7565b61094b33888888888888886110c1565b6109556001600055565b50505050505050565b6109683383610bcd565b6109da5760405162461bcd60e51b815260206004820152602d60248201527f4552433732313a2063616c6c6572206973206e6f7420746f6b656e206f776e6560448201527f72206f7220617070726f7665640000000000000000000000000000000000000060648201526084016105b7565b6109e6848484846111b9565b50505050565b60606109f782610ae3565b6000610a01611242565b90506000815111610a215760405180602001604052806000815250610a4c565b80610a2b84611251565b604051602001610a3c929190611e5f565b6040516020818303038152906040525b9392505050565b610a5b610eb8565b6001600160a01b038116610ad75760405162461bcd60e51b815260206004820152602660248201527f4f776e61626c653a206e6577206f776e657220697320746865207a65726f206160448201527f646472657373000000000000000000000000000000000000000000000000000060648201526084016105b7565b610ae081610f12565b50565b6000818152600460205260409020546001600160a01b0316610ae05760405162461bcd60e51b815260206004820152601860248201527f4552433732313a20696e76616c696420746f6b656e204944000000000000000060448201526064016105b7565b600081815260066020526040902080547fffffffffffffffffffffffff0000000000000000000000000000000000000000166001600160a01b0384169081179091558190610b9482610732565b6001600160a01b03167f8c5be1e5ebec7d5bd14f71427d1e84f3dd0314c0f7b2291e5b200ac8c7c3b92560405160405180910390a45050565b600080610bd983610732565b9050806001600160a01b0316846001600160a01b03161480610c2057506001600160a01b0380821660009081526007602090815260408083209388168352929052205460ff165b80610c445750836001600160a01b0316610c3984610500565b6001600160a01b0316145b949350505050565b826001600160a01b0316610c5f82610732565b6001600160a01b031614610cdb5760405162461bcd60e51b815260206004820152602560248201527f4552433732313a207472616e736665722066726f6d20696e636f72726563742060448201527f6f776e657200000000000000000000000000000000000000000000000000000060648201526084016105b7565b6001600160a01b038216610d565760405162461bcd60e51b8152602060048201526024808201527f4552433732313a207472616e7366657220746f20746865207a65726f2061646460448201527f726573730000000000000000000000000000000000000000000000000000000060648201526084016105b7565b610d63838383600161130f565b826001600160a01b0316610d7682610732565b6001600160a01b031614610df25760405162461bcd60e51b815260206004820152602560248201527f4552433732313a207472616e736665722066726f6d20696e636f72726563742060448201527f6f776e657200000000000000000000000000000000000000000000000000000060648201526084016105b7565b600081815260066020908152604080832080547fffffffffffffffffffffffff00000000000000000000000000000000000000009081169091556001600160a01b038781168086526005855283862080547fffffffffffffffffffffffffffffffffffffffffffffffffffffffffffffffff01905590871680865283862080546001019055868652600490945282852080549092168417909155905184937fddf252ad1be2c89b69c2b068fc378daa952ba7f163c4a11628f55a4df523b3ef91a4505050565b6001546001600160a01b031633146108435760405162461bcd60e51b815260206004820181905260248201527f4f776e61626c653a2063616c6c6572206973206e6f7420746865206f776e657260448201526064016105b7565b600180546001600160a01b038381167fffffffffffffffffffffffff0000000000000000000000000000000000000000831681179093556040519116919082907f8be0079c531659141344cd1fd0a4f28419497f9722a3daafe3b4186f6b6457e090600090a35050565b816001600160a01b0316836001600160a01b031603610fdd5760405162461bcd60e51b815260206004820152601960248201527f4552433732313a20617070726f766520746f2063616c6c65720000000000000060448201526064016105b7565b6001600160a01b0383811660008181526007602090815260408083209487168084529482529182902080547fffffffffffffffffffffffffffffffffffffffffffffffffffffffffffffff001686151590811790915591519182527f17307eab39ab6107e8899845ad3d59bd9653f200f220920489ca2b5937696c31910160405180910390a3505050565b6002600054036110ba5760405162461bcd60e51b815260206004820152601f60248201527f5265656e7472616e637947756172643a207265656e7472616e742063616c6c0060448201526064016105b7565b6002600055565b6008546040517f4c4d16870000000000000000000000000000000000000000000000000000000081526001600160a01b0390911690634c4d168790611118908b908b908b908b908b908b908b908b90600401611e8e565b602060405180830381865afa158015611135573d6000803e3d6000fd5b505050506040513d601f19601f820116820180604052508101906111599190611ee4565b6111a55760405162461bcd60e51b815260206004820152601160248201527f696e76616c6964207369676e617475726500000000000000000000000000000060448201526064016105b7565b6111af8885611397565b5050505050505050565b6111c4848484610c4c565b6111d08484848461142c565b6109e65760405162461bcd60e51b815260206004820152603260248201527f4552433732313a207472616e7366657220746f206e6f6e20455243373231526560448201527f63656976657220696d706c656d656e746572000000000000000000000000000060648201526084016105b7565b6060600b805461047d90611ca3565b6060600061125e836115eb565b600101905060008167ffffffffffffffff81111561127e5761127e611ab7565b6040519080825280601f01601f1916602001820160405280156112a8576020820181803683370190505b5090508181016020015b7fffffffffffffffffffffffffffffffffffffffffffffffffffffffffffffffff017f3031323334353637383961626364656600000000000000000000000000000000600a86061a8153600a85049450846112b257509392505050565b60018111156109e6576001600160a01b03841615611355576001600160a01b0384166000908152600560205260408120805483929061134f908490611f30565b90915550505b6001600160a01b038316156109e6576001600160a01b0383166000908152600560205260408120805483929061138c908490611f43565b909155505050505050565b6113a382600a546116cd565b60008181526009602052604080822080547fffffffffffffffffffffffff0000000000000000000000000000000000000000166001600160a01b038616908117909155600a549151919284927f9b01158d4bc10c112ba32b5240cda97e49e2eb86021f03f6a0f460342ac4dfda9190a4600a805490600061142383611f56565b91905055505050565b60006001600160a01b0384163b156115e0576040517f150b7a020000000000000000000000000000000000000000000000000000000081526001600160a01b0385169063150b7a0290611489903390899088908890600401611f8e565b6020604051808303816000875af19250505080156114e2575060408051601f3d9081017fffffffffffffffffffffffffffffffffffffffffffffffffffffffffffffffe01682019092526114df91810190611fca565b60015b611595573d808015611510576040519150601f19603f3d011682016040523d82523d6000602084013e611515565b606091505b50805160000361158d5760405162461bcd60e51b815260206004820152603260248201527f4552433732313a207472616e7366657220746f206e6f6e20455243373231526560448201527f63656976657220696d706c656d656e746572000000000000000000000000000060648201526084016105b7565b805181602001fd5b7fffffffff00000000000000000000000000000000000000000000000000000000167f150b7a0200000000000000000000000000000000000000000000000000000000149050610c44565b506001949350505050565b6000807a184f03e93ff9f4daa797ed6e38ed64bf6a1f0100000000000000008310611634577a184f03e93ff9f4daa797ed6e38ed64bf6a1f010000000000000000830492506040015b6d04ee2d6d415b85acef81000000008310611660576d04ee2d6d415b85acef8100000000830492506020015b662386f26fc10000831061167e57662386f26fc10000830492506010015b6305f5e1008310611696576305f5e100830492506008015b61271083106116aa57612710830492506004015b606483106116bc576064830492506002015b600a83106104685760010192915050565b6001600160a01b0382166117235760405162461bcd60e51b815260206004820181905260248201527f4552433732313a206d696e7420746f20746865207a65726f206164647265737360448201526064016105b7565b6000818152600460205260409020546001600160a01b0316156117885760405162461bcd60e51b815260206004820152601c60248201527f4552433732313a20746f6b656e20616c7265616479206d696e7465640000000060448201526064016105b7565b61179660008383600161130f565b6000818152600460205260409020546001600160a01b0316156117fb5760405162461bcd60e51b815260206004820152601c60248201527f4552433732313a20746f6b656e20616c7265616479206d696e7465640000000060448201526064016105b7565b6001600160a01b038216600081815260056020908152604080832080546001019055848352600490915280822080547fffffffffffffffffffffffff0000000000000000000000000000000000000000168417905551839291907fddf252ad1be2c89b69c2b068fc378daa952ba7f163c4a11628f55a4df523b3ef908290a45050565b7fffffffff0000000000000000000000000000000000000000000000000000000081168114610ae057600080fd5b6000602082840312156118be57600080fd5b8135610a4c8161187e565b60005b838110156118e45781810151838201526020016118cc565b50506000910152565b600081518084526119058160208601602086016118c9565b601f017fffffffffffffffffffffffffffffffffffffffffffffffffffffffffffffffe0169290920160200192915050565b602081526000610a4c60208301846118ed565b60006020828403121561195c57600080fd5b5035919050565b80356001600160a01b038116811461197a57600080fd5b919050565b6000806040838503121561199257600080fd5b61199b83611963565b946020939093013593505050565b6000806000606084860312156119be57600080fd5b6119c784611963565b92506119d560208501611963565b9150604084013590509250925092565b600080602083850312156119f857600080fd5b823567ffffffffffffffff80821115611a1057600080fd5b818501915085601f830112611a2457600080fd5b813581811115611a3357600080fd5b866020828501011115611a4557600080fd5b60209290920196919550909350505050565b600060208284031215611a6957600080fd5b610a4c82611963565b8015158114610ae057600080fd5b60008060408385031215611a9357600080fd5b611a9c83611963565b91506020830135611aac81611a72565b809150509250929050565b7f4e487b7100000000000000000000000000000000000000000000000000000000600052604160045260246000fd5b600082601f830112611af757600080fd5b813567ffffffffffffffff80821115611b1257611b12611ab7565b604051601f83017fffffffffffffffffffffffffffffffffffffffffffffffffffffffffffffffe0908116603f01168101908282118183101715611b5857611b58611ab7565b81604052838152866020858801011115611b7157600080fd5b836020870160208301376000602085830101528094505050505092915050565b600080600080600080600060e0888a031215611bac57600080fd5b873596506020880135955060408801359450606088013593506080880135925060a0880135915060c088013567ffffffffffffffff811115611bed57600080fd5b611bf98a828b01611ae6565b91505092959891949750929550565b60008060008060808587031215611c1e57600080fd5b611c2785611963565b9350611c3560208601611963565b925060408501359150606085013567ffffffffffffffff811115611c5857600080fd5b611c6487828801611ae6565b91505092959194509250565b60008060408385031215611c8357600080fd5b611c8c83611963565b9150611c9a60208401611963565b90509250929050565b600181811c90821680611cb757607f821691505b602082108103611cf0577f4e487b7100000000000000000000000000000000000000000000000000000000600052602260045260246000fd5b50919050565b601f82111561067657600081815260208120601f850160051c81016020861015611d1d5750805b601f850160051c820191505b81811015611d3c57828155600101611d29565b505050505050565b67ffffffffffffffff831115611d5c57611d5c611ab7565b611d7083611d6a8354611ca3565b83611cf6565b6000601f841160018114611dc25760008515611d8c5750838201355b7fffffffffffffffffffffffffffffffffffffffffffffffffffffffffffffffff600387901b1c1916600186901b178355611e58565b6000838152602090207fffffffffffffffffffffffffffffffffffffffffffffffffffffffffffffffe0861690835b82811015611e115786850135825560209485019460019092019101611df1565b5086821015611e4c577fffffffffffffffffffffffffffffffffffffffffffffffffffffffffffffffff60f88860031b161c19848701351681555b505060018560011b0183555b5050505050565b60008351611e718184602088016118c9565b835190830190611e858183602088016118c9565b01949350505050565b60006101006001600160a01b038b1683528960208401528860408401528760608401528660808401528560a08401528460c08401528060e0840152611ed5818401856118ed565b9b9a5050505050505050505050565b600060208284031215611ef657600080fd5b8151610a4c81611a72565b7f4e487b7100000000000000000000000000000000000000000000000000000000600052601160045260246000fd5b8181038181111561046857610468611f01565b8082018082111561046857610468611f01565b60007fffffffffffffffffffffffffffffffffffffffffffffffffffffffffffffffff8203611f8757611f87611f01565b5060010190565b60006001600160a01b03808716835280861660208401525083604083015260806060830152611fc060808301846118ed565b9695505050505050565b600060208284031215611fdc57600080fd5b8151610a4c8161187e56fea2646970667358221220de426128e31e2ba7b75f4ab555b6c8af36dfcc69c1589abb55807d9ffae42aaf64736f6c63430008110033",
  "devdoc": {
    "kind": "dev",
    "methods": {
      "approve(address,uint256)": {
        "details": "See {IERC721-approve}."
      },
      "balanceOf(address)": {
        "details": "See {IERC721-balanceOf}."
      },
      "getApproved(uint256)": {
        "details": "See {IERC721-getApproved}."
      },
      "isApprovedForAll(address,address)": {
        "details": "See {IERC721-isApprovedForAll}."
      },
      "name()": {
        "details": "See {IERC721Metadata-name}."
      },
      "owner()": {
        "details": "Returns the address of the current owner."
      },
      "ownerOf(uint256)": {
        "details": "See {IERC721-ownerOf}."
      },
      "renounceOwnership()": {
        "details": "Leaves the contract without owner. It will not be possible to call `onlyOwner` functions anymore. Can only be called by the current owner. NOTE: Renouncing ownership will leave the contract without an owner, thereby removing any functionality that is only available to the owner."
      },
      "safeTransferFrom(address,address,uint256)": {
        "details": "See {IERC721-safeTransferFrom}."
      },
      "safeTransferFrom(address,address,uint256,bytes)": {
        "details": "See {IERC721-safeTransferFrom}."
      },
      "setApprovalForAll(address,bool)": {
        "details": "See {IERC721-setApprovalForAll}."
      },
      "supportsInterface(bytes4)": {
        "details": "See {IERC165-supportsInterface}."
      },
      "symbol()": {
        "details": "See {IERC721Metadata-symbol}."
      },
      "tokenURI(uint256)": {
        "details": "See {IERC721Metadata-tokenURI}."
      },
      "transferFrom(address,address,uint256)": {
        "details": "See {IERC721-transferFrom}."
      },
      "transferOwnership(address)": {
        "details": "Transfers ownership of the contract to a new account (`newOwner`). Can only be called by the current owner."
      }
    },
    "version": 1
  },
  "userdoc": {
    "kind": "user",
    "methods": {},
    "version": 1
  },
  "storageLayout": {
    "storage": [
      {
        "astId": 292,
        "contract": "contracts/examples/PebbleFixedLocationNFT.sol:PebbleFixedLocationNFT",
        "label": "_status",
        "offset": 0,
        "slot": "0",
        "type": "t_uint256"
      },
      {
        "astId": 7,
        "contract": "contracts/examples/PebbleFixedLocationNFT.sol:PebbleFixedLocationNFT",
        "label": "_owner",
        "offset": 0,
        "slot": "1",
        "type": "t_address"
      },
      {
        "astId": 1051,
        "contract": "contracts/examples/PebbleFixedLocationNFT.sol:PebbleFixedLocationNFT",
        "label": "_name",
        "offset": 0,
        "slot": "2",
        "type": "t_string_storage"
      },
      {
        "astId": 1053,
        "contract": "contracts/examples/PebbleFixedLocationNFT.sol:PebbleFixedLocationNFT",
        "label": "_symbol",
        "offset": 0,
        "slot": "3",
        "type": "t_string_storage"
      },
      {
        "astId": 1057,
        "contract": "contracts/examples/PebbleFixedLocationNFT.sol:PebbleFixedLocationNFT",
        "label": "_owners",
        "offset": 0,
        "slot": "4",
        "type": "t_mapping(t_uint256,t_address)"
      },
      {
        "astId": 1061,
        "contract": "contracts/examples/PebbleFixedLocationNFT.sol:PebbleFixedLocationNFT",
        "label": "_balances",
        "offset": 0,
        "slot": "5",
        "type": "t_mapping(t_address,t_uint256)"
      },
      {
        "astId": 1065,
        "contract": "contracts/examples/PebbleFixedLocationNFT.sol:PebbleFixedLocationNFT",
        "label": "_tokenApprovals",
        "offset": 0,
        "slot": "6",
        "type": "t_mapping(t_uint256,t_address)"
      },
      {
        "astId": 1071,
        "contract": "contracts/examples/PebbleFixedLocationNFT.sol:PebbleFixedLocationNFT",
        "label": "_operatorApprovals",
        "offset": 0,
        "slot": "7",
        "type": "t_mapping(t_address,t_mapping(t_address,t_bool))"
      },
      {
        "astId": 4112,
        "contract": "contracts/examples/PebbleFixedLocationNFT.sol:PebbleFixedLocationNFT",
        "label": "verifier",
        "offset": 0,
        "slot": "8",
        "type": "t_contract(IMetapebbleDataVerifier)4855"
      },
      {
        "astId": 4140,
        "contract": "contracts/examples/PebbleFixedLocationNFT.sol:PebbleFixedLocationNFT",
        "label": "_claimedDevices",
        "offset": 0,
        "slot": "9",
        "type": "t_mapping(t_bytes32,t_address)"
      },
      {
        "astId": 4142,
        "contract": "contracts/examples/PebbleFixedLocationNFT.sol:PebbleFixedLocationNFT",
        "label": "_tokenId",
        "offset": 0,
        "slot": "10",
        "type": "t_uint256"
      },
      {
        "astId": 4144,
        "contract": "contracts/examples/PebbleFixedLocationNFT.sol:PebbleFixedLocationNFT",
        "label": "_uri",
        "offset": 0,
        "slot": "11",
        "type": "t_string_storage"
      },
      {
        "astId": 4368,
        "contract": "contracts/examples/PebbleFixedLocationNFT.sol:PebbleFixedLocationNFT",
        "label": "lat",
        "offset": 0,
        "slot": "12",
        "type": "t_uint256"
      },
      {
        "astId": 4370,
        "contract": "contracts/examples/PebbleFixedLocationNFT.sol:PebbleFixedLocationNFT",
        "label": "long",
        "offset": 0,
        "slot": "13",
        "type": "t_uint256"
      },
      {
        "astId": 4372,
        "contract": "contracts/examples/PebbleFixedLocationNFT.sol:PebbleFixedLocationNFT",
        "label": "maxDistance",
        "offset": 0,
        "slot": "14",
        "type": "t_uint256"
      }
    ],
    "types": {
      "t_address": {
        "encoding": "inplace",
        "label": "address",
        "numberOfBytes": "20"
      },
      "t_bool": {
        "encoding": "inplace",
        "label": "bool",
        "numberOfBytes": "1"
      },
      "t_bytes32": {
        "encoding": "inplace",
        "label": "bytes32",
        "numberOfBytes": "32"
      },
      "t_contract(IMetapebbleDataVerifier)4855": {
        "encoding": "inplace",
        "label": "contract IMetapebbleDataVerifier",
        "numberOfBytes": "20"
      },
      "t_mapping(t_address,t_bool)": {
        "encoding": "mapping",
        "key": "t_address",
        "label": "mapping(address => bool)",
        "numberOfBytes": "32",
        "value": "t_bool"
      },
      "t_mapping(t_address,t_mapping(t_address,t_bool))": {
        "encoding": "mapping",
        "key": "t_address",
        "label": "mapping(address => mapping(address => bool))",
        "numberOfBytes": "32",
        "value": "t_mapping(t_address,t_bool)"
      },
      "t_mapping(t_address,t_uint256)": {
        "encoding": "mapping",
        "key": "t_address",
        "label": "mapping(address => uint256)",
        "numberOfBytes": "32",
        "value": "t_uint256"
      },
      "t_mapping(t_bytes32,t_address)": {
        "encoding": "mapping",
        "key": "t_bytes32",
        "label": "mapping(bytes32 => address)",
        "numberOfBytes": "32",
        "value": "t_address"
      },
      "t_mapping(t_uint256,t_address)": {
        "encoding": "mapping",
        "key": "t_uint256",
        "label": "mapping(uint256 => address)",
        "numberOfBytes": "32",
        "value": "t_address"
      },
      "t_string_storage": {
        "encoding": "bytes",
        "label": "string",
        "numberOfBytes": "32"
      },
      "t_uint256": {
        "encoding": "inplace",
        "label": "uint256",
        "numberOfBytes": "32"
      }
    }
  }
}