{
  "address": "0xf512ec9546d4dd4865acBE519b252C7246548EeA",
  "abi": [
    {
      "inputs": [
        {
          "internalType": "int256",
          "name": "_lat",
          "type": "int256"
        },
        {
          "internalType": "int256",
          "name": "_long",
          "type": "int256"
        },
        {
          "internalType": "uint256",
          "name": "_maxDistance",
          "type": "uint256"
        },
        {
          "internalType": "address",
          "name": "_verifier",
          "type": "address"
        },
        {
          "internalType": "string",
          "name": "_name",
          "type": "string"
        },
        {
          "internalType": "string",
          "name": "_symbol",
          "type": "string"
        }
      ],
      "stateMutability": "nonpayable",
      "type": "constructor"
    },
    {
      "anonymous": false,
      "inputs": [
        {
          "indexed": true,
          "internalType": "address",
          "name": "owner",
          "type": "address"
        },
        {
          "indexed": true,
          "internalType": "address",
          "name": "approved",
          "type": "address"
        },
        {
          "indexed": true,
          "internalType": "uint256",
          "name": "tokenId",
          "type": "uint256"
        }
      ],
      "name": "Approval",
      "type": "event"
    },
    {
      "anonymous": false,
      "inputs": [
        {
          "indexed": true,
          "internalType": "address",
          "name": "owner",
          "type": "address"
        },
        {
          "indexed": true,
          "internalType": "address",
          "name": "operator",
          "type": "address"
        },
        {
          "indexed": false,
          "internalType": "bool",
          "name": "approved",
          "type": "bool"
        }
      ],
      "name": "ApprovalForAll",
      "type": "event"
    },
    {
      "anonymous": false,
      "inputs": [
        {
          "indexed": true,
          "internalType": "address",
          "name": "holder",
          "type": "address"
        },
        {
          "indexed": true,
          "internalType": "bytes32",
          "name": "deviceHash",
          "type": "bytes32"
        },
        {
          "indexed": true,
          "internalType": "uint256",
          "name": "tokenId",
          "type": "uint256"
        }
      ],
      "name": "Claimed",
      "type": "event"
    },
    {
      "anonymous": false,
      "inputs": [
        {
          "indexed": true,
          "internalType": "address",
          "name": "from",
          "type": "address"
        },
        {
          "indexed": true,
          "internalType": "address",
          "name": "to",
          "type": "address"
        },
        {
          "indexed": true,
          "internalType": "uint256",
          "name": "tokenId",
          "type": "uint256"
        }
      ],
      "name": "Transfer",
      "type": "event"
    },
    {
      "inputs": [
        {
          "internalType": "address",
          "name": "to",
          "type": "address"
        },
        {
          "internalType": "uint256",
          "name": "tokenId",
          "type": "uint256"
        }
      ],
      "name": "approve",
      "outputs": [],
      "stateMutability": "nonpayable",
      "type": "function"
    },
    {
      "inputs": [
        {
          "internalType": "address",
          "name": "owner",
          "type": "address"
        }
      ],
      "name": "balanceOf",
      "outputs": [
        {
          "internalType": "uint256",
          "name": "",
          "type": "uint256"
        }
      ],
      "stateMutability": "view",
      "type": "function"
    },
    {
      "inputs": [
        {
          "internalType": "int256",
          "name": "lat_",
          "type": "int256"
        },
        {
          "internalType": "int256",
          "name": "long_",
          "type": "int256"
        },
        {
          "internalType": "uint256",
          "name": "distance_",
          "type": "uint256"
        },
        {
          "internalType": "bytes32",
          "name": "deviceHash_",
          "type": "bytes32"
        },
        {
          "internalType": "uint256",
          "name": "startTimestamp_",
          "type": "uint256"
        },
        {
          "internalType": "uint256",
          "name": "endTimestamp_",
          "type": "uint256"
        },
        {
          "internalType": "bytes",
          "name": "signature",
          "type": "bytes"
        }
      ],
      "name": "claim",
      "outputs": [],
      "stateMutability": "payable",
      "type": "function"
    },
    {
      "inputs": [],
      "name": "claimFee",
      "outputs": [
        {
          "internalType": "uint256",
          "name": "",
          "type": "uint256"
        }
      ],
      "stateMutability": "view",
      "type": "function"
    },
    {
      "inputs": [
        {
          "internalType": "bytes32",
          "name": "deviceHash_",
          "type": "bytes32"
        }
      ],
      "name": "claimed",
      "outputs": [
        {
          "internalType": "bool",
          "name": "",
          "type": "bool"
        }
      ],
      "stateMutability": "view",
      "type": "function"
    },
    {
      "inputs": [
        {
          "internalType": "bytes32",
          "name": "deviceHash_",
          "type": "bytes32"
        }
      ],
      "name": "claimedUser",
      "outputs": [
        {
          "internalType": "address",
          "name": "",
          "type": "address"
        }
      ],
      "stateMutability": "view",
      "type": "function"
    },
    {
      "inputs": [
        {
          "internalType": "uint256",
          "name": "tokenId",
          "type": "uint256"
        }
      ],
      "name": "getApproved",
      "outputs": [
        {
          "internalType": "address",
          "name": "",
          "type": "address"
        }
      ],
      "stateMutability": "view",
      "type": "function"
    },
    {
      "inputs": [
        {
          "internalType": "address",
          "name": "owner",
          "type": "address"
        },
        {
          "internalType": "address",
          "name": "operator",
          "type": "address"
        }
      ],
      "name": "isApprovedForAll",
      "outputs": [
        {
          "internalType": "bool",
          "name": "",
          "type": "bool"
        }
      ],
      "stateMutability": "view",
      "type": "function"
    },
    {
      "inputs": [],
      "name": "name",
      "outputs": [
        {
          "internalType": "string",
          "name": "",
          "type": "string"
        }
      ],
      "stateMutability": "view",
      "type": "function"
    },
    {
      "inputs": [
        {
          "internalType": "uint256",
          "name": "tokenId",
          "type": "uint256"
        }
      ],
      "name": "ownerOf",
      "outputs": [
        {
          "internalType": "address",
          "name": "",
          "type": "address"
        }
      ],
      "stateMutability": "view",
      "type": "function"
    },
    {
      "inputs": [
        {
          "internalType": "address",
          "name": "from",
          "type": "address"
        },
        {
          "internalType": "address",
          "name": "to",
          "type": "address"
        },
        {
          "internalType": "uint256",
          "name": "tokenId",
          "type": "uint256"
        }
      ],
      "name": "safeTransferFrom",
      "outputs": [],
      "stateMutability": "nonpayable",
      "type": "function"
    },
    {
      "inputs": [
        {
          "internalType": "address",
          "name": "from",
          "type": "address"
        },
        {
          "internalType": "address",
          "name": "to",
          "type": "address"
        },
        {
          "internalType": "uint256",
          "name": "tokenId",
          "type": "uint256"
        },
        {
          "internalType": "bytes",
          "name": "data",
          "type": "bytes"
        }
      ],
      "name": "safeTransferFrom",
      "outputs": [],
      "stateMutability": "nonpayable",
      "type": "function"
    },
    {
      "inputs": [
        {
          "internalType": "address",
          "name": "operator",
          "type": "address"
        },
        {
          "internalType": "bool",
          "name": "approved",
          "type": "bool"
        }
      ],
      "name": "setApprovalForAll",
      "outputs": [],
      "stateMutability": "nonpayable",
      "type": "function"
    },
    {
      "inputs": [
        {
          "internalType": "bytes4",
          "name": "interfaceId",
          "type": "bytes4"
        }
      ],
      "name": "supportsInterface",
      "outputs": [
        {
          "internalType": "bool",
          "name": "",
          "type": "bool"
        }
      ],
      "stateMutability": "view",
      "type": "function"
    },
    {
      "inputs": [],
      "name": "symbol",
      "outputs": [
        {
          "internalType": "string",
          "name": "",
          "type": "string"
        }
      ],
      "stateMutability": "view",
      "type": "function"
    },
    {
      "inputs": [
        {
          "internalType": "uint256",
          "name": "index",
          "type": "uint256"
        }
      ],
      "name": "tokenByIndex",
      "outputs": [
        {
          "internalType": "uint256",
          "name": "",
          "type": "uint256"
        }
      ],
      "stateMutability": "view",
      "type": "function"
    },
    {
      "inputs": [
        {
          "internalType": "address",
          "name": "owner",
          "type": "address"
        },
        {
          "internalType": "uint256",
          "name": "index",
          "type": "uint256"
        }
      ],
      "name": "tokenOfOwnerByIndex",
      "outputs": [
        {
          "internalType": "uint256",
          "name": "",
          "type": "uint256"
        }
      ],
      "stateMutability": "view",
      "type": "function"
    },
    {
      "inputs": [
        {
          "internalType": "uint256",
          "name": "tokenId",
          "type": "uint256"
        }
      ],
      "name": "tokenURI",
      "outputs": [
        {
          "internalType": "string",
          "name": "",
          "type": "string"
        }
      ],
      "stateMutability": "view",
      "type": "function"
    },
    {
      "inputs": [],
      "name": "totalSupply",
      "outputs": [
        {
          "internalType": "uint256",
          "name": "",
          "type": "uint256"
        }
      ],
      "stateMutability": "view",
      "type": "function"
    },
    {
      "inputs": [
        {
          "internalType": "address",
          "name": "from",
          "type": "address"
        },
        {
          "internalType": "address",
          "name": "to",
          "type": "address"
        },
        {
          "internalType": "uint256",
          "name": "tokenId",
          "type": "uint256"
        }
      ],
      "name": "transferFrom",
      "outputs": [],
      "stateMutability": "nonpayable",
      "type": "function"
    },
    {
      "inputs": [],
      "name": "verifier",
      "outputs": [
        {
          "internalType": "contract IMetapebbleDataVerifier",
          "name": "",
          "type": "address"
        }
      ],
      "stateMutability": "view",
      "type": "function"
    }
  ],
  "transactionHash": "0x4be3313f46874b572d32ba62b014b3866a2344156935aeac642088d1d8a8924c",
  "args": [
    120520000,
    30400000,
    1000,
    "0xB9ae925fF8318915e3266e0EA41a37408033caC6",
    "ShangHai Pebble NFT",
    "SHP"
  ],
  "numDeployments": 1,
  "solcInputHash": "18a26cd5d63fe6faae120be289f29b34",
  "bytecode": "0x60806040523480156200001157600080fd5b506040516200282438038062002824833981016040819052620000349162000164565b8282828181600160008190555081600190816200005291906200029b565b5060026200006182826200029b565b5050600b80546001600160a01b0319166001600160a01b039590951694909417909355505050600d959095555050600e91909155600f555062000367565b634e487b7160e01b600052604160045260246000fd5b600082601f830112620000c757600080fd5b81516001600160401b0380821115620000e457620000e46200009f565b604051601f8301601f19908116603f011681019082821181831017156200010f576200010f6200009f565b816040528381526020925086838588010111156200012c57600080fd5b600091505b8382101562000150578582018301518183018401529082019062000131565b600093810190920192909252949350505050565b60008060008060008060c087890312156200017e57600080fd5b86516020880151604089015160608a015192985090965094506001600160a01b0381168114620001ad57600080fd5b60808801519093506001600160401b0380821115620001cb57600080fd5b620001d98a838b01620000b5565b935060a0890151915080821115620001f057600080fd5b50620001ff89828a01620000b5565b9150509295509295509295565b600181811c908216806200022157607f821691505b6020821081036200024257634e487b7160e01b600052602260045260246000fd5b50919050565b601f8211156200029657600081815260208120601f850160051c81016020861015620002715750805b601f850160051c820191505b8181101562000292578281556001016200027d565b5050505b505050565b81516001600160401b03811115620002b757620002b76200009f565b620002cf81620002c884546200020c565b8462000248565b602080601f831160018114620003075760008415620002ee5750858301515b600019600386901b1c1916600185901b17855562000292565b600085815260208120601f198616915b82811015620003385788860151825594840194600190910190840162000317565b5085821015620003575787850151600019600388901b60f8161c191681555b5050505050600190811b01905550565b6124ad80620003776000396000f3fe60806040526004361061016a5760003560e01c80634f6ccce7116100cb57806399d32fc41161007f578063c87b56dd11610059578063c87b56dd146103d2578063cc3c0f06146103f2578063e985e9c51461042a57600080fd5b806399d32fc41461037d578063a22cb46514610392578063b88d4fde146103b257600080fd5b806370a08231116100b057806370a08231146103125780637d6fbd9e1461033257806395d89b411461036857600080fd5b80634f6ccce7146102d25780636352211e146102f257600080fd5b806323b872dd116101225780632dfd452a116101075780632dfd452a1461027f5780632f745c591461029257806342842e0e146102b257600080fd5b806323b872dd1461023f5780632b7ac3f31461025f57600080fd5b8063081812fc11610153578063081812fc146101c6578063095ea7b3146101fe57806318160ddd1461022057600080fd5b806301ffc9a71461016f57806306fdde03146101a4575b600080fd5b34801561017b57600080fd5b5061018f61018a366004611ebd565b610473565b60405190151581526020015b60405180910390f35b3480156101b057600080fd5b506101b96104cf565b60405161019b9190611f48565b3480156101d257600080fd5b506101e66101e1366004611f5b565b610561565b6040516001600160a01b03909116815260200161019b565b34801561020a57600080fd5b5061021e610219366004611f89565b610588565b005b34801561022c57600080fd5b506009545b60405190815260200161019b565b34801561024b57600080fd5b5061021e61025a366004611fb5565b6106be565b34801561026b57600080fd5b50600b546101e6906001600160a01b031681565b61021e61028d3660046120d0565b610745565b34801561029e57600080fd5b506102316102ad366004611f89565b61085a565b3480156102be57600080fd5b5061021e6102cd366004611fb5565b610902565b3480156102de57600080fd5b506102316102ed366004611f5b565b61091d565b3480156102fe57600080fd5b506101e661030d366004611f5b565b6109c1565b34801561031e57600080fd5b5061023161032d366004612147565b610a26565b34801561033e57600080fd5b506101e661034d366004611f5b565b6000908152600c60205260409020546001600160a01b031690565b34801561037457600080fd5b506101b9610ac0565b34801561038957600080fd5b50610231610acf565b34801561039e57600080fd5b5061021e6103ad366004612172565b610c61565b3480156103be57600080fd5b5061021e6103cd3660046121ab565b610c70565b3480156103de57600080fd5b506101b96103ed366004611f5b565b610cfe565b3480156103fe57600080fd5b5061018f61040d366004611f5b565b6000908152600c60205260409020546001600160a01b0316151590565b34801561043657600080fd5b5061018f610445366004612217565b6001600160a01b03918216600090815260066020908152604080832093909416825291909152205460ff1690565b60007fffffffff0000000000000000000000000000000000000000000000000000000082167f780e9d630000000000000000000000000000000000000000000000000000000014806104c957506104c982610d72565b92915050565b6060600180546104de90612245565b80601f016020809104026020016040519081016040528092919081815260200182805461050a90612245565b80156105575780601f1061052c57610100808354040283529160200191610557565b820191906000526020600020905b81548152906001019060200180831161053a57829003601f168201915b5050505050905090565b600061056c82610e55565b506000908152600560205260409020546001600160a01b031690565b6000610593826109c1565b9050806001600160a01b0316836001600160a01b0316036106215760405162461bcd60e51b815260206004820152602160248201527f4552433732313a20617070726f76616c20746f2063757272656e74206f776e6560448201527f720000000000000000000000000000000000000000000000000000000000000060648201526084015b60405180910390fd5b336001600160a01b038216148061063d575061063d8133610445565b6106af5760405162461bcd60e51b815260206004820152603d60248201527f4552433732313a20617070726f76652063616c6c6572206973206e6f7420746f60448201527f6b656e206f776e6572206f7220617070726f76656420666f7220616c6c0000006064820152608401610618565b6106b98383610ebc565b505050565b6106c83382610f42565b61073a5760405162461bcd60e51b815260206004820152602d60248201527f4552433732313a2063616c6c6572206973206e6f7420746f6b656e206f776e6560448201527f72206f7220617070726f766564000000000000000000000000000000000000006064820152608401610618565b6106b9838383610fc1565b61074d61122d565b6000848152600c60205260409020546001600160a01b0316156107b25760405162461bcd60e51b815260206004820152600f60248201527f616c726561647920636c61696d656400000000000000000000000000000000006044820152606401610618565b600d54871480156107c45750600e5486145b80156107d25750600f548511155b61081e5760405162461bcd60e51b815260206004820152601060248201527f696e76616c6964206c6f636174696f6e000000000000000000000000000000006044820152606401610618565b610832601054338989898989898934611286565b60108054906000610842836122c7565b91905055506108516001600055565b50505050505050565b600061086583610a26565b82106108d95760405162461bcd60e51b815260206004820152602b60248201527f455243373231456e756d657261626c653a206f776e657220696e646578206f7560448201527f74206f6620626f756e64730000000000000000000000000000000000000000006064820152608401610618565b506001600160a01b03919091166000908152600760209081526040808320938352929052205490565b6106b983838360405180602001604052806000815250610c70565b600061092860095490565b821061099c5760405162461bcd60e51b815260206004820152602c60248201527f455243373231456e756d657261626c653a20676c6f62616c20696e646578206f60448201527f7574206f6620626f756e647300000000000000000000000000000000000000006064820152608401610618565b600982815481106109af576109af6122ff565b90600052602060002001549050919050565b6000818152600360205260408120546001600160a01b0316806104c95760405162461bcd60e51b815260206004820152601860248201527f4552433732313a20696e76616c696420746f6b656e20494400000000000000006044820152606401610618565b60006001600160a01b038216610aa45760405162461bcd60e51b815260206004820152602960248201527f4552433732313a2061646472657373207a65726f206973206e6f74206120766160448201527f6c6964206f776e657200000000000000000000000000000000000000000000006064820152608401610618565b506001600160a01b031660009081526004602052604090205490565b6060600280546104de90612245565b600b54604080517fb17644c900000000000000000000000000000000000000000000000000000000815290516000926001600160a01b03169163b17644c99160048083019260209291908290030181865afa158015610b32573d6000803e3d6000fd5b505050506040513d601f19601f82011682018060405250810190610b56919061232e565b6040517f3245b6220000000000000000000000000000000000000000000000000000000081523060048201526001600160a01b039190911690633245b62290602401602060405180830381865afa158015610bb5573d6000803e3d6000fd5b505050506040513d601f19601f82011682018060405250810190610bd9919061232e565b6040517f6fcca69b0000000000000000000000000000000000000000000000000000000081523060048201526001600160a01b039190911690636fcca69b90602401602060405180830381865afa158015610c38573d6000803e3d6000fd5b505050506040513d601f19601f82011682018060405250810190610c5c919061234b565b905090565b610c6c33838361142d565b5050565b610c7a3383610f42565b610cec5760405162461bcd60e51b815260206004820152602d60248201527f4552433732313a2063616c6c6572206973206e6f7420746f6b656e206f776e6560448201527f72206f7220617070726f766564000000000000000000000000000000000000006064820152608401610618565b610cf884848484611519565b50505050565b6060610d0982610e55565b6000610d2060408051602081019091526000815290565b90506000815111610d405760405180602001604052806000815250610d6b565b80610d4a846115a2565b604051602001610d5b929190612364565b6040516020818303038152906040525b9392505050565b60007fffffffff0000000000000000000000000000000000000000000000000000000082167f80ac58cd000000000000000000000000000000000000000000000000000000001480610e0557507fffffffff0000000000000000000000000000000000000000000000000000000082167f5b5e139f00000000000000000000000000000000000000000000000000000000145b806104c957507f01ffc9a7000000000000000000000000000000000000000000000000000000007fffffffff000000000000000000000000000000000000000000000000000000008316146104c9565b6000818152600360205260409020546001600160a01b0316610eb95760405162461bcd60e51b815260206004820152601860248201527f4552433732313a20696e76616c696420746f6b656e20494400000000000000006044820152606401610618565b50565b600081815260056020526040902080547fffffffffffffffffffffffff0000000000000000000000000000000000000000166001600160a01b0384169081179091558190610f09826109c1565b6001600160a01b03167f8c5be1e5ebec7d5bd14f71427d1e84f3dd0314c0f7b2291e5b200ac8c7c3b92560405160405180910390a45050565b600080610f4e836109c1565b9050806001600160a01b0316846001600160a01b03161480610f9557506001600160a01b0380821660009081526006602090815260408083209388168352929052205460ff165b80610fb95750836001600160a01b0316610fae84610561565b6001600160a01b0316145b949350505050565b826001600160a01b0316610fd4826109c1565b6001600160a01b0316146110505760405162461bcd60e51b815260206004820152602560248201527f4552433732313a207472616e736665722066726f6d20696e636f72726563742060448201527f6f776e65720000000000000000000000000000000000000000000000000000006064820152608401610618565b6001600160a01b0382166110cb5760405162461bcd60e51b8152602060048201526024808201527f4552433732313a207472616e7366657220746f20746865207a65726f2061646460448201527f72657373000000000000000000000000000000000000000000000000000000006064820152608401610618565b6110d88383836001611660565b826001600160a01b03166110eb826109c1565b6001600160a01b0316146111675760405162461bcd60e51b815260206004820152602560248201527f4552433732313a207472616e736665722066726f6d20696e636f72726563742060448201527f6f776e65720000000000000000000000000000000000000000000000000000006064820152608401610618565b600081815260056020908152604080832080547fffffffffffffffffffffffff00000000000000000000000000000000000000009081169091556001600160a01b038781168086526004855283862080547fffffffffffffffffffffffffffffffffffffffffffffffffffffffffffffffff01905590871680865283862080546001019055868652600390945282852080549092168417909155905184937fddf252ad1be2c89b69c2b068fc378daa952ba7f163c4a11628f55a4df523b3ef91a4505050565b60026000540361127f5760405162461bcd60e51b815260206004820152601f60248201527f5265656e7472616e637947756172643a207265656e7472616e742063616c6c006044820152606401610618565b6002600055565b600b546040517fb499ffd10000000000000000000000000000000000000000000000000000000081526001600160a01b038b81166004830152602482018b9052604482018a9052606482018990526084820188905260a4820187905260c48201869052600092169063b499ffd19060e401602060405180830381865afa158015611314573d6000803e3d6000fd5b505050506040513d601f19601f82011682018060405250810190611338919061234b565b600b546040517f258ae5820000000000000000000000000000000000000000000000000000000081529192506001600160a01b03169063258ae5829084906113869085908890600401612393565b60206040518083038185885af11580156113a4573d6000803e3d6000fd5b50505050506040513d601f19601f820116820180604052508101906113c991906123ac565b6114155760405162461bcd60e51b815260206004820152601160248201527f696e76616c6964207369676e61747572650000000000000000000000000000006044820152606401610618565b6114208b8b886117a8565b5050505050505050505050565b816001600160a01b0316836001600160a01b03160361148e5760405162461bcd60e51b815260206004820152601960248201527f4552433732313a20617070726f766520746f2063616c6c6572000000000000006044820152606401610618565b6001600160a01b0383811660008181526006602090815260408083209487168084529482529182902080547fffffffffffffffffffffffffffffffffffffffffffffffffffffffffffffff001686151590811790915591519182527f17307eab39ab6107e8899845ad3d59bd9653f200f220920489ca2b5937696c31910160405180910390a3505050565b611524848484610fc1565b61153084848484611825565b610cf85760405162461bcd60e51b815260206004820152603260248201527f4552433732313a207472616e7366657220746f206e6f6e20455243373231526560448201527f63656976657220696d706c656d656e74657200000000000000000000000000006064820152608401610618565b606060006115af836119e4565b600101905060008167ffffffffffffffff8111156115cf576115cf611ff6565b6040519080825280601f01601f1916602001820160405280156115f9576020820181803683370190505b5090508181016020015b7fffffffffffffffffffffffffffffffffffffffffffffffffffffffffffffffff017f3031323334353637383961626364656600000000000000000000000000000000600a86061a8153600a850494508461160357509392505050565b61166c84848484611ac6565b60018111156116e35760405162461bcd60e51b815260206004820152603560248201527f455243373231456e756d657261626c653a20636f6e736563757469766520747260448201527f616e7366657273206e6f7420737570706f7274656400000000000000000000006064820152608401610618565b816001600160a01b03851661173f5761173a81600980546000838152600a60205260408120829055600182018355919091527f6e1540171b6c0c960b71a7020d9f60077f6af931a8bbf590da0223dacf75c7af0155565b611762565b836001600160a01b0316856001600160a01b031614611762576117628582611b4e565b6001600160a01b03841661177e5761177981611beb565b6117a1565b846001600160a01b0316846001600160a01b0316146117a1576117a18482611c9a565b5050505050565b6117b28284611cde565b6000818152600c602052604080822080547fffffffffffffffffffffffff0000000000000000000000000000000000000000166001600160a01b038616908117909155905185928492917f9b01158d4bc10c112ba32b5240cda97e49e2eb86021f03f6a0f460342ac4dfda9190a4505050565b60006001600160a01b0384163b156119d9576040517f150b7a020000000000000000000000000000000000000000000000000000000081526001600160a01b0385169063150b7a02906118829033908990889088906004016123c9565b6020604051808303816000875af19250505080156118db575060408051601f3d9081017fffffffffffffffffffffffffffffffffffffffffffffffffffffffffffffffe01682019092526118d891810190612405565b60015b61198e573d808015611909576040519150601f19603f3d011682016040523d82523d6000602084013e61190e565b606091505b5080516000036119865760405162461bcd60e51b815260206004820152603260248201527f4552433732313a207472616e7366657220746f206e6f6e20455243373231526560448201527f63656976657220696d706c656d656e74657200000000000000000000000000006064820152608401610618565b805181602001fd5b7fffffffff00000000000000000000000000000000000000000000000000000000167f150b7a0200000000000000000000000000000000000000000000000000000000149050610fb9565b506001949350505050565b6000807a184f03e93ff9f4daa797ed6e38ed64bf6a1f0100000000000000008310611a2d577a184f03e93ff9f4daa797ed6e38ed64bf6a1f010000000000000000830492506040015b6d04ee2d6d415b85acef81000000008310611a59576d04ee2d6d415b85acef8100000000830492506020015b662386f26fc100008310611a7757662386f26fc10000830492506010015b6305f5e1008310611a8f576305f5e100830492506008015b6127108310611aa357612710830492506004015b60648310611ab5576064830492506002015b600a83106104c95760010192915050565b6001811115610cf8576001600160a01b03841615611b0c576001600160a01b03841660009081526004602052604081208054839290611b06908490612422565b90915550505b6001600160a01b03831615610cf8576001600160a01b03831660009081526004602052604081208054839290611b43908490612435565b909155505050505050565b60006001611b5b84610a26565b611b659190612422565b600083815260086020526040902054909150808214611bb8576001600160a01b03841660009081526007602090815260408083208584528252808320548484528184208190558352600890915290208190555b5060009182526008602090815260408084208490556001600160a01b039094168352600781528383209183525290812055565b600954600090611bfd90600190612422565b6000838152600a602052604081205460098054939450909284908110611c2557611c256122ff565b906000526020600020015490508060098381548110611c4657611c466122ff565b6000918252602080832090910192909255828152600a90915260408082208490558582528120556009805480611c7e57611c7e612448565b6001900381819060005260206000200160009055905550505050565b6000611ca583610a26565b6001600160a01b039093166000908152600760209081526040808320868452825280832085905593825260089052919091209190915550565b6001600160a01b038216611d345760405162461bcd60e51b815260206004820181905260248201527f4552433732313a206d696e7420746f20746865207a65726f20616464726573736044820152606401610618565b6000818152600360205260409020546001600160a01b031615611d995760405162461bcd60e51b815260206004820152601c60248201527f4552433732313a20746f6b656e20616c7265616479206d696e746564000000006044820152606401610618565b611da7600083836001611660565b6000818152600360205260409020546001600160a01b031615611e0c5760405162461bcd60e51b815260206004820152601c60248201527f4552433732313a20746f6b656e20616c7265616479206d696e746564000000006044820152606401610618565b6001600160a01b038216600081815260046020908152604080832080546001019055848352600390915280822080547fffffffffffffffffffffffff0000000000000000000000000000000000000000168417905551839291907fddf252ad1be2c89b69c2b068fc378daa952ba7f163c4a11628f55a4df523b3ef908290a45050565b7fffffffff0000000000000000000000000000000000000000000000000000000081168114610eb957600080fd5b600060208284031215611ecf57600080fd5b8135610d6b81611e8f565b60005b83811015611ef5578181015183820152602001611edd565b50506000910152565b60008151808452611f16816020860160208601611eda565b601f017fffffffffffffffffffffffffffffffffffffffffffffffffffffffffffffffe0169290920160200192915050565b602081526000610d6b6020830184611efe565b600060208284031215611f6d57600080fd5b5035919050565b6001600160a01b0381168114610eb957600080fd5b60008060408385031215611f9c57600080fd5b8235611fa781611f74565b946020939093013593505050565b600080600060608486031215611fca57600080fd5b8335611fd581611f74565b92506020840135611fe581611f74565b929592945050506040919091013590565b7f4e487b7100000000000000000000000000000000000000000000000000000000600052604160045260246000fd5b600082601f83011261203657600080fd5b813567ffffffffffffffff8082111561205157612051611ff6565b604051601f83017fffffffffffffffffffffffffffffffffffffffffffffffffffffffffffffffe0908116603f0116810190828211818310171561209757612097611ff6565b816040528381528660208588010111156120b057600080fd5b836020870160208301376000602085830101528094505050505092915050565b600080600080600080600060e0888a0312156120eb57600080fd5b873596506020880135955060408801359450606088013593506080880135925060a0880135915060c088013567ffffffffffffffff81111561212c57600080fd5b6121388a828b01612025565b91505092959891949750929550565b60006020828403121561215957600080fd5b8135610d6b81611f74565b8015158114610eb957600080fd5b6000806040838503121561218557600080fd5b823561219081611f74565b915060208301356121a081612164565b809150509250929050565b600080600080608085870312156121c157600080fd5b84356121cc81611f74565b935060208501356121dc81611f74565b925060408501359150606085013567ffffffffffffffff8111156121ff57600080fd5b61220b87828801612025565b91505092959194509250565b6000806040838503121561222a57600080fd5b823561223581611f74565b915060208301356121a081611f74565b600181811c9082168061225957607f821691505b602082108103612292577f4e487b7100000000000000000000000000000000000000000000000000000000600052602260045260246000fd5b50919050565b7f4e487b7100000000000000000000000000000000000000000000000000000000600052601160045260246000fd5b60007fffffffffffffffffffffffffffffffffffffffffffffffffffffffffffffffff82036122f8576122f8612298565b5060010190565b7f4e487b7100000000000000000000000000000000000000000000000000000000600052603260045260246000fd5b60006020828403121561234057600080fd5b8151610d6b81611f74565b60006020828403121561235d57600080fd5b5051919050565b60008351612376818460208801611eda565b83519083019061238a818360208801611eda565b01949350505050565b828152604060208201526000610fb96040830184611efe565b6000602082840312156123be57600080fd5b8151610d6b81612164565b60006001600160a01b038087168352808616602084015250836040830152608060608301526123fb6080830184611efe565b9695505050505050565b60006020828403121561241757600080fd5b8151610d6b81611e8f565b818103818111156104c9576104c9612298565b808201808211156104c9576104c9612298565b7f4e487b7100000000000000000000000000000000000000000000000000000000600052603160045260246000fdfea2646970667358221220e122ae61e063a953e2481b4ceb026f5ce36679a3a9e1826b931910527994e39e64736f6c63430008110033",
  "devdoc": {
    "kind": "dev",
    "methods": {
      "approve(address,uint256)": {
        "details": "See {IERC721-approve}."
      },
      "balanceOf(address)": {
        "details": "See {IERC721-balanceOf}."
      },
      "getApproved(uint256)": {
        "details": "See {IERC721-getApproved}."
      },
      "isApprovedForAll(address,address)": {
        "details": "See {IERC721-isApprovedForAll}."
      },
      "name()": {
        "details": "See {IERC721Metadata-name}."
      },
      "ownerOf(uint256)": {
        "details": "See {IERC721-ownerOf}."
      },
      "safeTransferFrom(address,address,uint256)": {
        "details": "See {IERC721-safeTransferFrom}."
      },
      "safeTransferFrom(address,address,uint256,bytes)": {
        "details": "See {IERC721-safeTransferFrom}."
      },
      "setApprovalForAll(address,bool)": {
        "details": "See {IERC721-setApprovalForAll}."
      },
      "supportsInterface(bytes4)": {
        "details": "See {IERC165-supportsInterface}."
      },
      "symbol()": {
        "details": "See {IERC721Metadata-symbol}."
      },
      "tokenByIndex(uint256)": {
        "details": "See {IERC721Enumerable-tokenByIndex}."
      },
      "tokenOfOwnerByIndex(address,uint256)": {
        "details": "See {IERC721Enumerable-tokenOfOwnerByIndex}."
      },
      "tokenURI(uint256)": {
        "details": "See {IERC721Metadata-tokenURI}."
      },
      "totalSupply()": {
        "details": "See {IERC721Enumerable-totalSupply}."
      },
      "transferFrom(address,address,uint256)": {
        "details": "See {IERC721-transferFrom}."
      }
    },
    "version": 1
  },
  "userdoc": {
    "kind": "user",
    "methods": {},
    "version": 1
  },
  "storageLayout": {
    "storage": [
      {
        "astId": 292,
        "contract": "contracts/examples/PebbleFixedLocationNFT.sol:PebbleFixedLocationNFT",
        "label": "_status",
        "offset": 0,
        "slot": "0",
        "type": "t_uint256"
      },
      {
        "astId": 1051,
        "contract": "contracts/examples/PebbleFixedLocationNFT.sol:PebbleFixedLocationNFT",
        "label": "_name",
        "offset": 0,
        "slot": "1",
        "type": "t_string_storage"
      },
      {
        "astId": 1053,
        "contract": "contracts/examples/PebbleFixedLocationNFT.sol:PebbleFixedLocationNFT",
        "label": "_symbol",
        "offset": 0,
        "slot": "2",
        "type": "t_string_storage"
      },
      {
        "astId": 1057,
        "contract": "contracts/examples/PebbleFixedLocationNFT.sol:PebbleFixedLocationNFT",
        "label": "_owners",
        "offset": 0,
        "slot": "3",
        "type": "t_mapping(t_uint256,t_address)"
      },
      {
        "astId": 1061,
        "contract": "contracts/examples/PebbleFixedLocationNFT.sol:PebbleFixedLocationNFT",
        "label": "_balances",
        "offset": 0,
        "slot": "4",
        "type": "t_mapping(t_address,t_uint256)"
      },
      {
        "astId": 1065,
        "contract": "contracts/examples/PebbleFixedLocationNFT.sol:PebbleFixedLocationNFT",
        "label": "_tokenApprovals",
        "offset": 0,
        "slot": "5",
        "type": "t_mapping(t_uint256,t_address)"
      },
      {
        "astId": 1071,
        "contract": "contracts/examples/PebbleFixedLocationNFT.sol:PebbleFixedLocationNFT",
        "label": "_operatorApprovals",
        "offset": 0,
        "slot": "6",
        "type": "t_mapping(t_address,t_mapping(t_address,t_bool))"
      },
      {
        "astId": 2119,
        "contract": "contracts/examples/PebbleFixedLocationNFT.sol:PebbleFixedLocationNFT",
        "label": "_ownedTokens",
        "offset": 0,
        "slot": "7",
        "type": "t_mapping(t_address,t_mapping(t_uint256,t_uint256))"
      },
      {
        "astId": 2123,
        "contract": "contracts/examples/PebbleFixedLocationNFT.sol:PebbleFixedLocationNFT",
        "label": "_ownedTokensIndex",
        "offset": 0,
        "slot": "8",
        "type": "t_mapping(t_uint256,t_uint256)"
      },
      {
        "astId": 2126,
        "contract": "contracts/examples/PebbleFixedLocationNFT.sol:PebbleFixedLocationNFT",
        "label": "_allTokens",
        "offset": 0,
        "slot": "9",
        "type": "t_array(t_uint256)dyn_storage"
      },
      {
        "astId": 2130,
        "contract": "contracts/examples/PebbleFixedLocationNFT.sol:PebbleFixedLocationNFT",
        "label": "_allTokensIndex",
        "offset": 0,
        "slot": "10",
        "type": "t_mapping(t_uint256,t_uint256)"
      },
      {
        "astId": 4768,
        "contract": "contracts/examples/PebbleFixedLocationNFT.sol:PebbleFixedLocationNFT",
        "label": "verifier",
        "offset": 0,
        "slot": "11",
        "type": "t_contract(IMetapebbleDataVerifier)6222"
      },
      {
        "astId": 4792,
        "contract": "contracts/examples/PebbleFixedLocationNFT.sol:PebbleFixedLocationNFT",
        "label": "_claimedDevices",
        "offset": 0,
        "slot": "12",
        "type": "t_mapping(t_bytes32,t_address)"
      },
      {
        "astId": 5597,
        "contract": "contracts/examples/PebbleFixedLocationNFT.sol:PebbleFixedLocationNFT",
        "label": "lat",
        "offset": 0,
        "slot": "13",
        "type": "t_int256"
      },
      {
        "astId": 5599,
        "contract": "contracts/examples/PebbleFixedLocationNFT.sol:PebbleFixedLocationNFT",
        "label": "long",
        "offset": 0,
        "slot": "14",
        "type": "t_int256"
      },
      {
        "astId": 5601,
        "contract": "contracts/examples/PebbleFixedLocationNFT.sol:PebbleFixedLocationNFT",
        "label": "maxDistance",
        "offset": 0,
        "slot": "15",
        "type": "t_uint256"
      },
      {
        "astId": 5603,
        "contract": "contracts/examples/PebbleFixedLocationNFT.sol:PebbleFixedLocationNFT",
        "label": "tokenId",
        "offset": 0,
        "slot": "16",
        "type": "t_uint256"
      }
    ],
    "types": {
      "t_address": {
        "encoding": "inplace",
        "label": "address",
        "numberOfBytes": "20"
      },
      "t_array(t_uint256)dyn_storage": {
        "base": "t_uint256",
        "encoding": "dynamic_array",
        "label": "uint256[]",
        "numberOfBytes": "32"
      },
      "t_bool": {
        "encoding": "inplace",
        "label": "bool",
        "numberOfBytes": "1"
      },
      "t_bytes32": {
        "encoding": "inplace",
        "label": "bytes32",
        "numberOfBytes": "32"
      },
      "t_contract(IMetapebbleDataVerifier)6222": {
        "encoding": "inplace",
        "label": "contract IMetapebbleDataVerifier",
        "numberOfBytes": "20"
      },
      "t_int256": {
        "encoding": "inplace",
        "label": "int256",
        "numberOfBytes": "32"
      },
      "t_mapping(t_address,t_bool)": {
        "encoding": "mapping",
        "key": "t_address",
        "label": "mapping(address => bool)",
        "numberOfBytes": "32",
        "value": "t_bool"
      },
      "t_mapping(t_address,t_mapping(t_address,t_bool))": {
        "encoding": "mapping",
        "key": "t_address",
        "label": "mapping(address => mapping(address => bool))",
        "numberOfBytes": "32",
        "value": "t_mapping(t_address,t_bool)"
      },
      "t_mapping(t_address,t_mapping(t_uint256,t_uint256))": {
        "encoding": "mapping",
        "key": "t_address",
        "label": "mapping(address => mapping(uint256 => uint256))",
        "numberOfBytes": "32",
        "value": "t_mapping(t_uint256,t_uint256)"
      },
      "t_mapping(t_address,t_uint256)": {
        "encoding": "mapping",
        "key": "t_address",
        "label": "mapping(address => uint256)",
        "numberOfBytes": "32",
        "value": "t_uint256"
      },
      "t_mapping(t_bytes32,t_address)": {
        "encoding": "mapping",
        "key": "t_bytes32",
        "label": "mapping(bytes32 => address)",
        "numberOfBytes": "32",
        "value": "t_address"
      },
      "t_mapping(t_uint256,t_address)": {
        "encoding": "mapping",
        "key": "t_uint256",
        "label": "mapping(uint256 => address)",
        "numberOfBytes": "32",
        "value": "t_address"
      },
      "t_mapping(t_uint256,t_uint256)": {
        "encoding": "mapping",
        "key": "t_uint256",
        "label": "mapping(uint256 => uint256)",
        "numberOfBytes": "32",
        "value": "t_uint256"
      },
      "t_string_storage": {
        "encoding": "bytes",
        "label": "string",
        "numberOfBytes": "32"
      },
      "t_uint256": {
        "encoding": "inplace",
        "label": "uint256",
        "numberOfBytes": "32"
      }
    }
  }
}