{
  "address": "0xDFDB75E8d47bCB4c476048E4f36BE23835164e9b",
  "abi": [
    {
      "inputs": [
        {
          "internalType": "uint256[]",
          "name": "_lats",
          "type": "uint256[]"
        },
        {
          "internalType": "uint256[]",
          "name": "_longs",
          "type": "uint256[]"
        },
        {
          "internalType": "uint256[]",
          "name": "_maxDistances",
          "type": "uint256[]"
        },
        {
          "internalType": "address",
          "name": "_verifier",
          "type": "address"
        },
        {
          "internalType": "string",
          "name": "_name",
          "type": "string"
        },
        {
          "internalType": "string",
          "name": "_symbol",
          "type": "string"
        }
      ],
      "stateMutability": "nonpayable",
      "type": "constructor"
    },
    {
      "anonymous": false,
      "inputs": [
        {
          "indexed": true,
          "internalType": "address",
          "name": "owner",
          "type": "address"
        },
        {
          "indexed": true,
          "internalType": "address",
          "name": "approved",
          "type": "address"
        },
        {
          "indexed": true,
          "internalType": "uint256",
          "name": "tokenId",
          "type": "uint256"
        }
      ],
      "name": "Approval",
      "type": "event"
    },
    {
      "anonymous": false,
      "inputs": [
        {
          "indexed": true,
          "internalType": "address",
          "name": "owner",
          "type": "address"
        },
        {
          "indexed": true,
          "internalType": "address",
          "name": "operator",
          "type": "address"
        },
        {
          "indexed": false,
          "internalType": "bool",
          "name": "approved",
          "type": "bool"
        }
      ],
      "name": "ApprovalForAll",
      "type": "event"
    },
    {
      "anonymous": false,
      "inputs": [
        {
          "indexed": true,
          "internalType": "address",
          "name": "holder",
          "type": "address"
        },
        {
          "indexed": true,
          "internalType": "bytes32",
          "name": "deviceHash",
          "type": "bytes32"
        },
        {
          "indexed": true,
          "internalType": "uint256",
          "name": "tokenId",
          "type": "uint256"
        }
      ],
      "name": "Claimed",
      "type": "event"
    },
    {
      "anonymous": false,
      "inputs": [
        {
          "indexed": true,
          "internalType": "address",
          "name": "previousOwner",
          "type": "address"
        },
        {
          "indexed": true,
          "internalType": "address",
          "name": "newOwner",
          "type": "address"
        }
      ],
      "name": "OwnershipTransferred",
      "type": "event"
    },
    {
      "anonymous": false,
      "inputs": [
        {
          "indexed": true,
          "internalType": "address",
          "name": "from",
          "type": "address"
        },
        {
          "indexed": true,
          "internalType": "address",
          "name": "to",
          "type": "address"
        },
        {
          "indexed": true,
          "internalType": "uint256",
          "name": "tokenId",
          "type": "uint256"
        }
      ],
      "name": "Transfer",
      "type": "event"
    },
    {
      "inputs": [
        {
          "internalType": "uint256",
          "name": "_lat",
          "type": "uint256"
        },
        {
          "internalType": "uint256",
          "name": "_long",
          "type": "uint256"
        },
        {
          "internalType": "uint256",
          "name": "_maxDistance",
          "type": "uint256"
        }
      ],
      "name": "addPlace",
      "outputs": [],
      "stateMutability": "nonpayable",
      "type": "function"
    },
    {
      "inputs": [
        {
          "internalType": "address",
          "name": "to",
          "type": "address"
        },
        {
          "internalType": "uint256",
          "name": "tokenId",
          "type": "uint256"
        }
      ],
      "name": "approve",
      "outputs": [],
      "stateMutability": "nonpayable",
      "type": "function"
    },
    {
      "inputs": [
        {
          "internalType": "address",
          "name": "owner",
          "type": "address"
        }
      ],
      "name": "balanceOf",
      "outputs": [
        {
          "internalType": "uint256",
          "name": "",
          "type": "uint256"
        }
      ],
      "stateMutability": "view",
      "type": "function"
    },
    {
      "inputs": [
        {
          "internalType": "uint256",
          "name": "lat_",
          "type": "uint256"
        },
        {
          "internalType": "uint256",
          "name": "long_",
          "type": "uint256"
        },
        {
          "internalType": "uint256",
          "name": "distance_",
          "type": "uint256"
        },
        {
          "internalType": "bytes32",
          "name": "deviceHash_",
          "type": "bytes32"
        },
        {
          "internalType": "uint256",
          "name": "deviceTimestamp_",
          "type": "uint256"
        },
        {
          "internalType": "bytes",
          "name": "signature",
          "type": "bytes"
        }
      ],
      "name": "claim",
      "outputs": [],
      "stateMutability": "nonpayable",
      "type": "function"
    },
    {
      "inputs": [
        {
          "internalType": "bytes32",
          "name": "deviceHash_",
          "type": "bytes32"
        }
      ],
      "name": "claimed",
      "outputs": [
        {
          "internalType": "bool",
          "name": "",
          "type": "bool"
        }
      ],
      "stateMutability": "view",
      "type": "function"
    },
    {
      "inputs": [
        {
          "internalType": "bytes32",
          "name": "deviceHash_",
          "type": "bytes32"
        }
      ],
      "name": "claimedUser",
      "outputs": [
        {
          "internalType": "address",
          "name": "",
          "type": "address"
        }
      ],
      "stateMutability": "view",
      "type": "function"
    },
    {
      "inputs": [
        {
          "internalType": "uint256",
          "name": "tokenId",
          "type": "uint256"
        }
      ],
      "name": "getApproved",
      "outputs": [
        {
          "internalType": "address",
          "name": "",
          "type": "address"
        }
      ],
      "stateMutability": "view",
      "type": "function"
    },
    {
      "inputs": [
        {
          "internalType": "address",
          "name": "owner",
          "type": "address"
        },
        {
          "internalType": "address",
          "name": "operator",
          "type": "address"
        }
      ],
      "name": "isApprovedForAll",
      "outputs": [
        {
          "internalType": "bool",
          "name": "",
          "type": "bool"
        }
      ],
      "stateMutability": "view",
      "type": "function"
    },
    {
      "inputs": [],
      "name": "name",
      "outputs": [
        {
          "internalType": "string",
          "name": "",
          "type": "string"
        }
      ],
      "stateMutability": "view",
      "type": "function"
    },
    {
      "inputs": [],
      "name": "owner",
      "outputs": [
        {
          "internalType": "address",
          "name": "",
          "type": "address"
        }
      ],
      "stateMutability": "view",
      "type": "function"
    },
    {
      "inputs": [
        {
          "internalType": "uint256",
          "name": "tokenId",
          "type": "uint256"
        }
      ],
      "name": "ownerOf",
      "outputs": [
        {
          "internalType": "address",
          "name": "",
          "type": "address"
        }
      ],
      "stateMutability": "view",
      "type": "function"
    },
    {
      "inputs": [],
      "name": "palceCount",
      "outputs": [
        {
          "internalType": "uint256",
          "name": "",
          "type": "uint256"
        }
      ],
      "stateMutability": "view",
      "type": "function"
    },
    {
      "inputs": [
        {
          "internalType": "bytes32",
          "name": "",
          "type": "bytes32"
        }
      ],
      "name": "places",
      "outputs": [
        {
          "internalType": "uint256",
          "name": "lat",
          "type": "uint256"
        },
        {
          "internalType": "uint256",
          "name": "long",
          "type": "uint256"
        },
        {
          "internalType": "uint256",
          "name": "maxDistance",
          "type": "uint256"
        }
      ],
      "stateMutability": "view",
      "type": "function"
    },
    {
      "inputs": [
        {
          "internalType": "uint256",
          "name": "",
          "type": "uint256"
        }
      ],
      "name": "placesHash",
      "outputs": [
        {
          "internalType": "bytes32",
          "name": "",
          "type": "bytes32"
        }
      ],
      "stateMutability": "view",
      "type": "function"
    },
    {
      "inputs": [],
      "name": "renounceOwnership",
      "outputs": [],
      "stateMutability": "nonpayable",
      "type": "function"
    },
    {
      "inputs": [
        {
          "internalType": "address",
          "name": "from",
          "type": "address"
        },
        {
          "internalType": "address",
          "name": "to",
          "type": "address"
        },
        {
          "internalType": "uint256",
          "name": "tokenId",
          "type": "uint256"
        }
      ],
      "name": "safeTransferFrom",
      "outputs": [],
      "stateMutability": "nonpayable",
      "type": "function"
    },
    {
      "inputs": [
        {
          "internalType": "address",
          "name": "from",
          "type": "address"
        },
        {
          "internalType": "address",
          "name": "to",
          "type": "address"
        },
        {
          "internalType": "uint256",
          "name": "tokenId",
          "type": "uint256"
        },
        {
          "internalType": "bytes",
          "name": "data",
          "type": "bytes"
        }
      ],
      "name": "safeTransferFrom",
      "outputs": [],
      "stateMutability": "nonpayable",
      "type": "function"
    },
    {
      "inputs": [
        {
          "internalType": "address",
          "name": "operator",
          "type": "address"
        },
        {
          "internalType": "bool",
          "name": "approved",
          "type": "bool"
        }
      ],
      "name": "setApprovalForAll",
      "outputs": [],
      "stateMutability": "nonpayable",
      "type": "function"
    },
    {
      "inputs": [
        {
          "internalType": "bytes4",
          "name": "interfaceId",
          "type": "bytes4"
        }
      ],
      "name": "supportsInterface",
      "outputs": [
        {
          "internalType": "bool",
          "name": "",
          "type": "bool"
        }
      ],
      "stateMutability": "view",
      "type": "function"
    },
    {
      "inputs": [],
      "name": "symbol",
      "outputs": [
        {
          "internalType": "string",
          "name": "",
          "type": "string"
        }
      ],
      "stateMutability": "view",
      "type": "function"
    },
    {
      "inputs": [
        {
          "internalType": "uint256",
          "name": "index",
          "type": "uint256"
        }
      ],
      "name": "tokenByIndex",
      "outputs": [
        {
          "internalType": "uint256",
          "name": "",
          "type": "uint256"
        }
      ],
      "stateMutability": "view",
      "type": "function"
    },
    {
      "inputs": [
        {
          "internalType": "address",
          "name": "owner",
          "type": "address"
        },
        {
          "internalType": "uint256",
          "name": "index",
          "type": "uint256"
        }
      ],
      "name": "tokenOfOwnerByIndex",
      "outputs": [
        {
          "internalType": "uint256",
          "name": "",
          "type": "uint256"
        }
      ],
      "stateMutability": "view",
      "type": "function"
    },
    {
      "inputs": [
        {
          "internalType": "uint256",
          "name": "tokenId",
          "type": "uint256"
        }
      ],
      "name": "tokenURI",
      "outputs": [
        {
          "internalType": "string",
          "name": "",
          "type": "string"
        }
      ],
      "stateMutability": "view",
      "type": "function"
    },
    {
      "inputs": [],
      "name": "totalSupply",
      "outputs": [
        {
          "internalType": "uint256",
          "name": "",
          "type": "uint256"
        }
      ],
      "stateMutability": "view",
      "type": "function"
    },
    {
      "inputs": [
        {
          "internalType": "address",
          "name": "from",
          "type": "address"
        },
        {
          "internalType": "address",
          "name": "to",
          "type": "address"
        },
        {
          "internalType": "uint256",
          "name": "tokenId",
          "type": "uint256"
        }
      ],
      "name": "transferFrom",
      "outputs": [],
      "stateMutability": "nonpayable",
      "type": "function"
    },
    {
      "inputs": [
        {
          "internalType": "address",
          "name": "newOwner",
          "type": "address"
        }
      ],
      "name": "transferOwnership",
      "outputs": [],
      "stateMutability": "nonpayable",
      "type": "function"
    },
    {
      "inputs": [],
      "name": "verifier",
      "outputs": [
        {
          "internalType": "contract IMetapebbleDataVerifier",
          "name": "",
          "type": "address"
        }
      ],
      "stateMutability": "view",
      "type": "function"
    }
  ],
  "transactionHash": "0x23a3d5ccd47b75d8170f818573cddf19fde81d5f3bdc3d23eccef6ac76f7f80e",
  "args": [
    [
      120520000
    ],
    [
      30400000
    ],
    [
      1000
    ],
    "0xB0A02bf6e9DdfD63DC20A5DeD7E9B24f654A3dCA",
    "ShangHai Pebble NFT",
    "SHP"
  ],
  "numDeployments": 2,
  "solcInputHash": "db501c6c942a476ccb42b50609b28d5e",
  "bytecode": "0x60806040523480156200001157600080fd5b5060405162002dfc38038062002dfc8339810160408190526200003491620004d7565b828282818162000044336200030c565b60018055600262000056838262000658565b50600362000065828262000658565b5050600c80546001600160a01b0319166001600160a01b03959095169490941790935550508551875114905080156200009f575083518651145b620000e15760405162461bcd60e51b815260206004820152600d60248201526c696e76616c696420706c61636560981b60448201526064015b60405180910390fd5b60005b8651811015620002ff57600085828151811062000105576200010562000724565b6020026020010151116200015c5760405162461bcd60e51b815260206004820152601460248201527f696e76616c6964206d61782064697374616e63650000000000000000000000006044820152606401620000d8565b600087828151811062000173576200017362000724565b602002602001015187838151811062000190576200019062000724565b6020026020010151604051602001620001b3929190918252602082015260400190565b60408051601f1981840301815291815281516020928301206000818152600f909352912060020154909150156200021e5760405162461bcd60e51b815260206004820152600e60248201526d726570656174656420706c61636560901b6044820152606401620000d8565b60405180606001604052808984815181106200023e576200023e62000724565b6020026020010151815260200188848151811062000260576200026062000724565b6020026020010151815260200187848151811062000282576200028262000724565b6020908102919091018101519091526000838152600f825260408082208451815592840151600180850191909155930151600290920191909155600e8054928301815590527fbb7b4a454dc3493923482f07822329ed19e8244eff582cc204f8554c3620c3fd015580620002f6816200073a565b915050620000e4565b5050505050505062000762565b600080546001600160a01b038381166001600160a01b0319831681178455604051919092169283917f8be0079c531659141344cd1fd0a4f28419497f9722a3daafe3b4186f6b6457e09190a35050565b634e487b7160e01b600052604160045260246000fd5b604051601f8201601f191681016001600160401b03811182821017156200039d576200039d6200035c565b604052919050565b600082601f830112620003b757600080fd5b815160206001600160401b03821115620003d557620003d56200035c565b8160051b620003e682820162000372565b92835284810182019282810190878511156200040157600080fd5b83870192505b84831015620004225782518252918301919083019062000407565b979650505050505050565b80516001600160a01b03811681146200044557600080fd5b919050565b600082601f8301126200045c57600080fd5b81516001600160401b038111156200047857620004786200035c565b60206200048e601f8301601f1916820162000372565b8281528582848701011115620004a357600080fd5b60005b83811015620004c3578581018301518282018401528201620004a6565b506000928101909101919091529392505050565b60008060008060008060c08789031215620004f157600080fd5b86516001600160401b03808211156200050957600080fd5b620005178a838b01620003a5565b975060208901519150808211156200052e57600080fd5b6200053c8a838b01620003a5565b965060408901519150808211156200055357600080fd5b620005618a838b01620003a5565b95506200057160608a016200042d565b945060808901519150808211156200058857600080fd5b620005968a838b016200044a565b935060a0890151915080821115620005ad57600080fd5b50620005bc89828a016200044a565b9150509295509295509295565b600181811c90821680620005de57607f821691505b602082108103620005ff57634e487b7160e01b600052602260045260246000fd5b50919050565b601f8211156200065357600081815260208120601f850160051c810160208610156200062e5750805b601f850160051c820191505b818110156200064f578281556001016200063a565b5050505b505050565b81516001600160401b038111156200067457620006746200035c565b6200068c81620006858454620005c9565b8462000605565b602080601f831160018114620006c45760008415620006ab5750858301515b600019600386901b1c1916600185901b1785556200064f565b600085815260208120601f198616915b82811015620006f557888601518255948401946001909101908401620006d4565b5085821015620007145787850151600019600388901b60f8161c191681555b5050505050600190811b01905550565b634e487b7160e01b600052603260045260246000fd5b6000600182016200075b57634e487b7160e01b600052601160045260246000fd5b5060010190565b61268a80620007726000396000f3fe608060405234801561001057600080fd5b50600436106101b95760003560e01c806370a08231116100f9578063a22cb46511610097578063c87b56dd11610071578063c87b56dd146103cd578063cc3c0f06146103e0578063e985e9c51461040b578063f2fde38b1461044757600080fd5b8063a22cb4651461039f578063a4353eb0146103b2578063b88d4fde146103ba57600080fd5b80638da5cb5b116100d35780638da5cb5b1461036057806395d89b41146103715780639bba81a7146103795780639da5d98b1461038c57600080fd5b806370a082311461031c578063715018a61461032f5780637d6fbd9e1461033757600080fd5b80632b7ac3f3116101665780634f6ccce7116101405780634f6ccce7146102995780636352211e146102ac578063678f98b7146102bf5780636de4f0531461030957600080fd5b80632b7ac3f3146102605780632f745c591461027357806342842e0e1461028657600080fd5b8063095ea7b311610197578063095ea7b31461022657806318160ddd1461023b57806323b872dd1461024d57600080fd5b806301ffc9a7146101be57806306fdde03146101e6578063081812fc146101fb575b600080fd5b6101d16101cc366004612099565b61045a565b60405190151581526020015b60405180910390f35b6101ee6104b6565b6040516101dd9190612124565b61020e610209366004612137565b610548565b6040516001600160a01b0390911681526020016101dd565b61023961023436600461216c565b61056f565b005b600a545b6040519081526020016101dd565b61023961025b366004612196565b6106a5565b600c5461020e906001600160a01b031681565b61023f61028136600461216c565b61072c565b610239610294366004612196565b6107d4565b61023f6102a7366004612137565b6107ef565b61020e6102ba366004612137565b610893565b6102ee6102cd366004612137565b600f6020526000908152604090208054600182015460029092015490919083565b604080519384526020840192909252908201526060016101dd565b6102396103173660046122ac565b6108f8565b61023f61032a366004612318565b610ac9565b610239610b63565b61020e610345366004612137565b6000908152600d60205260409020546001600160a01b031690565b6000546001600160a01b031661020e565b6101ee610b77565b610239610387366004612333565b610b86565b61023f61039a366004612137565b610cda565b6102396103ad36600461236d565b610cfb565b600e5461023f565b6102396103c83660046123a4565b610d0a565b6101ee6103db366004612137565b610d98565b6101d16103ee366004612137565b6000908152600d60205260409020546001600160a01b0316151590565b6101d161041936600461240c565b6001600160a01b03918216600090815260076020908152604080832093909416825291909152205460ff1690565b610239610455366004612318565b610e0c565b60007fffffffff0000000000000000000000000000000000000000000000000000000082167f780e9d630000000000000000000000000000000000000000000000000000000014806104b057506104b082610e9c565b92915050565b6060600280546104c59061243f565b80601f01602080910402602001604051908101604052809291908181526020018280546104f19061243f565b801561053e5780601f106105135761010080835404028352916020019161053e565b820191906000526020600020905b81548152906001019060200180831161052157829003601f168201915b5050505050905090565b600061055382610f7f565b506000908152600660205260409020546001600160a01b031690565b600061057a82610893565b9050806001600160a01b0316836001600160a01b0316036106085760405162461bcd60e51b815260206004820152602160248201527f4552433732313a20617070726f76616c20746f2063757272656e74206f776e6560448201527f720000000000000000000000000000000000000000000000000000000000000060648201526084015b60405180910390fd5b336001600160a01b038216148061062457506106248133610419565b6106965760405162461bcd60e51b815260206004820152603d60248201527f4552433732313a20617070726f76652063616c6c6572206973206e6f7420746f60448201527f6b656e206f776e6572206f7220617070726f76656420666f7220616c6c00000060648201526084016105ff565b6106a08383610fe3565b505050565b6106af3382611069565b6107215760405162461bcd60e51b815260206004820152602d60248201527f4552433732313a2063616c6c6572206973206e6f7420746f6b656e206f776e6560448201527f72206f7220617070726f7665640000000000000000000000000000000000000060648201526084016105ff565b6106a08383836110e8565b600061073783610ac9565b82106107ab5760405162461bcd60e51b815260206004820152602b60248201527f455243373231456e756d657261626c653a206f776e657220696e646578206f7560448201527f74206f6620626f756e647300000000000000000000000000000000000000000060648201526084016105ff565b506001600160a01b03919091166000908152600860209081526040808320938352929052205490565b6106a083838360405180602001604052806000815250610d0a565b60006107fa600a5490565b821061086e5760405162461bcd60e51b815260206004820152602c60248201527f455243373231456e756d657261626c653a20676c6f62616c20696e646578206f60448201527f7574206f6620626f756e6473000000000000000000000000000000000000000060648201526084016105ff565b600a828154811061088157610881612492565b90600052602060002001549050919050565b6000818152600460205260408120546001600160a01b0316806104b05760405162461bcd60e51b815260206004820152601860248201527f4552433732313a20696e76616c696420746f6b656e204944000000000000000060448201526064016105ff565b610900611354565b6000838152600d60205260409020546001600160a01b0316156109655760405162461bcd60e51b815260206004820152600f60248201527f616c726561647920636c61696d6564000000000000000000000000000000000060448201526064016105ff565b6000600f60008888604051602001610987929190918252602082015260400190565b604080517fffffffffffffffffffffffffffffffffffffffffffffffffffffffffffffffe08184030181529181528151602092830120835282820193909352908201600020825160608101845281548152600182015492810192909252600201549181018290529150610a3c5760405162461bcd60e51b815260206004820152601060248201527f706c616365206e6f74206578697374730000000000000000000000000000000060448201526064016105ff565b8060400151851115610a905760405162461bcd60e51b815260206004820152601060248201527f696e76616c6964206c6f636174696f6e0000000000000000000000000000000060448201526064016105ff565b610aa2601054338989898989896113ad565b60108054906000610ab2836124f0565b919050555050610ac160018055565b505050505050565b60006001600160a01b038216610b475760405162461bcd60e51b815260206004820152602960248201527f4552433732313a2061646472657373207a65726f206973206e6f74206120766160448201527f6c6964206f776e6572000000000000000000000000000000000000000000000060648201526084016105ff565b506001600160a01b031660009081526005602052604090205490565b610b6b611547565b610b7560006115a1565b565b6060600380546104c59061243f565b610b8e611547565b60008111610bde5760405162461bcd60e51b815260206004820152601460248201527f696e76616c6964206d61782064697374616e636500000000000000000000000060448201526064016105ff565b604080516020808201869052818301859052825180830384018152606090920183528151918101919091206000818152600f9092529190206002015415610c675760405162461bcd60e51b815260206004820152600e60248201527f726570656174656420706c61636500000000000000000000000000000000000060448201526064016105ff565b6040805160608101825294855260208086019485528582019384526000838152600f9091529081209451855592516001808601919091559151600290940193909355600e805491820181559091527fbb7b4a454dc3493923482f07822329ed19e8244eff582cc204f8554c3620c3fd0155565b600e8181548110610cea57600080fd5b600091825260209091200154905081565b610d06338383611609565b5050565b610d143383611069565b610d865760405162461bcd60e51b815260206004820152602d60248201527f4552433732313a2063616c6c6572206973206e6f7420746f6b656e206f776e6560448201527f72206f7220617070726f7665640000000000000000000000000000000000000060648201526084016105ff565b610d92848484846116f5565b50505050565b6060610da382610f7f565b6000610dba60408051602081019091526000815290565b90506000815111610dda5760405180602001604052806000815250610e05565b80610de48461177e565b604051602001610df5929190612528565b6040516020818303038152906040525b9392505050565b610e14611547565b6001600160a01b038116610e905760405162461bcd60e51b815260206004820152602660248201527f4f776e61626c653a206e6577206f776e657220697320746865207a65726f206160448201527f646472657373000000000000000000000000000000000000000000000000000060648201526084016105ff565b610e99816115a1565b50565b60007fffffffff0000000000000000000000000000000000000000000000000000000082167f80ac58cd000000000000000000000000000000000000000000000000000000001480610f2f57507fffffffff0000000000000000000000000000000000000000000000000000000082167f5b5e139f00000000000000000000000000000000000000000000000000000000145b806104b057507f01ffc9a7000000000000000000000000000000000000000000000000000000007fffffffff000000000000000000000000000000000000000000000000000000008316146104b0565b6000818152600460205260409020546001600160a01b0316610e995760405162461bcd60e51b815260206004820152601860248201527f4552433732313a20696e76616c696420746f6b656e204944000000000000000060448201526064016105ff565b600081815260066020526040902080547fffffffffffffffffffffffff0000000000000000000000000000000000000000166001600160a01b038416908117909155819061103082610893565b6001600160a01b03167f8c5be1e5ebec7d5bd14f71427d1e84f3dd0314c0f7b2291e5b200ac8c7c3b92560405160405180910390a45050565b60008061107583610893565b9050806001600160a01b0316846001600160a01b031614806110bc57506001600160a01b0380821660009081526007602090815260408083209388168352929052205460ff165b806110e05750836001600160a01b03166110d584610548565b6001600160a01b0316145b949350505050565b826001600160a01b03166110fb82610893565b6001600160a01b0316146111775760405162461bcd60e51b815260206004820152602560248201527f4552433732313a207472616e736665722066726f6d20696e636f72726563742060448201527f6f776e657200000000000000000000000000000000000000000000000000000060648201526084016105ff565b6001600160a01b0382166111f25760405162461bcd60e51b8152602060048201526024808201527f4552433732313a207472616e7366657220746f20746865207a65726f2061646460448201527f726573730000000000000000000000000000000000000000000000000000000060648201526084016105ff565b6111ff838383600161183c565b826001600160a01b031661121282610893565b6001600160a01b03161461128e5760405162461bcd60e51b815260206004820152602560248201527f4552433732313a207472616e736665722066726f6d20696e636f72726563742060448201527f6f776e657200000000000000000000000000000000000000000000000000000060648201526084016105ff565b600081815260066020908152604080832080547fffffffffffffffffffffffff00000000000000000000000000000000000000009081169091556001600160a01b038781168086526005855283862080547fffffffffffffffffffffffffffffffffffffffffffffffffffffffffffffffff01905590871680865283862080546001019055868652600490945282852080549092168417909155905184937fddf252ad1be2c89b69c2b068fc378daa952ba7f163c4a11628f55a4df523b3ef91a4505050565b6002600154036113a65760405162461bcd60e51b815260206004820152601f60248201527f5265656e7472616e637947756172643a207265656e7472616e742063616c6c0060448201526064016105ff565b6002600155565b600c546040517f3b6d735c0000000000000000000000000000000000000000000000000000000081526001600160a01b0389811660048301526024820189905260448201889052606482018790526084820186905260a482018590526000921690633b6d735c9060c401602060405180830381865afa158015611434573d6000803e3d6000fd5b505050506040513d601f19601f820116820180604052508101906114589190612557565b600c546040517f258ae5820000000000000000000000000000000000000000000000000000000081529192506001600160a01b03169063258ae582906114a49084908690600401612570565b602060405180830381865afa1580156114c1573d6000803e3d6000fd5b505050506040513d601f19601f820116820180604052508101906114e59190612589565b6115315760405162461bcd60e51b815260206004820152601160248201527f696e76616c6964207369676e617475726500000000000000000000000000000060448201526064016105ff565b61153c898986611984565b505050505050505050565b6000546001600160a01b03163314610b755760405162461bcd60e51b815260206004820181905260248201527f4f776e61626c653a2063616c6c6572206973206e6f7420746865206f776e657260448201526064016105ff565b600080546001600160a01b038381167fffffffffffffffffffffffff0000000000000000000000000000000000000000831681178455604051919092169283917f8be0079c531659141344cd1fd0a4f28419497f9722a3daafe3b4186f6b6457e09190a35050565b816001600160a01b0316836001600160a01b03160361166a5760405162461bcd60e51b815260206004820152601960248201527f4552433732313a20617070726f766520746f2063616c6c65720000000000000060448201526064016105ff565b6001600160a01b0383811660008181526007602090815260408083209487168084529482529182902080547fffffffffffffffffffffffffffffffffffffffffffffffffffffffffffffff001686151590811790915591519182527f17307eab39ab6107e8899845ad3d59bd9653f200f220920489ca2b5937696c31910160405180910390a3505050565b6117008484846110e8565b61170c84848484611a01565b610d925760405162461bcd60e51b815260206004820152603260248201527f4552433732313a207472616e7366657220746f206e6f6e20455243373231526560448201527f63656976657220696d706c656d656e746572000000000000000000000000000060648201526084016105ff565b6060600061178b83611bc0565b600101905060008167ffffffffffffffff8111156117ab576117ab6121d2565b6040519080825280601f01601f1916602001820160405280156117d5576020820181803683370190505b5090508181016020015b7fffffffffffffffffffffffffffffffffffffffffffffffffffffffffffffffff017f3031323334353637383961626364656600000000000000000000000000000000600a86061a8153600a85049450846117df57509392505050565b61184884848484611ca2565b60018111156118bf5760405162461bcd60e51b815260206004820152603560248201527f455243373231456e756d657261626c653a20636f6e736563757469766520747260448201527f616e7366657273206e6f7420737570706f72746564000000000000000000000060648201526084016105ff565b816001600160a01b03851661191b5761191681600a80546000838152600b60205260408120829055600182018355919091527fc65a7bb8d6351c1cf70c95a316cc6a92839c986682d98bc35f958f4883f9d2a80155565b61193e565b836001600160a01b0316856001600160a01b03161461193e5761193e8582611d2a565b6001600160a01b03841661195a5761195581611dc7565b61197d565b846001600160a01b0316846001600160a01b03161461197d5761197d8482611e76565b5050505050565b61198e8284611eba565b6000818152600d602052604080822080547fffffffffffffffffffffffff0000000000000000000000000000000000000000166001600160a01b038616908117909155905185928492917f9b01158d4bc10c112ba32b5240cda97e49e2eb86021f03f6a0f460342ac4dfda9190a4505050565b60006001600160a01b0384163b15611bb5576040517f150b7a020000000000000000000000000000000000000000000000000000000081526001600160a01b0385169063150b7a0290611a5e9033908990889088906004016125a6565b6020604051808303816000875af1925050508015611ab7575060408051601f3d9081017fffffffffffffffffffffffffffffffffffffffffffffffffffffffffffffffe0168201909252611ab4918101906125e2565b60015b611b6a573d808015611ae5576040519150601f19603f3d011682016040523d82523d6000602084013e611aea565b606091505b508051600003611b625760405162461bcd60e51b815260206004820152603260248201527f4552433732313a207472616e7366657220746f206e6f6e20455243373231526560448201527f63656976657220696d706c656d656e746572000000000000000000000000000060648201526084016105ff565b805181602001fd5b7fffffffff00000000000000000000000000000000000000000000000000000000167f150b7a02000000000000000000000000000000000000000000000000000000001490506110e0565b506001949350505050565b6000807a184f03e93ff9f4daa797ed6e38ed64bf6a1f0100000000000000008310611c09577a184f03e93ff9f4daa797ed6e38ed64bf6a1f010000000000000000830492506040015b6d04ee2d6d415b85acef81000000008310611c35576d04ee2d6d415b85acef8100000000830492506020015b662386f26fc100008310611c5357662386f26fc10000830492506010015b6305f5e1008310611c6b576305f5e100830492506008015b6127108310611c7f57612710830492506004015b60648310611c91576064830492506002015b600a83106104b05760010192915050565b6001811115610d92576001600160a01b03841615611ce8576001600160a01b03841660009081526005602052604081208054839290611ce29084906125ff565b90915550505b6001600160a01b03831615610d92576001600160a01b03831660009081526005602052604081208054839290611d1f908490612612565b909155505050505050565b60006001611d3784610ac9565b611d4191906125ff565b600083815260096020526040902054909150808214611d94576001600160a01b03841660009081526008602090815260408083208584528252808320548484528184208190558352600990915290208190555b5060009182526009602090815260408084208490556001600160a01b039094168352600881528383209183525290812055565b600a54600090611dd9906001906125ff565b6000838152600b6020526040812054600a8054939450909284908110611e0157611e01612492565b9060005260206000200154905080600a8381548110611e2257611e22612492565b6000918252602080832090910192909255828152600b9091526040808220849055858252812055600a805480611e5a57611e5a612625565b6001900381819060005260206000200160009055905550505050565b6000611e8183610ac9565b6001600160a01b039093166000908152600860209081526040808320868452825280832085905593825260099052919091209190915550565b6001600160a01b038216611f105760405162461bcd60e51b815260206004820181905260248201527f4552433732313a206d696e7420746f20746865207a65726f206164647265737360448201526064016105ff565b6000818152600460205260409020546001600160a01b031615611f755760405162461bcd60e51b815260206004820152601c60248201527f4552433732313a20746f6b656e20616c7265616479206d696e7465640000000060448201526064016105ff565b611f8360008383600161183c565b6000818152600460205260409020546001600160a01b031615611fe85760405162461bcd60e51b815260206004820152601c60248201527f4552433732313a20746f6b656e20616c7265616479206d696e7465640000000060448201526064016105ff565b6001600160a01b038216600081815260056020908152604080832080546001019055848352600490915280822080547fffffffffffffffffffffffff0000000000000000000000000000000000000000168417905551839291907fddf252ad1be2c89b69c2b068fc378daa952ba7f163c4a11628f55a4df523b3ef908290a45050565b7fffffffff0000000000000000000000000000000000000000000000000000000081168114610e9957600080fd5b6000602082840312156120ab57600080fd5b8135610e058161206b565b60005b838110156120d15781810151838201526020016120b9565b50506000910152565b600081518084526120f28160208601602086016120b6565b601f017fffffffffffffffffffffffffffffffffffffffffffffffffffffffffffffffe0169290920160200192915050565b602081526000610e0560208301846120da565b60006020828403121561214957600080fd5b5035919050565b80356001600160a01b038116811461216757600080fd5b919050565b6000806040838503121561217f57600080fd5b61218883612150565b946020939093013593505050565b6000806000606084860312156121ab57600080fd5b6121b484612150565b92506121c260208501612150565b9150604084013590509250925092565b7f4e487b7100000000000000000000000000000000000000000000000000000000600052604160045260246000fd5b600082601f83011261221257600080fd5b813567ffffffffffffffff8082111561222d5761222d6121d2565b604051601f83017fffffffffffffffffffffffffffffffffffffffffffffffffffffffffffffffe0908116603f01168101908282118183101715612273576122736121d2565b8160405283815286602085880101111561228c57600080fd5b836020870160208301376000602085830101528094505050505092915050565b60008060008060008060c087890312156122c557600080fd5b863595506020870135945060408701359350606087013592506080870135915060a087013567ffffffffffffffff8111156122ff57600080fd5b61230b89828a01612201565b9150509295509295509295565b60006020828403121561232a57600080fd5b610e0582612150565b60008060006060848603121561234857600080fd5b505081359360208301359350604090920135919050565b8015158114610e9957600080fd5b6000806040838503121561238057600080fd5b61238983612150565b915060208301356123998161235f565b809150509250929050565b600080600080608085870312156123ba57600080fd5b6123c385612150565b93506123d160208601612150565b925060408501359150606085013567ffffffffffffffff8111156123f457600080fd5b61240087828801612201565b91505092959194509250565b6000806040838503121561241f57600080fd5b61242883612150565b915061243660208401612150565b90509250929050565b600181811c9082168061245357607f821691505b60208210810361248c577f4e487b7100000000000000000000000000000000000000000000000000000000600052602260045260246000fd5b50919050565b7f4e487b7100000000000000000000000000000000000000000000000000000000600052603260045260246000fd5b7f4e487b7100000000000000000000000000000000000000000000000000000000600052601160045260246000fd5b60007fffffffffffffffffffffffffffffffffffffffffffffffffffffffffffffffff8203612521576125216124c1565b5060010190565b6000835161253a8184602088016120b6565b83519083019061254e8183602088016120b6565b01949350505050565b60006020828403121561256957600080fd5b5051919050565b8281526040602082015260006110e060408301846120da565b60006020828403121561259b57600080fd5b8151610e058161235f565b60006001600160a01b038087168352808616602084015250836040830152608060608301526125d860808301846120da565b9695505050505050565b6000602082840312156125f457600080fd5b8151610e058161206b565b818103818111156104b0576104b06124c1565b808201808211156104b0576104b06124c1565b7f4e487b7100000000000000000000000000000000000000000000000000000000600052603160045260246000fdfea2646970667358221220cae1910b4595947bb6d0ed9cef28dea15f9f63ce873e0a4b00c497d489385f1864736f6c63430008110033",
  "devdoc": {
    "kind": "dev",
    "methods": {
      "approve(address,uint256)": {
        "details": "See {IERC721-approve}."
      },
      "balanceOf(address)": {
        "details": "See {IERC721-balanceOf}."
      },
      "getApproved(uint256)": {
        "details": "See {IERC721-getApproved}."
      },
      "isApprovedForAll(address,address)": {
        "details": "See {IERC721-isApprovedForAll}."
      },
      "name()": {
        "details": "See {IERC721Metadata-name}."
      },
      "owner()": {
        "details": "Returns the address of the current owner."
      },
      "ownerOf(uint256)": {
        "details": "See {IERC721-ownerOf}."
      },
      "renounceOwnership()": {
        "details": "Leaves the contract without owner. It will not be possible to call `onlyOwner` functions anymore. Can only be called by the current owner. NOTE: Renouncing ownership will leave the contract without an owner, thereby removing any functionality that is only available to the owner."
      },
      "safeTransferFrom(address,address,uint256)": {
        "details": "See {IERC721-safeTransferFrom}."
      },
      "safeTransferFrom(address,address,uint256,bytes)": {
        "details": "See {IERC721-safeTransferFrom}."
      },
      "setApprovalForAll(address,bool)": {
        "details": "See {IERC721-setApprovalForAll}."
      },
      "supportsInterface(bytes4)": {
        "details": "See {IERC165-supportsInterface}."
      },
      "symbol()": {
        "details": "See {IERC721Metadata-symbol}."
      },
      "tokenByIndex(uint256)": {
        "details": "See {IERC721Enumerable-tokenByIndex}."
      },
      "tokenOfOwnerByIndex(address,uint256)": {
        "details": "See {IERC721Enumerable-tokenOfOwnerByIndex}."
      },
      "tokenURI(uint256)": {
        "details": "See {IERC721Metadata-tokenURI}."
      },
      "totalSupply()": {
        "details": "See {IERC721Enumerable-totalSupply}."
      },
      "transferFrom(address,address,uint256)": {
        "details": "See {IERC721-transferFrom}."
      },
      "transferOwnership(address)": {
        "details": "Transfers ownership of the contract to a new account (`newOwner`). Can only be called by the current owner."
      }
    },
    "version": 1
  },
  "userdoc": {
    "kind": "user",
    "methods": {},
    "version": 1
  },
  "storageLayout": {
    "storage": [
      {
        "astId": 7,
        "contract": "contracts/examples/PebbleMultipleLocationNFT.sol:PebbleMultipleLocationNFT",
        "label": "_owner",
        "offset": 0,
        "slot": "0",
        "type": "t_address"
      },
      {
        "astId": 123,
        "contract": "contracts/examples/PebbleMultipleLocationNFT.sol:PebbleMultipleLocationNFT",
        "label": "_status",
        "offset": 0,
        "slot": "1",
        "type": "t_uint256"
      },
      {
        "astId": 192,
        "contract": "contracts/examples/PebbleMultipleLocationNFT.sol:PebbleMultipleLocationNFT",
        "label": "_name",
        "offset": 0,
        "slot": "2",
        "type": "t_string_storage"
      },
      {
        "astId": 194,
        "contract": "contracts/examples/PebbleMultipleLocationNFT.sol:PebbleMultipleLocationNFT",
        "label": "_symbol",
        "offset": 0,
        "slot": "3",
        "type": "t_string_storage"
      },
      {
        "astId": 198,
        "contract": "contracts/examples/PebbleMultipleLocationNFT.sol:PebbleMultipleLocationNFT",
        "label": "_owners",
        "offset": 0,
        "slot": "4",
        "type": "t_mapping(t_uint256,t_address)"
      },
      {
        "astId": 202,
        "contract": "contracts/examples/PebbleMultipleLocationNFT.sol:PebbleMultipleLocationNFT",
        "label": "_balances",
        "offset": 0,
        "slot": "5",
        "type": "t_mapping(t_address,t_uint256)"
      },
      {
        "astId": 206,
        "contract": "contracts/examples/PebbleMultipleLocationNFT.sol:PebbleMultipleLocationNFT",
        "label": "_tokenApprovals",
        "offset": 0,
        "slot": "6",
        "type": "t_mapping(t_uint256,t_address)"
      },
      {
        "astId": 212,
        "contract": "contracts/examples/PebbleMultipleLocationNFT.sol:PebbleMultipleLocationNFT",
        "label": "_operatorApprovals",
        "offset": 0,
        "slot": "7",
        "type": "t_mapping(t_address,t_mapping(t_address,t_bool))"
      },
      {
        "astId": 1260,
        "contract": "contracts/examples/PebbleMultipleLocationNFT.sol:PebbleMultipleLocationNFT",
        "label": "_ownedTokens",
        "offset": 0,
        "slot": "8",
        "type": "t_mapping(t_address,t_mapping(t_uint256,t_uint256))"
      },
      {
        "astId": 1264,
        "contract": "contracts/examples/PebbleMultipleLocationNFT.sol:PebbleMultipleLocationNFT",
        "label": "_ownedTokensIndex",
        "offset": 0,
        "slot": "9",
        "type": "t_mapping(t_uint256,t_uint256)"
      },
      {
        "astId": 1267,
        "contract": "contracts/examples/PebbleMultipleLocationNFT.sol:PebbleMultipleLocationNFT",
        "label": "_allTokens",
        "offset": 0,
        "slot": "10",
        "type": "t_array(t_uint256)dyn_storage"
      },
      {
        "astId": 1271,
        "contract": "contracts/examples/PebbleMultipleLocationNFT.sol:PebbleMultipleLocationNFT",
        "label": "_allTokensIndex",
        "offset": 0,
        "slot": "11",
        "type": "t_mapping(t_uint256,t_uint256)"
      },
      {
        "astId": 3102,
        "contract": "contracts/examples/PebbleMultipleLocationNFT.sol:PebbleMultipleLocationNFT",
        "label": "verifier",
        "offset": 0,
        "slot": "12",
        "type": "t_contract(IMetapebbleDataVerifier)3589"
      },
      {
        "astId": 3126,
        "contract": "contracts/examples/PebbleMultipleLocationNFT.sol:PebbleMultipleLocationNFT",
        "label": "_claimedDevices",
        "offset": 0,
        "slot": "13",
        "type": "t_mapping(t_bytes32,t_address)"
      },
      {
        "astId": 3289,
        "contract": "contracts/examples/PebbleMultipleLocationNFT.sol:PebbleMultipleLocationNFT",
        "label": "placesHash",
        "offset": 0,
        "slot": "14",
        "type": "t_array(t_bytes32)dyn_storage"
      },
      {
        "astId": 3294,
        "contract": "contracts/examples/PebbleMultipleLocationNFT.sol:PebbleMultipleLocationNFT",
        "label": "places",
        "offset": 0,
        "slot": "15",
        "type": "t_mapping(t_bytes32,t_struct(Place)3286_storage)"
      },
      {
        "astId": 3296,
        "contract": "contracts/examples/PebbleMultipleLocationNFT.sol:PebbleMultipleLocationNFT",
        "label": "tokenId",
        "offset": 0,
        "slot": "16",
        "type": "t_uint256"
      }
    ],
    "types": {
      "t_address": {
        "encoding": "inplace",
        "label": "address",
        "numberOfBytes": "20"
      },
      "t_array(t_bytes32)dyn_storage": {
        "base": "t_bytes32",
        "encoding": "dynamic_array",
        "label": "bytes32[]",
        "numberOfBytes": "32"
      },
      "t_array(t_uint256)dyn_storage": {
        "base": "t_uint256",
        "encoding": "dynamic_array",
        "label": "uint256[]",
        "numberOfBytes": "32"
      },
      "t_bool": {
        "encoding": "inplace",
        "label": "bool",
        "numberOfBytes": "1"
      },
      "t_bytes32": {
        "encoding": "inplace",
        "label": "bytes32",
        "numberOfBytes": "32"
      },
      "t_contract(IMetapebbleDataVerifier)3589": {
        "encoding": "inplace",
        "label": "contract IMetapebbleDataVerifier",
        "numberOfBytes": "20"
      },
      "t_mapping(t_address,t_bool)": {
        "encoding": "mapping",
        "key": "t_address",
        "label": "mapping(address => bool)",
        "numberOfBytes": "32",
        "value": "t_bool"
      },
      "t_mapping(t_address,t_mapping(t_address,t_bool))": {
        "encoding": "mapping",
        "key": "t_address",
        "label": "mapping(address => mapping(address => bool))",
        "numberOfBytes": "32",
        "value": "t_mapping(t_address,t_bool)"
      },
      "t_mapping(t_address,t_mapping(t_uint256,t_uint256))": {
        "encoding": "mapping",
        "key": "t_address",
        "label": "mapping(address => mapping(uint256 => uint256))",
        "numberOfBytes": "32",
        "value": "t_mapping(t_uint256,t_uint256)"
      },
      "t_mapping(t_address,t_uint256)": {
        "encoding": "mapping",
        "key": "t_address",
        "label": "mapping(address => uint256)",
        "numberOfBytes": "32",
        "value": "t_uint256"
      },
      "t_mapping(t_bytes32,t_address)": {
        "encoding": "mapping",
        "key": "t_bytes32",
        "label": "mapping(bytes32 => address)",
        "numberOfBytes": "32",
        "value": "t_address"
      },
      "t_mapping(t_bytes32,t_struct(Place)3286_storage)": {
        "encoding": "mapping",
        "key": "t_bytes32",
        "label": "mapping(bytes32 => struct PebbleMultipleLocationNFT.Place)",
        "numberOfBytes": "32",
        "value": "t_struct(Place)3286_storage"
      },
      "t_mapping(t_uint256,t_address)": {
        "encoding": "mapping",
        "key": "t_uint256",
        "label": "mapping(uint256 => address)",
        "numberOfBytes": "32",
        "value": "t_address"
      },
      "t_mapping(t_uint256,t_uint256)": {
        "encoding": "mapping",
        "key": "t_uint256",
        "label": "mapping(uint256 => uint256)",
        "numberOfBytes": "32",
        "value": "t_uint256"
      },
      "t_string_storage": {
        "encoding": "bytes",
        "label": "string",
        "numberOfBytes": "32"
      },
      "t_struct(Place)3286_storage": {
        "encoding": "inplace",
        "label": "struct PebbleMultipleLocationNFT.Place",
        "members": [
          {
            "astId": 3281,
            "contract": "contracts/examples/PebbleMultipleLocationNFT.sol:PebbleMultipleLocationNFT",
            "label": "lat",
            "offset": 0,
            "slot": "0",
            "type": "t_uint256"
          },
          {
            "astId": 3283,
            "contract": "contracts/examples/PebbleMultipleLocationNFT.sol:PebbleMultipleLocationNFT",
            "label": "long",
            "offset": 0,
            "slot": "1",
            "type": "t_uint256"
          },
          {
            "astId": 3285,
            "contract": "contracts/examples/PebbleMultipleLocationNFT.sol:PebbleMultipleLocationNFT",
            "label": "maxDistance",
            "offset": 0,
            "slot": "2",
            "type": "t_uint256"
          }
        ],
        "numberOfBytes": "96"
      },
      "t_uint256": {
        "encoding": "inplace",
        "label": "uint256",
        "numberOfBytes": "32"
      }
    }
  }
}