{
  "address": "0x984f3ea52D67BC4fCB26ccC8f0A6E9bedC67F452",
  "abi": [
    {
      "inputs": [
        {
          "internalType": "int256[]",
          "name": "_lats",
          "type": "int256[]"
        },
        {
          "internalType": "int256[]",
          "name": "_longs",
          "type": "int256[]"
        },
        {
          "internalType": "uint256[]",
          "name": "_maxDistances",
          "type": "uint256[]"
        },
        {
          "internalType": "uint256[]",
          "name": "_startTimestamps",
          "type": "uint256[]"
        },
        {
          "internalType": "uint256[]",
          "name": "_endTimestamps",
          "type": "uint256[]"
        },
        {
          "internalType": "address",
          "name": "_verifier",
          "type": "address"
        },
        {
          "internalType": "string",
          "name": "_name",
          "type": "string"
        },
        {
          "internalType": "string",
          "name": "_symbol",
          "type": "string"
        }
      ],
      "stateMutability": "nonpayable",
      "type": "constructor"
    },
    {
      "anonymous": false,
      "inputs": [
        {
          "indexed": true,
          "internalType": "address",
          "name": "owner",
          "type": "address"
        },
        {
          "indexed": true,
          "internalType": "address",
          "name": "approved",
          "type": "address"
        },
        {
          "indexed": true,
          "internalType": "uint256",
          "name": "tokenId",
          "type": "uint256"
        }
      ],
      "name": "Approval",
      "type": "event"
    },
    {
      "anonymous": false,
      "inputs": [
        {
          "indexed": true,
          "internalType": "address",
          "name": "owner",
          "type": "address"
        },
        {
          "indexed": true,
          "internalType": "address",
          "name": "operator",
          "type": "address"
        },
        {
          "indexed": false,
          "internalType": "bool",
          "name": "approved",
          "type": "bool"
        }
      ],
      "name": "ApprovalForAll",
      "type": "event"
    },
    {
      "anonymous": false,
      "inputs": [
        {
          "indexed": true,
          "internalType": "address",
          "name": "holder",
          "type": "address"
        },
        {
          "indexed": true,
          "internalType": "bytes32",
          "name": "deviceHash",
          "type": "bytes32"
        },
        {
          "indexed": true,
          "internalType": "uint256",
          "name": "tokenId",
          "type": "uint256"
        }
      ],
      "name": "Claimed",
      "type": "event"
    },
    {
      "anonymous": false,
      "inputs": [
        {
          "indexed": true,
          "internalType": "address",
          "name": "previousOwner",
          "type": "address"
        },
        {
          "indexed": true,
          "internalType": "address",
          "name": "newOwner",
          "type": "address"
        }
      ],
      "name": "OwnershipTransferred",
      "type": "event"
    },
    {
      "anonymous": false,
      "inputs": [
        {
          "indexed": true,
          "internalType": "address",
          "name": "from",
          "type": "address"
        },
        {
          "indexed": true,
          "internalType": "address",
          "name": "to",
          "type": "address"
        },
        {
          "indexed": true,
          "internalType": "uint256",
          "name": "tokenId",
          "type": "uint256"
        }
      ],
      "name": "Transfer",
      "type": "event"
    },
    {
      "inputs": [
        {
          "internalType": "int256",
          "name": "_lat",
          "type": "int256"
        },
        {
          "internalType": "int256",
          "name": "_long",
          "type": "int256"
        },
        {
          "internalType": "uint256",
          "name": "_maxDistance",
          "type": "uint256"
        },
        {
          "internalType": "uint256",
          "name": "_startTimestamp",
          "type": "uint256"
        },
        {
          "internalType": "uint256",
          "name": "_endTimestamp",
          "type": "uint256"
        }
      ],
      "name": "addPlace",
      "outputs": [],
      "stateMutability": "nonpayable",
      "type": "function"
    },
    {
      "inputs": [
        {
          "internalType": "address",
          "name": "to",
          "type": "address"
        },
        {
          "internalType": "uint256",
          "name": "tokenId",
          "type": "uint256"
        }
      ],
      "name": "approve",
      "outputs": [],
      "stateMutability": "nonpayable",
      "type": "function"
    },
    {
      "inputs": [
        {
          "internalType": "address",
          "name": "owner",
          "type": "address"
        }
      ],
      "name": "balanceOf",
      "outputs": [
        {
          "internalType": "uint256",
          "name": "",
          "type": "uint256"
        }
      ],
      "stateMutability": "view",
      "type": "function"
    },
    {
      "inputs": [
        {
          "internalType": "int256",
          "name": "lat_",
          "type": "int256"
        },
        {
          "internalType": "int256",
          "name": "long_",
          "type": "int256"
        },
        {
          "internalType": "uint256",
          "name": "distance_",
          "type": "uint256"
        },
        {
          "internalType": "bytes32",
          "name": "deviceHash_",
          "type": "bytes32"
        },
        {
          "internalType": "uint256",
          "name": "startTimestamp_",
          "type": "uint256"
        },
        {
          "internalType": "uint256",
          "name": "endTimestamp_",
          "type": "uint256"
        },
        {
          "internalType": "bytes",
          "name": "signature",
          "type": "bytes"
        }
      ],
      "name": "claim",
      "outputs": [],
      "stateMutability": "payable",
      "type": "function"
    },
    {
      "inputs": [
        {
          "internalType": "bytes32",
          "name": "deviceHash_",
          "type": "bytes32"
        }
      ],
      "name": "claimed",
      "outputs": [
        {
          "internalType": "bool",
          "name": "",
          "type": "bool"
        }
      ],
      "stateMutability": "view",
      "type": "function"
    },
    {
      "inputs": [
        {
          "internalType": "bytes32",
          "name": "deviceHash_",
          "type": "bytes32"
        }
      ],
      "name": "claimedUser",
      "outputs": [
        {
          "internalType": "address",
          "name": "",
          "type": "address"
        }
      ],
      "stateMutability": "view",
      "type": "function"
    },
    {
      "inputs": [
        {
          "internalType": "uint256",
          "name": "tokenId",
          "type": "uint256"
        }
      ],
      "name": "getApproved",
      "outputs": [
        {
          "internalType": "address",
          "name": "",
          "type": "address"
        }
      ],
      "stateMutability": "view",
      "type": "function"
    },
    {
      "inputs": [
        {
          "internalType": "address",
          "name": "owner",
          "type": "address"
        },
        {
          "internalType": "address",
          "name": "operator",
          "type": "address"
        }
      ],
      "name": "isApprovedForAll",
      "outputs": [
        {
          "internalType": "bool",
          "name": "",
          "type": "bool"
        }
      ],
      "stateMutability": "view",
      "type": "function"
    },
    {
      "inputs": [],
      "name": "name",
      "outputs": [
        {
          "internalType": "string",
          "name": "",
          "type": "string"
        }
      ],
      "stateMutability": "view",
      "type": "function"
    },
    {
      "inputs": [],
      "name": "owner",
      "outputs": [
        {
          "internalType": "address",
          "name": "",
          "type": "address"
        }
      ],
      "stateMutability": "view",
      "type": "function"
    },
    {
      "inputs": [
        {
          "internalType": "uint256",
          "name": "tokenId",
          "type": "uint256"
        }
      ],
      "name": "ownerOf",
      "outputs": [
        {
          "internalType": "address",
          "name": "",
          "type": "address"
        }
      ],
      "stateMutability": "view",
      "type": "function"
    },
    {
      "inputs": [],
      "name": "palceCount",
      "outputs": [
        {
          "internalType": "uint256",
          "name": "",
          "type": "uint256"
        }
      ],
      "stateMutability": "view",
      "type": "function"
    },
    {
      "inputs": [
        {
          "internalType": "bytes32",
          "name": "",
          "type": "bytes32"
        }
      ],
      "name": "places",
      "outputs": [
        {
          "internalType": "int256",
          "name": "lat",
          "type": "int256"
        },
        {
          "internalType": "int256",
          "name": "long",
          "type": "int256"
        },
        {
          "internalType": "uint256",
          "name": "maxDistance",
          "type": "uint256"
        },
        {
          "internalType": "uint256",
          "name": "startTimestamp",
          "type": "uint256"
        },
        {
          "internalType": "uint256",
          "name": "endTimestamp",
          "type": "uint256"
        }
      ],
      "stateMutability": "view",
      "type": "function"
    },
    {
      "inputs": [
        {
          "internalType": "uint256",
          "name": "",
          "type": "uint256"
        }
      ],
      "name": "placesHash",
      "outputs": [
        {
          "internalType": "bytes32",
          "name": "",
          "type": "bytes32"
        }
      ],
      "stateMutability": "view",
      "type": "function"
    },
    {
      "inputs": [],
      "name": "renounceOwnership",
      "outputs": [],
      "stateMutability": "nonpayable",
      "type": "function"
    },
    {
      "inputs": [
        {
          "internalType": "address",
          "name": "from",
          "type": "address"
        },
        {
          "internalType": "address",
          "name": "to",
          "type": "address"
        },
        {
          "internalType": "uint256",
          "name": "tokenId",
          "type": "uint256"
        }
      ],
      "name": "safeTransferFrom",
      "outputs": [],
      "stateMutability": "nonpayable",
      "type": "function"
    },
    {
      "inputs": [
        {
          "internalType": "address",
          "name": "from",
          "type": "address"
        },
        {
          "internalType": "address",
          "name": "to",
          "type": "address"
        },
        {
          "internalType": "uint256",
          "name": "tokenId",
          "type": "uint256"
        },
        {
          "internalType": "bytes",
          "name": "data",
          "type": "bytes"
        }
      ],
      "name": "safeTransferFrom",
      "outputs": [],
      "stateMutability": "nonpayable",
      "type": "function"
    },
    {
      "inputs": [
        {
          "internalType": "address",
          "name": "operator",
          "type": "address"
        },
        {
          "internalType": "bool",
          "name": "approved",
          "type": "bool"
        }
      ],
      "name": "setApprovalForAll",
      "outputs": [],
      "stateMutability": "nonpayable",
      "type": "function"
    },
    {
      "inputs": [
        {
          "internalType": "bytes4",
          "name": "interfaceId",
          "type": "bytes4"
        }
      ],
      "name": "supportsInterface",
      "outputs": [
        {
          "internalType": "bool",
          "name": "",
          "type": "bool"
        }
      ],
      "stateMutability": "view",
      "type": "function"
    },
    {
      "inputs": [],
      "name": "symbol",
      "outputs": [
        {
          "internalType": "string",
          "name": "",
          "type": "string"
        }
      ],
      "stateMutability": "view",
      "type": "function"
    },
    {
      "inputs": [
        {
          "internalType": "uint256",
          "name": "index",
          "type": "uint256"
        }
      ],
      "name": "tokenByIndex",
      "outputs": [
        {
          "internalType": "uint256",
          "name": "",
          "type": "uint256"
        }
      ],
      "stateMutability": "view",
      "type": "function"
    },
    {
      "inputs": [
        {
          "internalType": "address",
          "name": "owner",
          "type": "address"
        },
        {
          "internalType": "uint256",
          "name": "index",
          "type": "uint256"
        }
      ],
      "name": "tokenOfOwnerByIndex",
      "outputs": [
        {
          "internalType": "uint256",
          "name": "",
          "type": "uint256"
        }
      ],
      "stateMutability": "view",
      "type": "function"
    },
    {
      "inputs": [
        {
          "internalType": "uint256",
          "name": "tokenId",
          "type": "uint256"
        }
      ],
      "name": "tokenURI",
      "outputs": [
        {
          "internalType": "string",
          "name": "",
          "type": "string"
        }
      ],
      "stateMutability": "view",
      "type": "function"
    },
    {
      "inputs": [],
      "name": "totalSupply",
      "outputs": [
        {
          "internalType": "uint256",
          "name": "",
          "type": "uint256"
        }
      ],
      "stateMutability": "view",
      "type": "function"
    },
    {
      "inputs": [
        {
          "internalType": "address",
          "name": "from",
          "type": "address"
        },
        {
          "internalType": "address",
          "name": "to",
          "type": "address"
        },
        {
          "internalType": "uint256",
          "name": "tokenId",
          "type": "uint256"
        }
      ],
      "name": "transferFrom",
      "outputs": [],
      "stateMutability": "nonpayable",
      "type": "function"
    },
    {
      "inputs": [
        {
          "internalType": "address",
          "name": "newOwner",
          "type": "address"
        }
      ],
      "name": "transferOwnership",
      "outputs": [],
      "stateMutability": "nonpayable",
      "type": "function"
    },
    {
      "inputs": [],
      "name": "verifier",
      "outputs": [
        {
          "internalType": "contract IMetapebbleDataVerifier",
          "name": "",
          "type": "address"
        }
      ],
      "stateMutability": "view",
      "type": "function"
    }
  ],
  "transactionHash": "0x5d2107018dc870fc67cf5c5c0b211a04e15031b8d2c4f84e303ef40356af92e0",
  "args": [
    [
      30400000,
      30270960
    ],
    [
      120520000,
      120041443
    ],
    [
      1000,
      1000
    ],
    [
      1670398866,
      1670398866
    ],
    [
      1670399866,
      1672990866
    ],
    "0xdeb14b479028C662D796Ea7fC3249C8c339e5f8a",
    "Multiple Place Pebble NFT",
    "MPT"
  ],
  "numDeployments": 1,
  "solcInputHash": "3f4cc54d1bb84f573f53fbb2075c5258",
  "bytecode": "0x60806040523480156200001157600080fd5b50604051620033c2380380620033c2833981016040819052620000349162000764565b8282828181620000443362000599565b60018055600262000056838262000936565b50600362000065828262000936565b5050600c80546001600160a01b0319166001600160a01b03959095169490941790935550508751895114905080156200009f575085518851145b620000e15760405162461bcd60e51b815260206004820152600d60248201526c696e76616c696420706c61636560981b60448201526064015b60405180910390fd5b60005b88518110156200058a57600087828151811062000105576200010562000a02565b6020026020010151116200015c5760405162461bcd60e51b815260206004820152601460248201527f696e76616c6964206d61782064697374616e63650000000000000000000000006044820152606401620000d8565b63055d4a7f1989828151811062000177576200017762000a02565b602002602001015112158015620001ae575063055d4a80898281518110620001a357620001a362000a02565b602002602001015113155b620001ea5760405162461bcd60e51b815260206004820152600b60248201526a1a5b9d985b1a59081b185d60aa1b6044820152606401620000d8565b630aba94ff1988828151811062000205576200020562000a02565b6020026020010151121580156200023c5750630aba950088828151811062000231576200023162000a02565b602002602001015113155b620002795760405162461bcd60e51b815260206004820152600c60248201526b696e76616c6964206c6f6e6760a01b6044820152606401620000d8565b8581815181106200028e576200028e62000a02565b6020026020010151858281518110620002ab57620002ab62000a02565b6020026020010151118015620002dc575042858281518110620002d257620002d262000a02565b6020026020010151115b6200031e5760405162461bcd60e51b81526020600482015260116024820152700696e76616c69642074696d657374616d7607c1b6044820152606401620000d8565b600089828151811062000335576200033562000a02565b602002602001015189838151811062000352576200035262000a02565b60200260200101518984815181106200036f576200036f62000a02565b60200260200101518985815181106200038c576200038c62000a02565b6020026020010151898681518110620003a957620003a962000a02565b6020026020010151604051602001620003e4959493929190948552602085019390935260408401919091526060830152608082015260a00190565b60408051601f1981840301815291815281516020928301206000818152600f909352912060020154909150156200044f5760405162461bcd60e51b815260206004820152600e60248201526d726570656174656420706c61636560901b6044820152606401620000d8565b6040518060a001604052808b84815181106200046f576200046f62000a02565b602002602001015181526020018a848151811062000491576200049162000a02565b60200260200101518152602001898481518110620004b357620004b362000a02565b60200260200101518152602001888481518110620004d557620004d562000a02565b60200260200101518152602001878481518110620004f757620004f762000a02565b6020908102919091018101519091526000838152600f82526040808220845181559284015160018085019190915590840151600284015560608401516003840155608090930151600490920191909155600e8054928301815590527fbb7b4a454dc3493923482f07822329ed19e8244eff582cc204f8554c3620c3fd015580620005818162000a18565b915050620000e4565b50505050505050505062000a40565b600080546001600160a01b038381166001600160a01b0319831681178455604051919092169283917f8be0079c531659141344cd1fd0a4f28419497f9722a3daafe3b4186f6b6457e09190a35050565b634e487b7160e01b600052604160045260246000fd5b604051601f8201601f191681016001600160401b03811182821017156200062a576200062a620005e9565b604052919050565b600082601f8301126200064457600080fd5b815160206001600160401b03821115620006625762000662620005e9565b8160051b62000673828201620005ff565b92835284810182019282810190878511156200068e57600080fd5b83870192505b84831015620006af5782518252918301919083019062000694565b979650505050505050565b80516001600160a01b0381168114620006d257600080fd5b919050565b600082601f830112620006e957600080fd5b81516001600160401b03811115620007055762000705620005e9565b60206200071b601f8301601f19168201620005ff565b82815285828487010111156200073057600080fd5b60005b838110156200075057858101830151828201840152820162000733565b506000928101909101919091529392505050565b600080600080600080600080610100898b0312156200078257600080fd5b88516001600160401b03808211156200079a57600080fd5b620007a88c838d0162000632565b995060208b0151915080821115620007bf57600080fd5b620007cd8c838d0162000632565b985060408b0151915080821115620007e457600080fd5b620007f28c838d0162000632565b975060608b01519150808211156200080957600080fd5b620008178c838d0162000632565b965060808b01519150808211156200082e57600080fd5b6200083c8c838d0162000632565b95506200084c60a08c01620006ba565b945060c08b01519150808211156200086357600080fd5b620008718c838d01620006d7565b935060e08b01519150808211156200088857600080fd5b50620008978b828c01620006d7565b9150509295985092959890939650565b600181811c90821680620008bc57607f821691505b602082108103620008dd57634e487b7160e01b600052602260045260246000fd5b50919050565b601f8211156200093157600081815260208120601f850160051c810160208610156200090c5750805b601f850160051c820191505b818110156200092d5782815560010162000918565b5050505b505050565b81516001600160401b03811115620009525762000952620005e9565b6200096a81620009638454620008a7565b84620008e3565b602080601f831160018114620009a25760008415620009895750858301515b600019600386901b1c1916600185901b1785556200092d565b600085815260208120601f198616915b82811015620009d357888601518255948401946001909101908401620009b2565b5085821015620009f25787850151600019600388901b60f8161c191681555b5050505050600190811b01905550565b634e487b7160e01b600052603260045260246000fd5b60006001820162000a3957634e487b7160e01b600052601160045260246000fd5b5060010190565b6129728062000a506000396000f3fe6080604052600436106101ac5760003560e01c806370a08231116100ec578063a22cb4651161008a578063c87b56dd11610064578063c87b56dd146104f9578063cc3c0f0614610519578063e985e9c514610551578063f2fde38b1461059a57600080fd5b8063a22cb465146104a4578063a4353eb0146104c4578063b88d4fde146104d957600080fd5b80637d6fbd9e116100c65780637d6fbd9e1461041b5780638da5cb5b1461045157806395d89b411461046f5780639da5d98b1461048457600080fd5b806370a08231146103c6578063715018a6146103e6578063781d2e6a146103fb57600080fd5b80632b7ac3f31161015957806342842e0e1161013357806342842e0e146102f45780634f6ccce7146103145780636352211e14610334578063678f98b71461035457600080fd5b80632b7ac3f3146102a15780632dfd452a146102c15780632f745c59146102d457600080fd5b8063095ea7b31161018a578063095ea7b31461024057806318160ddd1461026257806323b872dd1461028157600080fd5b806301ffc9a7146101b157806306fdde03146101e6578063081812fc14610208575b600080fd5b3480156101bd57600080fd5b506101d16101cc366004612367565b6105ba565b60405190151581526020015b60405180910390f35b3480156101f257600080fd5b506101fb610616565b6040516101dd91906123f2565b34801561021457600080fd5b50610228610223366004612405565b6106a8565b6040516001600160a01b0390911681526020016101dd565b34801561024c57600080fd5b5061026061025b36600461243a565b6106cf565b005b34801561026e57600080fd5b50600a545b6040519081526020016101dd565b34801561028d57600080fd5b5061026061029c366004612464565b610805565b3480156102ad57600080fd5b50600c54610228906001600160a01b031681565b6102606102cf36600461257a565b61088c565b3480156102e057600080fd5b506102736102ef36600461243a565b610a10565b34801561030057600080fd5b5061026061030f366004612464565b610ab8565b34801561032057600080fd5b5061027361032f366004612405565b610ad3565b34801561034057600080fd5b5061022861034f366004612405565b610b77565b34801561036057600080fd5b5061039e61036f366004612405565b600f60205260009081526040902080546001820154600283015460038401546004909401549293919290919085565b604080519586526020860194909452928401919091526060830152608082015260a0016101dd565b3480156103d257600080fd5b506102736103e13660046125f1565b610bdc565b3480156103f257600080fd5b50610260610c76565b34801561040757600080fd5b5061026061041636600461260c565b610c8a565b34801561042757600080fd5b50610228610436366004612405565b6000908152600d60205260409020546001600160a01b031690565b34801561045d57600080fd5b506000546001600160a01b0316610228565b34801561047b57600080fd5b506101fb610f8c565b34801561049057600080fd5b5061027361049f366004612405565b610f9b565b3480156104b057600080fd5b506102606104bf366004612655565b610fbc565b3480156104d057600080fd5b50600e54610273565b3480156104e557600080fd5b506102606104f436600461268c565b610fcb565b34801561050557600080fd5b506101fb610514366004612405565b611059565b34801561052557600080fd5b506101d1610534366004612405565b6000908152600d60205260409020546001600160a01b0316151590565b34801561055d57600080fd5b506101d161056c3660046126f4565b6001600160a01b03918216600090815260076020908152604080832093909416825291909152205460ff1690565b3480156105a657600080fd5b506102606105b53660046125f1565b6110cd565b60007fffffffff0000000000000000000000000000000000000000000000000000000082167f780e9d6300000000000000000000000000000000000000000000000000000000148061061057506106108261115d565b92915050565b60606002805461062590612727565b80601f016020809104026020016040519081016040528092919081815260200182805461065190612727565b801561069e5780601f106106735761010080835404028352916020019161069e565b820191906000526020600020905b81548152906001019060200180831161068157829003601f168201915b5050505050905090565b60006106b382611240565b506000908152600660205260409020546001600160a01b031690565b60006106da82610b77565b9050806001600160a01b0316836001600160a01b0316036107685760405162461bcd60e51b815260206004820152602160248201527f4552433732313a20617070726f76616c20746f2063757272656e74206f776e6560448201527f720000000000000000000000000000000000000000000000000000000000000060648201526084015b60405180910390fd5b336001600160a01b03821614806107845750610784813361056c565b6107f65760405162461bcd60e51b815260206004820152603d60248201527f4552433732313a20617070726f76652063616c6c6572206973206e6f7420746f60448201527f6b656e206f776e6572206f7220617070726f76656420666f7220616c6c000000606482015260840161075f565b61080083836112a4565b505050565b61080f338261132a565b6108815760405162461bcd60e51b815260206004820152602d60248201527f4552433732313a2063616c6c6572206973206e6f7420746f6b656e206f776e6560448201527f72206f7220617070726f76656400000000000000000000000000000000000000606482015260840161075f565b6108008383836113a9565b610894611615565b6000848152600d60205260409020546001600160a01b0316156108f95760405162461bcd60e51b815260206004820152600f60248201527f616c726561647920636c61696d65640000000000000000000000000000000000604482015260640161075f565b6040805160208082018a9052818301899052606082018890526080820186905260a08083018690528351808403909101815260c083018085528151918301919091206000908152600f90925290839020610160830190935282548152600183015460e083015260028301546101008301819052600384015461012084015260049093015461014090920191909152906109d45760405162461bcd60e51b815260206004820152601060248201527f706c616365206e6f742065786973747300000000000000000000000000000000604482015260640161075f565b6109e8601054338a8a8a8a8a8a8a3461166e565b601080549060006109f8836127a9565b919050555050610a0760018055565b50505050505050565b6000610a1b83610bdc565b8210610a8f5760405162461bcd60e51b815260206004820152602b60248201527f455243373231456e756d657261626c653a206f776e657220696e646578206f7560448201527f74206f6620626f756e6473000000000000000000000000000000000000000000606482015260840161075f565b506001600160a01b03919091166000908152600860209081526040808320938352929052205490565b61080083838360405180602001604052806000815250610fcb565b6000610ade600a5490565b8210610b525760405162461bcd60e51b815260206004820152602c60248201527f455243373231456e756d657261626c653a20676c6f62616c20696e646578206f60448201527f7574206f6620626f756e64730000000000000000000000000000000000000000606482015260840161075f565b600a8281548110610b6557610b656127e1565b90600052602060002001549050919050565b6000818152600460205260408120546001600160a01b0316806106105760405162461bcd60e51b815260206004820152601860248201527f4552433732313a20696e76616c696420746f6b656e2049440000000000000000604482015260640161075f565b60006001600160a01b038216610c5a5760405162461bcd60e51b815260206004820152602960248201527f4552433732313a2061646472657373207a65726f206973206e6f74206120766160448201527f6c6964206f776e65720000000000000000000000000000000000000000000000606482015260840161075f565b506001600160a01b031660009081526005602052604090205490565b610c7e611815565b610c88600061186f565b565b610c92611815565b60008311610ce25760405162461bcd60e51b815260206004820152601460248201527f696e76616c6964206d61782064697374616e6365000000000000000000000000604482015260640161075f565b8181118015610cf057504281115b610d3c5760405162461bcd60e51b815260206004820152601160248201527f696e76616c69642074696d657374616d70000000000000000000000000000000604482015260640161075f565b7ffffffffffffffffffffffffffffffffffffffffffffffffffffffffffaa2b5808512158015610d70575063055d4a808513155b610dbc5760405162461bcd60e51b815260206004820152600b60248201527f696e76616c6964206c6174000000000000000000000000000000000000000000604482015260640161075f565b7ffffffffffffffffffffffffffffffffffffffffffffffffffffffffff5456b008412158015610df05750630aba95008413155b610e3c5760405162461bcd60e51b815260206004820152600c60248201527f696e76616c6964206c6f6e670000000000000000000000000000000000000000604482015260640161075f565b6040805160208101879052908101859052606081018490526080810183905260a0810182905260009060c001604080517fffffffffffffffffffffffffffffffffffffffffffffffffffffffffffffffe081840301815291815281516020928301206000818152600f90935291206002015490915015610efe5760405162461bcd60e51b815260206004820152600e60248201527f726570656174656420706c616365000000000000000000000000000000000000604482015260640161075f565b6040805160a081018252968752602080880196875287820195865260608801948552608088019384526000838152600f909152908120965187559451600180880191909155935160028701559151600386015551600490940193909355600e805491820181559091527fbb7b4a454dc3493923482f07822329ed19e8244eff582cc204f8554c3620c3fd0155565b60606003805461062590612727565b600e8181548110610fab57600080fd5b600091825260209091200154905081565b610fc73383836118d7565b5050565b610fd5338361132a565b6110475760405162461bcd60e51b815260206004820152602d60248201527f4552433732313a2063616c6c6572206973206e6f7420746f6b656e206f776e6560448201527f72206f7220617070726f76656400000000000000000000000000000000000000606482015260840161075f565b611053848484846119c3565b50505050565b606061106482611240565b600061107b60408051602081019091526000815290565b9050600081511161109b57604051806020016040528060008152506110c6565b806110a584611a4c565b6040516020016110b6929190612810565b6040516020818303038152906040525b9392505050565b6110d5611815565b6001600160a01b0381166111515760405162461bcd60e51b815260206004820152602660248201527f4f776e61626c653a206e6577206f776e657220697320746865207a65726f206160448201527f6464726573730000000000000000000000000000000000000000000000000000606482015260840161075f565b61115a8161186f565b50565b60007fffffffff0000000000000000000000000000000000000000000000000000000082167f80ac58cd0000000000000000000000000000000000000000000000000000000014806111f057507fffffffff0000000000000000000000000000000000000000000000000000000082167f5b5e139f00000000000000000000000000000000000000000000000000000000145b8061061057507f01ffc9a7000000000000000000000000000000000000000000000000000000007fffffffff00000000000000000000000000000000000000000000000000000000831614610610565b6000818152600460205260409020546001600160a01b031661115a5760405162461bcd60e51b815260206004820152601860248201527f4552433732313a20696e76616c696420746f6b656e2049440000000000000000604482015260640161075f565b600081815260066020526040902080547fffffffffffffffffffffffff0000000000000000000000000000000000000000166001600160a01b03841690811790915581906112f182610b77565b6001600160a01b03167f8c5be1e5ebec7d5bd14f71427d1e84f3dd0314c0f7b2291e5b200ac8c7c3b92560405160405180910390a45050565b60008061133683610b77565b9050806001600160a01b0316846001600160a01b0316148061137d57506001600160a01b0380821660009081526007602090815260408083209388168352929052205460ff165b806113a15750836001600160a01b0316611396846106a8565b6001600160a01b0316145b949350505050565b826001600160a01b03166113bc82610b77565b6001600160a01b0316146114385760405162461bcd60e51b815260206004820152602560248201527f4552433732313a207472616e736665722066726f6d20696e636f72726563742060448201527f6f776e6572000000000000000000000000000000000000000000000000000000606482015260840161075f565b6001600160a01b0382166114b35760405162461bcd60e51b8152602060048201526024808201527f4552433732313a207472616e7366657220746f20746865207a65726f2061646460448201527f7265737300000000000000000000000000000000000000000000000000000000606482015260840161075f565b6114c08383836001611b0a565b826001600160a01b03166114d382610b77565b6001600160a01b03161461154f5760405162461bcd60e51b815260206004820152602560248201527f4552433732313a207472616e736665722066726f6d20696e636f72726563742060448201527f6f776e6572000000000000000000000000000000000000000000000000000000606482015260840161075f565b600081815260066020908152604080832080547fffffffffffffffffffffffff00000000000000000000000000000000000000009081169091556001600160a01b038781168086526005855283862080547fffffffffffffffffffffffffffffffffffffffffffffffffffffffffffffffff01905590871680865283862080546001019055868652600490945282852080549092168417909155905184937fddf252ad1be2c89b69c2b068fc378daa952ba7f163c4a11628f55a4df523b3ef91a4505050565b6002600154036116675760405162461bcd60e51b815260206004820152601f60248201527f5265656e7472616e637947756172643a207265656e7472616e742063616c6c00604482015260640161075f565b6002600155565b600c546040517fb499ffd10000000000000000000000000000000000000000000000000000000081526001600160a01b038b81166004830152602482018b9052604482018a9052606482018990526084820188905260a4820187905260c48201869052600092169063b499ffd19060e401602060405180830381865afa1580156116fc573d6000803e3d6000fd5b505050506040513d601f19601f82011682018060405250810190611720919061283f565b600c546040517f258ae5820000000000000000000000000000000000000000000000000000000081529192506001600160a01b03169063258ae58290849061176e9085908890600401612858565b60206040518083038185885af115801561178c573d6000803e3d6000fd5b50505050506040513d601f19601f820116820180604052508101906117b19190612871565b6117fd5760405162461bcd60e51b815260206004820152601160248201527f696e76616c6964207369676e6174757265000000000000000000000000000000604482015260640161075f565b6118088b8b88611c52565b5050505050505050505050565b6000546001600160a01b03163314610c885760405162461bcd60e51b815260206004820181905260248201527f4f776e61626c653a2063616c6c6572206973206e6f7420746865206f776e6572604482015260640161075f565b600080546001600160a01b038381167fffffffffffffffffffffffff0000000000000000000000000000000000000000831681178455604051919092169283917f8be0079c531659141344cd1fd0a4f28419497f9722a3daafe3b4186f6b6457e09190a35050565b816001600160a01b0316836001600160a01b0316036119385760405162461bcd60e51b815260206004820152601960248201527f4552433732313a20617070726f766520746f2063616c6c657200000000000000604482015260640161075f565b6001600160a01b0383811660008181526007602090815260408083209487168084529482529182902080547fffffffffffffffffffffffffffffffffffffffffffffffffffffffffffffff001686151590811790915591519182527f17307eab39ab6107e8899845ad3d59bd9653f200f220920489ca2b5937696c31910160405180910390a3505050565b6119ce8484846113a9565b6119da84848484611ccf565b6110535760405162461bcd60e51b815260206004820152603260248201527f4552433732313a207472616e7366657220746f206e6f6e20455243373231526560448201527f63656976657220696d706c656d656e7465720000000000000000000000000000606482015260840161075f565b60606000611a5983611e8e565b600101905060008167ffffffffffffffff811115611a7957611a796124a0565b6040519080825280601f01601f191660200182016040528015611aa3576020820181803683370190505b5090508181016020015b7fffffffffffffffffffffffffffffffffffffffffffffffffffffffffffffffff017f3031323334353637383961626364656600000000000000000000000000000000600a86061a8153600a8504945084611aad57509392505050565b611b1684848484611f70565b6001811115611b8d5760405162461bcd60e51b815260206004820152603560248201527f455243373231456e756d657261626c653a20636f6e736563757469766520747260448201527f616e7366657273206e6f7420737570706f727465640000000000000000000000606482015260840161075f565b816001600160a01b038516611be957611be481600a80546000838152600b60205260408120829055600182018355919091527fc65a7bb8d6351c1cf70c95a316cc6a92839c986682d98bc35f958f4883f9d2a80155565b611c0c565b836001600160a01b0316856001600160a01b031614611c0c57611c0c8582611ff8565b6001600160a01b038416611c2857611c2381612095565b611c4b565b846001600160a01b0316846001600160a01b031614611c4b57611c4b8482612144565b5050505050565b611c5c8284612188565b6000818152600d602052604080822080547fffffffffffffffffffffffff0000000000000000000000000000000000000000166001600160a01b038616908117909155905185928492917f9b01158d4bc10c112ba32b5240cda97e49e2eb86021f03f6a0f460342ac4dfda9190a4505050565b60006001600160a01b0384163b15611e83576040517f150b7a020000000000000000000000000000000000000000000000000000000081526001600160a01b0385169063150b7a0290611d2c90339089908890889060040161288e565b6020604051808303816000875af1925050508015611d85575060408051601f3d9081017fffffffffffffffffffffffffffffffffffffffffffffffffffffffffffffffe0168201909252611d82918101906128ca565b60015b611e38573d808015611db3576040519150601f19603f3d011682016040523d82523d6000602084013e611db8565b606091505b508051600003611e305760405162461bcd60e51b815260206004820152603260248201527f4552433732313a207472616e7366657220746f206e6f6e20455243373231526560448201527f63656976657220696d706c656d656e7465720000000000000000000000000000606482015260840161075f565b805181602001fd5b7fffffffff00000000000000000000000000000000000000000000000000000000167f150b7a02000000000000000000000000000000000000000000000000000000001490506113a1565b506001949350505050565b6000807a184f03e93ff9f4daa797ed6e38ed64bf6a1f0100000000000000008310611ed7577a184f03e93ff9f4daa797ed6e38ed64bf6a1f010000000000000000830492506040015b6d04ee2d6d415b85acef81000000008310611f03576d04ee2d6d415b85acef8100000000830492506020015b662386f26fc100008310611f2157662386f26fc10000830492506010015b6305f5e1008310611f39576305f5e100830492506008015b6127108310611f4d57612710830492506004015b60648310611f5f576064830492506002015b600a83106106105760010192915050565b6001811115611053576001600160a01b03841615611fb6576001600160a01b03841660009081526005602052604081208054839290611fb09084906128e7565b90915550505b6001600160a01b03831615611053576001600160a01b03831660009081526005602052604081208054839290611fed9084906128fa565b909155505050505050565b6000600161200584610bdc565b61200f91906128e7565b600083815260096020526040902054909150808214612062576001600160a01b03841660009081526008602090815260408083208584528252808320548484528184208190558352600990915290208190555b5060009182526009602090815260408084208490556001600160a01b039094168352600881528383209183525290812055565b600a546000906120a7906001906128e7565b6000838152600b6020526040812054600a80549394509092849081106120cf576120cf6127e1565b9060005260206000200154905080600a83815481106120f0576120f06127e1565b6000918252602080832090910192909255828152600b9091526040808220849055858252812055600a8054806121285761212861290d565b6001900381819060005260206000200160009055905550505050565b600061214f83610bdc565b6001600160a01b039093166000908152600860209081526040808320868452825280832085905593825260099052919091209190915550565b6001600160a01b0382166121de5760405162461bcd60e51b815260206004820181905260248201527f4552433732313a206d696e7420746f20746865207a65726f2061646472657373604482015260640161075f565b6000818152600460205260409020546001600160a01b0316156122435760405162461bcd60e51b815260206004820152601c60248201527f4552433732313a20746f6b656e20616c7265616479206d696e74656400000000604482015260640161075f565b612251600083836001611b0a565b6000818152600460205260409020546001600160a01b0316156122b65760405162461bcd60e51b815260206004820152601c60248201527f4552433732313a20746f6b656e20616c7265616479206d696e74656400000000604482015260640161075f565b6001600160a01b038216600081815260056020908152604080832080546001019055848352600490915280822080547fffffffffffffffffffffffff0000000000000000000000000000000000000000168417905551839291907fddf252ad1be2c89b69c2b068fc378daa952ba7f163c4a11628f55a4df523b3ef908290a45050565b7fffffffff000000000000000000000000000000000000000000000000000000008116811461115a57600080fd5b60006020828403121561237957600080fd5b81356110c681612339565b60005b8381101561239f578181015183820152602001612387565b50506000910152565b600081518084526123c0816020860160208601612384565b601f017fffffffffffffffffffffffffffffffffffffffffffffffffffffffffffffffe0169290920160200192915050565b6020815260006110c660208301846123a8565b60006020828403121561241757600080fd5b5035919050565b80356001600160a01b038116811461243557600080fd5b919050565b6000806040838503121561244d57600080fd5b6124568361241e565b946020939093013593505050565b60008060006060848603121561247957600080fd5b6124828461241e565b92506124906020850161241e565b9150604084013590509250925092565b7f4e487b7100000000000000000000000000000000000000000000000000000000600052604160045260246000fd5b600082601f8301126124e057600080fd5b813567ffffffffffffffff808211156124fb576124fb6124a0565b604051601f83017fffffffffffffffffffffffffffffffffffffffffffffffffffffffffffffffe0908116603f01168101908282118183101715612541576125416124a0565b8160405283815286602085880101111561255a57600080fd5b836020870160208301376000602085830101528094505050505092915050565b600080600080600080600060e0888a03121561259557600080fd5b873596506020880135955060408801359450606088013593506080880135925060a0880135915060c088013567ffffffffffffffff8111156125d657600080fd5b6125e28a828b016124cf565b91505092959891949750929550565b60006020828403121561260357600080fd5b6110c68261241e565b600080600080600060a0868803121561262457600080fd5b505083359560208501359550604085013594606081013594506080013592509050565b801515811461115a57600080fd5b6000806040838503121561266857600080fd5b6126718361241e565b9150602083013561268181612647565b809150509250929050565b600080600080608085870312156126a257600080fd5b6126ab8561241e565b93506126b96020860161241e565b925060408501359150606085013567ffffffffffffffff8111156126dc57600080fd5b6126e8878288016124cf565b91505092959194509250565b6000806040838503121561270757600080fd5b6127108361241e565b915061271e6020840161241e565b90509250929050565b600181811c9082168061273b57607f821691505b602082108103612774577f4e487b7100000000000000000000000000000000000000000000000000000000600052602260045260246000fd5b50919050565b7f4e487b7100000000000000000000000000000000000000000000000000000000600052601160045260246000fd5b60007fffffffffffffffffffffffffffffffffffffffffffffffffffffffffffffffff82036127da576127da61277a565b5060010190565b7f4e487b7100000000000000000000000000000000000000000000000000000000600052603260045260246000fd5b60008351612822818460208801612384565b835190830190612836818360208801612384565b01949350505050565b60006020828403121561285157600080fd5b5051919050565b8281526040602082015260006113a160408301846123a8565b60006020828403121561288357600080fd5b81516110c681612647565b60006001600160a01b038087168352808616602084015250836040830152608060608301526128c060808301846123a8565b9695505050505050565b6000602082840312156128dc57600080fd5b81516110c681612339565b818103818111156106105761061061277a565b808201808211156106105761061061277a565b7f4e487b7100000000000000000000000000000000000000000000000000000000600052603160045260246000fdfea2646970667358221220602fdd295890356b6df589d481a02e4076fffec663dd8255acfffb956cb753c464736f6c63430008110033",
  "devdoc": {
    "kind": "dev",
    "methods": {
      "approve(address,uint256)": {
        "details": "See {IERC721-approve}."
      },
      "balanceOf(address)": {
        "details": "See {IERC721-balanceOf}."
      },
      "getApproved(uint256)": {
        "details": "See {IERC721-getApproved}."
      },
      "isApprovedForAll(address,address)": {
        "details": "See {IERC721-isApprovedForAll}."
      },
      "name()": {
        "details": "See {IERC721Metadata-name}."
      },
      "owner()": {
        "details": "Returns the address of the current owner."
      },
      "ownerOf(uint256)": {
        "details": "See {IERC721-ownerOf}."
      },
      "renounceOwnership()": {
        "details": "Leaves the contract without owner. It will not be possible to call `onlyOwner` functions anymore. Can only be called by the current owner. NOTE: Renouncing ownership will leave the contract without an owner, thereby removing any functionality that is only available to the owner."
      },
      "safeTransferFrom(address,address,uint256)": {
        "details": "See {IERC721-safeTransferFrom}."
      },
      "safeTransferFrom(address,address,uint256,bytes)": {
        "details": "See {IERC721-safeTransferFrom}."
      },
      "setApprovalForAll(address,bool)": {
        "details": "See {IERC721-setApprovalForAll}."
      },
      "supportsInterface(bytes4)": {
        "details": "See {IERC165-supportsInterface}."
      },
      "symbol()": {
        "details": "See {IERC721Metadata-symbol}."
      },
      "tokenByIndex(uint256)": {
        "details": "See {IERC721Enumerable-tokenByIndex}."
      },
      "tokenOfOwnerByIndex(address,uint256)": {
        "details": "See {IERC721Enumerable-tokenOfOwnerByIndex}."
      },
      "tokenURI(uint256)": {
        "details": "See {IERC721Metadata-tokenURI}."
      },
      "totalSupply()": {
        "details": "See {IERC721Enumerable-totalSupply}."
      },
      "transferFrom(address,address,uint256)": {
        "details": "See {IERC721-transferFrom}."
      },
      "transferOwnership(address)": {
        "details": "Transfers ownership of the contract to a new account (`newOwner`). Can only be called by the current owner."
      }
    },
    "version": 1
  },
  "userdoc": {
    "kind": "user",
    "methods": {},
    "version": 1
  },
  "storageLayout": {
    "storage": [
      {
        "astId": 7,
        "contract": "contracts/examples/PebbleMultipleLocationNFT.sol:PebbleMultipleLocationNFT",
        "label": "_owner",
        "offset": 0,
        "slot": "0",
        "type": "t_address"
      },
      {
        "astId": 292,
        "contract": "contracts/examples/PebbleMultipleLocationNFT.sol:PebbleMultipleLocationNFT",
        "label": "_status",
        "offset": 0,
        "slot": "1",
        "type": "t_uint256"
      },
      {
        "astId": 1051,
        "contract": "contracts/examples/PebbleMultipleLocationNFT.sol:PebbleMultipleLocationNFT",
        "label": "_name",
        "offset": 0,
        "slot": "2",
        "type": "t_string_storage"
      },
      {
        "astId": 1053,
        "contract": "contracts/examples/PebbleMultipleLocationNFT.sol:PebbleMultipleLocationNFT",
        "label": "_symbol",
        "offset": 0,
        "slot": "3",
        "type": "t_string_storage"
      },
      {
        "astId": 1057,
        "contract": "contracts/examples/PebbleMultipleLocationNFT.sol:PebbleMultipleLocationNFT",
        "label": "_owners",
        "offset": 0,
        "slot": "4",
        "type": "t_mapping(t_uint256,t_address)"
      },
      {
        "astId": 1061,
        "contract": "contracts/examples/PebbleMultipleLocationNFT.sol:PebbleMultipleLocationNFT",
        "label": "_balances",
        "offset": 0,
        "slot": "5",
        "type": "t_mapping(t_address,t_uint256)"
      },
      {
        "astId": 1065,
        "contract": "contracts/examples/PebbleMultipleLocationNFT.sol:PebbleMultipleLocationNFT",
        "label": "_tokenApprovals",
        "offset": 0,
        "slot": "6",
        "type": "t_mapping(t_uint256,t_address)"
      },
      {
        "astId": 1071,
        "contract": "contracts/examples/PebbleMultipleLocationNFT.sol:PebbleMultipleLocationNFT",
        "label": "_operatorApprovals",
        "offset": 0,
        "slot": "7",
        "type": "t_mapping(t_address,t_mapping(t_address,t_bool))"
      },
      {
        "astId": 2119,
        "contract": "contracts/examples/PebbleMultipleLocationNFT.sol:PebbleMultipleLocationNFT",
        "label": "_ownedTokens",
        "offset": 0,
        "slot": "8",
        "type": "t_mapping(t_address,t_mapping(t_uint256,t_uint256))"
      },
      {
        "astId": 2123,
        "contract": "contracts/examples/PebbleMultipleLocationNFT.sol:PebbleMultipleLocationNFT",
        "label": "_ownedTokensIndex",
        "offset": 0,
        "slot": "9",
        "type": "t_mapping(t_uint256,t_uint256)"
      },
      {
        "astId": 2126,
        "contract": "contracts/examples/PebbleMultipleLocationNFT.sol:PebbleMultipleLocationNFT",
        "label": "_allTokens",
        "offset": 0,
        "slot": "10",
        "type": "t_array(t_uint256)dyn_storage"
      },
      {
        "astId": 2130,
        "contract": "contracts/examples/PebbleMultipleLocationNFT.sol:PebbleMultipleLocationNFT",
        "label": "_allTokensIndex",
        "offset": 0,
        "slot": "11",
        "type": "t_mapping(t_uint256,t_uint256)"
      },
      {
        "astId": 4956,
        "contract": "contracts/examples/PebbleMultipleLocationNFT.sol:PebbleMultipleLocationNFT",
        "label": "verifier",
        "offset": 0,
        "slot": "12",
        "type": "t_contract(IMetapebbleDataVerifier)6323"
      },
      {
        "astId": 4980,
        "contract": "contracts/examples/PebbleMultipleLocationNFT.sol:PebbleMultipleLocationNFT",
        "label": "_claimedDevices",
        "offset": 0,
        "slot": "13",
        "type": "t_mapping(t_bytes32,t_address)"
      },
      {
        "astId": 5836,
        "contract": "contracts/examples/PebbleMultipleLocationNFT.sol:PebbleMultipleLocationNFT",
        "label": "placesHash",
        "offset": 0,
        "slot": "14",
        "type": "t_array(t_bytes32)dyn_storage"
      },
      {
        "astId": 5841,
        "contract": "contracts/examples/PebbleMultipleLocationNFT.sol:PebbleMultipleLocationNFT",
        "label": "places",
        "offset": 0,
        "slot": "15",
        "type": "t_mapping(t_bytes32,t_struct(Place)5830_storage)"
      },
      {
        "astId": 5843,
        "contract": "contracts/examples/PebbleMultipleLocationNFT.sol:PebbleMultipleLocationNFT",
        "label": "tokenId",
        "offset": 0,
        "slot": "16",
        "type": "t_uint256"
      }
    ],
    "types": {
      "t_address": {
        "encoding": "inplace",
        "label": "address",
        "numberOfBytes": "20"
      },
      "t_array(t_bytes32)dyn_storage": {
        "base": "t_bytes32",
        "encoding": "dynamic_array",
        "label": "bytes32[]",
        "numberOfBytes": "32"
      },
      "t_array(t_uint256)dyn_storage": {
        "base": "t_uint256",
        "encoding": "dynamic_array",
        "label": "uint256[]",
        "numberOfBytes": "32"
      },
      "t_bool": {
        "encoding": "inplace",
        "label": "bool",
        "numberOfBytes": "1"
      },
      "t_bytes32": {
        "encoding": "inplace",
        "label": "bytes32",
        "numberOfBytes": "32"
      },
      "t_contract(IMetapebbleDataVerifier)6323": {
        "encoding": "inplace",
        "label": "contract IMetapebbleDataVerifier",
        "numberOfBytes": "20"
      },
      "t_int256": {
        "encoding": "inplace",
        "label": "int256",
        "numberOfBytes": "32"
      },
      "t_mapping(t_address,t_bool)": {
        "encoding": "mapping",
        "key": "t_address",
        "label": "mapping(address => bool)",
        "numberOfBytes": "32",
        "value": "t_bool"
      },
      "t_mapping(t_address,t_mapping(t_address,t_bool))": {
        "encoding": "mapping",
        "key": "t_address",
        "label": "mapping(address => mapping(address => bool))",
        "numberOfBytes": "32",
        "value": "t_mapping(t_address,t_bool)"
      },
      "t_mapping(t_address,t_mapping(t_uint256,t_uint256))": {
        "encoding": "mapping",
        "key": "t_address",
        "label": "mapping(address => mapping(uint256 => uint256))",
        "numberOfBytes": "32",
        "value": "t_mapping(t_uint256,t_uint256)"
      },
      "t_mapping(t_address,t_uint256)": {
        "encoding": "mapping",
        "key": "t_address",
        "label": "mapping(address => uint256)",
        "numberOfBytes": "32",
        "value": "t_uint256"
      },
      "t_mapping(t_bytes32,t_address)": {
        "encoding": "mapping",
        "key": "t_bytes32",
        "label": "mapping(bytes32 => address)",
        "numberOfBytes": "32",
        "value": "t_address"
      },
      "t_mapping(t_bytes32,t_struct(Place)5830_storage)": {
        "encoding": "mapping",
        "key": "t_bytes32",
        "label": "mapping(bytes32 => struct PebbleMultipleLocationNFT.Place)",
        "numberOfBytes": "32",
        "value": "t_struct(Place)5830_storage"
      },
      "t_mapping(t_uint256,t_address)": {
        "encoding": "mapping",
        "key": "t_uint256",
        "label": "mapping(uint256 => address)",
        "numberOfBytes": "32",
        "value": "t_address"
      },
      "t_mapping(t_uint256,t_uint256)": {
        "encoding": "mapping",
        "key": "t_uint256",
        "label": "mapping(uint256 => uint256)",
        "numberOfBytes": "32",
        "value": "t_uint256"
      },
      "t_string_storage": {
        "encoding": "bytes",
        "label": "string",
        "numberOfBytes": "32"
      },
      "t_struct(Place)5830_storage": {
        "encoding": "inplace",
        "label": "struct PebbleMultipleLocationNFT.Place",
        "members": [
          {
            "astId": 5821,
            "contract": "contracts/examples/PebbleMultipleLocationNFT.sol:PebbleMultipleLocationNFT",
            "label": "lat",
            "offset": 0,
            "slot": "0",
            "type": "t_int256"
          },
          {
            "astId": 5823,
            "contract": "contracts/examples/PebbleMultipleLocationNFT.sol:PebbleMultipleLocationNFT",
            "label": "long",
            "offset": 0,
            "slot": "1",
            "type": "t_int256"
          },
          {
            "astId": 5825,
            "contract": "contracts/examples/PebbleMultipleLocationNFT.sol:PebbleMultipleLocationNFT",
            "label": "maxDistance",
            "offset": 0,
            "slot": "2",
            "type": "t_uint256"
          },
          {
            "astId": 5827,
            "contract": "contracts/examples/PebbleMultipleLocationNFT.sol:PebbleMultipleLocationNFT",
            "label": "startTimestamp",
            "offset": 0,
            "slot": "3",
            "type": "t_uint256"
          },
          {
            "astId": 5829,
            "contract": "contracts/examples/PebbleMultipleLocationNFT.sol:PebbleMultipleLocationNFT",
            "label": "endTimestamp",
            "offset": 0,
            "slot": "4",
            "type": "t_uint256"
          }
        ],
        "numberOfBytes": "160"
      },
      "t_uint256": {
        "encoding": "inplace",
        "label": "uint256",
        "numberOfBytes": "32"
      }
    }
  }
}