{
  "address": "0xDff91494Aee87a54407deFf5A06B382F449FBb37",
  "abi": [
    {
      "inputs": [
        {
          "internalType": "uint256[]",
          "name": "_lats",
          "type": "uint256[]"
        },
        {
          "internalType": "uint256[]",
          "name": "_longs",
          "type": "uint256[]"
        },
        {
          "internalType": "uint256[]",
          "name": "_maxDistances",
          "type": "uint256[]"
        },
        {
          "internalType": "address",
          "name": "_verifier",
          "type": "address"
        },
        {
          "internalType": "string",
          "name": "_name",
          "type": "string"
        },
        {
          "internalType": "string",
          "name": "_symbol",
          "type": "string"
        }
      ],
      "stateMutability": "nonpayable",
      "type": "constructor"
    },
    {
      "anonymous": false,
      "inputs": [
        {
          "indexed": true,
          "internalType": "address",
          "name": "owner",
          "type": "address"
        },
        {
          "indexed": true,
          "internalType": "address",
          "name": "approved",
          "type": "address"
        },
        {
          "indexed": true,
          "internalType": "uint256",
          "name": "tokenId",
          "type": "uint256"
        }
      ],
      "name": "Approval",
      "type": "event"
    },
    {
      "anonymous": false,
      "inputs": [
        {
          "indexed": true,
          "internalType": "address",
          "name": "owner",
          "type": "address"
        },
        {
          "indexed": true,
          "internalType": "address",
          "name": "operator",
          "type": "address"
        },
        {
          "indexed": false,
          "internalType": "bool",
          "name": "approved",
          "type": "bool"
        }
      ],
      "name": "ApprovalForAll",
      "type": "event"
    },
    {
      "anonymous": false,
      "inputs": [
        {
          "indexed": true,
          "internalType": "address",
          "name": "holder",
          "type": "address"
        },
        {
          "indexed": true,
          "internalType": "bytes32",
          "name": "deviceHash",
          "type": "bytes32"
        },
        {
          "indexed": true,
          "internalType": "uint256",
          "name": "tokenId",
          "type": "uint256"
        }
      ],
      "name": "Claimed",
      "type": "event"
    },
    {
      "anonymous": false,
      "inputs": [
        {
          "indexed": true,
          "internalType": "address",
          "name": "from",
          "type": "address"
        },
        {
          "indexed": true,
          "internalType": "address",
          "name": "to",
          "type": "address"
        },
        {
          "indexed": true,
          "internalType": "uint256",
          "name": "tokenId",
          "type": "uint256"
        }
      ],
      "name": "Transfer",
      "type": "event"
    },
    {
      "inputs": [
        {
          "internalType": "address",
          "name": "to",
          "type": "address"
        },
        {
          "internalType": "uint256",
          "name": "tokenId",
          "type": "uint256"
        }
      ],
      "name": "approve",
      "outputs": [],
      "stateMutability": "nonpayable",
      "type": "function"
    },
    {
      "inputs": [
        {
          "internalType": "address",
          "name": "owner",
          "type": "address"
        }
      ],
      "name": "balanceOf",
      "outputs": [
        {
          "internalType": "uint256",
          "name": "",
          "type": "uint256"
        }
      ],
      "stateMutability": "view",
      "type": "function"
    },
    {
      "inputs": [
        {
          "internalType": "uint256",
          "name": "lat_",
          "type": "uint256"
        },
        {
          "internalType": "uint256",
          "name": "long_",
          "type": "uint256"
        },
        {
          "internalType": "uint256",
          "name": "distance_",
          "type": "uint256"
        },
        {
          "internalType": "bytes32",
          "name": "deviceHash_",
          "type": "bytes32"
        },
        {
          "internalType": "uint256",
          "name": "deviceTimestamp_",
          "type": "uint256"
        },
        {
          "internalType": "bytes",
          "name": "signature",
          "type": "bytes"
        }
      ],
      "name": "claim",
      "outputs": [],
      "stateMutability": "nonpayable",
      "type": "function"
    },
    {
      "inputs": [
        {
          "internalType": "bytes32",
          "name": "deviceHash_",
          "type": "bytes32"
        }
      ],
      "name": "claimed",
      "outputs": [
        {
          "internalType": "bool",
          "name": "",
          "type": "bool"
        }
      ],
      "stateMutability": "view",
      "type": "function"
    },
    {
      "inputs": [
        {
          "internalType": "bytes32",
          "name": "deviceHash_",
          "type": "bytes32"
        }
      ],
      "name": "claimedUser",
      "outputs": [
        {
          "internalType": "address",
          "name": "",
          "type": "address"
        }
      ],
      "stateMutability": "view",
      "type": "function"
    },
    {
      "inputs": [
        {
          "internalType": "uint256",
          "name": "tokenId",
          "type": "uint256"
        }
      ],
      "name": "getApproved",
      "outputs": [
        {
          "internalType": "address",
          "name": "",
          "type": "address"
        }
      ],
      "stateMutability": "view",
      "type": "function"
    },
    {
      "inputs": [
        {
          "internalType": "address",
          "name": "owner",
          "type": "address"
        },
        {
          "internalType": "address",
          "name": "operator",
          "type": "address"
        }
      ],
      "name": "isApprovedForAll",
      "outputs": [
        {
          "internalType": "bool",
          "name": "",
          "type": "bool"
        }
      ],
      "stateMutability": "view",
      "type": "function"
    },
    {
      "inputs": [],
      "name": "name",
      "outputs": [
        {
          "internalType": "string",
          "name": "",
          "type": "string"
        }
      ],
      "stateMutability": "view",
      "type": "function"
    },
    {
      "inputs": [
        {
          "internalType": "uint256",
          "name": "tokenId",
          "type": "uint256"
        }
      ],
      "name": "ownerOf",
      "outputs": [
        {
          "internalType": "address",
          "name": "",
          "type": "address"
        }
      ],
      "stateMutability": "view",
      "type": "function"
    },
    {
      "inputs": [
        {
          "internalType": "address",
          "name": "from",
          "type": "address"
        },
        {
          "internalType": "address",
          "name": "to",
          "type": "address"
        },
        {
          "internalType": "uint256",
          "name": "tokenId",
          "type": "uint256"
        }
      ],
      "name": "safeTransferFrom",
      "outputs": [],
      "stateMutability": "nonpayable",
      "type": "function"
    },
    {
      "inputs": [
        {
          "internalType": "address",
          "name": "from",
          "type": "address"
        },
        {
          "internalType": "address",
          "name": "to",
          "type": "address"
        },
        {
          "internalType": "uint256",
          "name": "tokenId",
          "type": "uint256"
        },
        {
          "internalType": "bytes",
          "name": "data",
          "type": "bytes"
        }
      ],
      "name": "safeTransferFrom",
      "outputs": [],
      "stateMutability": "nonpayable",
      "type": "function"
    },
    {
      "inputs": [
        {
          "internalType": "address",
          "name": "operator",
          "type": "address"
        },
        {
          "internalType": "bool",
          "name": "approved",
          "type": "bool"
        }
      ],
      "name": "setApprovalForAll",
      "outputs": [],
      "stateMutability": "nonpayable",
      "type": "function"
    },
    {
      "inputs": [
        {
          "internalType": "bytes4",
          "name": "interfaceId",
          "type": "bytes4"
        }
      ],
      "name": "supportsInterface",
      "outputs": [
        {
          "internalType": "bool",
          "name": "",
          "type": "bool"
        }
      ],
      "stateMutability": "view",
      "type": "function"
    },
    {
      "inputs": [],
      "name": "symbol",
      "outputs": [
        {
          "internalType": "string",
          "name": "",
          "type": "string"
        }
      ],
      "stateMutability": "view",
      "type": "function"
    },
    {
      "inputs": [
        {
          "internalType": "uint256",
          "name": "index",
          "type": "uint256"
        }
      ],
      "name": "tokenByIndex",
      "outputs": [
        {
          "internalType": "uint256",
          "name": "",
          "type": "uint256"
        }
      ],
      "stateMutability": "view",
      "type": "function"
    },
    {
      "inputs": [
        {
          "internalType": "address",
          "name": "owner",
          "type": "address"
        },
        {
          "internalType": "uint256",
          "name": "index",
          "type": "uint256"
        }
      ],
      "name": "tokenOfOwnerByIndex",
      "outputs": [
        {
          "internalType": "uint256",
          "name": "",
          "type": "uint256"
        }
      ],
      "stateMutability": "view",
      "type": "function"
    },
    {
      "inputs": [
        {
          "internalType": "uint256",
          "name": "tokenId",
          "type": "uint256"
        }
      ],
      "name": "tokenURI",
      "outputs": [
        {
          "internalType": "string",
          "name": "",
          "type": "string"
        }
      ],
      "stateMutability": "view",
      "type": "function"
    },
    {
      "inputs": [],
      "name": "totalSupply",
      "outputs": [
        {
          "internalType": "uint256",
          "name": "",
          "type": "uint256"
        }
      ],
      "stateMutability": "view",
      "type": "function"
    },
    {
      "inputs": [
        {
          "internalType": "address",
          "name": "from",
          "type": "address"
        },
        {
          "internalType": "address",
          "name": "to",
          "type": "address"
        },
        {
          "internalType": "uint256",
          "name": "tokenId",
          "type": "uint256"
        }
      ],
      "name": "transferFrom",
      "outputs": [],
      "stateMutability": "nonpayable",
      "type": "function"
    },
    {
      "inputs": [],
      "name": "verifier",
      "outputs": [
        {
          "internalType": "contract IMetapebbleDataVerifier",
          "name": "",
          "type": "address"
        }
      ],
      "stateMutability": "view",
      "type": "function"
    }
  ],
  "transactionHash": "0xe5912bfe5a646b4656e775080c1d551279b4e7180c37f2773c9abfdcb7e56c81",
  "args": [
    [
      120520000
    ],
    [
      30400000
    ],
    [
      1000
    ],
    "0xB0A02bf6e9DdfD63DC20A5DeD7E9B24f654A3dCA",
    "ShangHai Pebble NFT",
    "SHP"
  ],
  "numDeployments": 1,
  "solcInputHash": "8f716960518d7d2905160210785e26be",
  "bytecode": "0x60806040523480156200001157600080fd5b50604051620029803803806200298083398101604081905262000034916200044f565b828282818160016000819055508160019081620000529190620005d0565b506002620000618282620005d0565b5050600b80546001600160a01b0319166001600160a01b03959095169490941790935550508551875114905080156200009b575083518651145b620000dd5760405162461bcd60e51b815260206004820152600d60248201526c696e76616c696420706c61636560981b60448201526064015b60405180910390fd5b60005b8651811015620002c75760008582815181106200010157620001016200069c565b602002602001015111620001585760405162461bcd60e51b815260206004820152601460248201527f696e76616c6964206d61782064697374616e63650000000000000000000000006044820152606401620000d4565b60008782815181106200016f576200016f6200069c565b60200260200101518783815181106200018c576200018c6200069c565b6020026020010151604051602001620001af929190918252602082015260400190565b60408051601f1981840301815291815281516020928301206000818152600d909352912060020154909150156200021a5760405162461bcd60e51b815260206004820152600e60248201526d726570656174656420706c61636560901b6044820152606401620000d4565b60405180606001604052808984815181106200023a576200023a6200069c565b602002602001015181526020018884815181106200025c576200025c6200069c565b602002602001015181526020018784815181106200027e576200027e6200069c565b6020908102919091018101519091526000928352600d81526040928390208251815590820151600182015591015160029091015580620002be81620006b2565b915050620000e0565b50505050505050620006da565b634e487b7160e01b600052604160045260246000fd5b604051601f8201601f191681016001600160401b0381118282101715620003155762000315620002d4565b604052919050565b600082601f8301126200032f57600080fd5b815160206001600160401b038211156200034d576200034d620002d4565b8160051b6200035e828201620002ea565b92835284810182019282810190878511156200037957600080fd5b83870192505b848310156200039a578251825291830191908301906200037f565b979650505050505050565b80516001600160a01b0381168114620003bd57600080fd5b919050565b600082601f830112620003d457600080fd5b81516001600160401b03811115620003f057620003f0620002d4565b602062000406601f8301601f19168201620002ea565b82815285828487010111156200041b57600080fd5b60005b838110156200043b5785810183015182820184015282016200041e565b506000928101909101919091529392505050565b60008060008060008060c087890312156200046957600080fd5b86516001600160401b03808211156200048157600080fd5b6200048f8a838b016200031d565b97506020890151915080821115620004a657600080fd5b620004b48a838b016200031d565b96506040890151915080821115620004cb57600080fd5b620004d98a838b016200031d565b9550620004e960608a01620003a5565b945060808901519150808211156200050057600080fd5b6200050e8a838b01620003c2565b935060a08901519150808211156200052557600080fd5b506200053489828a01620003c2565b9150509295509295509295565b600181811c908216806200055657607f821691505b6020821081036200057757634e487b7160e01b600052602260045260246000fd5b50919050565b601f821115620005cb57600081815260208120601f850160051c81016020861015620005a65750805b601f850160051c820191505b81811015620005c757828155600101620005b2565b5050505b505050565b81516001600160401b03811115620005ec57620005ec620002d4565b6200060481620005fd845462000541565b846200057d565b602080601f8311600181146200063c5760008415620006235750858301515b600019600386901b1c1916600185901b178555620005c7565b600085815260208120601f198616915b828110156200066d578886015182559484019460019091019084016200064c565b50858210156200068c5787850151600019600388901b60f8161c191681555b5050505050600190811b01905550565b634e487b7160e01b600052603260045260246000fd5b600060018201620006d357634e487b7160e01b600052601160045260246000fd5b5060010190565b61229680620006ea6000396000f3fe608060405234801561001057600080fd5b506004361061016c5760003560e01c80636352211e116100cd578063a22cb46511610081578063c87b56dd11610066578063c87b56dd146102ef578063cc3c0f0614610302578063e985e9c51461032d57600080fd5b8063a22cb465146102c9578063b88d4fde146102dc57600080fd5b806370a08231116100b257806370a08231146102855780637d6fbd9e1461029857806395d89b41146102c157600080fd5b80636352211e1461025f5780636de4f0531461027257600080fd5b806323b872dd116101245780632f745c59116101095780632f745c591461022657806342842e0e146102395780634f6ccce71461024c57600080fd5b806323b872dd146102005780632b7ac3f31461021357600080fd5b8063081812fc11610155578063081812fc146101ae578063095ea7b3146101d957806318160ddd146101ee57600080fd5b806301ffc9a71461017157806306fdde0314610199575b600080fd5b61018461017f366004611cd1565b610369565b60405190151581526020015b60405180910390f35b6101a16103c5565b6040516101909190611d5c565b6101c16101bc366004611d6f565b610457565b6040516001600160a01b039091168152602001610190565b6101ec6101e7366004611da4565b61047e565b005b6009545b604051908152602001610190565b6101ec61020e366004611dce565b6105b4565b600b546101c1906001600160a01b031681565b6101f2610234366004611da4565b61063b565b6101ec610247366004611dce565b6106e3565b6101f261025a366004611d6f565b6106fe565b6101c161026d366004611d6f565b6107a2565b6101ec610280366004611ee4565b610807565b6101f2610293366004611f50565b6109d9565b6101c16102a6366004611d6f565b6000908152600c60205260409020546001600160a01b031690565b6101a1610a73565b6101ec6102d7366004611f79565b610a82565b6101ec6102ea366004611fb0565b610a91565b6101a16102fd366004611d6f565b610b1f565b610184610310366004611d6f565b6000908152600c60205260409020546001600160a01b0316151590565b61018461033b366004612018565b6001600160a01b03918216600090815260066020908152604080832093909416825291909152205460ff1690565b60007fffffffff0000000000000000000000000000000000000000000000000000000082167f780e9d630000000000000000000000000000000000000000000000000000000014806103bf57506103bf82610b93565b92915050565b6060600180546103d49061204b565b80601f01602080910402602001604051908101604052809291908181526020018280546104009061204b565b801561044d5780601f106104225761010080835404028352916020019161044d565b820191906000526020600020905b81548152906001019060200180831161043057829003601f168201915b5050505050905090565b600061046282610c76565b506000908152600560205260409020546001600160a01b031690565b6000610489826107a2565b9050806001600160a01b0316836001600160a01b0316036105175760405162461bcd60e51b815260206004820152602160248201527f4552433732313a20617070726f76616c20746f2063757272656e74206f776e6560448201527f720000000000000000000000000000000000000000000000000000000000000060648201526084015b60405180910390fd5b336001600160a01b03821614806105335750610533813361033b565b6105a55760405162461bcd60e51b815260206004820152603d60248201527f4552433732313a20617070726f76652063616c6c6572206973206e6f7420746f60448201527f6b656e206f776e6572206f7220617070726f76656420666f7220616c6c000000606482015260840161050e565b6105af8383610cdd565b505050565b6105be3382610d63565b6106305760405162461bcd60e51b815260206004820152602d60248201527f4552433732313a2063616c6c6572206973206e6f7420746f6b656e206f776e6560448201527f72206f7220617070726f76656400000000000000000000000000000000000000606482015260840161050e565b6105af838383610de2565b6000610646836109d9565b82106106ba5760405162461bcd60e51b815260206004820152602b60248201527f455243373231456e756d657261626c653a206f776e657220696e646578206f7560448201527f74206f6620626f756e6473000000000000000000000000000000000000000000606482015260840161050e565b506001600160a01b03919091166000908152600760209081526040808320938352929052205490565b6105af83838360405180602001604052806000815250610a91565b600061070960095490565b821061077d5760405162461bcd60e51b815260206004820152602c60248201527f455243373231456e756d657261626c653a20676c6f62616c20696e646578206f60448201527f7574206f6620626f756e64730000000000000000000000000000000000000000606482015260840161050e565b600982815481106107905761079061209e565b90600052602060002001549050919050565b6000818152600360205260408120546001600160a01b0316806103bf5760405162461bcd60e51b815260206004820152601860248201527f4552433732313a20696e76616c696420746f6b656e2049440000000000000000604482015260640161050e565b61080f61104e565b6000838152600c60205260409020546001600160a01b0316156108745760405162461bcd60e51b815260206004820152600f60248201527f616c726561647920636c61696d65640000000000000000000000000000000000604482015260640161050e565b6000600d60008888604051602001610896929190918252602082015260400190565b604080517fffffffffffffffffffffffffffffffffffffffffffffffffffffffffffffffe0818403018152918152815160209283012083528282019390935290820160002082516060810184528154815260018201549281019290925260020154918101829052915061094b5760405162461bcd60e51b815260206004820152601060248201527f706c616365206e6f742065786973747300000000000000000000000000000000604482015260640161050e565b806040015185111561099f5760405162461bcd60e51b815260206004820152601060248201527f696e76616c6964206c6f636174696f6e00000000000000000000000000000000604482015260640161050e565b6109b1600e54338989898989896110a7565b600e80549060006109c1836120fc565b9190505550506109d16001600055565b505050505050565b60006001600160a01b038216610a575760405162461bcd60e51b815260206004820152602960248201527f4552433732313a2061646472657373207a65726f206973206e6f74206120766160448201527f6c6964206f776e65720000000000000000000000000000000000000000000000606482015260840161050e565b506001600160a01b031660009081526004602052604090205490565b6060600280546103d49061204b565b610a8d338383611241565b5050565b610a9b3383610d63565b610b0d5760405162461bcd60e51b815260206004820152602d60248201527f4552433732313a2063616c6c6572206973206e6f7420746f6b656e206f776e6560448201527f72206f7220617070726f76656400000000000000000000000000000000000000606482015260840161050e565b610b198484848461132d565b50505050565b6060610b2a82610c76565b6000610b4160408051602081019091526000815290565b90506000815111610b615760405180602001604052806000815250610b8c565b80610b6b846113b6565b604051602001610b7c929190612134565b6040516020818303038152906040525b9392505050565b60007fffffffff0000000000000000000000000000000000000000000000000000000082167f80ac58cd000000000000000000000000000000000000000000000000000000001480610c2657507fffffffff0000000000000000000000000000000000000000000000000000000082167f5b5e139f00000000000000000000000000000000000000000000000000000000145b806103bf57507f01ffc9a7000000000000000000000000000000000000000000000000000000007fffffffff000000000000000000000000000000000000000000000000000000008316146103bf565b6000818152600360205260409020546001600160a01b0316610cda5760405162461bcd60e51b815260206004820152601860248201527f4552433732313a20696e76616c696420746f6b656e2049440000000000000000604482015260640161050e565b50565b600081815260056020526040902080547fffffffffffffffffffffffff0000000000000000000000000000000000000000166001600160a01b0384169081179091558190610d2a826107a2565b6001600160a01b03167f8c5be1e5ebec7d5bd14f71427d1e84f3dd0314c0f7b2291e5b200ac8c7c3b92560405160405180910390a45050565b600080610d6f836107a2565b9050806001600160a01b0316846001600160a01b03161480610db657506001600160a01b0380821660009081526006602090815260408083209388168352929052205460ff165b80610dda5750836001600160a01b0316610dcf84610457565b6001600160a01b0316145b949350505050565b826001600160a01b0316610df5826107a2565b6001600160a01b031614610e715760405162461bcd60e51b815260206004820152602560248201527f4552433732313a207472616e736665722066726f6d20696e636f72726563742060448201527f6f776e6572000000000000000000000000000000000000000000000000000000606482015260840161050e565b6001600160a01b038216610eec5760405162461bcd60e51b8152602060048201526024808201527f4552433732313a207472616e7366657220746f20746865207a65726f2061646460448201527f7265737300000000000000000000000000000000000000000000000000000000606482015260840161050e565b610ef98383836001611474565b826001600160a01b0316610f0c826107a2565b6001600160a01b031614610f885760405162461bcd60e51b815260206004820152602560248201527f4552433732313a207472616e736665722066726f6d20696e636f72726563742060448201527f6f776e6572000000000000000000000000000000000000000000000000000000606482015260840161050e565b600081815260056020908152604080832080547fffffffffffffffffffffffff00000000000000000000000000000000000000009081169091556001600160a01b038781168086526004855283862080547fffffffffffffffffffffffffffffffffffffffffffffffffffffffffffffffff01905590871680865283862080546001019055868652600390945282852080549092168417909155905184937fddf252ad1be2c89b69c2b068fc378daa952ba7f163c4a11628f55a4df523b3ef91a4505050565b6002600054036110a05760405162461bcd60e51b815260206004820152601f60248201527f5265656e7472616e637947756172643a207265656e7472616e742063616c6c00604482015260640161050e565b6002600055565b600b546040517f3b6d735c0000000000000000000000000000000000000000000000000000000081526001600160a01b0389811660048301526024820189905260448201889052606482018790526084820186905260a482018590526000921690633b6d735c9060c401602060405180830381865afa15801561112e573d6000803e3d6000fd5b505050506040513d601f19601f820116820180604052508101906111529190612163565b600b546040517f258ae5820000000000000000000000000000000000000000000000000000000081529192506001600160a01b03169063258ae5829061119e908490869060040161217c565b602060405180830381865afa1580156111bb573d6000803e3d6000fd5b505050506040513d601f19601f820116820180604052508101906111df9190612195565b61122b5760405162461bcd60e51b815260206004820152601160248201527f696e76616c6964207369676e6174757265000000000000000000000000000000604482015260640161050e565b6112368989866115bc565b505050505050505050565b816001600160a01b0316836001600160a01b0316036112a25760405162461bcd60e51b815260206004820152601960248201527f4552433732313a20617070726f766520746f2063616c6c657200000000000000604482015260640161050e565b6001600160a01b0383811660008181526006602090815260408083209487168084529482529182902080547fffffffffffffffffffffffffffffffffffffffffffffffffffffffffffffff001686151590811790915591519182527f17307eab39ab6107e8899845ad3d59bd9653f200f220920489ca2b5937696c31910160405180910390a3505050565b611338848484610de2565b61134484848484611639565b610b195760405162461bcd60e51b815260206004820152603260248201527f4552433732313a207472616e7366657220746f206e6f6e20455243373231526560448201527f63656976657220696d706c656d656e7465720000000000000000000000000000606482015260840161050e565b606060006113c3836117f8565b600101905060008167ffffffffffffffff8111156113e3576113e3611e0a565b6040519080825280601f01601f19166020018201604052801561140d576020820181803683370190505b5090508181016020015b7fffffffffffffffffffffffffffffffffffffffffffffffffffffffffffffffff017f3031323334353637383961626364656600000000000000000000000000000000600a86061a8153600a850494508461141757509392505050565b611480848484846118da565b60018111156114f75760405162461bcd60e51b815260206004820152603560248201527f455243373231456e756d657261626c653a20636f6e736563757469766520747260448201527f616e7366657273206e6f7420737570706f727465640000000000000000000000606482015260840161050e565b816001600160a01b0385166115535761154e81600980546000838152600a60205260408120829055600182018355919091527f6e1540171b6c0c960b71a7020d9f60077f6af931a8bbf590da0223dacf75c7af0155565b611576565b836001600160a01b0316856001600160a01b031614611576576115768582611962565b6001600160a01b0384166115925761158d816119ff565b6115b5565b846001600160a01b0316846001600160a01b0316146115b5576115b58482611aae565b5050505050565b6115c68284611af2565b6000818152600c602052604080822080547fffffffffffffffffffffffff0000000000000000000000000000000000000000166001600160a01b038616908117909155905185928492917f9b01158d4bc10c112ba32b5240cda97e49e2eb86021f03f6a0f460342ac4dfda9190a4505050565b60006001600160a01b0384163b156117ed576040517f150b7a020000000000000000000000000000000000000000000000000000000081526001600160a01b0385169063150b7a02906116969033908990889088906004016121b2565b6020604051808303816000875af19250505080156116ef575060408051601f3d9081017fffffffffffffffffffffffffffffffffffffffffffffffffffffffffffffffe01682019092526116ec918101906121ee565b60015b6117a2573d80801561171d576040519150601f19603f3d011682016040523d82523d6000602084013e611722565b606091505b50805160000361179a5760405162461bcd60e51b815260206004820152603260248201527f4552433732313a207472616e7366657220746f206e6f6e20455243373231526560448201527f63656976657220696d706c656d656e7465720000000000000000000000000000606482015260840161050e565b805181602001fd5b7fffffffff00000000000000000000000000000000000000000000000000000000167f150b7a0200000000000000000000000000000000000000000000000000000000149050610dda565b506001949350505050565b6000807a184f03e93ff9f4daa797ed6e38ed64bf6a1f0100000000000000008310611841577a184f03e93ff9f4daa797ed6e38ed64bf6a1f010000000000000000830492506040015b6d04ee2d6d415b85acef8100000000831061186d576d04ee2d6d415b85acef8100000000830492506020015b662386f26fc10000831061188b57662386f26fc10000830492506010015b6305f5e10083106118a3576305f5e100830492506008015b61271083106118b757612710830492506004015b606483106118c9576064830492506002015b600a83106103bf5760010192915050565b6001811115610b19576001600160a01b03841615611920576001600160a01b0384166000908152600460205260408120805483929061191a90849061220b565b90915550505b6001600160a01b03831615610b19576001600160a01b0383166000908152600460205260408120805483929061195790849061221e565b909155505050505050565b6000600161196f846109d9565b611979919061220b565b6000838152600860205260409020549091508082146119cc576001600160a01b03841660009081526007602090815260408083208584528252808320548484528184208190558352600890915290208190555b5060009182526008602090815260408084208490556001600160a01b039094168352600781528383209183525290812055565b600954600090611a119060019061220b565b6000838152600a602052604081205460098054939450909284908110611a3957611a3961209e565b906000526020600020015490508060098381548110611a5a57611a5a61209e565b6000918252602080832090910192909255828152600a90915260408082208490558582528120556009805480611a9257611a92612231565b6001900381819060005260206000200160009055905550505050565b6000611ab9836109d9565b6001600160a01b039093166000908152600760209081526040808320868452825280832085905593825260089052919091209190915550565b6001600160a01b038216611b485760405162461bcd60e51b815260206004820181905260248201527f4552433732313a206d696e7420746f20746865207a65726f2061646472657373604482015260640161050e565b6000818152600360205260409020546001600160a01b031615611bad5760405162461bcd60e51b815260206004820152601c60248201527f4552433732313a20746f6b656e20616c7265616479206d696e74656400000000604482015260640161050e565b611bbb600083836001611474565b6000818152600360205260409020546001600160a01b031615611c205760405162461bcd60e51b815260206004820152601c60248201527f4552433732313a20746f6b656e20616c7265616479206d696e74656400000000604482015260640161050e565b6001600160a01b038216600081815260046020908152604080832080546001019055848352600390915280822080547fffffffffffffffffffffffff0000000000000000000000000000000000000000168417905551839291907fddf252ad1be2c89b69c2b068fc378daa952ba7f163c4a11628f55a4df523b3ef908290a45050565b7fffffffff0000000000000000000000000000000000000000000000000000000081168114610cda57600080fd5b600060208284031215611ce357600080fd5b8135610b8c81611ca3565b60005b83811015611d09578181015183820152602001611cf1565b50506000910152565b60008151808452611d2a816020860160208601611cee565b601f017fffffffffffffffffffffffffffffffffffffffffffffffffffffffffffffffe0169290920160200192915050565b602081526000610b8c6020830184611d12565b600060208284031215611d8157600080fd5b5035919050565b80356001600160a01b0381168114611d9f57600080fd5b919050565b60008060408385031215611db757600080fd5b611dc083611d88565b946020939093013593505050565b600080600060608486031215611de357600080fd5b611dec84611d88565b9250611dfa60208501611d88565b9150604084013590509250925092565b7f4e487b7100000000000000000000000000000000000000000000000000000000600052604160045260246000fd5b600082601f830112611e4a57600080fd5b813567ffffffffffffffff80821115611e6557611e65611e0a565b604051601f83017fffffffffffffffffffffffffffffffffffffffffffffffffffffffffffffffe0908116603f01168101908282118183101715611eab57611eab611e0a565b81604052838152866020858801011115611ec457600080fd5b836020870160208301376000602085830101528094505050505092915050565b60008060008060008060c08789031215611efd57600080fd5b863595506020870135945060408701359350606087013592506080870135915060a087013567ffffffffffffffff811115611f3757600080fd5b611f4389828a01611e39565b9150509295509295509295565b600060208284031215611f6257600080fd5b610b8c82611d88565b8015158114610cda57600080fd5b60008060408385031215611f8c57600080fd5b611f9583611d88565b91506020830135611fa581611f6b565b809150509250929050565b60008060008060808587031215611fc657600080fd5b611fcf85611d88565b9350611fdd60208601611d88565b925060408501359150606085013567ffffffffffffffff81111561200057600080fd5b61200c87828801611e39565b91505092959194509250565b6000806040838503121561202b57600080fd5b61203483611d88565b915061204260208401611d88565b90509250929050565b600181811c9082168061205f57607f821691505b602082108103612098577f4e487b7100000000000000000000000000000000000000000000000000000000600052602260045260246000fd5b50919050565b7f4e487b7100000000000000000000000000000000000000000000000000000000600052603260045260246000fd5b7f4e487b7100000000000000000000000000000000000000000000000000000000600052601160045260246000fd5b60007fffffffffffffffffffffffffffffffffffffffffffffffffffffffffffffffff820361212d5761212d6120cd565b5060010190565b60008351612146818460208801611cee565b83519083019061215a818360208801611cee565b01949350505050565b60006020828403121561217557600080fd5b5051919050565b828152604060208201526000610dda6040830184611d12565b6000602082840312156121a757600080fd5b8151610b8c81611f6b565b60006001600160a01b038087168352808616602084015250836040830152608060608301526121e46080830184611d12565b9695505050505050565b60006020828403121561220057600080fd5b8151610b8c81611ca3565b818103818111156103bf576103bf6120cd565b808201808211156103bf576103bf6120cd565b7f4e487b7100000000000000000000000000000000000000000000000000000000600052603160045260246000fdfea26469706673582212205b8135120928a571513c384090ada1e591c2bad3e3cd2253a751d676dfd77df764736f6c63430008110033",
  "devdoc": {
    "kind": "dev",
    "methods": {
      "approve(address,uint256)": {
        "details": "See {IERC721-approve}."
      },
      "balanceOf(address)": {
        "details": "See {IERC721-balanceOf}."
      },
      "getApproved(uint256)": {
        "details": "See {IERC721-getApproved}."
      },
      "isApprovedForAll(address,address)": {
        "details": "See {IERC721-isApprovedForAll}."
      },
      "name()": {
        "details": "See {IERC721Metadata-name}."
      },
      "ownerOf(uint256)": {
        "details": "See {IERC721-ownerOf}."
      },
      "safeTransferFrom(address,address,uint256)": {
        "details": "See {IERC721-safeTransferFrom}."
      },
      "safeTransferFrom(address,address,uint256,bytes)": {
        "details": "See {IERC721-safeTransferFrom}."
      },
      "setApprovalForAll(address,bool)": {
        "details": "See {IERC721-setApprovalForAll}."
      },
      "supportsInterface(bytes4)": {
        "details": "See {IERC165-supportsInterface}."
      },
      "symbol()": {
        "details": "See {IERC721Metadata-symbol}."
      },
      "tokenByIndex(uint256)": {
        "details": "See {IERC721Enumerable-tokenByIndex}."
      },
      "tokenOfOwnerByIndex(address,uint256)": {
        "details": "See {IERC721Enumerable-tokenOfOwnerByIndex}."
      },
      "tokenURI(uint256)": {
        "details": "See {IERC721Metadata-tokenURI}."
      },
      "totalSupply()": {
        "details": "See {IERC721Enumerable-totalSupply}."
      },
      "transferFrom(address,address,uint256)": {
        "details": "See {IERC721-transferFrom}."
      }
    },
    "version": 1
  },
  "userdoc": {
    "kind": "user",
    "methods": {},
    "version": 1
  },
  "storageLayout": {
    "storage": [
      {
        "astId": 10,
        "contract": "contracts/examples/PebbleMultipleLocationNFT.sol:PebbleMultipleLocationNFT",
        "label": "_status",
        "offset": 0,
        "slot": "0",
        "type": "t_uint256"
      },
      {
        "astId": 79,
        "contract": "contracts/examples/PebbleMultipleLocationNFT.sol:PebbleMultipleLocationNFT",
        "label": "_name",
        "offset": 0,
        "slot": "1",
        "type": "t_string_storage"
      },
      {
        "astId": 81,
        "contract": "contracts/examples/PebbleMultipleLocationNFT.sol:PebbleMultipleLocationNFT",
        "label": "_symbol",
        "offset": 0,
        "slot": "2",
        "type": "t_string_storage"
      },
      {
        "astId": 85,
        "contract": "contracts/examples/PebbleMultipleLocationNFT.sol:PebbleMultipleLocationNFT",
        "label": "_owners",
        "offset": 0,
        "slot": "3",
        "type": "t_mapping(t_uint256,t_address)"
      },
      {
        "astId": 89,
        "contract": "contracts/examples/PebbleMultipleLocationNFT.sol:PebbleMultipleLocationNFT",
        "label": "_balances",
        "offset": 0,
        "slot": "4",
        "type": "t_mapping(t_address,t_uint256)"
      },
      {
        "astId": 93,
        "contract": "contracts/examples/PebbleMultipleLocationNFT.sol:PebbleMultipleLocationNFT",
        "label": "_tokenApprovals",
        "offset": 0,
        "slot": "5",
        "type": "t_mapping(t_uint256,t_address)"
      },
      {
        "astId": 99,
        "contract": "contracts/examples/PebbleMultipleLocationNFT.sol:PebbleMultipleLocationNFT",
        "label": "_operatorApprovals",
        "offset": 0,
        "slot": "6",
        "type": "t_mapping(t_address,t_mapping(t_address,t_bool))"
      },
      {
        "astId": 1147,
        "contract": "contracts/examples/PebbleMultipleLocationNFT.sol:PebbleMultipleLocationNFT",
        "label": "_ownedTokens",
        "offset": 0,
        "slot": "7",
        "type": "t_mapping(t_address,t_mapping(t_uint256,t_uint256))"
      },
      {
        "astId": 1151,
        "contract": "contracts/examples/PebbleMultipleLocationNFT.sol:PebbleMultipleLocationNFT",
        "label": "_ownedTokensIndex",
        "offset": 0,
        "slot": "8",
        "type": "t_mapping(t_uint256,t_uint256)"
      },
      {
        "astId": 1154,
        "contract": "contracts/examples/PebbleMultipleLocationNFT.sol:PebbleMultipleLocationNFT",
        "label": "_allTokens",
        "offset": 0,
        "slot": "9",
        "type": "t_array(t_uint256)dyn_storage"
      },
      {
        "astId": 1158,
        "contract": "contracts/examples/PebbleMultipleLocationNFT.sol:PebbleMultipleLocationNFT",
        "label": "_allTokensIndex",
        "offset": 0,
        "slot": "10",
        "type": "t_mapping(t_uint256,t_uint256)"
      },
      {
        "astId": 2989,
        "contract": "contracts/examples/PebbleMultipleLocationNFT.sol:PebbleMultipleLocationNFT",
        "label": "verifier",
        "offset": 0,
        "slot": "11",
        "type": "t_contract(IMetapebbleDataVerifier)3400"
      },
      {
        "astId": 3013,
        "contract": "contracts/examples/PebbleMultipleLocationNFT.sol:PebbleMultipleLocationNFT",
        "label": "_claimedDevices",
        "offset": 0,
        "slot": "12",
        "type": "t_mapping(t_bytes32,t_address)"
      },
      {
        "astId": 3175,
        "contract": "contracts/examples/PebbleMultipleLocationNFT.sol:PebbleMultipleLocationNFT",
        "label": "places",
        "offset": 0,
        "slot": "13",
        "type": "t_mapping(t_bytes32,t_struct(Place)3170_storage)"
      },
      {
        "astId": 3177,
        "contract": "contracts/examples/PebbleMultipleLocationNFT.sol:PebbleMultipleLocationNFT",
        "label": "tokenId",
        "offset": 0,
        "slot": "14",
        "type": "t_uint256"
      }
    ],
    "types": {
      "t_address": {
        "encoding": "inplace",
        "label": "address",
        "numberOfBytes": "20"
      },
      "t_array(t_uint256)dyn_storage": {
        "base": "t_uint256",
        "encoding": "dynamic_array",
        "label": "uint256[]",
        "numberOfBytes": "32"
      },
      "t_bool": {
        "encoding": "inplace",
        "label": "bool",
        "numberOfBytes": "1"
      },
      "t_bytes32": {
        "encoding": "inplace",
        "label": "bytes32",
        "numberOfBytes": "32"
      },
      "t_contract(IMetapebbleDataVerifier)3400": {
        "encoding": "inplace",
        "label": "contract IMetapebbleDataVerifier",
        "numberOfBytes": "20"
      },
      "t_mapping(t_address,t_bool)": {
        "encoding": "mapping",
        "key": "t_address",
        "label": "mapping(address => bool)",
        "numberOfBytes": "32",
        "value": "t_bool"
      },
      "t_mapping(t_address,t_mapping(t_address,t_bool))": {
        "encoding": "mapping",
        "key": "t_address",
        "label": "mapping(address => mapping(address => bool))",
        "numberOfBytes": "32",
        "value": "t_mapping(t_address,t_bool)"
      },
      "t_mapping(t_address,t_mapping(t_uint256,t_uint256))": {
        "encoding": "mapping",
        "key": "t_address",
        "label": "mapping(address => mapping(uint256 => uint256))",
        "numberOfBytes": "32",
        "value": "t_mapping(t_uint256,t_uint256)"
      },
      "t_mapping(t_address,t_uint256)": {
        "encoding": "mapping",
        "key": "t_address",
        "label": "mapping(address => uint256)",
        "numberOfBytes": "32",
        "value": "t_uint256"
      },
      "t_mapping(t_bytes32,t_address)": {
        "encoding": "mapping",
        "key": "t_bytes32",
        "label": "mapping(bytes32 => address)",
        "numberOfBytes": "32",
        "value": "t_address"
      },
      "t_mapping(t_bytes32,t_struct(Place)3170_storage)": {
        "encoding": "mapping",
        "key": "t_bytes32",
        "label": "mapping(bytes32 => struct PebbleMultipleLocationNFT.Place)",
        "numberOfBytes": "32",
        "value": "t_struct(Place)3170_storage"
      },
      "t_mapping(t_uint256,t_address)": {
        "encoding": "mapping",
        "key": "t_uint256",
        "label": "mapping(uint256 => address)",
        "numberOfBytes": "32",
        "value": "t_address"
      },
      "t_mapping(t_uint256,t_uint256)": {
        "encoding": "mapping",
        "key": "t_uint256",
        "label": "mapping(uint256 => uint256)",
        "numberOfBytes": "32",
        "value": "t_uint256"
      },
      "t_string_storage": {
        "encoding": "bytes",
        "label": "string",
        "numberOfBytes": "32"
      },
      "t_struct(Place)3170_storage": {
        "encoding": "inplace",
        "label": "struct PebbleMultipleLocationNFT.Place",
        "members": [
          {
            "astId": 3165,
            "contract": "contracts/examples/PebbleMultipleLocationNFT.sol:PebbleMultipleLocationNFT",
            "label": "lat",
            "offset": 0,
            "slot": "0",
            "type": "t_uint256"
          },
          {
            "astId": 3167,
            "contract": "contracts/examples/PebbleMultipleLocationNFT.sol:PebbleMultipleLocationNFT",
            "label": "long",
            "offset": 0,
            "slot": "1",
            "type": "t_uint256"
          },
          {
            "astId": 3169,
            "contract": "contracts/examples/PebbleMultipleLocationNFT.sol:PebbleMultipleLocationNFT",
            "label": "maxDistance",
            "offset": 0,
            "slot": "2",
            "type": "t_uint256"
          }
        ],
        "numberOfBytes": "96"
      },
      "t_uint256": {
        "encoding": "inplace",
        "label": "uint256",
        "numberOfBytes": "32"
      }
    }
  }
}