{
  "address": "0x70C7bf1daC77353E34b7A10aA54Ed884f4B6A75F",
  "abi": [
    {
      "inputs": [
        {
          "internalType": "address",
          "name": "_verifier",
          "type": "address"
        },
        {
          "internalType": "string",
          "name": "_name",
          "type": "string"
        },
        {
          "internalType": "string",
          "name": "_symbol",
          "type": "string"
        }
      ],
      "stateMutability": "nonpayable",
      "type": "constructor"
    },
    {
      "anonymous": false,
      "inputs": [
        {
          "indexed": true,
          "internalType": "address",
          "name": "owner",
          "type": "address"
        },
        {
          "indexed": true,
          "internalType": "address",
          "name": "approved",
          "type": "address"
        },
        {
          "indexed": true,
          "internalType": "uint256",
          "name": "tokenId",
          "type": "uint256"
        }
      ],
      "name": "Approval",
      "type": "event"
    },
    {
      "anonymous": false,
      "inputs": [
        {
          "indexed": true,
          "internalType": "address",
          "name": "owner",
          "type": "address"
        },
        {
          "indexed": true,
          "internalType": "address",
          "name": "operator",
          "type": "address"
        },
        {
          "indexed": false,
          "internalType": "bool",
          "name": "approved",
          "type": "bool"
        }
      ],
      "name": "ApprovalForAll",
      "type": "event"
    },
    {
      "anonymous": false,
      "inputs": [
        {
          "indexed": true,
          "internalType": "address",
          "name": "holder",
          "type": "address"
        },
        {
          "indexed": true,
          "internalType": "bytes32",
          "name": "deviceHash",
          "type": "bytes32"
        },
        {
          "indexed": true,
          "internalType": "uint256",
          "name": "tokenId",
          "type": "uint256"
        }
      ],
      "name": "Claimed",
      "type": "event"
    },
    {
      "anonymous": false,
      "inputs": [
        {
          "indexed": true,
          "internalType": "address",
          "name": "from",
          "type": "address"
        },
        {
          "indexed": true,
          "internalType": "address",
          "name": "to",
          "type": "address"
        },
        {
          "indexed": true,
          "internalType": "uint256",
          "name": "tokenId",
          "type": "uint256"
        }
      ],
      "name": "Transfer",
      "type": "event"
    },
    {
      "inputs": [
        {
          "internalType": "address",
          "name": "to",
          "type": "address"
        },
        {
          "internalType": "uint256",
          "name": "tokenId",
          "type": "uint256"
        }
      ],
      "name": "approve",
      "outputs": [],
      "stateMutability": "nonpayable",
      "type": "function"
    },
    {
      "inputs": [
        {
          "internalType": "address",
          "name": "owner",
          "type": "address"
        }
      ],
      "name": "balanceOf",
      "outputs": [
        {
          "internalType": "uint256",
          "name": "",
          "type": "uint256"
        }
      ],
      "stateMutability": "view",
      "type": "function"
    },
    {
      "inputs": [
        {
          "internalType": "bytes32",
          "name": "deviceHash_",
          "type": "bytes32"
        },
        {
          "internalType": "uint256",
          "name": "startTimestamp_",
          "type": "uint256"
        },
        {
          "internalType": "uint256",
          "name": "endTimestamp_",
          "type": "uint256"
        },
        {
          "internalType": "bytes",
          "name": "signature",
          "type": "bytes"
        }
      ],
      "name": "claim",
      "outputs": [],
      "stateMutability": "payable",
      "type": "function"
    },
    {
      "inputs": [],
      "name": "claimFee",
      "outputs": [
        {
          "internalType": "uint256",
          "name": "",
          "type": "uint256"
        }
      ],
      "stateMutability": "view",
      "type": "function"
    },
    {
      "inputs": [
        {
          "internalType": "bytes32",
          "name": "deviceHash_",
          "type": "bytes32"
        }
      ],
      "name": "claimed",
      "outputs": [
        {
          "internalType": "bool",
          "name": "",
          "type": "bool"
        }
      ],
      "stateMutability": "view",
      "type": "function"
    },
    {
      "inputs": [
        {
          "internalType": "bytes32",
          "name": "deviceHash_",
          "type": "bytes32"
        }
      ],
      "name": "claimedUser",
      "outputs": [
        {
          "internalType": "address",
          "name": "",
          "type": "address"
        }
      ],
      "stateMutability": "view",
      "type": "function"
    },
    {
      "inputs": [
        {
          "internalType": "uint256",
          "name": "tokenId",
          "type": "uint256"
        }
      ],
      "name": "getApproved",
      "outputs": [
        {
          "internalType": "address",
          "name": "",
          "type": "address"
        }
      ],
      "stateMutability": "view",
      "type": "function"
    },
    {
      "inputs": [
        {
          "internalType": "address",
          "name": "owner",
          "type": "address"
        },
        {
          "internalType": "address",
          "name": "operator",
          "type": "address"
        }
      ],
      "name": "isApprovedForAll",
      "outputs": [
        {
          "internalType": "bool",
          "name": "",
          "type": "bool"
        }
      ],
      "stateMutability": "view",
      "type": "function"
    },
    {
      "inputs": [],
      "name": "name",
      "outputs": [
        {
          "internalType": "string",
          "name": "",
          "type": "string"
        }
      ],
      "stateMutability": "view",
      "type": "function"
    },
    {
      "inputs": [
        {
          "internalType": "uint256",
          "name": "tokenId",
          "type": "uint256"
        }
      ],
      "name": "ownerOf",
      "outputs": [
        {
          "internalType": "address",
          "name": "",
          "type": "address"
        }
      ],
      "stateMutability": "view",
      "type": "function"
    },
    {
      "inputs": [
        {
          "internalType": "address",
          "name": "from",
          "type": "address"
        },
        {
          "internalType": "address",
          "name": "to",
          "type": "address"
        },
        {
          "internalType": "uint256",
          "name": "tokenId",
          "type": "uint256"
        }
      ],
      "name": "safeTransferFrom",
      "outputs": [],
      "stateMutability": "nonpayable",
      "type": "function"
    },
    {
      "inputs": [
        {
          "internalType": "address",
          "name": "from",
          "type": "address"
        },
        {
          "internalType": "address",
          "name": "to",
          "type": "address"
        },
        {
          "internalType": "uint256",
          "name": "tokenId",
          "type": "uint256"
        },
        {
          "internalType": "bytes",
          "name": "data",
          "type": "bytes"
        }
      ],
      "name": "safeTransferFrom",
      "outputs": [],
      "stateMutability": "nonpayable",
      "type": "function"
    },
    {
      "inputs": [
        {
          "internalType": "address",
          "name": "operator",
          "type": "address"
        },
        {
          "internalType": "bool",
          "name": "approved",
          "type": "bool"
        }
      ],
      "name": "setApprovalForAll",
      "outputs": [],
      "stateMutability": "nonpayable",
      "type": "function"
    },
    {
      "inputs": [
        {
          "internalType": "bytes4",
          "name": "interfaceId",
          "type": "bytes4"
        }
      ],
      "name": "supportsInterface",
      "outputs": [
        {
          "internalType": "bool",
          "name": "",
          "type": "bool"
        }
      ],
      "stateMutability": "view",
      "type": "function"
    },
    {
      "inputs": [],
      "name": "symbol",
      "outputs": [
        {
          "internalType": "string",
          "name": "",
          "type": "string"
        }
      ],
      "stateMutability": "view",
      "type": "function"
    },
    {
      "inputs": [
        {
          "internalType": "uint256",
          "name": "tokenId",
          "type": "uint256"
        }
      ],
      "name": "tokenURI",
      "outputs": [
        {
          "internalType": "string",
          "name": "",
          "type": "string"
        }
      ],
      "stateMutability": "view",
      "type": "function"
    },
    {
      "inputs": [
        {
          "internalType": "address",
          "name": "from",
          "type": "address"
        },
        {
          "internalType": "address",
          "name": "to",
          "type": "address"
        },
        {
          "internalType": "uint256",
          "name": "tokenId",
          "type": "uint256"
        }
      ],
      "name": "transferFrom",
      "outputs": [],
      "stateMutability": "nonpayable",
      "type": "function"
    },
    {
      "inputs": [],
      "name": "verifier",
      "outputs": [
        {
          "internalType": "contract IMetapebbleDataVerifier",
          "name": "",
          "type": "address"
        }
      ],
      "stateMutability": "view",
      "type": "function"
    }
  ],
  "transactionHash": "0x0b68cc690375da35588b501526899db4d5afb3ea36383b163ebe859b02c794de",
  "args": [
    "0xB9ae925fF8318915e3266e0EA41a37408033caC6",
    "Own Pebble SBT",
    "OPT"
  ],
  "numDeployments": 1,
  "solcInputHash": "18a26cd5d63fe6faae120be289f29b34",
  "bytecode": "0x60806040523480156200001157600080fd5b506040516200225e3803806200225e83398101604081905262000034916200015c565b82828282828281816001600081905550816001908162000055919062000275565b50600262000064828262000275565b5050600780546001600160a01b0319166001600160a01b0395909516949094179093555062000341975050505050505050565b634e487b7160e01b600052604160045260246000fd5b600082601f830112620000bf57600080fd5b81516001600160401b0380821115620000dc57620000dc62000097565b604051601f8301601f19908116603f0116810190828211818310171562000107576200010762000097565b816040528381526020925086838588010111156200012457600080fd5b600091505b8382101562000148578582018301518183018401529082019062000129565b600093810190920192909252949350505050565b6000806000606084860312156200017257600080fd5b83516001600160a01b03811681146200018a57600080fd5b60208501519093506001600160401b0380821115620001a857600080fd5b620001b687838801620000ad565b93506040860151915080821115620001cd57600080fd5b50620001dc86828701620000ad565b9150509250925092565b600181811c90821680620001fb57607f821691505b6020821081036200021c57634e487b7160e01b600052602260045260246000fd5b50919050565b601f8211156200027057600081815260208120601f850160051c810160208610156200024b5750805b601f850160051c820191505b818110156200026c5782815560010162000257565b5050505b505050565b81516001600160401b0381111562000291576200029162000097565b620002a981620002a28454620001e6565b8462000222565b602080601f831160018114620002e15760008415620002c85750858301515b600019600386901b1c1916600185901b1785556200026c565b600085815260208120601f198616915b828110156200031257888601518255948401946001909101908401620002f1565b5085821015620003315787850151600019600388901b60f8161c191681555b5050505050600190811b01905550565b611f0d80620003516000396000f3fe6080604052600436106101295760003560e01c80637d6fbd9e116100a5578063a22cb46511610074578063c87b56dd11610059578063c87b56dd14610340578063cc3c0f0614610360578063e985e9c51461039857600080fd5b8063a22cb46514610300578063b88d4fde1461032057600080fd5b80637d6fbd9e1461028d57806395ace4b3146102c357806395d89b41146102d657806399d32fc4146102eb57600080fd5b806323b872dd116100fc57806342842e0e116100e157806342842e0e1461021f5780636352211e1461023f57806370a082311461025f57600080fd5b806323b872dd146101df5780632b7ac3f3146101ff57600080fd5b806301ffc9a71461012e57806306fdde0314610163578063081812fc14610185578063095ea7b3146101bd575b600080fd5b34801561013a57600080fd5b5061014e6101493660046119b0565b6103e1565b60405190151581526020015b60405180910390f35b34801561016f57600080fd5b506101786104c6565b60405161015a9190611a3b565b34801561019157600080fd5b506101a56101a0366004611a4e565b610558565b6040516001600160a01b03909116815260200161015a565b3480156101c957600080fd5b506101dd6101d8366004611a7c565b61057f565b005b3480156101eb57600080fd5b506101dd6101fa366004611aa8565b6106d3565b34801561020b57600080fd5b506007546101a5906001600160a01b031681565b34801561022b57600080fd5b506101dd61023a366004611aa8565b61075a565b34801561024b57600080fd5b506101a561025a366004611a4e565b610775565b34801561026b57600080fd5b5061027f61027a366004611ae9565b6107da565b60405190815260200161015a565b34801561029957600080fd5b506101a56102a8366004611a4e565b6000908152600860205260409020546001600160a01b031690565b6101dd6102d1366004611be0565b610874565b3480156102e257600080fd5b50610178610917565b3480156102f757600080fd5b5061027f610926565b34801561030c57600080fd5b506101dd61031b366004611c48565b610ab8565b34801561032c57600080fd5b506101dd61033b366004611c81565b610ac7565b34801561034c57600080fd5b5061017861035b366004611a4e565b610b4f565b34801561036c57600080fd5b5061014e61037b366004611a4e565b6000908152600860205260409020546001600160a01b0316151590565b3480156103a457600080fd5b5061014e6103b3366004611cd5565b6001600160a01b03918216600090815260066020908152604080832093909416825291909152205460ff1690565b60007fffffffff0000000000000000000000000000000000000000000000000000000082167f80ac58cd00000000000000000000000000000000000000000000000000000000148061047457507fffffffff0000000000000000000000000000000000000000000000000000000082167f5b5e139f00000000000000000000000000000000000000000000000000000000145b806104c057507f01ffc9a7000000000000000000000000000000000000000000000000000000007fffffffff000000000000000000000000000000000000000000000000000000008316145b92915050565b6060600180546104d590611d03565b80601f016020809104026020016040519081016040528092919081815260200182805461050190611d03565b801561054e5780601f106105235761010080835404028352916020019161054e565b820191906000526020600020905b81548152906001019060200180831161053157829003601f168201915b5050505050905090565b600061056382610bc3565b506000908152600560205260409020546001600160a01b031690565b600061058a82610775565b9050806001600160a01b0316836001600160a01b0316036106185760405162461bcd60e51b815260206004820152602160248201527f4552433732313a20617070726f76616c20746f2063757272656e74206f776e6560448201527f720000000000000000000000000000000000000000000000000000000000000060648201526084015b60405180910390fd5b336001600160a01b038216148061065257506001600160a01b038116600090815260066020908152604080832033845290915290205460ff165b6106c45760405162461bcd60e51b815260206004820152603d60248201527f4552433732313a20617070726f76652063616c6c6572206973206e6f7420746f60448201527f6b656e206f776e6572206f7220617070726f76656420666f7220616c6c000000606482015260840161060f565b6106ce8383610c2a565b505050565b6106dd3382610cb0565b61074f5760405162461bcd60e51b815260206004820152602d60248201527f4552433732313a2063616c6c6572206973206e6f7420746f6b656e206f776e6560448201527f72206f7220617070726f76656400000000000000000000000000000000000000606482015260840161060f565b6106ce838383610d2f565b6106ce83838360405180602001604052806000815250610ac7565b6000818152600360205260408120546001600160a01b0316806104c05760405162461bcd60e51b815260206004820152601860248201527f4552433732313a20696e76616c696420746f6b656e2049440000000000000000604482015260640161060f565b60006001600160a01b0382166108585760405162461bcd60e51b815260206004820152602960248201527f4552433732313a2061646472657373207a65726f206973206e6f74206120766160448201527f6c6964206f776e65720000000000000000000000000000000000000000000000606482015260840161060f565b506001600160a01b031660009081526004602052604090205490565b61087c610f9b565b6000848152600860205260409020546001600160a01b0316156108e15760405162461bcd60e51b815260206004820152600f60248201527f616c726561647920636c61696d65640000000000000000000000000000000000604482015260640161060f565b6108f2600954338686868634610ff4565b6009805490600061090283611d85565b91905055506109116001600055565b50505050565b6060600280546104d590611d03565b600754604080517fb17644c900000000000000000000000000000000000000000000000000000000815290516000926001600160a01b03169163b17644c99160048083019260209291908290030181865afa158015610989573d6000803e3d6000fd5b505050506040513d601f19601f820116820180604052508101906109ad9190611dbd565b6040517f3245b6220000000000000000000000000000000000000000000000000000000081523060048201526001600160a01b039190911690633245b62290602401602060405180830381865afa158015610a0c573d6000803e3d6000fd5b505050506040513d601f19601f82011682018060405250810190610a309190611dbd565b6040517f6fcca69b0000000000000000000000000000000000000000000000000000000081523060048201526001600160a01b039190911690636fcca69b90602401602060405180830381865afa158015610a8f573d6000803e3d6000fd5b505050506040513d601f19601f82011682018060405250810190610ab39190611dda565b905090565b610ac3338383611183565b5050565b610ad13383610cb0565b610b435760405162461bcd60e51b815260206004820152602d60248201527f4552433732313a2063616c6c6572206973206e6f7420746f6b656e206f776e6560448201527f72206f7220617070726f76656400000000000000000000000000000000000000606482015260840161060f565b6109118484848461126f565b6060610b5a82610bc3565b6000610b7160408051602081019091526000815290565b90506000815111610b915760405180602001604052806000815250610bbc565b80610b9b846112f8565b604051602001610bac929190611df3565b6040516020818303038152906040525b9392505050565b6000818152600360205260409020546001600160a01b0316610c275760405162461bcd60e51b815260206004820152601860248201527f4552433732313a20696e76616c696420746f6b656e2049440000000000000000604482015260640161060f565b50565b600081815260056020526040902080547fffffffffffffffffffffffff0000000000000000000000000000000000000000166001600160a01b0384169081179091558190610c7782610775565b6001600160a01b03167f8c5be1e5ebec7d5bd14f71427d1e84f3dd0314c0f7b2291e5b200ac8c7c3b92560405160405180910390a45050565b600080610cbc83610775565b9050806001600160a01b0316846001600160a01b03161480610d0357506001600160a01b0380821660009081526006602090815260408083209388168352929052205460ff165b80610d275750836001600160a01b0316610d1c84610558565b6001600160a01b0316145b949350505050565b826001600160a01b0316610d4282610775565b6001600160a01b031614610dbe5760405162461bcd60e51b815260206004820152602560248201527f4552433732313a207472616e736665722066726f6d20696e636f72726563742060448201527f6f776e6572000000000000000000000000000000000000000000000000000000606482015260840161060f565b6001600160a01b038216610e395760405162461bcd60e51b8152602060048201526024808201527f4552433732313a207472616e7366657220746f20746865207a65726f2061646460448201527f7265737300000000000000000000000000000000000000000000000000000000606482015260840161060f565b610e4683838360016113b6565b826001600160a01b0316610e5982610775565b6001600160a01b031614610ed55760405162461bcd60e51b815260206004820152602560248201527f4552433732313a207472616e736665722066726f6d20696e636f72726563742060448201527f6f776e6572000000000000000000000000000000000000000000000000000000606482015260840161060f565b600081815260056020908152604080832080547fffffffffffffffffffffffff00000000000000000000000000000000000000009081169091556001600160a01b038781168086526004855283862080547fffffffffffffffffffffffffffffffffffffffffffffffffffffffffffffffff01905590871680865283862080546001019055868652600390945282852080549092168417909155905184937fddf252ad1be2c89b69c2b068fc378daa952ba7f163c4a11628f55a4df523b3ef91a4505050565b600260005403610fed5760405162461bcd60e51b815260206004820152601f60248201527f5265656e7472616e637947756172643a207265656e7472616e742063616c6c00604482015260640161060f565b6002600055565b6007546040517f43d4b6a70000000000000000000000000000000000000000000000000000000081526001600160a01b03888116600483015260248201889052604482018790526064820186905260009216906343d4b6a790608401602060405180830381865afa15801561106d573d6000803e3d6000fd5b505050506040513d601f19601f820116820180604052508101906110919190611dda565b6007546040517f258ae5820000000000000000000000000000000000000000000000000000000081529192506001600160a01b03169063258ae5829084906110df9085908890600401611e22565b60206040518083038185885af11580156110fd573d6000803e3d6000fd5b50505050506040513d601f19601f820116820180604052508101906111229190611e3b565b61116e5760405162461bcd60e51b815260206004820152601160248201527f696e76616c6964207369676e6174757265000000000000000000000000000000604482015260640161060f565b61117988888861142b565b5050505050505050565b816001600160a01b0316836001600160a01b0316036111e45760405162461bcd60e51b815260206004820152601960248201527f4552433732313a20617070726f766520746f2063616c6c657200000000000000604482015260640161060f565b6001600160a01b0383811660008181526006602090815260408083209487168084529482529182902080547fffffffffffffffffffffffffffffffffffffffffffffffffffffffffffffff001686151590811790915591519182527f17307eab39ab6107e8899845ad3d59bd9653f200f220920489ca2b5937696c31910160405180910390a3505050565b61127a848484610d2f565b611286848484846114a8565b6109115760405162461bcd60e51b815260206004820152603260248201527f4552433732313a207472616e7366657220746f206e6f6e20455243373231526560448201527f63656976657220696d706c656d656e7465720000000000000000000000000000606482015260840161060f565b6060600061130583611667565b600101905060008167ffffffffffffffff81111561132557611325611b06565b6040519080825280601f01601f19166020018201604052801561134f576020820181803683370190505b5090508181016020015b7fffffffffffffffffffffffffffffffffffffffffffffffffffffffffffffffff017f3031323334353637383961626364656600000000000000000000000000000000600a86061a8153600a850494508461135957509392505050565b6001600160a01b03841615806113d357506001600160a01b038316155b61141f5760405162461bcd60e51b815260206004820152601b60248201527f534f554c424f554e443a204e6f6e2d5472616e7366657261626c650000000000604482015260640161060f565b61091184848484611749565b61143582846117d1565b60008181526008602052604080822080547fffffffffffffffffffffffff0000000000000000000000000000000000000000166001600160a01b038616908117909155905185928492917f9b01158d4bc10c112ba32b5240cda97e49e2eb86021f03f6a0f460342ac4dfda9190a4505050565b60006001600160a01b0384163b1561165c576040517f150b7a020000000000000000000000000000000000000000000000000000000081526001600160a01b0385169063150b7a0290611505903390899088908890600401611e58565b6020604051808303816000875af192505050801561155e575060408051601f3d9081017fffffffffffffffffffffffffffffffffffffffffffffffffffffffffffffffe016820190925261155b91810190611e94565b60015b611611573d80801561158c576040519150601f19603f3d011682016040523d82523d6000602084013e611591565b606091505b5080516000036116095760405162461bcd60e51b815260206004820152603260248201527f4552433732313a207472616e7366657220746f206e6f6e20455243373231526560448201527f63656976657220696d706c656d656e7465720000000000000000000000000000606482015260840161060f565b805181602001fd5b7fffffffff00000000000000000000000000000000000000000000000000000000167f150b7a0200000000000000000000000000000000000000000000000000000000149050610d27565b506001949350505050565b6000807a184f03e93ff9f4daa797ed6e38ed64bf6a1f01000000000000000083106116b0577a184f03e93ff9f4daa797ed6e38ed64bf6a1f010000000000000000830492506040015b6d04ee2d6d415b85acef810000000083106116dc576d04ee2d6d415b85acef8100000000830492506020015b662386f26fc1000083106116fa57662386f26fc10000830492506010015b6305f5e1008310611712576305f5e100830492506008015b612710831061172657612710830492506004015b60648310611738576064830492506002015b600a83106104c05760010192915050565b6001811115610911576001600160a01b0384161561178f576001600160a01b03841660009081526004602052604081208054839290611789908490611eb1565b90915550505b6001600160a01b03831615610911576001600160a01b038316600090815260046020526040812080548392906117c6908490611ec4565b909155505050505050565b6001600160a01b0382166118275760405162461bcd60e51b815260206004820181905260248201527f4552433732313a206d696e7420746f20746865207a65726f2061646472657373604482015260640161060f565b6000818152600360205260409020546001600160a01b03161561188c5760405162461bcd60e51b815260206004820152601c60248201527f4552433732313a20746f6b656e20616c7265616479206d696e74656400000000604482015260640161060f565b61189a6000838360016113b6565b6000818152600360205260409020546001600160a01b0316156118ff5760405162461bcd60e51b815260206004820152601c60248201527f4552433732313a20746f6b656e20616c7265616479206d696e74656400000000604482015260640161060f565b6001600160a01b038216600081815260046020908152604080832080546001019055848352600390915280822080547fffffffffffffffffffffffff0000000000000000000000000000000000000000168417905551839291907fddf252ad1be2c89b69c2b068fc378daa952ba7f163c4a11628f55a4df523b3ef908290a45050565b7fffffffff0000000000000000000000000000000000000000000000000000000081168114610c2757600080fd5b6000602082840312156119c257600080fd5b8135610bbc81611982565b60005b838110156119e85781810151838201526020016119d0565b50506000910152565b60008151808452611a098160208601602086016119cd565b601f017fffffffffffffffffffffffffffffffffffffffffffffffffffffffffffffffe0169290920160200192915050565b602081526000610bbc60208301846119f1565b600060208284031215611a6057600080fd5b5035919050565b6001600160a01b0381168114610c2757600080fd5b60008060408385031215611a8f57600080fd5b8235611a9a81611a67565b946020939093013593505050565b600080600060608486031215611abd57600080fd5b8335611ac881611a67565b92506020840135611ad881611a67565b929592945050506040919091013590565b600060208284031215611afb57600080fd5b8135610bbc81611a67565b7f4e487b7100000000000000000000000000000000000000000000000000000000600052604160045260246000fd5b600082601f830112611b4657600080fd5b813567ffffffffffffffff80821115611b6157611b61611b06565b604051601f83017fffffffffffffffffffffffffffffffffffffffffffffffffffffffffffffffe0908116603f01168101908282118183101715611ba757611ba7611b06565b81604052838152866020858801011115611bc057600080fd5b836020870160208301376000602085830101528094505050505092915050565b60008060008060808587031215611bf657600080fd5b843593506020850135925060408501359150606085013567ffffffffffffffff811115611c2257600080fd5b611c2e87828801611b35565b91505092959194509250565b8015158114610c2757600080fd5b60008060408385031215611c5b57600080fd5b8235611c6681611a67565b91506020830135611c7681611c3a565b809150509250929050565b60008060008060808587031215611c9757600080fd5b8435611ca281611a67565b93506020850135611cb281611a67565b925060408501359150606085013567ffffffffffffffff811115611c2257600080fd5b60008060408385031215611ce857600080fd5b8235611cf381611a67565b91506020830135611c7681611a67565b600181811c90821680611d1757607f821691505b602082108103611d50577f4e487b7100000000000000000000000000000000000000000000000000000000600052602260045260246000fd5b50919050565b7f4e487b7100000000000000000000000000000000000000000000000000000000600052601160045260246000fd5b60007fffffffffffffffffffffffffffffffffffffffffffffffffffffffffffffffff8203611db657611db6611d56565b5060010190565b600060208284031215611dcf57600080fd5b8151610bbc81611a67565b600060208284031215611dec57600080fd5b5051919050565b60008351611e058184602088016119cd565b835190830190611e198183602088016119cd565b01949350505050565b828152604060208201526000610d2760408301846119f1565b600060208284031215611e4d57600080fd5b8151610bbc81611c3a565b60006001600160a01b03808716835280861660208401525083604083015260806060830152611e8a60808301846119f1565b9695505050505050565b600060208284031215611ea657600080fd5b8151610bbc81611982565b818103818111156104c0576104c0611d56565b808201808211156104c0576104c0611d5656fea2646970667358221220aa5a773e5b3eb47bb1b06068ec133e1aafecbb8ab55a8a6ee3d6012a409c22e464736f6c63430008110033",
  "devdoc": {
    "kind": "dev",
    "methods": {
      "approve(address,uint256)": {
        "details": "See {IERC721-approve}."
      },
      "balanceOf(address)": {
        "details": "See {IERC721-balanceOf}."
      },
      "getApproved(uint256)": {
        "details": "See {IERC721-getApproved}."
      },
      "isApprovedForAll(address,address)": {
        "details": "See {IERC721-isApprovedForAll}."
      },
      "name()": {
        "details": "See {IERC721Metadata-name}."
      },
      "ownerOf(uint256)": {
        "details": "See {IERC721-ownerOf}."
      },
      "safeTransferFrom(address,address,uint256)": {
        "details": "See {IERC721-safeTransferFrom}."
      },
      "safeTransferFrom(address,address,uint256,bytes)": {
        "details": "See {IERC721-safeTransferFrom}."
      },
      "setApprovalForAll(address,bool)": {
        "details": "See {IERC721-setApprovalForAll}."
      },
      "supportsInterface(bytes4)": {
        "details": "See {IERC165-supportsInterface}."
      },
      "symbol()": {
        "details": "See {IERC721Metadata-symbol}."
      },
      "tokenURI(uint256)": {
        "details": "See {IERC721Metadata-tokenURI}."
      },
      "transferFrom(address,address,uint256)": {
        "details": "See {IERC721-transferFrom}."
      }
    },
    "version": 1
  },
  "userdoc": {
    "kind": "user",
    "methods": {},
    "version": 1
  },
  "storageLayout": {
    "storage": [
      {
        "astId": 292,
        "contract": "contracts/examples/PebbleOwnSBT.sol:PebbleOwnSBT",
        "label": "_status",
        "offset": 0,
        "slot": "0",
        "type": "t_uint256"
      },
      {
        "astId": 1051,
        "contract": "contracts/examples/PebbleOwnSBT.sol:PebbleOwnSBT",
        "label": "_name",
        "offset": 0,
        "slot": "1",
        "type": "t_string_storage"
      },
      {
        "astId": 1053,
        "contract": "contracts/examples/PebbleOwnSBT.sol:PebbleOwnSBT",
        "label": "_symbol",
        "offset": 0,
        "slot": "2",
        "type": "t_string_storage"
      },
      {
        "astId": 1057,
        "contract": "contracts/examples/PebbleOwnSBT.sol:PebbleOwnSBT",
        "label": "_owners",
        "offset": 0,
        "slot": "3",
        "type": "t_mapping(t_uint256,t_address)"
      },
      {
        "astId": 1061,
        "contract": "contracts/examples/PebbleOwnSBT.sol:PebbleOwnSBT",
        "label": "_balances",
        "offset": 0,
        "slot": "4",
        "type": "t_mapping(t_address,t_uint256)"
      },
      {
        "astId": 1065,
        "contract": "contracts/examples/PebbleOwnSBT.sol:PebbleOwnSBT",
        "label": "_tokenApprovals",
        "offset": 0,
        "slot": "5",
        "type": "t_mapping(t_uint256,t_address)"
      },
      {
        "astId": 1071,
        "contract": "contracts/examples/PebbleOwnSBT.sol:PebbleOwnSBT",
        "label": "_operatorApprovals",
        "offset": 0,
        "slot": "6",
        "type": "t_mapping(t_address,t_mapping(t_address,t_bool))"
      },
      {
        "astId": 4993,
        "contract": "contracts/examples/PebbleOwnSBT.sol:PebbleOwnSBT",
        "label": "verifier",
        "offset": 0,
        "slot": "7",
        "type": "t_contract(IMetapebbleDataVerifier)6222"
      },
      {
        "astId": 5017,
        "contract": "contracts/examples/PebbleOwnSBT.sol:PebbleOwnSBT",
        "label": "_claimedDevices",
        "offset": 0,
        "slot": "8",
        "type": "t_mapping(t_bytes32,t_address)"
      },
      {
        "astId": 6109,
        "contract": "contracts/examples/PebbleOwnSBT.sol:PebbleOwnSBT",
        "label": "tokenId",
        "offset": 0,
        "slot": "9",
        "type": "t_uint256"
      }
    ],
    "types": {
      "t_address": {
        "encoding": "inplace",
        "label": "address",
        "numberOfBytes": "20"
      },
      "t_bool": {
        "encoding": "inplace",
        "label": "bool",
        "numberOfBytes": "1"
      },
      "t_bytes32": {
        "encoding": "inplace",
        "label": "bytes32",
        "numberOfBytes": "32"
      },
      "t_contract(IMetapebbleDataVerifier)6222": {
        "encoding": "inplace",
        "label": "contract IMetapebbleDataVerifier",
        "numberOfBytes": "20"
      },
      "t_mapping(t_address,t_bool)": {
        "encoding": "mapping",
        "key": "t_address",
        "label": "mapping(address => bool)",
        "numberOfBytes": "32",
        "value": "t_bool"
      },
      "t_mapping(t_address,t_mapping(t_address,t_bool))": {
        "encoding": "mapping",
        "key": "t_address",
        "label": "mapping(address => mapping(address => bool))",
        "numberOfBytes": "32",
        "value": "t_mapping(t_address,t_bool)"
      },
      "t_mapping(t_address,t_uint256)": {
        "encoding": "mapping",
        "key": "t_address",
        "label": "mapping(address => uint256)",
        "numberOfBytes": "32",
        "value": "t_uint256"
      },
      "t_mapping(t_bytes32,t_address)": {
        "encoding": "mapping",
        "key": "t_bytes32",
        "label": "mapping(bytes32 => address)",
        "numberOfBytes": "32",
        "value": "t_address"
      },
      "t_mapping(t_uint256,t_address)": {
        "encoding": "mapping",
        "key": "t_uint256",
        "label": "mapping(uint256 => address)",
        "numberOfBytes": "32",
        "value": "t_address"
      },
      "t_string_storage": {
        "encoding": "bytes",
        "label": "string",
        "numberOfBytes": "32"
      },
      "t_uint256": {
        "encoding": "inplace",
        "label": "uint256",
        "numberOfBytes": "32"
      }
    }
  }
}