{
  "address": "0xdC9d2F36f67Ee375e598ad6908E20b396290D9f9",
  "abi": [
    {
      "inputs": [
        {
          "internalType": "address",
          "name": "_defaultFeeManager",
          "type": "address"
        }
      ],
      "stateMutability": "nonpayable",
      "type": "constructor"
    },
    {
      "anonymous": false,
      "inputs": [
        {
          "indexed": true,
          "internalType": "address",
          "name": "project",
          "type": "address"
        },
        {
          "indexed": true,
          "internalType": "address",
          "name": "feeManager",
          "type": "address"
        }
      ],
      "name": "FeeManagerAdded",
      "type": "event"
    },
    {
      "anonymous": false,
      "inputs": [
        {
          "indexed": true,
          "internalType": "address",
          "name": "project",
          "type": "address"
        }
      ],
      "name": "FeeManagerRemoved",
      "type": "event"
    },
    {
      "anonymous": false,
      "inputs": [
        {
          "indexed": true,
          "internalType": "address",
          "name": "previousOwner",
          "type": "address"
        },
        {
          "indexed": true,
          "internalType": "address",
          "name": "newOwner",
          "type": "address"
        }
      ],
      "name": "OwnershipTransferred",
      "type": "event"
    },
    {
      "inputs": [],
      "name": "DEFAULT_FEE_MANAGER",
      "outputs": [
        {
          "internalType": "address",
          "name": "",
          "type": "address"
        }
      ],
      "stateMutability": "view",
      "type": "function"
    },
    {
      "inputs": [
        {
          "internalType": "address",
          "name": "project",
          "type": "address"
        },
        {
          "internalType": "address",
          "name": "feeManager",
          "type": "address"
        }
      ],
      "name": "addFeeManager",
      "outputs": [],
      "stateMutability": "nonpayable",
      "type": "function"
    },
    {
      "inputs": [
        {
          "internalType": "address",
          "name": "project",
          "type": "address"
        }
      ],
      "name": "fetchVerifyFeeManager",
      "outputs": [
        {
          "internalType": "address",
          "name": "",
          "type": "address"
        }
      ],
      "stateMutability": "view",
      "type": "function"
    },
    {
      "inputs": [],
      "name": "owner",
      "outputs": [
        {
          "internalType": "address",
          "name": "",
          "type": "address"
        }
      ],
      "stateMutability": "view",
      "type": "function"
    },
    {
      "inputs": [
        {
          "internalType": "address",
          "name": "project",
          "type": "address"
        }
      ],
      "name": "removeFeeManager",
      "outputs": [],
      "stateMutability": "nonpayable",
      "type": "function"
    },
    {
      "inputs": [],
      "name": "renounceOwnership",
      "outputs": [],
      "stateMutability": "nonpayable",
      "type": "function"
    },
    {
      "inputs": [
        {
          "internalType": "address",
          "name": "newOwner",
          "type": "address"
        }
      ],
      "name": "transferOwnership",
      "outputs": [],
      "stateMutability": "nonpayable",
      "type": "function"
    }
  ],
  "transactionHash": "0x871fb7b213bb1563b44e6d9d5c1fc81bbfaeb9b1c53d1a959854e0a28ebc1ae3",
  "args": [
    "0x771F532D9d9d06E136e48292fbD1fFf6064Bd7c9"
  ],
  "numDeployments": 3,
  "solcInputHash": "e2c4cce5c6ab932c33c1e1c3c438601c",
  "bytecode": "0x60a060405234801561001057600080fd5b506040516107b63803806107b683398101604081905261002f91610099565b61003833610049565b6001600160a01b03166080526100c9565b600080546001600160a01b038381166001600160a01b0319831681178455604051919092169283917f8be0079c531659141344cd1fd0a4f28419497f9722a3daafe3b4186f6b6457e09190a35050565b6000602082840312156100ab57600080fd5b81516001600160a01b03811681146100c257600080fd5b9392505050565b6080516106cb6100eb60003960008181610111015261017801526106cb6000f3fe608060405234801561001057600080fd5b506004361061007d5760003560e01c80638da5cb5b1161005b5780638da5cb5b146100db5780638e778864146100f9578063942dfc481461010c578063f2fde38b1461013357600080fd5b80633245b62214610082578063715018a6146100be5780638115c9cc146100c8575b600080fd5b610095610090366004610640565b610146565b60405173ffffffffffffffffffffffffffffffffffffffff909116815260200160405180910390f35b6100c66101a3565b005b6100c66100d6366004610640565b6101b7565b60005473ffffffffffffffffffffffffffffffffffffffff16610095565b6100c6610107366004610662565b6102c6565b6100957f000000000000000000000000000000000000000000000000000000000000000081565b6100c6610141366004610640565b61046a565b73ffffffffffffffffffffffffffffffffffffffff8082166000908152600160205260408120549091168061019d57507f000000000000000000000000000000000000000000000000000000000000000092915050565b92915050565b6101ab610521565b6101b560006105a2565b565b6101bf610521565b73ffffffffffffffffffffffffffffffffffffffff81811660009081526001602052604090205416610252576040517f08c379a000000000000000000000000000000000000000000000000000000000815260206004820152601a60248201527f50726f6a65637420686173206e6f20666565206d616e6167657200000000000060448201526064015b60405180910390fd5b73ffffffffffffffffffffffffffffffffffffffff811660008181526001602052604080822080547fffffffffffffffffffffffff0000000000000000000000000000000000000000169055517fc504b68859e849248ade75526558241afc96c48cddbae13b2ae85ff21d1339259190a250565b6102ce610521565b73ffffffffffffffffffffffffffffffffffffffff821661034b576040517f08c379a000000000000000000000000000000000000000000000000000000000815260206004820152601e60248201527f50726f6a6563742063616e6e6f74206265206e756c6c206164647265737300006044820152606401610249565b73ffffffffffffffffffffffffffffffffffffffff81166103ee576040517f08c379a000000000000000000000000000000000000000000000000000000000815260206004820152602160248201527f4665654d616e616765722063616e6e6f74206265206e756c6c2061646472657360448201527f73000000000000000000000000000000000000000000000000000000000000006064820152608401610249565b73ffffffffffffffffffffffffffffffffffffffff82811660008181526001602052604080822080547fffffffffffffffffffffffff0000000000000000000000000000000000000000169486169485179055517f0d8a54eaab425bca8069cb2d2fef755e09c846863425ae4047bdc78467a895319190a35050565b610472610521565b73ffffffffffffffffffffffffffffffffffffffff8116610515576040517f08c379a000000000000000000000000000000000000000000000000000000000815260206004820152602660248201527f4f776e61626c653a206e6577206f776e657220697320746865207a65726f206160448201527f64647265737300000000000000000000000000000000000000000000000000006064820152608401610249565b61051e816105a2565b50565b60005473ffffffffffffffffffffffffffffffffffffffff1633146101b5576040517f08c379a000000000000000000000000000000000000000000000000000000000815260206004820181905260248201527f4f776e61626c653a2063616c6c6572206973206e6f7420746865206f776e65726044820152606401610249565b6000805473ffffffffffffffffffffffffffffffffffffffff8381167fffffffffffffffffffffffff0000000000000000000000000000000000000000831681178455604051919092169283917f8be0079c531659141344cd1fd0a4f28419497f9722a3daafe3b4186f6b6457e09190a35050565b803573ffffffffffffffffffffffffffffffffffffffff8116811461063b57600080fd5b919050565b60006020828403121561065257600080fd5b61065b82610617565b9392505050565b6000806040838503121561067557600080fd5b61067e83610617565b915061068c60208401610617565b9050925092905056fea2646970667358221220bb39eeb2a2e051699bc9086507adb6feb393f47e6056592e30696a39751d5ea964736f6c63430008110033",
  "devdoc": {
    "kind": "dev",
    "methods": {
      "owner()": {
        "details": "Returns the address of the current owner."
      },
      "renounceOwnership()": {
        "details": "Leaves the contract without owner. It will not be possible to call `onlyOwner` functions anymore. Can only be called by the current owner. NOTE: Renouncing ownership will leave the contract without an owner, thereby removing any functionality that is only available to the owner."
      },
      "transferOwnership(address)": {
        "details": "Transfers ownership of the contract to a new account (`newOwner`). Can only be called by the current owner."
      }
    },
    "version": 1
  },
  "userdoc": {
    "kind": "user",
    "methods": {},
    "version": 1
  },
  "storageLayout": {
    "storage": [
      {
        "astId": 7,
        "contract": "contracts/VerifyFeeSelector.sol:VerifyFeeSelector",
        "label": "_owner",
        "offset": 0,
        "slot": "0",
        "type": "t_address"
      },
      {
        "astId": 160,
        "contract": "contracts/VerifyFeeSelector.sol:VerifyFeeSelector",
        "label": "feeManagerForProject",
        "offset": 0,
        "slot": "1",
        "type": "t_mapping(t_address,t_address)"
      }
    ],
    "types": {
      "t_address": {
        "encoding": "inplace",
        "label": "address",
        "numberOfBytes": "20"
      },
      "t_mapping(t_address,t_address)": {
        "encoding": "mapping",
        "key": "t_address",
        "label": "mapping(address => address)",
        "numberOfBytes": "32",
        "value": "t_address"
      }
    }
  }
}