{
  "address": "0xfCeD441036d0616fe0618B09945fF0Eaf9978444",
  "abi": [
    {
      "inputs": [
        {
          "internalType": "int256[]",
          "name": "_lats",
          "type": "int256[]"
        },
        {
          "internalType": "int256[]",
          "name": "_longs",
          "type": "int256[]"
        },
        {
          "internalType": "uint256[]",
          "name": "_maxDistances",
          "type": "uint256[]"
        },
        {
          "internalType": "uint256[]",
          "name": "_startTimestamps",
          "type": "uint256[]"
        },
        {
          "internalType": "uint256[]",
          "name": "_endTimestamps",
          "type": "uint256[]"
        },
        {
          "internalType": "address",
          "name": "_verifier",
          "type": "address"
        },
        {
          "internalType": "string",
          "name": "_name",
          "type": "string"
        },
        {
          "internalType": "string",
          "name": "_symbol",
          "type": "string"
        }
      ],
      "stateMutability": "nonpayable",
      "type": "constructor"
    },
    {
      "anonymous": false,
      "inputs": [
        {
          "indexed": true,
          "internalType": "address",
          "name": "owner",
          "type": "address"
        },
        {
          "indexed": true,
          "internalType": "address",
          "name": "approved",
          "type": "address"
        },
        {
          "indexed": true,
          "internalType": "uint256",
          "name": "tokenId",
          "type": "uint256"
        }
      ],
      "name": "Approval",
      "type": "event"
    },
    {
      "anonymous": false,
      "inputs": [
        {
          "indexed": true,
          "internalType": "address",
          "name": "owner",
          "type": "address"
        },
        {
          "indexed": true,
          "internalType": "address",
          "name": "operator",
          "type": "address"
        },
        {
          "indexed": false,
          "internalType": "bool",
          "name": "approved",
          "type": "bool"
        }
      ],
      "name": "ApprovalForAll",
      "type": "event"
    },
    {
      "anonymous": false,
      "inputs": [
        {
          "indexed": true,
          "internalType": "address",
          "name": "holder",
          "type": "address"
        },
        {
          "indexed": true,
          "internalType": "bytes32",
          "name": "deviceHash",
          "type": "bytes32"
        },
        {
          "indexed": true,
          "internalType": "uint256",
          "name": "tokenId",
          "type": "uint256"
        }
      ],
      "name": "Claimed",
      "type": "event"
    },
    {
      "anonymous": false,
      "inputs": [
        {
          "indexed": true,
          "internalType": "address",
          "name": "previousOwner",
          "type": "address"
        },
        {
          "indexed": true,
          "internalType": "address",
          "name": "newOwner",
          "type": "address"
        }
      ],
      "name": "OwnershipTransferred",
      "type": "event"
    },
    {
      "anonymous": false,
      "inputs": [
        {
          "indexed": true,
          "internalType": "address",
          "name": "from",
          "type": "address"
        },
        {
          "indexed": true,
          "internalType": "address",
          "name": "to",
          "type": "address"
        },
        {
          "indexed": true,
          "internalType": "uint256",
          "name": "tokenId",
          "type": "uint256"
        }
      ],
      "name": "Transfer",
      "type": "event"
    },
    {
      "inputs": [
        {
          "internalType": "int256",
          "name": "_lat",
          "type": "int256"
        },
        {
          "internalType": "int256",
          "name": "_long",
          "type": "int256"
        },
        {
          "internalType": "uint256",
          "name": "_maxDistance",
          "type": "uint256"
        },
        {
          "internalType": "uint256",
          "name": "_startTimestamp",
          "type": "uint256"
        },
        {
          "internalType": "uint256",
          "name": "_endTimestamp",
          "type": "uint256"
        }
      ],
      "name": "addPlace",
      "outputs": [],
      "stateMutability": "nonpayable",
      "type": "function"
    },
    {
      "inputs": [
        {
          "internalType": "address",
          "name": "to",
          "type": "address"
        },
        {
          "internalType": "uint256",
          "name": "tokenId",
          "type": "uint256"
        }
      ],
      "name": "approve",
      "outputs": [],
      "stateMutability": "nonpayable",
      "type": "function"
    },
    {
      "inputs": [
        {
          "internalType": "address",
          "name": "owner",
          "type": "address"
        }
      ],
      "name": "balanceOf",
      "outputs": [
        {
          "internalType": "uint256",
          "name": "",
          "type": "uint256"
        }
      ],
      "stateMutability": "view",
      "type": "function"
    },
    {
      "inputs": [
        {
          "internalType": "int256",
          "name": "lat_",
          "type": "int256"
        },
        {
          "internalType": "int256",
          "name": "long_",
          "type": "int256"
        },
        {
          "internalType": "uint256",
          "name": "distance_",
          "type": "uint256"
        },
        {
          "internalType": "bytes32",
          "name": "deviceHash_",
          "type": "bytes32"
        },
        {
          "internalType": "uint256",
          "name": "startTimestamp_",
          "type": "uint256"
        },
        {
          "internalType": "uint256",
          "name": "endTimestamp_",
          "type": "uint256"
        },
        {
          "internalType": "bytes",
          "name": "signature",
          "type": "bytes"
        }
      ],
      "name": "claim",
      "outputs": [],
      "stateMutability": "payable",
      "type": "function"
    },
    {
      "inputs": [],
      "name": "claimFee",
      "outputs": [
        {
          "internalType": "uint256",
          "name": "",
          "type": "uint256"
        }
      ],
      "stateMutability": "view",
      "type": "function"
    },
    {
      "inputs": [
        {
          "internalType": "bytes32",
          "name": "deviceHash_",
          "type": "bytes32"
        }
      ],
      "name": "claimed",
      "outputs": [
        {
          "internalType": "bool",
          "name": "",
          "type": "bool"
        }
      ],
      "stateMutability": "view",
      "type": "function"
    },
    {
      "inputs": [
        {
          "internalType": "bytes32",
          "name": "deviceHash_",
          "type": "bytes32"
        }
      ],
      "name": "claimedUser",
      "outputs": [
        {
          "internalType": "address",
          "name": "",
          "type": "address"
        }
      ],
      "stateMutability": "view",
      "type": "function"
    },
    {
      "inputs": [
        {
          "internalType": "uint256",
          "name": "tokenId",
          "type": "uint256"
        }
      ],
      "name": "getApproved",
      "outputs": [
        {
          "internalType": "address",
          "name": "",
          "type": "address"
        }
      ],
      "stateMutability": "view",
      "type": "function"
    },
    {
      "inputs": [
        {
          "internalType": "address",
          "name": "owner",
          "type": "address"
        },
        {
          "internalType": "address",
          "name": "operator",
          "type": "address"
        }
      ],
      "name": "isApprovedForAll",
      "outputs": [
        {
          "internalType": "bool",
          "name": "",
          "type": "bool"
        }
      ],
      "stateMutability": "view",
      "type": "function"
    },
    {
      "inputs": [],
      "name": "name",
      "outputs": [
        {
          "internalType": "string",
          "name": "",
          "type": "string"
        }
      ],
      "stateMutability": "view",
      "type": "function"
    },
    {
      "inputs": [],
      "name": "owner",
      "outputs": [
        {
          "internalType": "address",
          "name": "",
          "type": "address"
        }
      ],
      "stateMutability": "view",
      "type": "function"
    },
    {
      "inputs": [
        {
          "internalType": "uint256",
          "name": "tokenId",
          "type": "uint256"
        }
      ],
      "name": "ownerOf",
      "outputs": [
        {
          "internalType": "address",
          "name": "",
          "type": "address"
        }
      ],
      "stateMutability": "view",
      "type": "function"
    },
    {
      "inputs": [],
      "name": "palceCount",
      "outputs": [
        {
          "internalType": "uint256",
          "name": "",
          "type": "uint256"
        }
      ],
      "stateMutability": "view",
      "type": "function"
    },
    {
      "inputs": [
        {
          "internalType": "bytes32",
          "name": "",
          "type": "bytes32"
        }
      ],
      "name": "places",
      "outputs": [
        {
          "internalType": "int256",
          "name": "lat",
          "type": "int256"
        },
        {
          "internalType": "int256",
          "name": "long",
          "type": "int256"
        },
        {
          "internalType": "uint256",
          "name": "maxDistance",
          "type": "uint256"
        },
        {
          "internalType": "uint256",
          "name": "startTimestamp",
          "type": "uint256"
        },
        {
          "internalType": "uint256",
          "name": "endTimestamp",
          "type": "uint256"
        }
      ],
      "stateMutability": "view",
      "type": "function"
    },
    {
      "inputs": [
        {
          "internalType": "uint256",
          "name": "",
          "type": "uint256"
        }
      ],
      "name": "placesHash",
      "outputs": [
        {
          "internalType": "bytes32",
          "name": "",
          "type": "bytes32"
        }
      ],
      "stateMutability": "view",
      "type": "function"
    },
    {
      "inputs": [],
      "name": "renounceOwnership",
      "outputs": [],
      "stateMutability": "nonpayable",
      "type": "function"
    },
    {
      "inputs": [
        {
          "internalType": "address",
          "name": "from",
          "type": "address"
        },
        {
          "internalType": "address",
          "name": "to",
          "type": "address"
        },
        {
          "internalType": "uint256",
          "name": "tokenId",
          "type": "uint256"
        }
      ],
      "name": "safeTransferFrom",
      "outputs": [],
      "stateMutability": "nonpayable",
      "type": "function"
    },
    {
      "inputs": [
        {
          "internalType": "address",
          "name": "from",
          "type": "address"
        },
        {
          "internalType": "address",
          "name": "to",
          "type": "address"
        },
        {
          "internalType": "uint256",
          "name": "tokenId",
          "type": "uint256"
        },
        {
          "internalType": "bytes",
          "name": "data",
          "type": "bytes"
        }
      ],
      "name": "safeTransferFrom",
      "outputs": [],
      "stateMutability": "nonpayable",
      "type": "function"
    },
    {
      "inputs": [
        {
          "internalType": "address",
          "name": "operator",
          "type": "address"
        },
        {
          "internalType": "bool",
          "name": "approved",
          "type": "bool"
        }
      ],
      "name": "setApprovalForAll",
      "outputs": [],
      "stateMutability": "nonpayable",
      "type": "function"
    },
    {
      "inputs": [
        {
          "internalType": "bytes4",
          "name": "interfaceId",
          "type": "bytes4"
        }
      ],
      "name": "supportsInterface",
      "outputs": [
        {
          "internalType": "bool",
          "name": "",
          "type": "bool"
        }
      ],
      "stateMutability": "view",
      "type": "function"
    },
    {
      "inputs": [],
      "name": "symbol",
      "outputs": [
        {
          "internalType": "string",
          "name": "",
          "type": "string"
        }
      ],
      "stateMutability": "view",
      "type": "function"
    },
    {
      "inputs": [
        {
          "internalType": "uint256",
          "name": "index",
          "type": "uint256"
        }
      ],
      "name": "tokenByIndex",
      "outputs": [
        {
          "internalType": "uint256",
          "name": "",
          "type": "uint256"
        }
      ],
      "stateMutability": "view",
      "type": "function"
    },
    {
      "inputs": [
        {
          "internalType": "address",
          "name": "owner",
          "type": "address"
        },
        {
          "internalType": "uint256",
          "name": "index",
          "type": "uint256"
        }
      ],
      "name": "tokenOfOwnerByIndex",
      "outputs": [
        {
          "internalType": "uint256",
          "name": "",
          "type": "uint256"
        }
      ],
      "stateMutability": "view",
      "type": "function"
    },
    {
      "inputs": [
        {
          "internalType": "uint256",
          "name": "tokenId",
          "type": "uint256"
        }
      ],
      "name": "tokenURI",
      "outputs": [
        {
          "internalType": "string",
          "name": "",
          "type": "string"
        }
      ],
      "stateMutability": "view",
      "type": "function"
    },
    {
      "inputs": [],
      "name": "totalSupply",
      "outputs": [
        {
          "internalType": "uint256",
          "name": "",
          "type": "uint256"
        }
      ],
      "stateMutability": "view",
      "type": "function"
    },
    {
      "inputs": [
        {
          "internalType": "address",
          "name": "from",
          "type": "address"
        },
        {
          "internalType": "address",
          "name": "to",
          "type": "address"
        },
        {
          "internalType": "uint256",
          "name": "tokenId",
          "type": "uint256"
        }
      ],
      "name": "transferFrom",
      "outputs": [],
      "stateMutability": "nonpayable",
      "type": "function"
    },
    {
      "inputs": [
        {
          "internalType": "address",
          "name": "newOwner",
          "type": "address"
        }
      ],
      "name": "transferOwnership",
      "outputs": [],
      "stateMutability": "nonpayable",
      "type": "function"
    },
    {
      "inputs": [],
      "name": "verifier",
      "outputs": [
        {
          "internalType": "contract IMetapebbleDataVerifier",
          "name": "",
          "type": "address"
        }
      ],
      "stateMutability": "view",
      "type": "function"
    }
  ],
  "transactionHash": "0x5132d65a0f17dbaaf25deb1ca5e9fb225b1612604c29a453584ff37083bc1433",
  "args": [
    [
      30400000,
      30270960
    ],
    [
      120520000,
      120041443
    ],
    [
      1000,
      1000
    ],
    [
      1670934295,
      1670934295
    ],
    [
      1670935295,
      1673526295
    ],
    "0x539057424d2A1A0B7D7Af6F322f34569b967b272",
    "Multiple Place Pebble NFT",
    "MPT"
  ],
  "numDeployments": 1,
  "solcInputHash": "18a26cd5d63fe6faae120be289f29b34",
  "bytecode": "0x60806040523480156200001157600080fd5b506040516200359438038062003594833981016040819052620000349162000764565b8282828181620000443362000599565b60018055600262000056838262000936565b50600362000065828262000936565b5050600c80546001600160a01b0319166001600160a01b03959095169490941790935550508751895114905080156200009f575085518851145b620000e15760405162461bcd60e51b815260206004820152600d60248201526c696e76616c696420706c61636560981b60448201526064015b60405180910390fd5b60005b88518110156200058a57600087828151811062000105576200010562000a02565b6020026020010151116200015c5760405162461bcd60e51b815260206004820152601460248201527f696e76616c6964206d61782064697374616e63650000000000000000000000006044820152606401620000d8565b63055d4a7f1989828151811062000177576200017762000a02565b602002602001015112158015620001ae575063055d4a80898281518110620001a357620001a362000a02565b602002602001015113155b620001ea5760405162461bcd60e51b815260206004820152600b60248201526a1a5b9d985b1a59081b185d60aa1b6044820152606401620000d8565b630aba94ff1988828151811062000205576200020562000a02565b6020026020010151121580156200023c5750630aba950088828151811062000231576200023162000a02565b602002602001015113155b620002795760405162461bcd60e51b815260206004820152600c60248201526b696e76616c6964206c6f6e6760a01b6044820152606401620000d8565b8581815181106200028e576200028e62000a02565b6020026020010151858281518110620002ab57620002ab62000a02565b6020026020010151118015620002dc575042858281518110620002d257620002d262000a02565b6020026020010151115b6200031e5760405162461bcd60e51b81526020600482015260116024820152700696e76616c69642074696d657374616d7607c1b6044820152606401620000d8565b600089828151811062000335576200033562000a02565b602002602001015189838151811062000352576200035262000a02565b60200260200101518984815181106200036f576200036f62000a02565b60200260200101518985815181106200038c576200038c62000a02565b6020026020010151898681518110620003a957620003a962000a02565b6020026020010151604051602001620003e4959493929190948552602085019390935260408401919091526060830152608082015260a00190565b60408051601f1981840301815291815281516020928301206000818152600f909352912060020154909150156200044f5760405162461bcd60e51b815260206004820152600e60248201526d726570656174656420706c61636560901b6044820152606401620000d8565b6040518060a001604052808b84815181106200046f576200046f62000a02565b602002602001015181526020018a848151811062000491576200049162000a02565b60200260200101518152602001898481518110620004b357620004b362000a02565b60200260200101518152602001888481518110620004d557620004d562000a02565b60200260200101518152602001878481518110620004f757620004f762000a02565b6020908102919091018101519091526000838152600f82526040808220845181559284015160018085019190915590840151600284015560608401516003840155608090930151600490920191909155600e8054928301815590527fbb7b4a454dc3493923482f07822329ed19e8244eff582cc204f8554c3620c3fd015580620005818162000a18565b915050620000e4565b50505050505050505062000a40565b600080546001600160a01b038381166001600160a01b0319831681178455604051919092169283917f8be0079c531659141344cd1fd0a4f28419497f9722a3daafe3b4186f6b6457e09190a35050565b634e487b7160e01b600052604160045260246000fd5b604051601f8201601f191681016001600160401b03811182821017156200062a576200062a620005e9565b604052919050565b600082601f8301126200064457600080fd5b815160206001600160401b03821115620006625762000662620005e9565b8160051b62000673828201620005ff565b92835284810182019282810190878511156200068e57600080fd5b83870192505b84831015620006af5782518252918301919083019062000694565b979650505050505050565b80516001600160a01b0381168114620006d257600080fd5b919050565b600082601f830112620006e957600080fd5b81516001600160401b03811115620007055762000705620005e9565b60206200071b601f8301601f19168201620005ff565b82815285828487010111156200073057600080fd5b60005b838110156200075057858101830151828201840152820162000733565b506000928101909101919091529392505050565b600080600080600080600080610100898b0312156200078257600080fd5b88516001600160401b03808211156200079a57600080fd5b620007a88c838d0162000632565b995060208b0151915080821115620007bf57600080fd5b620007cd8c838d0162000632565b985060408b0151915080821115620007e457600080fd5b620007f28c838d0162000632565b975060608b01519150808211156200080957600080fd5b620008178c838d0162000632565b965060808b01519150808211156200082e57600080fd5b6200083c8c838d0162000632565b95506200084c60a08c01620006ba565b945060c08b01519150808211156200086357600080fd5b620008718c838d01620006d7565b935060e08b01519150808211156200088857600080fd5b50620008978b828c01620006d7565b9150509295985092959890939650565b600181811c90821680620008bc57607f821691505b602082108103620008dd57634e487b7160e01b600052602260045260246000fd5b50919050565b601f8211156200093157600081815260208120601f850160051c810160208610156200090c5750805b601f850160051c820191505b818110156200092d5782815560010162000918565b5050505b505050565b81516001600160401b03811115620009525762000952620005e9565b6200096a81620009638454620008a7565b84620008e3565b602080601f831160018114620009a25760008415620009895750858301515b600019600386901b1c1916600185901b1785556200092d565b600085815260208120601f198616915b82811015620009d357888601518255948401946001909101908401620009b2565b5085821015620009f25787850151600019600388901b60f8161c191681555b5050505050600190811b01905550565b634e487b7160e01b600052603260045260246000fd5b60006001820162000a3957634e487b7160e01b600052601160045260246000fd5b5060010190565b612b448062000a506000396000f3fe6080604052600436106101b75760003560e01c8063715018a6116100ec578063a22cb4651161008a578063c87b56dd11610064578063c87b56dd14610519578063cc3c0f0614610539578063e985e9c514610571578063f2fde38b146105ba57600080fd5b8063a22cb465146104c4578063a4353eb0146104e4578063b88d4fde146104f957600080fd5b80638da5cb5b116100c65780638da5cb5b1461045c57806395d89b411461047a57806399d32fc41461048f5780639da5d98b146104a457600080fd5b8063715018a6146103f1578063781d2e6a146104065780637d6fbd9e1461042657600080fd5b80632dfd452a116101595780634f6ccce7116101335780634f6ccce71461031f5780636352211e1461033f578063678f98b71461035f57806370a08231146103d157600080fd5b80632dfd452a146102cc5780632f745c59146102df57806342842e0e146102ff57600080fd5b8063095ea7b311610195578063095ea7b31461024b57806318160ddd1461026d57806323b872dd1461028c5780632b7ac3f3146102ac57600080fd5b806301ffc9a7146101bc57806306fdde03146101f1578063081812fc14610213575b600080fd5b3480156101c857600080fd5b506101dc6101d7366004612519565b6105da565b60405190151581526020015b60405180910390f35b3480156101fd57600080fd5b50610206610636565b6040516101e891906125a4565b34801561021f57600080fd5b5061023361022e3660046125b7565b6106c8565b6040516001600160a01b0390911681526020016101e8565b34801561025757600080fd5b5061026b6102663660046125e5565b6106ef565b005b34801561027957600080fd5b50600a545b6040519081526020016101e8565b34801561029857600080fd5b5061026b6102a7366004612611565b610825565b3480156102b857600080fd5b50600c54610233906001600160a01b031681565b61026b6102da36600461272c565b6108ac565b3480156102eb57600080fd5b5061027e6102fa3660046125e5565b610a30565b34801561030b57600080fd5b5061026b61031a366004612611565b610ad8565b34801561032b57600080fd5b5061027e61033a3660046125b7565b610af3565b34801561034b57600080fd5b5061023361035a3660046125b7565b610b97565b34801561036b57600080fd5b506103a961037a3660046125b7565b600f60205260009081526040902080546001820154600283015460038401546004909401549293919290919085565b604080519586526020860194909452928401919091526060830152608082015260a0016101e8565b3480156103dd57600080fd5b5061027e6103ec3660046127a3565b610bfc565b3480156103fd57600080fd5b5061026b610c96565b34801561041257600080fd5b5061026b6104213660046127c0565b610caa565b34801561043257600080fd5b506102336104413660046125b7565b6000908152600d60205260409020546001600160a01b031690565b34801561046857600080fd5b506000546001600160a01b0316610233565b34801561048657600080fd5b50610206610fac565b34801561049b57600080fd5b5061027e610fbb565b3480156104b057600080fd5b5061027e6104bf3660046125b7565b61114d565b3480156104d057600080fd5b5061026b6104df366004612809565b61116e565b3480156104f057600080fd5b50600e5461027e565b34801561050557600080fd5b5061026b610514366004612842565b61117d565b34801561052557600080fd5b506102066105343660046125b7565b61120b565b34801561054557600080fd5b506101dc6105543660046125b7565b6000908152600d60205260409020546001600160a01b0316151590565b34801561057d57600080fd5b506101dc61058c3660046128ae565b6001600160a01b03918216600090815260076020908152604080832093909416825291909152205460ff1690565b3480156105c657600080fd5b5061026b6105d53660046127a3565b61127f565b60007fffffffff0000000000000000000000000000000000000000000000000000000082167f780e9d6300000000000000000000000000000000000000000000000000000000148061063057506106308261130f565b92915050565b606060028054610645906128dc565b80601f0160208091040260200160405190810160405280929190818152602001828054610671906128dc565b80156106be5780601f10610693576101008083540402835291602001916106be565b820191906000526020600020905b8154815290600101906020018083116106a157829003601f168201915b5050505050905090565b60006106d3826113f2565b506000908152600660205260409020546001600160a01b031690565b60006106fa82610b97565b9050806001600160a01b0316836001600160a01b0316036107885760405162461bcd60e51b815260206004820152602160248201527f4552433732313a20617070726f76616c20746f2063757272656e74206f776e6560448201527f720000000000000000000000000000000000000000000000000000000000000060648201526084015b60405180910390fd5b336001600160a01b03821614806107a457506107a4813361058c565b6108165760405162461bcd60e51b815260206004820152603d60248201527f4552433732313a20617070726f76652063616c6c6572206973206e6f7420746f60448201527f6b656e206f776e6572206f7220617070726f76656420666f7220616c6c000000606482015260840161077f565b6108208383611456565b505050565b61082f33826114dc565b6108a15760405162461bcd60e51b815260206004820152602d60248201527f4552433732313a2063616c6c6572206973206e6f7420746f6b656e206f776e6560448201527f72206f7220617070726f76656400000000000000000000000000000000000000606482015260840161077f565b61082083838361155b565b6108b46117c7565b6000848152600d60205260409020546001600160a01b0316156109195760405162461bcd60e51b815260206004820152600f60248201527f616c726561647920636c61696d65640000000000000000000000000000000000604482015260640161077f565b6040805160208082018a9052818301899052606082018890526080820186905260a08083018690528351808403909101815260c083018085528151918301919091206000908152600f90925290839020610160830190935282548152600183015460e083015260028301546101008301819052600384015461012084015260049093015461014090920191909152906109f45760405162461bcd60e51b815260206004820152601060248201527f706c616365206e6f742065786973747300000000000000000000000000000000604482015260640161077f565b610a08601054338a8a8a8a8a8a8a34611820565b60108054906000610a188361295e565b919050555050610a2760018055565b50505050505050565b6000610a3b83610bfc565b8210610aaf5760405162461bcd60e51b815260206004820152602b60248201527f455243373231456e756d657261626c653a206f776e657220696e646578206f7560448201527f74206f6620626f756e6473000000000000000000000000000000000000000000606482015260840161077f565b506001600160a01b03919091166000908152600860209081526040808320938352929052205490565b6108208383836040518060200160405280600081525061117d565b6000610afe600a5490565b8210610b725760405162461bcd60e51b815260206004820152602c60248201527f455243373231456e756d657261626c653a20676c6f62616c20696e646578206f60448201527f7574206f6620626f756e64730000000000000000000000000000000000000000606482015260840161077f565b600a8281548110610b8557610b85612996565b90600052602060002001549050919050565b6000818152600460205260408120546001600160a01b0316806106305760405162461bcd60e51b815260206004820152601860248201527f4552433732313a20696e76616c696420746f6b656e2049440000000000000000604482015260640161077f565b60006001600160a01b038216610c7a5760405162461bcd60e51b815260206004820152602960248201527f4552433732313a2061646472657373207a65726f206973206e6f74206120766160448201527f6c6964206f776e65720000000000000000000000000000000000000000000000606482015260840161077f565b506001600160a01b031660009081526005602052604090205490565b610c9e6119c7565b610ca86000611a21565b565b610cb26119c7565b60008311610d025760405162461bcd60e51b815260206004820152601460248201527f696e76616c6964206d61782064697374616e6365000000000000000000000000604482015260640161077f565b8181118015610d1057504281115b610d5c5760405162461bcd60e51b815260206004820152601160248201527f696e76616c69642074696d657374616d70000000000000000000000000000000604482015260640161077f565b7ffffffffffffffffffffffffffffffffffffffffffffffffffffffffffaa2b5808512158015610d90575063055d4a808513155b610ddc5760405162461bcd60e51b815260206004820152600b60248201527f696e76616c6964206c6174000000000000000000000000000000000000000000604482015260640161077f565b7ffffffffffffffffffffffffffffffffffffffffffffffffffffffffff5456b008412158015610e105750630aba95008413155b610e5c5760405162461bcd60e51b815260206004820152600c60248201527f696e76616c6964206c6f6e670000000000000000000000000000000000000000604482015260640161077f565b6040805160208101879052908101859052606081018490526080810183905260a0810182905260009060c001604080517fffffffffffffffffffffffffffffffffffffffffffffffffffffffffffffffe081840301815291815281516020928301206000818152600f90935291206002015490915015610f1e5760405162461bcd60e51b815260206004820152600e60248201527f726570656174656420706c616365000000000000000000000000000000000000604482015260640161077f565b6040805160a081018252968752602080880196875287820195865260608801948552608088019384526000838152600f909152908120965187559451600180880191909155935160028701559151600386015551600490940193909355600e805491820181559091527fbb7b4a454dc3493923482f07822329ed19e8244eff582cc204f8554c3620c3fd0155565b606060038054610645906128dc565b600c54604080517fb17644c900000000000000000000000000000000000000000000000000000000815290516000926001600160a01b03169163b17644c99160048083019260209291908290030181865afa15801561101e573d6000803e3d6000fd5b505050506040513d601f19601f8201168201806040525081019061104291906129c5565b6040517f3245b6220000000000000000000000000000000000000000000000000000000081523060048201526001600160a01b039190911690633245b62290602401602060405180830381865afa1580156110a1573d6000803e3d6000fd5b505050506040513d601f19601f820116820180604052508101906110c591906129c5565b6040517f6fcca69b0000000000000000000000000000000000000000000000000000000081523060048201526001600160a01b039190911690636fcca69b90602401602060405180830381865afa158015611124573d6000803e3d6000fd5b505050506040513d601f19601f8201168201806040525081019061114891906129e2565b905090565b600e818154811061115d57600080fd5b600091825260209091200154905081565b611179338383611a89565b5050565b61118733836114dc565b6111f95760405162461bcd60e51b815260206004820152602d60248201527f4552433732313a2063616c6c6572206973206e6f7420746f6b656e206f776e6560448201527f72206f7220617070726f76656400000000000000000000000000000000000000606482015260840161077f565b61120584848484611b75565b50505050565b6060611216826113f2565b600061122d60408051602081019091526000815290565b9050600081511161124d5760405180602001604052806000815250611278565b8061125784611bfe565b6040516020016112689291906129fb565b6040516020818303038152906040525b9392505050565b6112876119c7565b6001600160a01b0381166113035760405162461bcd60e51b815260206004820152602660248201527f4f776e61626c653a206e6577206f776e657220697320746865207a65726f206160448201527f6464726573730000000000000000000000000000000000000000000000000000606482015260840161077f565b61130c81611a21565b50565b60007fffffffff0000000000000000000000000000000000000000000000000000000082167f80ac58cd0000000000000000000000000000000000000000000000000000000014806113a257507fffffffff0000000000000000000000000000000000000000000000000000000082167f5b5e139f00000000000000000000000000000000000000000000000000000000145b8061063057507f01ffc9a7000000000000000000000000000000000000000000000000000000007fffffffff00000000000000000000000000000000000000000000000000000000831614610630565b6000818152600460205260409020546001600160a01b031661130c5760405162461bcd60e51b815260206004820152601860248201527f4552433732313a20696e76616c696420746f6b656e2049440000000000000000604482015260640161077f565b600081815260066020526040902080547fffffffffffffffffffffffff0000000000000000000000000000000000000000166001600160a01b03841690811790915581906114a382610b97565b6001600160a01b03167f8c5be1e5ebec7d5bd14f71427d1e84f3dd0314c0f7b2291e5b200ac8c7c3b92560405160405180910390a45050565b6000806114e883610b97565b9050806001600160a01b0316846001600160a01b0316148061152f57506001600160a01b0380821660009081526007602090815260408083209388168352929052205460ff165b806115535750836001600160a01b0316611548846106c8565b6001600160a01b0316145b949350505050565b826001600160a01b031661156e82610b97565b6001600160a01b0316146115ea5760405162461bcd60e51b815260206004820152602560248201527f4552433732313a207472616e736665722066726f6d20696e636f72726563742060448201527f6f776e6572000000000000000000000000000000000000000000000000000000606482015260840161077f565b6001600160a01b0382166116655760405162461bcd60e51b8152602060048201526024808201527f4552433732313a207472616e7366657220746f20746865207a65726f2061646460448201527f7265737300000000000000000000000000000000000000000000000000000000606482015260840161077f565b6116728383836001611cbc565b826001600160a01b031661168582610b97565b6001600160a01b0316146117015760405162461bcd60e51b815260206004820152602560248201527f4552433732313a207472616e736665722066726f6d20696e636f72726563742060448201527f6f776e6572000000000000000000000000000000000000000000000000000000606482015260840161077f565b600081815260066020908152604080832080547fffffffffffffffffffffffff00000000000000000000000000000000000000009081169091556001600160a01b038781168086526005855283862080547fffffffffffffffffffffffffffffffffffffffffffffffffffffffffffffffff01905590871680865283862080546001019055868652600490945282852080549092168417909155905184937fddf252ad1be2c89b69c2b068fc378daa952ba7f163c4a11628f55a4df523b3ef91a4505050565b6002600154036118195760405162461bcd60e51b815260206004820152601f60248201527f5265656e7472616e637947756172643a207265656e7472616e742063616c6c00604482015260640161077f565b6002600155565b600c546040517fb499ffd10000000000000000000000000000000000000000000000000000000081526001600160a01b038b81166004830152602482018b9052604482018a9052606482018990526084820188905260a4820187905260c48201869052600092169063b499ffd19060e401602060405180830381865afa1580156118ae573d6000803e3d6000fd5b505050506040513d601f19601f820116820180604052508101906118d291906129e2565b600c546040517f258ae5820000000000000000000000000000000000000000000000000000000081529192506001600160a01b03169063258ae5829084906119209085908890600401612a2a565b60206040518083038185885af115801561193e573d6000803e3d6000fd5b50505050506040513d601f19601f820116820180604052508101906119639190612a43565b6119af5760405162461bcd60e51b815260206004820152601160248201527f696e76616c6964207369676e6174757265000000000000000000000000000000604482015260640161077f565b6119ba8b8b88611e04565b5050505050505050505050565b6000546001600160a01b03163314610ca85760405162461bcd60e51b815260206004820181905260248201527f4f776e61626c653a2063616c6c6572206973206e6f7420746865206f776e6572604482015260640161077f565b600080546001600160a01b038381167fffffffffffffffffffffffff0000000000000000000000000000000000000000831681178455604051919092169283917f8be0079c531659141344cd1fd0a4f28419497f9722a3daafe3b4186f6b6457e09190a35050565b816001600160a01b0316836001600160a01b031603611aea5760405162461bcd60e51b815260206004820152601960248201527f4552433732313a20617070726f766520746f2063616c6c657200000000000000604482015260640161077f565b6001600160a01b0383811660008181526007602090815260408083209487168084529482529182902080547fffffffffffffffffffffffffffffffffffffffffffffffffffffffffffffff001686151590811790915591519182527f17307eab39ab6107e8899845ad3d59bd9653f200f220920489ca2b5937696c31910160405180910390a3505050565b611b8084848461155b565b611b8c84848484611e81565b6112055760405162461bcd60e51b815260206004820152603260248201527f4552433732313a207472616e7366657220746f206e6f6e20455243373231526560448201527f63656976657220696d706c656d656e7465720000000000000000000000000000606482015260840161077f565b60606000611c0b83612040565b600101905060008167ffffffffffffffff811115611c2b57611c2b612652565b6040519080825280601f01601f191660200182016040528015611c55576020820181803683370190505b5090508181016020015b7fffffffffffffffffffffffffffffffffffffffffffffffffffffffffffffffff017f3031323334353637383961626364656600000000000000000000000000000000600a86061a8153600a8504945084611c5f57509392505050565b611cc884848484612122565b6001811115611d3f5760405162461bcd60e51b815260206004820152603560248201527f455243373231456e756d657261626c653a20636f6e736563757469766520747260448201527f616e7366657273206e6f7420737570706f727465640000000000000000000000606482015260840161077f565b816001600160a01b038516611d9b57611d9681600a80546000838152600b60205260408120829055600182018355919091527fc65a7bb8d6351c1cf70c95a316cc6a92839c986682d98bc35f958f4883f9d2a80155565b611dbe565b836001600160a01b0316856001600160a01b031614611dbe57611dbe85826121aa565b6001600160a01b038416611dda57611dd581612247565b611dfd565b846001600160a01b0316846001600160a01b031614611dfd57611dfd84826122f6565b5050505050565b611e0e828461233a565b6000818152600d602052604080822080547fffffffffffffffffffffffff0000000000000000000000000000000000000000166001600160a01b038616908117909155905185928492917f9b01158d4bc10c112ba32b5240cda97e49e2eb86021f03f6a0f460342ac4dfda9190a4505050565b60006001600160a01b0384163b15612035576040517f150b7a020000000000000000000000000000000000000000000000000000000081526001600160a01b0385169063150b7a0290611ede903390899088908890600401612a60565b6020604051808303816000875af1925050508015611f37575060408051601f3d9081017fffffffffffffffffffffffffffffffffffffffffffffffffffffffffffffffe0168201909252611f3491810190612a9c565b60015b611fea573d808015611f65576040519150601f19603f3d011682016040523d82523d6000602084013e611f6a565b606091505b508051600003611fe25760405162461bcd60e51b815260206004820152603260248201527f4552433732313a207472616e7366657220746f206e6f6e20455243373231526560448201527f63656976657220696d706c656d656e7465720000000000000000000000000000606482015260840161077f565b805181602001fd5b7fffffffff00000000000000000000000000000000000000000000000000000000167f150b7a0200000000000000000000000000000000000000000000000000000000149050611553565b506001949350505050565b6000807a184f03e93ff9f4daa797ed6e38ed64bf6a1f0100000000000000008310612089577a184f03e93ff9f4daa797ed6e38ed64bf6a1f010000000000000000830492506040015b6d04ee2d6d415b85acef810000000083106120b5576d04ee2d6d415b85acef8100000000830492506020015b662386f26fc1000083106120d357662386f26fc10000830492506010015b6305f5e10083106120eb576305f5e100830492506008015b61271083106120ff57612710830492506004015b60648310612111576064830492506002015b600a83106106305760010192915050565b6001811115611205576001600160a01b03841615612168576001600160a01b03841660009081526005602052604081208054839290612162908490612ab9565b90915550505b6001600160a01b03831615611205576001600160a01b0383166000908152600560205260408120805483929061219f908490612acc565b909155505050505050565b600060016121b784610bfc565b6121c19190612ab9565b600083815260096020526040902054909150808214612214576001600160a01b03841660009081526008602090815260408083208584528252808320548484528184208190558352600990915290208190555b5060009182526009602090815260408084208490556001600160a01b039094168352600881528383209183525290812055565b600a5460009061225990600190612ab9565b6000838152600b6020526040812054600a805493945090928490811061228157612281612996565b9060005260206000200154905080600a83815481106122a2576122a2612996565b6000918252602080832090910192909255828152600b9091526040808220849055858252812055600a8054806122da576122da612adf565b6001900381819060005260206000200160009055905550505050565b600061230183610bfc565b6001600160a01b039093166000908152600860209081526040808320868452825280832085905593825260099052919091209190915550565b6001600160a01b0382166123905760405162461bcd60e51b815260206004820181905260248201527f4552433732313a206d696e7420746f20746865207a65726f2061646472657373604482015260640161077f565b6000818152600460205260409020546001600160a01b0316156123f55760405162461bcd60e51b815260206004820152601c60248201527f4552433732313a20746f6b656e20616c7265616479206d696e74656400000000604482015260640161077f565b612403600083836001611cbc565b6000818152600460205260409020546001600160a01b0316156124685760405162461bcd60e51b815260206004820152601c60248201527f4552433732313a20746f6b656e20616c7265616479206d696e74656400000000604482015260640161077f565b6001600160a01b038216600081815260056020908152604080832080546001019055848352600490915280822080547fffffffffffffffffffffffff0000000000000000000000000000000000000000168417905551839291907fddf252ad1be2c89b69c2b068fc378daa952ba7f163c4a11628f55a4df523b3ef908290a45050565b7fffffffff000000000000000000000000000000000000000000000000000000008116811461130c57600080fd5b60006020828403121561252b57600080fd5b8135611278816124eb565b60005b83811015612551578181015183820152602001612539565b50506000910152565b60008151808452612572816020860160208601612536565b601f017fffffffffffffffffffffffffffffffffffffffffffffffffffffffffffffffe0169290920160200192915050565b602081526000611278602083018461255a565b6000602082840312156125c957600080fd5b5035919050565b6001600160a01b038116811461130c57600080fd5b600080604083850312156125f857600080fd5b8235612603816125d0565b946020939093013593505050565b60008060006060848603121561262657600080fd5b8335612631816125d0565b92506020840135612641816125d0565b929592945050506040919091013590565b7f4e487b7100000000000000000000000000000000000000000000000000000000600052604160045260246000fd5b600082601f83011261269257600080fd5b813567ffffffffffffffff808211156126ad576126ad612652565b604051601f83017fffffffffffffffffffffffffffffffffffffffffffffffffffffffffffffffe0908116603f011681019082821181831017156126f3576126f3612652565b8160405283815286602085880101111561270c57600080fd5b836020870160208301376000602085830101528094505050505092915050565b600080600080600080600060e0888a03121561274757600080fd5b873596506020880135955060408801359450606088013593506080880135925060a0880135915060c088013567ffffffffffffffff81111561278857600080fd5b6127948a828b01612681565b91505092959891949750929550565b6000602082840312156127b557600080fd5b8135611278816125d0565b600080600080600060a086880312156127d857600080fd5b505083359560208501359550604085013594606081013594506080013592509050565b801515811461130c57600080fd5b6000806040838503121561281c57600080fd5b8235612827816125d0565b91506020830135612837816127fb565b809150509250929050565b6000806000806080858703121561285857600080fd5b8435612863816125d0565b93506020850135612873816125d0565b925060408501359150606085013567ffffffffffffffff81111561289657600080fd5b6128a287828801612681565b91505092959194509250565b600080604083850312156128c157600080fd5b82356128cc816125d0565b91506020830135612837816125d0565b600181811c908216806128f057607f821691505b602082108103612929577f4e487b7100000000000000000000000000000000000000000000000000000000600052602260045260246000fd5b50919050565b7f4e487b7100000000000000000000000000000000000000000000000000000000600052601160045260246000fd5b60007fffffffffffffffffffffffffffffffffffffffffffffffffffffffffffffffff820361298f5761298f61292f565b5060010190565b7f4e487b7100000000000000000000000000000000000000000000000000000000600052603260045260246000fd5b6000602082840312156129d757600080fd5b8151611278816125d0565b6000602082840312156129f457600080fd5b5051919050565b60008351612a0d818460208801612536565b835190830190612a21818360208801612536565b01949350505050565b828152604060208201526000611553604083018461255a565b600060208284031215612a5557600080fd5b8151611278816127fb565b60006001600160a01b03808716835280861660208401525083604083015260806060830152612a92608083018461255a565b9695505050505050565b600060208284031215612aae57600080fd5b8151611278816124eb565b818103818111156106305761063061292f565b808201808211156106305761063061292f565b7f4e487b7100000000000000000000000000000000000000000000000000000000600052603160045260246000fdfea2646970667358221220e45087aa111f2f9c52230522419cc1a85a26fa5b6c9c35e559d79d579976774a64736f6c63430008110033",
  "devdoc": {
    "kind": "dev",
    "methods": {
      "approve(address,uint256)": {
        "details": "See {IERC721-approve}."
      },
      "balanceOf(address)": {
        "details": "See {IERC721-balanceOf}."
      },
      "getApproved(uint256)": {
        "details": "See {IERC721-getApproved}."
      },
      "isApprovedForAll(address,address)": {
        "details": "See {IERC721-isApprovedForAll}."
      },
      "name()": {
        "details": "See {IERC721Metadata-name}."
      },
      "owner()": {
        "details": "Returns the address of the current owner."
      },
      "ownerOf(uint256)": {
        "details": "See {IERC721-ownerOf}."
      },
      "renounceOwnership()": {
        "details": "Leaves the contract without owner. It will not be possible to call `onlyOwner` functions anymore. Can only be called by the current owner. NOTE: Renouncing ownership will leave the contract without an owner, thereby removing any functionality that is only available to the owner."
      },
      "safeTransferFrom(address,address,uint256)": {
        "details": "See {IERC721-safeTransferFrom}."
      },
      "safeTransferFrom(address,address,uint256,bytes)": {
        "details": "See {IERC721-safeTransferFrom}."
      },
      "setApprovalForAll(address,bool)": {
        "details": "See {IERC721-setApprovalForAll}."
      },
      "supportsInterface(bytes4)": {
        "details": "See {IERC165-supportsInterface}."
      },
      "symbol()": {
        "details": "See {IERC721Metadata-symbol}."
      },
      "tokenByIndex(uint256)": {
        "details": "See {IERC721Enumerable-tokenByIndex}."
      },
      "tokenOfOwnerByIndex(address,uint256)": {
        "details": "See {IERC721Enumerable-tokenOfOwnerByIndex}."
      },
      "tokenURI(uint256)": {
        "details": "See {IERC721Metadata-tokenURI}."
      },
      "totalSupply()": {
        "details": "See {IERC721Enumerable-totalSupply}."
      },
      "transferFrom(address,address,uint256)": {
        "details": "See {IERC721-transferFrom}."
      },
      "transferOwnership(address)": {
        "details": "Transfers ownership of the contract to a new account (`newOwner`). Can only be called by the current owner."
      }
    },
    "version": 1
  },
  "userdoc": {
    "kind": "user",
    "methods": {},
    "version": 1
  },
  "storageLayout": {
    "storage": [
      {
        "astId": 7,
        "contract": "contracts/examples/PebbleMultipleLocationNFT.sol:PebbleMultipleLocationNFT",
        "label": "_owner",
        "offset": 0,
        "slot": "0",
        "type": "t_address"
      },
      {
        "astId": 292,
        "contract": "contracts/examples/PebbleMultipleLocationNFT.sol:PebbleMultipleLocationNFT",
        "label": "_status",
        "offset": 0,
        "slot": "1",
        "type": "t_uint256"
      },
      {
        "astId": 1051,
        "contract": "contracts/examples/PebbleMultipleLocationNFT.sol:PebbleMultipleLocationNFT",
        "label": "_name",
        "offset": 0,
        "slot": "2",
        "type": "t_string_storage"
      },
      {
        "astId": 1053,
        "contract": "contracts/examples/PebbleMultipleLocationNFT.sol:PebbleMultipleLocationNFT",
        "label": "_symbol",
        "offset": 0,
        "slot": "3",
        "type": "t_string_storage"
      },
      {
        "astId": 1057,
        "contract": "contracts/examples/PebbleMultipleLocationNFT.sol:PebbleMultipleLocationNFT",
        "label": "_owners",
        "offset": 0,
        "slot": "4",
        "type": "t_mapping(t_uint256,t_address)"
      },
      {
        "astId": 1061,
        "contract": "contracts/examples/PebbleMultipleLocationNFT.sol:PebbleMultipleLocationNFT",
        "label": "_balances",
        "offset": 0,
        "slot": "5",
        "type": "t_mapping(t_address,t_uint256)"
      },
      {
        "astId": 1065,
        "contract": "contracts/examples/PebbleMultipleLocationNFT.sol:PebbleMultipleLocationNFT",
        "label": "_tokenApprovals",
        "offset": 0,
        "slot": "6",
        "type": "t_mapping(t_uint256,t_address)"
      },
      {
        "astId": 1071,
        "contract": "contracts/examples/PebbleMultipleLocationNFT.sol:PebbleMultipleLocationNFT",
        "label": "_operatorApprovals",
        "offset": 0,
        "slot": "7",
        "type": "t_mapping(t_address,t_mapping(t_address,t_bool))"
      },
      {
        "astId": 2119,
        "contract": "contracts/examples/PebbleMultipleLocationNFT.sol:PebbleMultipleLocationNFT",
        "label": "_ownedTokens",
        "offset": 0,
        "slot": "8",
        "type": "t_mapping(t_address,t_mapping(t_uint256,t_uint256))"
      },
      {
        "astId": 2123,
        "contract": "contracts/examples/PebbleMultipleLocationNFT.sol:PebbleMultipleLocationNFT",
        "label": "_ownedTokensIndex",
        "offset": 0,
        "slot": "9",
        "type": "t_mapping(t_uint256,t_uint256)"
      },
      {
        "astId": 2126,
        "contract": "contracts/examples/PebbleMultipleLocationNFT.sol:PebbleMultipleLocationNFT",
        "label": "_allTokens",
        "offset": 0,
        "slot": "10",
        "type": "t_array(t_uint256)dyn_storage"
      },
      {
        "astId": 2130,
        "contract": "contracts/examples/PebbleMultipleLocationNFT.sol:PebbleMultipleLocationNFT",
        "label": "_allTokensIndex",
        "offset": 0,
        "slot": "11",
        "type": "t_mapping(t_uint256,t_uint256)"
      },
      {
        "astId": 4768,
        "contract": "contracts/examples/PebbleMultipleLocationNFT.sol:PebbleMultipleLocationNFT",
        "label": "verifier",
        "offset": 0,
        "slot": "12",
        "type": "t_contract(IMetapebbleDataVerifier)6222"
      },
      {
        "astId": 4792,
        "contract": "contracts/examples/PebbleMultipleLocationNFT.sol:PebbleMultipleLocationNFT",
        "label": "_claimedDevices",
        "offset": 0,
        "slot": "13",
        "type": "t_mapping(t_bytes32,t_address)"
      },
      {
        "astId": 5730,
        "contract": "contracts/examples/PebbleMultipleLocationNFT.sol:PebbleMultipleLocationNFT",
        "label": "placesHash",
        "offset": 0,
        "slot": "14",
        "type": "t_array(t_bytes32)dyn_storage"
      },
      {
        "astId": 5735,
        "contract": "contracts/examples/PebbleMultipleLocationNFT.sol:PebbleMultipleLocationNFT",
        "label": "places",
        "offset": 0,
        "slot": "15",
        "type": "t_mapping(t_bytes32,t_struct(Place)5724_storage)"
      },
      {
        "astId": 5737,
        "contract": "contracts/examples/PebbleMultipleLocationNFT.sol:PebbleMultipleLocationNFT",
        "label": "tokenId",
        "offset": 0,
        "slot": "16",
        "type": "t_uint256"
      }
    ],
    "types": {
      "t_address": {
        "encoding": "inplace",
        "label": "address",
        "numberOfBytes": "20"
      },
      "t_array(t_bytes32)dyn_storage": {
        "base": "t_bytes32",
        "encoding": "dynamic_array",
        "label": "bytes32[]",
        "numberOfBytes": "32"
      },
      "t_array(t_uint256)dyn_storage": {
        "base": "t_uint256",
        "encoding": "dynamic_array",
        "label": "uint256[]",
        "numberOfBytes": "32"
      },
      "t_bool": {
        "encoding": "inplace",
        "label": "bool",
        "numberOfBytes": "1"
      },
      "t_bytes32": {
        "encoding": "inplace",
        "label": "bytes32",
        "numberOfBytes": "32"
      },
      "t_contract(IMetapebbleDataVerifier)6222": {
        "encoding": "inplace",
        "label": "contract IMetapebbleDataVerifier",
        "numberOfBytes": "20"
      },
      "t_int256": {
        "encoding": "inplace",
        "label": "int256",
        "numberOfBytes": "32"
      },
      "t_mapping(t_address,t_bool)": {
        "encoding": "mapping",
        "key": "t_address",
        "label": "mapping(address => bool)",
        "numberOfBytes": "32",
        "value": "t_bool"
      },
      "t_mapping(t_address,t_mapping(t_address,t_bool))": {
        "encoding": "mapping",
        "key": "t_address",
        "label": "mapping(address => mapping(address => bool))",
        "numberOfBytes": "32",
        "value": "t_mapping(t_address,t_bool)"
      },
      "t_mapping(t_address,t_mapping(t_uint256,t_uint256))": {
        "encoding": "mapping",
        "key": "t_address",
        "label": "mapping(address => mapping(uint256 => uint256))",
        "numberOfBytes": "32",
        "value": "t_mapping(t_uint256,t_uint256)"
      },
      "t_mapping(t_address,t_uint256)": {
        "encoding": "mapping",
        "key": "t_address",
        "label": "mapping(address => uint256)",
        "numberOfBytes": "32",
        "value": "t_uint256"
      },
      "t_mapping(t_bytes32,t_address)": {
        "encoding": "mapping",
        "key": "t_bytes32",
        "label": "mapping(bytes32 => address)",
        "numberOfBytes": "32",
        "value": "t_address"
      },
      "t_mapping(t_bytes32,t_struct(Place)5724_storage)": {
        "encoding": "mapping",
        "key": "t_bytes32",
        "label": "mapping(bytes32 => struct PebbleMultipleLocationNFT.Place)",
        "numberOfBytes": "32",
        "value": "t_struct(Place)5724_storage"
      },
      "t_mapping(t_uint256,t_address)": {
        "encoding": "mapping",
        "key": "t_uint256",
        "label": "mapping(uint256 => address)",
        "numberOfBytes": "32",
        "value": "t_address"
      },
      "t_mapping(t_uint256,t_uint256)": {
        "encoding": "mapping",
        "key": "t_uint256",
        "label": "mapping(uint256 => uint256)",
        "numberOfBytes": "32",
        "value": "t_uint256"
      },
      "t_string_storage": {
        "encoding": "bytes",
        "label": "string",
        "numberOfBytes": "32"
      },
      "t_struct(Place)5724_storage": {
        "encoding": "inplace",
        "label": "struct PebbleMultipleLocationNFT.Place",
        "members": [
          {
            "astId": 5715,
            "contract": "contracts/examples/PebbleMultipleLocationNFT.sol:PebbleMultipleLocationNFT",
            "label": "lat",
            "offset": 0,
            "slot": "0",
            "type": "t_int256"
          },
          {
            "astId": 5717,
            "contract": "contracts/examples/PebbleMultipleLocationNFT.sol:PebbleMultipleLocationNFT",
            "label": "long",
            "offset": 0,
            "slot": "1",
            "type": "t_int256"
          },
          {
            "astId": 5719,
            "contract": "contracts/examples/PebbleMultipleLocationNFT.sol:PebbleMultipleLocationNFT",
            "label": "maxDistance",
            "offset": 0,
            "slot": "2",
            "type": "t_uint256"
          },
          {
            "astId": 5721,
            "contract": "contracts/examples/PebbleMultipleLocationNFT.sol:PebbleMultipleLocationNFT",
            "label": "startTimestamp",
            "offset": 0,
            "slot": "3",
            "type": "t_uint256"
          },
          {
            "astId": 5723,
            "contract": "contracts/examples/PebbleMultipleLocationNFT.sol:PebbleMultipleLocationNFT",
            "label": "endTimestamp",
            "offset": 0,
            "slot": "4",
            "type": "t_uint256"
          }
        ],
        "numberOfBytes": "160"
      },
      "t_uint256": {
        "encoding": "inplace",
        "label": "uint256",
        "numberOfBytes": "32"
      }
    }
  }
}