{
  "address": "0xbe050178c28885a0204fcfaC2A1039C34164f466",
  "abi": [
    {
      "inputs": [
        {
          "internalType": "int256[]",
          "name": "_lats",
          "type": "int256[]"
        },
        {
          "internalType": "int256[]",
          "name": "_longs",
          "type": "int256[]"
        },
        {
          "internalType": "uint256[]",
          "name": "_maxDistances",
          "type": "uint256[]"
        },
        {
          "internalType": "uint256[]",
          "name": "_startTimestamps",
          "type": "uint256[]"
        },
        {
          "internalType": "uint256[]",
          "name": "_endTimestamps",
          "type": "uint256[]"
        },
        {
          "internalType": "address",
          "name": "_verifier",
          "type": "address"
        },
        {
          "internalType": "string",
          "name": "_name",
          "type": "string"
        },
        {
          "internalType": "string",
          "name": "_symbol",
          "type": "string"
        }
      ],
      "stateMutability": "nonpayable",
      "type": "constructor"
    },
    {
      "anonymous": false,
      "inputs": [
        {
          "indexed": true,
          "internalType": "address",
          "name": "owner",
          "type": "address"
        },
        {
          "indexed": true,
          "internalType": "address",
          "name": "approved",
          "type": "address"
        },
        {
          "indexed": true,
          "internalType": "uint256",
          "name": "tokenId",
          "type": "uint256"
        }
      ],
      "name": "Approval",
      "type": "event"
    },
    {
      "anonymous": false,
      "inputs": [
        {
          "indexed": true,
          "internalType": "address",
          "name": "owner",
          "type": "address"
        },
        {
          "indexed": true,
          "internalType": "address",
          "name": "operator",
          "type": "address"
        },
        {
          "indexed": false,
          "internalType": "bool",
          "name": "approved",
          "type": "bool"
        }
      ],
      "name": "ApprovalForAll",
      "type": "event"
    },
    {
      "anonymous": false,
      "inputs": [
        {
          "indexed": true,
          "internalType": "address",
          "name": "holder",
          "type": "address"
        },
        {
          "indexed": true,
          "internalType": "bytes32",
          "name": "deviceHash",
          "type": "bytes32"
        },
        {
          "indexed": true,
          "internalType": "uint256",
          "name": "tokenId",
          "type": "uint256"
        }
      ],
      "name": "Claimed",
      "type": "event"
    },
    {
      "anonymous": false,
      "inputs": [
        {
          "indexed": true,
          "internalType": "address",
          "name": "previousOwner",
          "type": "address"
        },
        {
          "indexed": true,
          "internalType": "address",
          "name": "newOwner",
          "type": "address"
        }
      ],
      "name": "OwnershipTransferred",
      "type": "event"
    },
    {
      "anonymous": false,
      "inputs": [
        {
          "indexed": false,
          "internalType": "int256",
          "name": "lat",
          "type": "int256"
        },
        {
          "indexed": false,
          "internalType": "int256",
          "name": "long",
          "type": "int256"
        },
        {
          "indexed": false,
          "internalType": "uint256",
          "name": "maxDistance",
          "type": "uint256"
        },
        {
          "indexed": false,
          "internalType": "uint256",
          "name": "startTimestamp",
          "type": "uint256"
        },
        {
          "indexed": false,
          "internalType": "uint256",
          "name": "endTimestamp",
          "type": "uint256"
        }
      ],
      "name": "PlaceAdded",
      "type": "event"
    },
    {
      "anonymous": false,
      "inputs": [
        {
          "indexed": true,
          "internalType": "address",
          "name": "manager",
          "type": "address"
        }
      ],
      "name": "PlaceManagerAdded",
      "type": "event"
    },
    {
      "anonymous": false,
      "inputs": [
        {
          "indexed": true,
          "internalType": "address",
          "name": "manager",
          "type": "address"
        }
      ],
      "name": "PlaceManagerRemoved",
      "type": "event"
    },
    {
      "anonymous": false,
      "inputs": [
        {
          "indexed": true,
          "internalType": "address",
          "name": "from",
          "type": "address"
        },
        {
          "indexed": true,
          "internalType": "address",
          "name": "to",
          "type": "address"
        },
        {
          "indexed": true,
          "internalType": "uint256",
          "name": "tokenId",
          "type": "uint256"
        }
      ],
      "name": "Transfer",
      "type": "event"
    },
    {
      "inputs": [
        {
          "internalType": "int256",
          "name": "_lat",
          "type": "int256"
        },
        {
          "internalType": "int256",
          "name": "_long",
          "type": "int256"
        },
        {
          "internalType": "uint256",
          "name": "_maxDistance",
          "type": "uint256"
        },
        {
          "internalType": "uint256",
          "name": "_startTimestamp",
          "type": "uint256"
        },
        {
          "internalType": "uint256",
          "name": "_endTimestamp",
          "type": "uint256"
        }
      ],
      "name": "addPlace",
      "outputs": [],
      "stateMutability": "nonpayable",
      "type": "function"
    },
    {
      "inputs": [
        {
          "internalType": "address",
          "name": "manager",
          "type": "address"
        }
      ],
      "name": "addPlaceManager",
      "outputs": [],
      "stateMutability": "nonpayable",
      "type": "function"
    },
    {
      "inputs": [
        {
          "internalType": "address",
          "name": "to",
          "type": "address"
        },
        {
          "internalType": "uint256",
          "name": "tokenId",
          "type": "uint256"
        }
      ],
      "name": "approve",
      "outputs": [],
      "stateMutability": "nonpayable",
      "type": "function"
    },
    {
      "inputs": [
        {
          "internalType": "address",
          "name": "owner",
          "type": "address"
        }
      ],
      "name": "balanceOf",
      "outputs": [
        {
          "internalType": "uint256",
          "name": "",
          "type": "uint256"
        }
      ],
      "stateMutability": "view",
      "type": "function"
    },
    {
      "inputs": [
        {
          "internalType": "int256",
          "name": "lat_",
          "type": "int256"
        },
        {
          "internalType": "int256",
          "name": "long_",
          "type": "int256"
        },
        {
          "internalType": "uint256",
          "name": "distance_",
          "type": "uint256"
        },
        {
          "internalType": "bytes32",
          "name": "deviceHash_",
          "type": "bytes32"
        },
        {
          "internalType": "uint256",
          "name": "startTimestamp_",
          "type": "uint256"
        },
        {
          "internalType": "uint256",
          "name": "endTimestamp_",
          "type": "uint256"
        },
        {
          "internalType": "bytes",
          "name": "signature",
          "type": "bytes"
        }
      ],
      "name": "claim",
      "outputs": [],
      "stateMutability": "payable",
      "type": "function"
    },
    {
      "inputs": [],
      "name": "claimFee",
      "outputs": [
        {
          "internalType": "uint256",
          "name": "",
          "type": "uint256"
        }
      ],
      "stateMutability": "view",
      "type": "function"
    },
    {
      "inputs": [
        {
          "internalType": "bytes32",
          "name": "deviceHash_",
          "type": "bytes32"
        }
      ],
      "name": "claimed",
      "outputs": [
        {
          "internalType": "bool",
          "name": "",
          "type": "bool"
        }
      ],
      "stateMutability": "view",
      "type": "function"
    },
    {
      "inputs": [
        {
          "internalType": "bytes32",
          "name": "deviceHash_",
          "type": "bytes32"
        }
      ],
      "name": "claimedUser",
      "outputs": [
        {
          "internalType": "address",
          "name": "",
          "type": "address"
        }
      ],
      "stateMutability": "view",
      "type": "function"
    },
    {
      "inputs": [
        {
          "internalType": "uint256",
          "name": "tokenId",
          "type": "uint256"
        }
      ],
      "name": "getApproved",
      "outputs": [
        {
          "internalType": "address",
          "name": "",
          "type": "address"
        }
      ],
      "stateMutability": "view",
      "type": "function"
    },
    {
      "inputs": [
        {
          "internalType": "address",
          "name": "owner",
          "type": "address"
        },
        {
          "internalType": "address",
          "name": "operator",
          "type": "address"
        }
      ],
      "name": "isApprovedForAll",
      "outputs": [
        {
          "internalType": "bool",
          "name": "",
          "type": "bool"
        }
      ],
      "stateMutability": "view",
      "type": "function"
    },
    {
      "inputs": [],
      "name": "name",
      "outputs": [
        {
          "internalType": "string",
          "name": "",
          "type": "string"
        }
      ],
      "stateMutability": "view",
      "type": "function"
    },
    {
      "inputs": [],
      "name": "owner",
      "outputs": [
        {
          "internalType": "address",
          "name": "",
          "type": "address"
        }
      ],
      "stateMutability": "view",
      "type": "function"
    },
    {
      "inputs": [
        {
          "internalType": "uint256",
          "name": "tokenId",
          "type": "uint256"
        }
      ],
      "name": "ownerOf",
      "outputs": [
        {
          "internalType": "address",
          "name": "",
          "type": "address"
        }
      ],
      "stateMutability": "view",
      "type": "function"
    },
    {
      "inputs": [],
      "name": "palceCount",
      "outputs": [
        {
          "internalType": "uint256",
          "name": "",
          "type": "uint256"
        }
      ],
      "stateMutability": "view",
      "type": "function"
    },
    {
      "inputs": [
        {
          "internalType": "address",
          "name": "",
          "type": "address"
        }
      ],
      "name": "placeManagers",
      "outputs": [
        {
          "internalType": "bool",
          "name": "",
          "type": "bool"
        }
      ],
      "stateMutability": "view",
      "type": "function"
    },
    {
      "inputs": [
        {
          "internalType": "bytes32",
          "name": "",
          "type": "bytes32"
        }
      ],
      "name": "places",
      "outputs": [
        {
          "internalType": "int256",
          "name": "lat",
          "type": "int256"
        },
        {
          "internalType": "int256",
          "name": "long",
          "type": "int256"
        },
        {
          "internalType": "uint256",
          "name": "maxDistance",
          "type": "uint256"
        },
        {
          "internalType": "uint256",
          "name": "startTimestamp",
          "type": "uint256"
        },
        {
          "internalType": "uint256",
          "name": "endTimestamp",
          "type": "uint256"
        }
      ],
      "stateMutability": "view",
      "type": "function"
    },
    {
      "inputs": [
        {
          "internalType": "uint256",
          "name": "",
          "type": "uint256"
        }
      ],
      "name": "placesHash",
      "outputs": [
        {
          "internalType": "bytes32",
          "name": "",
          "type": "bytes32"
        }
      ],
      "stateMutability": "view",
      "type": "function"
    },
    {
      "inputs": [
        {
          "internalType": "address",
          "name": "manager",
          "type": "address"
        }
      ],
      "name": "removePlaceManager",
      "outputs": [],
      "stateMutability": "nonpayable",
      "type": "function"
    },
    {
      "inputs": [],
      "name": "renounceOwnership",
      "outputs": [],
      "stateMutability": "nonpayable",
      "type": "function"
    },
    {
      "inputs": [
        {
          "internalType": "address",
          "name": "from",
          "type": "address"
        },
        {
          "internalType": "address",
          "name": "to",
          "type": "address"
        },
        {
          "internalType": "uint256",
          "name": "tokenId",
          "type": "uint256"
        }
      ],
      "name": "safeTransferFrom",
      "outputs": [],
      "stateMutability": "nonpayable",
      "type": "function"
    },
    {
      "inputs": [
        {
          "internalType": "address",
          "name": "from",
          "type": "address"
        },
        {
          "internalType": "address",
          "name": "to",
          "type": "address"
        },
        {
          "internalType": "uint256",
          "name": "tokenId",
          "type": "uint256"
        },
        {
          "internalType": "bytes",
          "name": "data",
          "type": "bytes"
        }
      ],
      "name": "safeTransferFrom",
      "outputs": [],
      "stateMutability": "nonpayable",
      "type": "function"
    },
    {
      "inputs": [
        {
          "internalType": "address",
          "name": "operator",
          "type": "address"
        },
        {
          "internalType": "bool",
          "name": "approved",
          "type": "bool"
        }
      ],
      "name": "setApprovalForAll",
      "outputs": [],
      "stateMutability": "nonpayable",
      "type": "function"
    },
    {
      "inputs": [
        {
          "internalType": "string",
          "name": "baseURI_",
          "type": "string"
        }
      ],
      "name": "setBaseURI",
      "outputs": [],
      "stateMutability": "nonpayable",
      "type": "function"
    },
    {
      "inputs": [
        {
          "internalType": "bytes4",
          "name": "interfaceId",
          "type": "bytes4"
        }
      ],
      "name": "supportsInterface",
      "outputs": [
        {
          "internalType": "bool",
          "name": "",
          "type": "bool"
        }
      ],
      "stateMutability": "view",
      "type": "function"
    },
    {
      "inputs": [],
      "name": "symbol",
      "outputs": [
        {
          "internalType": "string",
          "name": "",
          "type": "string"
        }
      ],
      "stateMutability": "view",
      "type": "function"
    },
    {
      "inputs": [
        {
          "internalType": "uint256",
          "name": "index",
          "type": "uint256"
        }
      ],
      "name": "tokenByIndex",
      "outputs": [
        {
          "internalType": "uint256",
          "name": "",
          "type": "uint256"
        }
      ],
      "stateMutability": "view",
      "type": "function"
    },
    {
      "inputs": [
        {
          "internalType": "address",
          "name": "owner",
          "type": "address"
        },
        {
          "internalType": "uint256",
          "name": "index",
          "type": "uint256"
        }
      ],
      "name": "tokenOfOwnerByIndex",
      "outputs": [
        {
          "internalType": "uint256",
          "name": "",
          "type": "uint256"
        }
      ],
      "stateMutability": "view",
      "type": "function"
    },
    {
      "inputs": [
        {
          "internalType": "uint256",
          "name": "",
          "type": "uint256"
        }
      ],
      "name": "tokenURI",
      "outputs": [
        {
          "internalType": "string",
          "name": "",
          "type": "string"
        }
      ],
      "stateMutability": "view",
      "type": "function"
    },
    {
      "inputs": [],
      "name": "totalSupply",
      "outputs": [
        {
          "internalType": "uint256",
          "name": "",
          "type": "uint256"
        }
      ],
      "stateMutability": "view",
      "type": "function"
    },
    {
      "inputs": [
        {
          "internalType": "address",
          "name": "from",
          "type": "address"
        },
        {
          "internalType": "address",
          "name": "to",
          "type": "address"
        },
        {
          "internalType": "uint256",
          "name": "tokenId",
          "type": "uint256"
        }
      ],
      "name": "transferFrom",
      "outputs": [],
      "stateMutability": "nonpayable",
      "type": "function"
    },
    {
      "inputs": [
        {
          "internalType": "address",
          "name": "newOwner",
          "type": "address"
        }
      ],
      "name": "transferOwnership",
      "outputs": [],
      "stateMutability": "nonpayable",
      "type": "function"
    },
    {
      "inputs": [],
      "name": "verifier",
      "outputs": [
        {
          "internalType": "contract IMetapebbleDataVerifier",
          "name": "",
          "type": "address"
        }
      ],
      "stateMutability": "view",
      "type": "function"
    }
  ],
  "transactionHash": "0x2234c209dde656d52e476103957d9738b5a4c2e5963000598fb5fe1c10888bc3",
  "args": [
    [
      36121174
    ],
    [
      -115169652
    ],
    [
      5000
    ],
    [
      1672876607
    ],
    [
      1673265600
    ],
    "0x539057424d2A1A0B7D7Af6F322f34569b967b272",
    "CES-W3bstream NFT",
    "CWT"
  ],
  "numDeployments": 4,
  "solcInputHash": "98747250ad71336231c23e916e3362a3",
  "bytecode": "0x60806040523480156200001157600080fd5b50604051620039eb380380620039eb833981016040819052620000349162000868565b828282818162000044336200069d565b60018055600262000056838262000a3a565b50600362000065828262000a3a565b5050600c80546001600160a01b0319166001600160a01b03959095169490941790935550508751895114905080156200009f575085518851145b620000e15760405162461bcd60e51b815260206004820152600d60248201526c696e76616c696420706c61636560981b60448201526064015b60405180910390fd5b60005b88518110156200066f57600087828151811062000105576200010562000b06565b6020026020010151116200015c5760405162461bcd60e51b815260206004820152601460248201527f696e76616c6964206d61782064697374616e63650000000000000000000000006044820152606401620000d8565b63055d4a7f1989828151811062000177576200017762000b06565b602002602001015112158015620001ae575063055d4a80898281518110620001a357620001a362000b06565b602002602001015113155b620001ea5760405162461bcd60e51b815260206004820152600b60248201526a1a5b9d985b1a59081b185d60aa1b6044820152606401620000d8565b630aba94ff1988828151811062000205576200020562000b06565b6020026020010151121580156200023c5750630aba950088828151811062000231576200023162000b06565b602002602001015113155b620002795760405162461bcd60e51b815260206004820152600c60248201526b696e76616c6964206c6f6e6760a01b6044820152606401620000d8565b8581815181106200028e576200028e62000b06565b6020026020010151858281518110620002ab57620002ab62000b06565b6020026020010151118015620002dc575042858281518110620002d257620002d262000b06565b6020026020010151115b6200031e5760405162461bcd60e51b81526020600482015260116024820152700696e76616c69642074696d657374616d7607c1b6044820152606401620000d8565b600089828151811062000335576200033562000b06565b602002602001015189838151811062000352576200035262000b06565b60200260200101518984815181106200036f576200036f62000b06565b60200260200101518985815181106200038c576200038c62000b06565b6020026020010151898681518110620003a957620003a962000b06565b6020026020010151604051602001620003e4959493929190948552602085019390935260408401919091526060830152608082015260a00190565b60408051601f1981840301815291815281516020928301206000818152600f909352912060020154909150156200044f5760405162461bcd60e51b815260206004820152600e60248201526d726570656174656420706c61636560901b6044820152606401620000d8565b6040518060a001604052808b84815181106200046f576200046f62000b06565b602002602001015181526020018a848151811062000491576200049162000b06565b60200260200101518152602001898481518110620004b357620004b362000b06565b60200260200101518152602001888481518110620004d557620004d562000b06565b60200260200101518152602001878481518110620004f757620004f762000b06565b6020908102919091018101519091526000838152600f82526040808220845181559284015160018085019190915590840151600284015560608401516003840155608090930151600490920191909155600e8054928301815590527fbb7b4a454dc3493923482f07822329ed19e8244eff582cc204f8554c3620c3fd0181905589517f4702fb9ba3963a7fbcca390698a54c43664028dc33f9c9b3dbabb2e17b63c272908b9084908110620005b057620005b062000b06565b60200260200101518a8481518110620005cd57620005cd62000b06565b60200260200101518a8581518110620005ea57620005ea62000b06565b60200260200101518a868151811062000607576200060762000b06565b60200260200101518a878151811062000624576200062462000b06565b60209081029190910181015160408051968752918601949094528401919091526060830152608082015260a00160405180910390a15080620006668162000b1c565b915050620000e4565b506040805160208101909152600081526012906200068e908262000a3a565b50505050505050505062000b44565b600080546001600160a01b038381166001600160a01b0319831681178455604051919092169283917f8be0079c531659141344cd1fd0a4f28419497f9722a3daafe3b4186f6b6457e09190a35050565b634e487b7160e01b600052604160045260246000fd5b604051601f8201601f191681016001600160401b03811182821017156200072e576200072e620006ed565b604052919050565b600082601f8301126200074857600080fd5b815160206001600160401b03821115620007665762000766620006ed565b8160051b6200077782820162000703565b92835284810182019282810190878511156200079257600080fd5b83870192505b84831015620007b35782518252918301919083019062000798565b979650505050505050565b80516001600160a01b0381168114620007d657600080fd5b919050565b600082601f830112620007ed57600080fd5b81516001600160401b03811115620008095762000809620006ed565b60206200081f601f8301601f1916820162000703565b82815285828487010111156200083457600080fd5b60005b838110156200085457858101830151828201840152820162000837565b506000928101909101919091529392505050565b600080600080600080600080610100898b0312156200088657600080fd5b88516001600160401b03808211156200089e57600080fd5b620008ac8c838d0162000736565b995060208b0151915080821115620008c357600080fd5b620008d18c838d0162000736565b985060408b0151915080821115620008e857600080fd5b620008f68c838d0162000736565b975060608b01519150808211156200090d57600080fd5b6200091b8c838d0162000736565b965060808b01519150808211156200093257600080fd5b620009408c838d0162000736565b95506200095060a08c01620007be565b945060c08b01519150808211156200096757600080fd5b620009758c838d01620007db565b935060e08b01519150808211156200098c57600080fd5b506200099b8b828c01620007db565b9150509295985092959890939650565b600181811c90821680620009c057607f821691505b602082108103620009e157634e487b7160e01b600052602260045260246000fd5b50919050565b601f82111562000a3557600081815260208120601f850160051c8101602086101562000a105750805b601f850160051c820191505b8181101562000a315782815560010162000a1c565b5050505b505050565b81516001600160401b0381111562000a565762000a56620006ed565b62000a6e8162000a678454620009ab565b84620009e7565b602080601f83116001811462000aa6576000841562000a8d5750858301515b600019600386901b1c1916600185901b17855562000a31565b600085815260208120601f198616915b8281101562000ad75788860151825594840194600190910190840162000ab6565b508582101562000af65787850151600019600388901b60f8161c191681555b5050505050600190811b01905550565b634e487b7160e01b600052603260045260246000fd5b60006001820162000b3d57634e487b7160e01b600052601160045260246000fd5b5060010190565b612e978062000b546000396000f3fe6080604052600436106101e35760003560e01c8063715018a611610102578063a4353eb011610095578063cc3c0f0611610064578063cc3c0f06146105d5578063df0580fd1461060d578063e985e9c51461062d578063f2fde38b1461067657600080fd5b8063a4353eb014610560578063b88d4fde14610575578063bc29942e14610595578063c87b56dd146105b557600080fd5b806395d89b41116100d157806395d89b41146104f657806399d32fc41461050b5780639da5d98b14610520578063a22cb4651461054057600080fd5b8063715018a61461046d578063781d2e6a146104825780637d6fbd9e146104a25780638da5cb5b146104d857600080fd5b80632f745c591161017a5780636352211e116101495780636352211e1461038b578063678f98b7146103ab5780636cbbd7b61461041d57806370a082311461044d57600080fd5b80632f745c591461030b57806342842e0e1461032b5780634f6ccce71461034b57806355f804b31461036b57600080fd5b806318160ddd116101b657806318160ddd1461029957806323b872dd146102b85780632b7ac3f3146102d85780632dfd452a146102f857600080fd5b806301ffc9a7146101e857806306fdde031461021d578063081812fc1461023f578063095ea7b314610277575b600080fd5b3480156101f457600080fd5b506102086102033660046126e4565b610696565b60405190151581526020015b60405180910390f35b34801561022957600080fd5b506102326106f2565b604051610214919061276c565b34801561024b57600080fd5b5061025f61025a36600461277f565b610784565b6040516001600160a01b039091168152602001610214565b34801561028357600080fd5b506102976102923660046127ad565b6107ab565b005b3480156102a557600080fd5b50600a545b604051908152602001610214565b3480156102c457600080fd5b506102976102d33660046127d9565b6108e1565b3480156102e457600080fd5b50600c5461025f906001600160a01b031681565b6102976103063660046128fd565b610968565b34801561031757600080fd5b506102aa6103263660046127ad565b610aec565b34801561033757600080fd5b506102976103463660046127d9565b610b94565b34801561035757600080fd5b506102aa61036636600461277f565b610baf565b34801561037757600080fd5b50610297610386366004612974565b610c53565b34801561039757600080fd5b5061025f6103a636600461277f565b610c6b565b3480156103b757600080fd5b506103f56103c636600461277f565b600f60205260009081526040902080546001820154600283015460038401546004909401549293919290919085565b604080519586526020860194909452928401919091526060830152608082015260a001610214565b34801561042957600080fd5b506102086104383660046129bd565b60106020526000908152604090205460ff1681565b34801561045957600080fd5b506102aa6104683660046129bd565b610cd0565b34801561047957600080fd5b50610297610d6a565b34801561048e57600080fd5b5061029761049d3660046129da565b610d7e565b3480156104ae57600080fd5b5061025f6104bd36600461277f565b6000908152600d60205260409020546001600160a01b031690565b3480156104e457600080fd5b506000546001600160a01b031661025f565b34801561050257600080fd5b506102326110fd565b34801561051757600080fd5b506102aa61110c565b34801561052c57600080fd5b506102aa61053b36600461277f565b61129e565b34801561054c57600080fd5b5061029761055b366004612a23565b6112bf565b34801561056c57600080fd5b50600e546102aa565b34801561058157600080fd5b50610297610590366004612a5c565b6112ca565b3480156105a157600080fd5b506102976105b03660046129bd565b611358565b3480156105c157600080fd5b506102326105d036600461277f565b611459565b3480156105e157600080fd5b506102086105f036600461277f565b6000908152600d60205260409020546001600160a01b0316151590565b34801561061957600080fd5b506102976106283660046129bd565b6114ed565b34801561063957600080fd5b50610208610648366004612ac8565b6001600160a01b03918216600090815260076020908152604080832093909416825291909152205460ff1690565b34801561068257600080fd5b506102976106913660046129bd565b6115ea565b60007fffffffff0000000000000000000000000000000000000000000000000000000082167f780e9d630000000000000000000000000000000000000000000000000000000014806106ec57506106ec8261167a565b92915050565b60606002805461070190612af6565b80601f016020809104026020016040519081016040528092919081815260200182805461072d90612af6565b801561077a5780601f1061074f5761010080835404028352916020019161077a565b820191906000526020600020905b81548152906001019060200180831161075d57829003601f168201915b5050505050905090565b600061078f8261175d565b506000908152600660205260409020546001600160a01b031690565b60006107b682610c6b565b9050806001600160a01b0316836001600160a01b0316036108445760405162461bcd60e51b815260206004820152602160248201527f4552433732313a20617070726f76616c20746f2063757272656e74206f776e6560448201527f720000000000000000000000000000000000000000000000000000000000000060648201526084015b60405180910390fd5b336001600160a01b038216148061086057506108608133610648565b6108d25760405162461bcd60e51b815260206004820152603d60248201527f4552433732313a20617070726f76652063616c6c6572206973206e6f7420746f60448201527f6b656e206f776e6572206f7220617070726f76656420666f7220616c6c000000606482015260840161083b565b6108dc83836117c1565b505050565b6108eb3382611847565b61095d5760405162461bcd60e51b815260206004820152602d60248201527f4552433732313a2063616c6c6572206973206e6f7420746f6b656e206f776e6560448201527f72206f7220617070726f76656400000000000000000000000000000000000000606482015260840161083b565b6108dc8383836118c6565b610970611b32565b6000848152600d60205260409020546001600160a01b0316156109d55760405162461bcd60e51b815260206004820152600f60248201527f616c726561647920636c61696d65640000000000000000000000000000000000604482015260640161083b565b6040805160208082018a9052818301899052606082018890526080820186905260a08083018690528351808403909101815260c083018085528151918301919091206000908152600f90925290839020610160830190935282548152600183015460e08301526002830154610100830181905260038401546101208401526004909301546101409092019190915290610ab05760405162461bcd60e51b815260206004820152601060248201527f706c616365206e6f742065786973747300000000000000000000000000000000604482015260640161083b565b610ac4601154338a8a8a8a8a8a8a34611b8b565b60118054906000610ad483612b78565b919050555050610ae360018055565b50505050505050565b6000610af783610cd0565b8210610b6b5760405162461bcd60e51b815260206004820152602b60248201527f455243373231456e756d657261626c653a206f776e657220696e646578206f7560448201527f74206f6620626f756e6473000000000000000000000000000000000000000000606482015260840161083b565b506001600160a01b03919091166000908152600860209081526040808320938352929052205490565b6108dc838383604051806020016040528060008152506112ca565b6000610bba600a5490565b8210610c2e5760405162461bcd60e51b815260206004820152602c60248201527f455243373231456e756d657261626c653a20676c6f62616c20696e646578206f60448201527f7574206f6620626f756e64730000000000000000000000000000000000000000606482015260840161083b565b600a8281548110610c4157610c41612bb0565b90600052602060002001549050919050565b610c5b611d32565b6012610c678282612c2d565b5050565b6000818152600460205260408120546001600160a01b0316806106ec5760405162461bcd60e51b815260206004820152601860248201527f4552433732313a20696e76616c696420746f6b656e2049440000000000000000604482015260640161083b565b60006001600160a01b038216610d4e5760405162461bcd60e51b815260206004820152602960248201527f4552433732313a2061646472657373207a65726f206973206e6f74206120766160448201527f6c6964206f776e65720000000000000000000000000000000000000000000000606482015260840161083b565b506001600160a01b031660009081526005602052604090205490565b610d72611d32565b610d7c6000611d8c565b565b3360009081526010602052604090205460ff16610e035760405162461bcd60e51b815260206004820152603a60248201527f506562626c654d756c7469706c654c6f636174696f6e4e46543a2063616c6c6560448201527f72206973206e6f742074686520706c616365206d616e61676572000000000000606482015260840161083b565b60008311610e535760405162461bcd60e51b815260206004820152601460248201527f696e76616c6964206d61782064697374616e6365000000000000000000000000604482015260640161083b565b8181118015610e6157504281115b610ead5760405162461bcd60e51b815260206004820152601160248201527f696e76616c69642074696d657374616d70000000000000000000000000000000604482015260640161083b565b7ffffffffffffffffffffffffffffffffffffffffffffffffffffffffffaa2b5808512158015610ee1575063055d4a808513155b610f2d5760405162461bcd60e51b815260206004820152600b60248201527f696e76616c6964206c6174000000000000000000000000000000000000000000604482015260640161083b565b7ffffffffffffffffffffffffffffffffffffffffffffffffffffffffff5456b008412158015610f615750630aba95008413155b610fad5760405162461bcd60e51b815260206004820152600c60248201527f696e76616c6964206c6f6e670000000000000000000000000000000000000000604482015260640161083b565b6040805160208101879052908101859052606081018490526080810183905260a0810182905260009060c001604080517fffffffffffffffffffffffffffffffffffffffffffffffffffffffffffffffe081840301815291815281516020928301206000818152600f9093529120600201549091501561106f5760405162461bcd60e51b815260206004820152600e60248201527f726570656174656420706c616365000000000000000000000000000000000000604482015260640161083b565b6040805160a081018252968752602080880196875287820195865260608801948552608088019384526000838152600f909152908120965187559451600180880191909155935160028701559151600386015551600490940193909355600e805491820181559091527fbb7b4a454dc3493923482f07822329ed19e8244eff582cc204f8554c3620c3fd0155565b60606003805461070190612af6565b600c54604080517fb17644c900000000000000000000000000000000000000000000000000000000815290516000926001600160a01b03169163b17644c99160048083019260209291908290030181865afa15801561116f573d6000803e3d6000fd5b505050506040513d601f19601f820116820180604052508101906111939190612d47565b6040517f3245b6220000000000000000000000000000000000000000000000000000000081523060048201526001600160a01b039190911690633245b62290602401602060405180830381865afa1580156111f2573d6000803e3d6000fd5b505050506040513d601f19601f820116820180604052508101906112169190612d47565b6040517f6fcca69b0000000000000000000000000000000000000000000000000000000081523060048201526001600160a01b039190911690636fcca69b90602401602060405180830381865afa158015611275573d6000803e3d6000fd5b505050506040513d601f19601f820116820180604052508101906112999190612d64565b905090565b600e81815481106112ae57600080fd5b600091825260209091200154905081565b610c67338383611df4565b6112d43383611847565b6113465760405162461bcd60e51b815260206004820152602d60248201527f4552433732313a2063616c6c6572206973206e6f7420746f6b656e206f776e6560448201527f72206f7220617070726f76656400000000000000000000000000000000000000606482015260840161083b565b61135284848484611ee0565b50505050565b611360611d32565b6001600160a01b03811660009081526010602052604090205460ff16156113ef5760405162461bcd60e51b815260206004820152602a60248201527f506562626c654d756c7469706c654c6f636174696f6e4e46543a20616c72656160448201527f6479206d616e6167657200000000000000000000000000000000000000000000606482015260840161083b565b6001600160a01b03811660008181526010602052604080822080547fffffffffffffffffffffffffffffffffffffffffffffffffffffffffffffff00166001179055517f2f9ee5b083d19b4fbd83e4be14aa1001578c266abf2b290a1053718dd108f4f99190a250565b60606012805461146890612af6565b80601f016020809104026020016040519081016040528092919081815260200182805461149490612af6565b80156114e15780601f106114b6576101008083540402835291602001916114e1565b820191906000526020600020905b8154815290600101906020018083116114c457829003601f168201915b50505050509050919050565b6114f5611d32565b6001600160a01b03811660009081526010602052604090205460ff166115835760405162461bcd60e51b815260206004820152602660248201527f506562626c654d756c7469706c654c6f636174696f6e4e46543a206e6f74206d60448201527f616e616765720000000000000000000000000000000000000000000000000000606482015260840161083b565b6001600160a01b03811660008181526010602052604080822080547fffffffffffffffffffffffffffffffffffffffffffffffffffffffffffffff00169055517fb6f2279d13e81743ffa72180ff81661181aa50e834804a48f8019da533a790a39190a250565b6115f2611d32565b6001600160a01b03811661166e5760405162461bcd60e51b815260206004820152602660248201527f4f776e61626c653a206e6577206f776e657220697320746865207a65726f206160448201527f6464726573730000000000000000000000000000000000000000000000000000606482015260840161083b565b61167781611d8c565b50565b60007fffffffff0000000000000000000000000000000000000000000000000000000082167f80ac58cd00000000000000000000000000000000000000000000000000000000148061170d57507fffffffff0000000000000000000000000000000000000000000000000000000082167f5b5e139f00000000000000000000000000000000000000000000000000000000145b806106ec57507f01ffc9a7000000000000000000000000000000000000000000000000000000007fffffffff000000000000000000000000000000000000000000000000000000008316146106ec565b6000818152600460205260409020546001600160a01b03166116775760405162461bcd60e51b815260206004820152601860248201527f4552433732313a20696e76616c696420746f6b656e2049440000000000000000604482015260640161083b565b600081815260066020526040902080547fffffffffffffffffffffffff0000000000000000000000000000000000000000166001600160a01b038416908117909155819061180e82610c6b565b6001600160a01b03167f8c5be1e5ebec7d5bd14f71427d1e84f3dd0314c0f7b2291e5b200ac8c7c3b92560405160405180910390a45050565b60008061185383610c6b565b9050806001600160a01b0316846001600160a01b0316148061189a57506001600160a01b0380821660009081526007602090815260408083209388168352929052205460ff165b806118be5750836001600160a01b03166118b384610784565b6001600160a01b0316145b949350505050565b826001600160a01b03166118d982610c6b565b6001600160a01b0316146119555760405162461bcd60e51b815260206004820152602560248201527f4552433732313a207472616e736665722066726f6d20696e636f72726563742060448201527f6f776e6572000000000000000000000000000000000000000000000000000000606482015260840161083b565b6001600160a01b0382166119d05760405162461bcd60e51b8152602060048201526024808201527f4552433732313a207472616e7366657220746f20746865207a65726f2061646460448201527f7265737300000000000000000000000000000000000000000000000000000000606482015260840161083b565b6119dd8383836001611f69565b826001600160a01b03166119f082610c6b565b6001600160a01b031614611a6c5760405162461bcd60e51b815260206004820152602560248201527f4552433732313a207472616e736665722066726f6d20696e636f72726563742060448201527f6f776e6572000000000000000000000000000000000000000000000000000000606482015260840161083b565b600081815260066020908152604080832080547fffffffffffffffffffffffff00000000000000000000000000000000000000009081169091556001600160a01b038781168086526005855283862080547fffffffffffffffffffffffffffffffffffffffffffffffffffffffffffffffff01905590871680865283862080546001019055868652600490945282852080549092168417909155905184937fddf252ad1be2c89b69c2b068fc378daa952ba7f163c4a11628f55a4df523b3ef91a4505050565b600260015403611b845760405162461bcd60e51b815260206004820152601f60248201527f5265656e7472616e637947756172643a207265656e7472616e742063616c6c00604482015260640161083b565b6002600155565b600c546040517fb499ffd10000000000000000000000000000000000000000000000000000000081526001600160a01b038b81166004830152602482018b9052604482018a9052606482018990526084820188905260a4820187905260c48201869052600092169063b499ffd19060e401602060405180830381865afa158015611c19573d6000803e3d6000fd5b505050506040513d601f19601f82011682018060405250810190611c3d9190612d64565b600c546040517f258ae5820000000000000000000000000000000000000000000000000000000081529192506001600160a01b03169063258ae582908490611c8b9085908890600401612d7d565b60206040518083038185885af1158015611ca9573d6000803e3d6000fd5b50505050506040513d601f19601f82011682018060405250810190611cce9190612d96565b611d1a5760405162461bcd60e51b815260206004820152601160248201527f696e76616c6964207369676e6174757265000000000000000000000000000000604482015260640161083b565b611d258b8b886120b1565b5050505050505050505050565b6000546001600160a01b03163314610d7c5760405162461bcd60e51b815260206004820181905260248201527f4f776e61626c653a2063616c6c6572206973206e6f7420746865206f776e6572604482015260640161083b565b600080546001600160a01b038381167fffffffffffffffffffffffff0000000000000000000000000000000000000000831681178455604051919092169283917f8be0079c531659141344cd1fd0a4f28419497f9722a3daafe3b4186f6b6457e09190a35050565b816001600160a01b0316836001600160a01b031603611e555760405162461bcd60e51b815260206004820152601960248201527f4552433732313a20617070726f766520746f2063616c6c657200000000000000604482015260640161083b565b6001600160a01b0383811660008181526007602090815260408083209487168084529482529182902080547fffffffffffffffffffffffffffffffffffffffffffffffffffffffffffffff001686151590811790915591519182527f17307eab39ab6107e8899845ad3d59bd9653f200f220920489ca2b5937696c31910160405180910390a3505050565b611eeb8484846118c6565b611ef78484848461212e565b6113525760405162461bcd60e51b815260206004820152603260248201527f4552433732313a207472616e7366657220746f206e6f6e20455243373231526560448201527f63656976657220696d706c656d656e7465720000000000000000000000000000606482015260840161083b565b611f75848484846122ed565b6001811115611fec5760405162461bcd60e51b815260206004820152603560248201527f455243373231456e756d657261626c653a20636f6e736563757469766520747260448201527f616e7366657273206e6f7420737570706f727465640000000000000000000000606482015260840161083b565b816001600160a01b0385166120485761204381600a80546000838152600b60205260408120829055600182018355919091527fc65a7bb8d6351c1cf70c95a316cc6a92839c986682d98bc35f958f4883f9d2a80155565b61206b565b836001600160a01b0316856001600160a01b03161461206b5761206b8582612375565b6001600160a01b0384166120875761208281612412565b6120aa565b846001600160a01b0316846001600160a01b0316146120aa576120aa84826124c1565b5050505050565b6120bb8284612505565b6000818152600d602052604080822080547fffffffffffffffffffffffff0000000000000000000000000000000000000000166001600160a01b038616908117909155905185928492917f9b01158d4bc10c112ba32b5240cda97e49e2eb86021f03f6a0f460342ac4dfda9190a4505050565b60006001600160a01b0384163b156122e2576040517f150b7a020000000000000000000000000000000000000000000000000000000081526001600160a01b0385169063150b7a029061218b903390899088908890600401612db3565b6020604051808303816000875af19250505080156121e4575060408051601f3d9081017fffffffffffffffffffffffffffffffffffffffffffffffffffffffffffffffe01682019092526121e191810190612def565b60015b612297573d808015612212576040519150601f19603f3d011682016040523d82523d6000602084013e612217565b606091505b50805160000361228f5760405162461bcd60e51b815260206004820152603260248201527f4552433732313a207472616e7366657220746f206e6f6e20455243373231526560448201527f63656976657220696d706c656d656e7465720000000000000000000000000000606482015260840161083b565b805181602001fd5b7fffffffff00000000000000000000000000000000000000000000000000000000167f150b7a02000000000000000000000000000000000000000000000000000000001490506118be565b506001949350505050565b6001811115611352576001600160a01b03841615612333576001600160a01b0384166000908152600560205260408120805483929061232d908490612e0c565b90915550505b6001600160a01b03831615611352576001600160a01b0383166000908152600560205260408120805483929061236a908490612e1f565b909155505050505050565b6000600161238284610cd0565b61238c9190612e0c565b6000838152600960205260409020549091508082146123df576001600160a01b03841660009081526008602090815260408083208584528252808320548484528184208190558352600990915290208190555b5060009182526009602090815260408084208490556001600160a01b039094168352600881528383209183525290812055565b600a5460009061242490600190612e0c565b6000838152600b6020526040812054600a805493945090928490811061244c5761244c612bb0565b9060005260206000200154905080600a838154811061246d5761246d612bb0565b6000918252602080832090910192909255828152600b9091526040808220849055858252812055600a8054806124a5576124a5612e32565b6001900381819060005260206000200160009055905550505050565b60006124cc83610cd0565b6001600160a01b039093166000908152600860209081526040808320868452825280832085905593825260099052919091209190915550565b6001600160a01b03821661255b5760405162461bcd60e51b815260206004820181905260248201527f4552433732313a206d696e7420746f20746865207a65726f2061646472657373604482015260640161083b565b6000818152600460205260409020546001600160a01b0316156125c05760405162461bcd60e51b815260206004820152601c60248201527f4552433732313a20746f6b656e20616c7265616479206d696e74656400000000604482015260640161083b565b6125ce600083836001611f69565b6000818152600460205260409020546001600160a01b0316156126335760405162461bcd60e51b815260206004820152601c60248201527f4552433732313a20746f6b656e20616c7265616479206d696e74656400000000604482015260640161083b565b6001600160a01b038216600081815260056020908152604080832080546001019055848352600490915280822080547fffffffffffffffffffffffff0000000000000000000000000000000000000000168417905551839291907fddf252ad1be2c89b69c2b068fc378daa952ba7f163c4a11628f55a4df523b3ef908290a45050565b7fffffffff000000000000000000000000000000000000000000000000000000008116811461167757600080fd5b6000602082840312156126f657600080fd5b8135612701816126b6565b9392505050565b6000815180845260005b8181101561272e57602081850181015186830182015201612712565b5060006020828601015260207fffffffffffffffffffffffffffffffffffffffffffffffffffffffffffffffe0601f83011685010191505092915050565b6020815260006127016020830184612708565b60006020828403121561279157600080fd5b5035919050565b6001600160a01b038116811461167757600080fd5b600080604083850312156127c057600080fd5b82356127cb81612798565b946020939093013593505050565b6000806000606084860312156127ee57600080fd5b83356127f981612798565b9250602084013561280981612798565b929592945050506040919091013590565b7f4e487b7100000000000000000000000000000000000000000000000000000000600052604160045260246000fd5b600067ffffffffffffffff808411156128645761286461281a565b604051601f85017fffffffffffffffffffffffffffffffffffffffffffffffffffffffffffffffe0908116603f011681019082821181831017156128aa576128aa61281a565b816040528093508581528686860111156128c357600080fd5b858560208301376000602087830101525050509392505050565b600082601f8301126128ee57600080fd5b61270183833560208501612849565b600080600080600080600060e0888a03121561291857600080fd5b873596506020880135955060408801359450606088013593506080880135925060a0880135915060c088013567ffffffffffffffff81111561295957600080fd5b6129658a828b016128dd565b91505092959891949750929550565b60006020828403121561298657600080fd5b813567ffffffffffffffff81111561299d57600080fd5b8201601f810184136129ae57600080fd5b6118be84823560208401612849565b6000602082840312156129cf57600080fd5b813561270181612798565b600080600080600060a086880312156129f257600080fd5b505083359560208501359550604085013594606081013594506080013592509050565b801515811461167757600080fd5b60008060408385031215612a3657600080fd5b8235612a4181612798565b91506020830135612a5181612a15565b809150509250929050565b60008060008060808587031215612a7257600080fd5b8435612a7d81612798565b93506020850135612a8d81612798565b925060408501359150606085013567ffffffffffffffff811115612ab057600080fd5b612abc878288016128dd565b91505092959194509250565b60008060408385031215612adb57600080fd5b8235612ae681612798565b91506020830135612a5181612798565b600181811c90821680612b0a57607f821691505b602082108103612b43577f4e487b7100000000000000000000000000000000000000000000000000000000600052602260045260246000fd5b50919050565b7f4e487b7100000000000000000000000000000000000000000000000000000000600052601160045260246000fd5b60007fffffffffffffffffffffffffffffffffffffffffffffffffffffffffffffffff8203612ba957612ba9612b49565b5060010190565b7f4e487b7100000000000000000000000000000000000000000000000000000000600052603260045260246000fd5b601f8211156108dc57600081815260208120601f850160051c81016020861015612c065750805b601f850160051c820191505b81811015612c2557828155600101612c12565b505050505050565b815167ffffffffffffffff811115612c4757612c4761281a565b612c5b81612c558454612af6565b84612bdf565b602080601f831160018114612cae5760008415612c785750858301515b7fffffffffffffffffffffffffffffffffffffffffffffffffffffffffffffffff600386901b1c1916600185901b178555612c25565b6000858152602081207fffffffffffffffffffffffffffffffffffffffffffffffffffffffffffffffe08616915b82811015612cfb57888601518255948401946001909101908401612cdc565b5085821015612d3757878501517fffffffffffffffffffffffffffffffffffffffffffffffffffffffffffffffff600388901b60f8161c191681555b5050505050600190811b01905550565b600060208284031215612d5957600080fd5b815161270181612798565b600060208284031215612d7657600080fd5b5051919050565b8281526040602082015260006118be6040830184612708565b600060208284031215612da857600080fd5b815161270181612a15565b60006001600160a01b03808716835280861660208401525083604083015260806060830152612de56080830184612708565b9695505050505050565b600060208284031215612e0157600080fd5b8151612701816126b6565b818103818111156106ec576106ec612b49565b808201808211156106ec576106ec612b49565b7f4e487b7100000000000000000000000000000000000000000000000000000000600052603160045260246000fdfea2646970667358221220d23b9dff9ec090f854ae978a3347cc18c3661735779021c0faa749fc2cc2fad164736f6c63430008110033",
  "devdoc": {
    "kind": "dev",
    "methods": {
      "approve(address,uint256)": {
        "details": "See {IERC721-approve}."
      },
      "balanceOf(address)": {
        "details": "See {IERC721-balanceOf}."
      },
      "getApproved(uint256)": {
        "details": "See {IERC721-getApproved}."
      },
      "isApprovedForAll(address,address)": {
        "details": "See {IERC721-isApprovedForAll}."
      },
      "name()": {
        "details": "See {IERC721Metadata-name}."
      },
      "owner()": {
        "details": "Returns the address of the current owner."
      },
      "ownerOf(uint256)": {
        "details": "See {IERC721-ownerOf}."
      },
      "renounceOwnership()": {
        "details": "Leaves the contract without owner. It will not be possible to call `onlyOwner` functions anymore. Can only be called by the current owner. NOTE: Renouncing ownership will leave the contract without an owner, thereby removing any functionality that is only available to the owner."
      },
      "safeTransferFrom(address,address,uint256)": {
        "details": "See {IERC721-safeTransferFrom}."
      },
      "safeTransferFrom(address,address,uint256,bytes)": {
        "details": "See {IERC721-safeTransferFrom}."
      },
      "setApprovalForAll(address,bool)": {
        "details": "See {IERC721-setApprovalForAll}."
      },
      "supportsInterface(bytes4)": {
        "details": "See {IERC165-supportsInterface}."
      },
      "symbol()": {
        "details": "See {IERC721Metadata-symbol}."
      },
      "tokenByIndex(uint256)": {
        "details": "See {IERC721Enumerable-tokenByIndex}."
      },
      "tokenOfOwnerByIndex(address,uint256)": {
        "details": "See {IERC721Enumerable-tokenOfOwnerByIndex}."
      },
      "totalSupply()": {
        "details": "See {IERC721Enumerable-totalSupply}."
      },
      "transferFrom(address,address,uint256)": {
        "details": "See {IERC721-transferFrom}."
      },
      "transferOwnership(address)": {
        "details": "Transfers ownership of the contract to a new account (`newOwner`). Can only be called by the current owner."
      }
    },
    "version": 1
  },
  "userdoc": {
    "kind": "user",
    "methods": {},
    "version": 1
  },
  "storageLayout": {
    "storage": [
      {
        "astId": 7,
        "contract": "contracts/examples/PebbleMultipleLocationNFT.sol:PebbleMultipleLocationNFT",
        "label": "_owner",
        "offset": 0,
        "slot": "0",
        "type": "t_address"
      },
      {
        "astId": 123,
        "contract": "contracts/examples/PebbleMultipleLocationNFT.sol:PebbleMultipleLocationNFT",
        "label": "_status",
        "offset": 0,
        "slot": "1",
        "type": "t_uint256"
      },
      {
        "astId": 192,
        "contract": "contracts/examples/PebbleMultipleLocationNFT.sol:PebbleMultipleLocationNFT",
        "label": "_name",
        "offset": 0,
        "slot": "2",
        "type": "t_string_storage"
      },
      {
        "astId": 194,
        "contract": "contracts/examples/PebbleMultipleLocationNFT.sol:PebbleMultipleLocationNFT",
        "label": "_symbol",
        "offset": 0,
        "slot": "3",
        "type": "t_string_storage"
      },
      {
        "astId": 198,
        "contract": "contracts/examples/PebbleMultipleLocationNFT.sol:PebbleMultipleLocationNFT",
        "label": "_owners",
        "offset": 0,
        "slot": "4",
        "type": "t_mapping(t_uint256,t_address)"
      },
      {
        "astId": 202,
        "contract": "contracts/examples/PebbleMultipleLocationNFT.sol:PebbleMultipleLocationNFT",
        "label": "_balances",
        "offset": 0,
        "slot": "5",
        "type": "t_mapping(t_address,t_uint256)"
      },
      {
        "astId": 206,
        "contract": "contracts/examples/PebbleMultipleLocationNFT.sol:PebbleMultipleLocationNFT",
        "label": "_tokenApprovals",
        "offset": 0,
        "slot": "6",
        "type": "t_mapping(t_uint256,t_address)"
      },
      {
        "astId": 212,
        "contract": "contracts/examples/PebbleMultipleLocationNFT.sol:PebbleMultipleLocationNFT",
        "label": "_operatorApprovals",
        "offset": 0,
        "slot": "7",
        "type": "t_mapping(t_address,t_mapping(t_address,t_bool))"
      },
      {
        "astId": 1260,
        "contract": "contracts/examples/PebbleMultipleLocationNFT.sol:PebbleMultipleLocationNFT",
        "label": "_ownedTokens",
        "offset": 0,
        "slot": "8",
        "type": "t_mapping(t_address,t_mapping(t_uint256,t_uint256))"
      },
      {
        "astId": 1264,
        "contract": "contracts/examples/PebbleMultipleLocationNFT.sol:PebbleMultipleLocationNFT",
        "label": "_ownedTokensIndex",
        "offset": 0,
        "slot": "9",
        "type": "t_mapping(t_uint256,t_uint256)"
      },
      {
        "astId": 1267,
        "contract": "contracts/examples/PebbleMultipleLocationNFT.sol:PebbleMultipleLocationNFT",
        "label": "_allTokens",
        "offset": 0,
        "slot": "10",
        "type": "t_array(t_uint256)dyn_storage"
      },
      {
        "astId": 1271,
        "contract": "contracts/examples/PebbleMultipleLocationNFT.sol:PebbleMultipleLocationNFT",
        "label": "_allTokensIndex",
        "offset": 0,
        "slot": "11",
        "type": "t_mapping(t_uint256,t_uint256)"
      },
      {
        "astId": 3104,
        "contract": "contracts/examples/PebbleMultipleLocationNFT.sol:PebbleMultipleLocationNFT",
        "label": "verifier",
        "offset": 0,
        "slot": "12",
        "type": "t_contract(IMetapebbleDataVerifier)3897"
      },
      {
        "astId": 3128,
        "contract": "contracts/examples/PebbleMultipleLocationNFT.sol:PebbleMultipleLocationNFT",
        "label": "_claimedDevices",
        "offset": 0,
        "slot": "13",
        "type": "t_mapping(t_bytes32,t_address)"
      },
      {
        "astId": 3358,
        "contract": "contracts/examples/PebbleMultipleLocationNFT.sol:PebbleMultipleLocationNFT",
        "label": "placesHash",
        "offset": 0,
        "slot": "14",
        "type": "t_array(t_bytes32)dyn_storage"
      },
      {
        "astId": 3363,
        "contract": "contracts/examples/PebbleMultipleLocationNFT.sol:PebbleMultipleLocationNFT",
        "label": "places",
        "offset": 0,
        "slot": "15",
        "type": "t_mapping(t_bytes32,t_struct(Place)3332_storage)"
      },
      {
        "astId": 3367,
        "contract": "contracts/examples/PebbleMultipleLocationNFT.sol:PebbleMultipleLocationNFT",
        "label": "placeManagers",
        "offset": 0,
        "slot": "16",
        "type": "t_mapping(t_address,t_bool)"
      },
      {
        "astId": 3369,
        "contract": "contracts/examples/PebbleMultipleLocationNFT.sol:PebbleMultipleLocationNFT",
        "label": "tokenId",
        "offset": 0,
        "slot": "17",
        "type": "t_uint256"
      },
      {
        "astId": 3371,
        "contract": "contracts/examples/PebbleMultipleLocationNFT.sol:PebbleMultipleLocationNFT",
        "label": "baseURI",
        "offset": 0,
        "slot": "18",
        "type": "t_string_storage"
      }
    ],
    "types": {
      "t_address": {
        "encoding": "inplace",
        "label": "address",
        "numberOfBytes": "20"
      },
      "t_array(t_bytes32)dyn_storage": {
        "base": "t_bytes32",
        "encoding": "dynamic_array",
        "label": "bytes32[]",
        "numberOfBytes": "32"
      },
      "t_array(t_uint256)dyn_storage": {
        "base": "t_uint256",
        "encoding": "dynamic_array",
        "label": "uint256[]",
        "numberOfBytes": "32"
      },
      "t_bool": {
        "encoding": "inplace",
        "label": "bool",
        "numberOfBytes": "1"
      },
      "t_bytes32": {
        "encoding": "inplace",
        "label": "bytes32",
        "numberOfBytes": "32"
      },
      "t_contract(IMetapebbleDataVerifier)3897": {
        "encoding": "inplace",
        "label": "contract IMetapebbleDataVerifier",
        "numberOfBytes": "20"
      },
      "t_int256": {
        "encoding": "inplace",
        "label": "int256",
        "numberOfBytes": "32"
      },
      "t_mapping(t_address,t_bool)": {
        "encoding": "mapping",
        "key": "t_address",
        "label": "mapping(address => bool)",
        "numberOfBytes": "32",
        "value": "t_bool"
      },
      "t_mapping(t_address,t_mapping(t_address,t_bool))": {
        "encoding": "mapping",
        "key": "t_address",
        "label": "mapping(address => mapping(address => bool))",
        "numberOfBytes": "32",
        "value": "t_mapping(t_address,t_bool)"
      },
      "t_mapping(t_address,t_mapping(t_uint256,t_uint256))": {
        "encoding": "mapping",
        "key": "t_address",
        "label": "mapping(address => mapping(uint256 => uint256))",
        "numberOfBytes": "32",
        "value": "t_mapping(t_uint256,t_uint256)"
      },
      "t_mapping(t_address,t_uint256)": {
        "encoding": "mapping",
        "key": "t_address",
        "label": "mapping(address => uint256)",
        "numberOfBytes": "32",
        "value": "t_uint256"
      },
      "t_mapping(t_bytes32,t_address)": {
        "encoding": "mapping",
        "key": "t_bytes32",
        "label": "mapping(bytes32 => address)",
        "numberOfBytes": "32",
        "value": "t_address"
      },
      "t_mapping(t_bytes32,t_struct(Place)3332_storage)": {
        "encoding": "mapping",
        "key": "t_bytes32",
        "label": "mapping(bytes32 => struct PebbleMultipleLocationNFT.Place)",
        "numberOfBytes": "32",
        "value": "t_struct(Place)3332_storage"
      },
      "t_mapping(t_uint256,t_address)": {
        "encoding": "mapping",
        "key": "t_uint256",
        "label": "mapping(uint256 => address)",
        "numberOfBytes": "32",
        "value": "t_address"
      },
      "t_mapping(t_uint256,t_uint256)": {
        "encoding": "mapping",
        "key": "t_uint256",
        "label": "mapping(uint256 => uint256)",
        "numberOfBytes": "32",
        "value": "t_uint256"
      },
      "t_string_storage": {
        "encoding": "bytes",
        "label": "string",
        "numberOfBytes": "32"
      },
      "t_struct(Place)3332_storage": {
        "encoding": "inplace",
        "label": "struct PebbleMultipleLocationNFT.Place",
        "members": [
          {
            "astId": 3323,
            "contract": "contracts/examples/PebbleMultipleLocationNFT.sol:PebbleMultipleLocationNFT",
            "label": "lat",
            "offset": 0,
            "slot": "0",
            "type": "t_int256"
          },
          {
            "astId": 3325,
            "contract": "contracts/examples/PebbleMultipleLocationNFT.sol:PebbleMultipleLocationNFT",
            "label": "long",
            "offset": 0,
            "slot": "1",
            "type": "t_int256"
          },
          {
            "astId": 3327,
            "contract": "contracts/examples/PebbleMultipleLocationNFT.sol:PebbleMultipleLocationNFT",
            "label": "maxDistance",
            "offset": 0,
            "slot": "2",
            "type": "t_uint256"
          },
          {
            "astId": 3329,
            "contract": "contracts/examples/PebbleMultipleLocationNFT.sol:PebbleMultipleLocationNFT",
            "label": "startTimestamp",
            "offset": 0,
            "slot": "3",
            "type": "t_uint256"
          },
          {
            "astId": 3331,
            "contract": "contracts/examples/PebbleMultipleLocationNFT.sol:PebbleMultipleLocationNFT",
            "label": "endTimestamp",
            "offset": 0,
            "slot": "4",
            "type": "t_uint256"
          }
        ],
        "numberOfBytes": "160"
      },
      "t_uint256": {
        "encoding": "inplace",
        "label": "uint256",
        "numberOfBytes": "32"
      }
    }
  }
}