{
  "address": "0x68E1099c384a2D341d23D5e946138835882AF3ee",
  "abi": [
    {
      "inputs": [
        {
          "internalType": "int256[]",
          "name": "_lats",
          "type": "int256[]"
        },
        {
          "internalType": "int256[]",
          "name": "_longs",
          "type": "int256[]"
        },
        {
          "internalType": "uint256[]",
          "name": "_maxDistances",
          "type": "uint256[]"
        },
        {
          "internalType": "uint256[]",
          "name": "_startTimestamps",
          "type": "uint256[]"
        },
        {
          "internalType": "uint256[]",
          "name": "_endTimestamps",
          "type": "uint256[]"
        },
        {
          "internalType": "address",
          "name": "_verifier",
          "type": "address"
        },
        {
          "internalType": "string",
          "name": "_name",
          "type": "string"
        },
        {
          "internalType": "string",
          "name": "_symbol",
          "type": "string"
        }
      ],
      "stateMutability": "nonpayable",
      "type": "constructor"
    },
    {
      "anonymous": false,
      "inputs": [
        {
          "indexed": true,
          "internalType": "address",
          "name": "owner",
          "type": "address"
        },
        {
          "indexed": true,
          "internalType": "address",
          "name": "approved",
          "type": "address"
        },
        {
          "indexed": true,
          "internalType": "uint256",
          "name": "tokenId",
          "type": "uint256"
        }
      ],
      "name": "Approval",
      "type": "event"
    },
    {
      "anonymous": false,
      "inputs": [
        {
          "indexed": true,
          "internalType": "address",
          "name": "owner",
          "type": "address"
        },
        {
          "indexed": true,
          "internalType": "address",
          "name": "operator",
          "type": "address"
        },
        {
          "indexed": false,
          "internalType": "bool",
          "name": "approved",
          "type": "bool"
        }
      ],
      "name": "ApprovalForAll",
      "type": "event"
    },
    {
      "anonymous": false,
      "inputs": [
        {
          "indexed": true,
          "internalType": "address",
          "name": "holder",
          "type": "address"
        },
        {
          "indexed": true,
          "internalType": "bytes32",
          "name": "deviceHash",
          "type": "bytes32"
        },
        {
          "indexed": true,
          "internalType": "uint256",
          "name": "tokenId",
          "type": "uint256"
        }
      ],
      "name": "Claimed",
      "type": "event"
    },
    {
      "anonymous": false,
      "inputs": [
        {
          "indexed": true,
          "internalType": "address",
          "name": "previousOwner",
          "type": "address"
        },
        {
          "indexed": true,
          "internalType": "address",
          "name": "newOwner",
          "type": "address"
        }
      ],
      "name": "OwnershipTransferred",
      "type": "event"
    },
    {
      "anonymous": false,
      "inputs": [
        {
          "indexed": false,
          "internalType": "int256",
          "name": "lat",
          "type": "int256"
        },
        {
          "indexed": false,
          "internalType": "int256",
          "name": "long",
          "type": "int256"
        },
        {
          "indexed": false,
          "internalType": "uint256",
          "name": "maxDistance",
          "type": "uint256"
        },
        {
          "indexed": false,
          "internalType": "uint256",
          "name": "startTimestamp",
          "type": "uint256"
        },
        {
          "indexed": false,
          "internalType": "uint256",
          "name": "endTimestamp",
          "type": "uint256"
        }
      ],
      "name": "PlaceAdded",
      "type": "event"
    },
    {
      "anonymous": false,
      "inputs": [
        {
          "indexed": true,
          "internalType": "address",
          "name": "manager",
          "type": "address"
        }
      ],
      "name": "PlaceManagerAdded",
      "type": "event"
    },
    {
      "anonymous": false,
      "inputs": [
        {
          "indexed": true,
          "internalType": "address",
          "name": "manager",
          "type": "address"
        }
      ],
      "name": "PlaceManagerRemoved",
      "type": "event"
    },
    {
      "anonymous": false,
      "inputs": [
        {
          "indexed": true,
          "internalType": "address",
          "name": "from",
          "type": "address"
        },
        {
          "indexed": true,
          "internalType": "address",
          "name": "to",
          "type": "address"
        },
        {
          "indexed": true,
          "internalType": "uint256",
          "name": "tokenId",
          "type": "uint256"
        }
      ],
      "name": "Transfer",
      "type": "event"
    },
    {
      "inputs": [
        {
          "internalType": "int256",
          "name": "_lat",
          "type": "int256"
        },
        {
          "internalType": "int256",
          "name": "_long",
          "type": "int256"
        },
        {
          "internalType": "uint256",
          "name": "_maxDistance",
          "type": "uint256"
        },
        {
          "internalType": "uint256",
          "name": "_startTimestamp",
          "type": "uint256"
        },
        {
          "internalType": "uint256",
          "name": "_endTimestamp",
          "type": "uint256"
        }
      ],
      "name": "addPlace",
      "outputs": [],
      "stateMutability": "nonpayable",
      "type": "function"
    },
    {
      "inputs": [
        {
          "internalType": "address",
          "name": "manager",
          "type": "address"
        }
      ],
      "name": "addPlaceManager",
      "outputs": [],
      "stateMutability": "nonpayable",
      "type": "function"
    },
    {
      "inputs": [
        {
          "internalType": "address",
          "name": "to",
          "type": "address"
        },
        {
          "internalType": "uint256",
          "name": "tokenId",
          "type": "uint256"
        }
      ],
      "name": "approve",
      "outputs": [],
      "stateMutability": "nonpayable",
      "type": "function"
    },
    {
      "inputs": [
        {
          "internalType": "address",
          "name": "owner",
          "type": "address"
        }
      ],
      "name": "balanceOf",
      "outputs": [
        {
          "internalType": "uint256",
          "name": "",
          "type": "uint256"
        }
      ],
      "stateMutability": "view",
      "type": "function"
    },
    {
      "inputs": [
        {
          "internalType": "int256",
          "name": "lat_",
          "type": "int256"
        },
        {
          "internalType": "int256",
          "name": "long_",
          "type": "int256"
        },
        {
          "internalType": "uint256",
          "name": "distance_",
          "type": "uint256"
        },
        {
          "internalType": "bytes32",
          "name": "deviceHash_",
          "type": "bytes32"
        },
        {
          "internalType": "uint256",
          "name": "startTimestamp_",
          "type": "uint256"
        },
        {
          "internalType": "uint256",
          "name": "endTimestamp_",
          "type": "uint256"
        },
        {
          "internalType": "bytes",
          "name": "signature",
          "type": "bytes"
        }
      ],
      "name": "claim",
      "outputs": [],
      "stateMutability": "payable",
      "type": "function"
    },
    {
      "inputs": [],
      "name": "claimFee",
      "outputs": [
        {
          "internalType": "uint256",
          "name": "",
          "type": "uint256"
        }
      ],
      "stateMutability": "view",
      "type": "function"
    },
    {
      "inputs": [
        {
          "internalType": "bytes32",
          "name": "deviceHash_",
          "type": "bytes32"
        }
      ],
      "name": "claimed",
      "outputs": [
        {
          "internalType": "bool",
          "name": "",
          "type": "bool"
        }
      ],
      "stateMutability": "view",
      "type": "function"
    },
    {
      "inputs": [
        {
          "internalType": "bytes32",
          "name": "deviceHash_",
          "type": "bytes32"
        }
      ],
      "name": "claimedUser",
      "outputs": [
        {
          "internalType": "address",
          "name": "",
          "type": "address"
        }
      ],
      "stateMutability": "view",
      "type": "function"
    },
    {
      "inputs": [
        {
          "internalType": "uint256",
          "name": "tokenId",
          "type": "uint256"
        }
      ],
      "name": "getApproved",
      "outputs": [
        {
          "internalType": "address",
          "name": "",
          "type": "address"
        }
      ],
      "stateMutability": "view",
      "type": "function"
    },
    {
      "inputs": [
        {
          "internalType": "address",
          "name": "owner",
          "type": "address"
        },
        {
          "internalType": "address",
          "name": "operator",
          "type": "address"
        }
      ],
      "name": "isApprovedForAll",
      "outputs": [
        {
          "internalType": "bool",
          "name": "",
          "type": "bool"
        }
      ],
      "stateMutability": "view",
      "type": "function"
    },
    {
      "inputs": [],
      "name": "name",
      "outputs": [
        {
          "internalType": "string",
          "name": "",
          "type": "string"
        }
      ],
      "stateMutability": "view",
      "type": "function"
    },
    {
      "inputs": [],
      "name": "owner",
      "outputs": [
        {
          "internalType": "address",
          "name": "",
          "type": "address"
        }
      ],
      "stateMutability": "view",
      "type": "function"
    },
    {
      "inputs": [
        {
          "internalType": "uint256",
          "name": "tokenId",
          "type": "uint256"
        }
      ],
      "name": "ownerOf",
      "outputs": [
        {
          "internalType": "address",
          "name": "",
          "type": "address"
        }
      ],
      "stateMutability": "view",
      "type": "function"
    },
    {
      "inputs": [],
      "name": "palceCount",
      "outputs": [
        {
          "internalType": "uint256",
          "name": "",
          "type": "uint256"
        }
      ],
      "stateMutability": "view",
      "type": "function"
    },
    {
      "inputs": [
        {
          "internalType": "address",
          "name": "",
          "type": "address"
        }
      ],
      "name": "placeManagers",
      "outputs": [
        {
          "internalType": "bool",
          "name": "",
          "type": "bool"
        }
      ],
      "stateMutability": "view",
      "type": "function"
    },
    {
      "inputs": [
        {
          "internalType": "bytes32",
          "name": "",
          "type": "bytes32"
        }
      ],
      "name": "places",
      "outputs": [
        {
          "internalType": "int256",
          "name": "lat",
          "type": "int256"
        },
        {
          "internalType": "int256",
          "name": "long",
          "type": "int256"
        },
        {
          "internalType": "uint256",
          "name": "maxDistance",
          "type": "uint256"
        },
        {
          "internalType": "uint256",
          "name": "startTimestamp",
          "type": "uint256"
        },
        {
          "internalType": "uint256",
          "name": "endTimestamp",
          "type": "uint256"
        }
      ],
      "stateMutability": "view",
      "type": "function"
    },
    {
      "inputs": [
        {
          "internalType": "uint256",
          "name": "",
          "type": "uint256"
        }
      ],
      "name": "placesHash",
      "outputs": [
        {
          "internalType": "bytes32",
          "name": "",
          "type": "bytes32"
        }
      ],
      "stateMutability": "view",
      "type": "function"
    },
    {
      "inputs": [
        {
          "internalType": "address",
          "name": "manager",
          "type": "address"
        }
      ],
      "name": "removePlaceManager",
      "outputs": [],
      "stateMutability": "nonpayable",
      "type": "function"
    },
    {
      "inputs": [],
      "name": "renounceOwnership",
      "outputs": [],
      "stateMutability": "nonpayable",
      "type": "function"
    },
    {
      "inputs": [
        {
          "internalType": "address",
          "name": "from",
          "type": "address"
        },
        {
          "internalType": "address",
          "name": "to",
          "type": "address"
        },
        {
          "internalType": "uint256",
          "name": "tokenId",
          "type": "uint256"
        }
      ],
      "name": "safeTransferFrom",
      "outputs": [],
      "stateMutability": "nonpayable",
      "type": "function"
    },
    {
      "inputs": [
        {
          "internalType": "address",
          "name": "from",
          "type": "address"
        },
        {
          "internalType": "address",
          "name": "to",
          "type": "address"
        },
        {
          "internalType": "uint256",
          "name": "tokenId",
          "type": "uint256"
        },
        {
          "internalType": "bytes",
          "name": "data",
          "type": "bytes"
        }
      ],
      "name": "safeTransferFrom",
      "outputs": [],
      "stateMutability": "nonpayable",
      "type": "function"
    },
    {
      "inputs": [
        {
          "internalType": "address",
          "name": "operator",
          "type": "address"
        },
        {
          "internalType": "bool",
          "name": "approved",
          "type": "bool"
        }
      ],
      "name": "setApprovalForAll",
      "outputs": [],
      "stateMutability": "nonpayable",
      "type": "function"
    },
    {
      "inputs": [
        {
          "internalType": "bytes4",
          "name": "interfaceId",
          "type": "bytes4"
        }
      ],
      "name": "supportsInterface",
      "outputs": [
        {
          "internalType": "bool",
          "name": "",
          "type": "bool"
        }
      ],
      "stateMutability": "view",
      "type": "function"
    },
    {
      "inputs": [],
      "name": "symbol",
      "outputs": [
        {
          "internalType": "string",
          "name": "",
          "type": "string"
        }
      ],
      "stateMutability": "view",
      "type": "function"
    },
    {
      "inputs": [
        {
          "internalType": "uint256",
          "name": "index",
          "type": "uint256"
        }
      ],
      "name": "tokenByIndex",
      "outputs": [
        {
          "internalType": "uint256",
          "name": "",
          "type": "uint256"
        }
      ],
      "stateMutability": "view",
      "type": "function"
    },
    {
      "inputs": [
        {
          "internalType": "address",
          "name": "owner",
          "type": "address"
        },
        {
          "internalType": "uint256",
          "name": "index",
          "type": "uint256"
        }
      ],
      "name": "tokenOfOwnerByIndex",
      "outputs": [
        {
          "internalType": "uint256",
          "name": "",
          "type": "uint256"
        }
      ],
      "stateMutability": "view",
      "type": "function"
    },
    {
      "inputs": [
        {
          "internalType": "uint256",
          "name": "tokenId",
          "type": "uint256"
        }
      ],
      "name": "tokenURI",
      "outputs": [
        {
          "internalType": "string",
          "name": "",
          "type": "string"
        }
      ],
      "stateMutability": "view",
      "type": "function"
    },
    {
      "inputs": [],
      "name": "totalSupply",
      "outputs": [
        {
          "internalType": "uint256",
          "name": "",
          "type": "uint256"
        }
      ],
      "stateMutability": "view",
      "type": "function"
    },
    {
      "inputs": [
        {
          "internalType": "address",
          "name": "from",
          "type": "address"
        },
        {
          "internalType": "address",
          "name": "to",
          "type": "address"
        },
        {
          "internalType": "uint256",
          "name": "tokenId",
          "type": "uint256"
        }
      ],
      "name": "transferFrom",
      "outputs": [],
      "stateMutability": "nonpayable",
      "type": "function"
    },
    {
      "inputs": [
        {
          "internalType": "address",
          "name": "newOwner",
          "type": "address"
        }
      ],
      "name": "transferOwnership",
      "outputs": [],
      "stateMutability": "nonpayable",
      "type": "function"
    },
    {
      "inputs": [],
      "name": "verifier",
      "outputs": [
        {
          "internalType": "contract IMetapebbleDataVerifier",
          "name": "",
          "type": "address"
        }
      ],
      "stateMutability": "view",
      "type": "function"
    }
  ],
  "transactionHash": "0xb57c0b89942c3dffc84e852e7360c8361f9bb94506fa933d98aaeb5a24f7e1a7",
  "args": [
    [
      30400000,
      30270960
    ],
    [
      120520000,
      120041443
    ],
    [
      1000,
      1000
    ],
    [
      1672127245,
      1672127245
    ],
    [
      1672128245,
      1674719245
    ],
    "0x539057424d2A1A0B7D7Af6F322f34569b967b272",
    "Multiple Place Pebble NFT",
    "MPT"
  ],
  "numDeployments": 2,
  "solcInputHash": "72a6d4c2b6c324d0de3203e85b59e688",
  "bytecode": "0x60806040523480156200001157600080fd5b506040516200398538038062003985833981016040819052620000349162000849565b828282818162000044336200067e565b60018055600262000056838262000a1b565b50600362000065828262000a1b565b5050600c80546001600160a01b0319166001600160a01b03959095169490941790935550508751895114905080156200009f575085518851145b620000e15760405162461bcd60e51b815260206004820152600d60248201526c696e76616c696420706c61636560981b60448201526064015b60405180910390fd5b60005b88518110156200066f57600087828151811062000105576200010562000ae7565b6020026020010151116200015c5760405162461bcd60e51b815260206004820152601460248201527f696e76616c6964206d61782064697374616e63650000000000000000000000006044820152606401620000d8565b63055d4a7f1989828151811062000177576200017762000ae7565b602002602001015112158015620001ae575063055d4a80898281518110620001a357620001a362000ae7565b602002602001015113155b620001ea5760405162461bcd60e51b815260206004820152600b60248201526a1a5b9d985b1a59081b185d60aa1b6044820152606401620000d8565b630aba94ff1988828151811062000205576200020562000ae7565b6020026020010151121580156200023c5750630aba950088828151811062000231576200023162000ae7565b602002602001015113155b620002795760405162461bcd60e51b815260206004820152600c60248201526b696e76616c6964206c6f6e6760a01b6044820152606401620000d8565b8581815181106200028e576200028e62000ae7565b6020026020010151858281518110620002ab57620002ab62000ae7565b6020026020010151118015620002dc575042858281518110620002d257620002d262000ae7565b6020026020010151115b6200031e5760405162461bcd60e51b81526020600482015260116024820152700696e76616c69642074696d657374616d7607c1b6044820152606401620000d8565b600089828151811062000335576200033562000ae7565b602002602001015189838151811062000352576200035262000ae7565b60200260200101518984815181106200036f576200036f62000ae7565b60200260200101518985815181106200038c576200038c62000ae7565b6020026020010151898681518110620003a957620003a962000ae7565b6020026020010151604051602001620003e4959493929190948552602085019390935260408401919091526060830152608082015260a00190565b60408051601f1981840301815291815281516020928301206000818152600f909352912060020154909150156200044f5760405162461bcd60e51b815260206004820152600e60248201526d726570656174656420706c61636560901b6044820152606401620000d8565b6040518060a001604052808b84815181106200046f576200046f62000ae7565b602002602001015181526020018a848151811062000491576200049162000ae7565b60200260200101518152602001898481518110620004b357620004b362000ae7565b60200260200101518152602001888481518110620004d557620004d562000ae7565b60200260200101518152602001878481518110620004f757620004f762000ae7565b6020908102919091018101519091526000838152600f82526040808220845181559284015160018085019190915590840151600284015560608401516003840155608090930151600490920191909155600e8054928301815590527fbb7b4a454dc3493923482f07822329ed19e8244eff582cc204f8554c3620c3fd0181905589517f4702fb9ba3963a7fbcca390698a54c43664028dc33f9c9b3dbabb2e17b63c272908b9084908110620005b057620005b062000ae7565b60200260200101518a8481518110620005cd57620005cd62000ae7565b60200260200101518a8581518110620005ea57620005ea62000ae7565b60200260200101518a868151811062000607576200060762000ae7565b60200260200101518a878151811062000624576200062462000ae7565b60209081029190910181015160408051968752918601949094528401919091526060830152608082015260a00160405180910390a15080620006668162000afd565b915050620000e4565b50505050505050505062000b25565b600080546001600160a01b038381166001600160a01b0319831681178455604051919092169283917f8be0079c531659141344cd1fd0a4f28419497f9722a3daafe3b4186f6b6457e09190a35050565b634e487b7160e01b600052604160045260246000fd5b604051601f8201601f191681016001600160401b03811182821017156200070f576200070f620006ce565b604052919050565b600082601f8301126200072957600080fd5b815160206001600160401b03821115620007475762000747620006ce565b8160051b62000758828201620006e4565b92835284810182019282810190878511156200077357600080fd5b83870192505b84831015620007945782518252918301919083019062000779565b979650505050505050565b80516001600160a01b0381168114620007b757600080fd5b919050565b600082601f830112620007ce57600080fd5b81516001600160401b03811115620007ea57620007ea620006ce565b602062000800601f8301601f19168201620006e4565b82815285828487010111156200081557600080fd5b60005b838110156200083557858101830151828201840152820162000818565b506000928101909101919091529392505050565b600080600080600080600080610100898b0312156200086757600080fd5b88516001600160401b03808211156200087f57600080fd5b6200088d8c838d0162000717565b995060208b0151915080821115620008a457600080fd5b620008b28c838d0162000717565b985060408b0151915080821115620008c957600080fd5b620008d78c838d0162000717565b975060608b0151915080821115620008ee57600080fd5b620008fc8c838d0162000717565b965060808b01519150808211156200091357600080fd5b620009218c838d0162000717565b95506200093160a08c016200079f565b945060c08b01519150808211156200094857600080fd5b620009568c838d01620007bc565b935060e08b01519150808211156200096d57600080fd5b506200097c8b828c01620007bc565b9150509295985092959890939650565b600181811c90821680620009a157607f821691505b602082108103620009c257634e487b7160e01b600052602260045260246000fd5b50919050565b601f82111562000a1657600081815260208120601f850160051c81016020861015620009f15750805b601f850160051c820191505b8181101562000a1257828155600101620009fd565b5050505b505050565b81516001600160401b0381111562000a375762000a37620006ce565b62000a4f8162000a4884546200098c565b84620009c8565b602080601f83116001811462000a87576000841562000a6e5750858301515b600019600386901b1c1916600185901b17855562000a12565b600085815260208120601f198616915b8281101562000ab85788860151825594840194600190910190840162000a97565b508582101562000ad75787850151600019600388901b60f8161c191681555b5050505050600190811b01905550565b634e487b7160e01b600052603260045260246000fd5b60006001820162000b1e57634e487b7160e01b600052601160045260246000fd5b5060010190565b612e508062000b356000396000f3fe6080604052600436106101d85760003560e01c8063715018a611610102578063a4353eb011610095578063cc3c0f0611610064578063cc3c0f06146105aa578063df0580fd146105e2578063e985e9c514610602578063f2fde38b1461064b57600080fd5b8063a4353eb014610535578063b88d4fde1461054a578063bc29942e1461056a578063c87b56dd1461058a57600080fd5b806395d89b41116100d157806395d89b41146104cb57806399d32fc4146104e05780639da5d98b146104f5578063a22cb4651461051557600080fd5b8063715018a614610442578063781d2e6a146104575780637d6fbd9e146104775780638da5cb5b146104ad57600080fd5b80632dfd452a1161017a5780636352211e116101495780636352211e14610360578063678f98b7146103805780636cbbd7b6146103f257806370a082311461042257600080fd5b80632dfd452a146102ed5780632f745c591461030057806342842e0e146103205780634f6ccce71461034057600080fd5b8063095ea7b3116101b6578063095ea7b31461026c57806318160ddd1461028e57806323b872dd146102ad5780632b7ac3f3146102cd57600080fd5b806301ffc9a7146101dd57806306fdde0314610212578063081812fc14610234575b600080fd5b3480156101e957600080fd5b506101fd6101f8366004612825565b61066b565b60405190151581526020015b60405180910390f35b34801561021e57600080fd5b506102276106c7565b60405161020991906128b0565b34801561024057600080fd5b5061025461024f3660046128c3565b610759565b6040516001600160a01b039091168152602001610209565b34801561027857600080fd5b5061028c6102873660046128f1565b610780565b005b34801561029a57600080fd5b50600a545b604051908152602001610209565b3480156102b957600080fd5b5061028c6102c836600461291d565b6108b6565b3480156102d957600080fd5b50600c54610254906001600160a01b031681565b61028c6102fb366004612a38565b61093d565b34801561030c57600080fd5b5061029f61031b3660046128f1565b610ac1565b34801561032c57600080fd5b5061028c61033b36600461291d565b610b69565b34801561034c57600080fd5b5061029f61035b3660046128c3565b610b84565b34801561036c57600080fd5b5061025461037b3660046128c3565b610c28565b34801561038c57600080fd5b506103ca61039b3660046128c3565b600f60205260009081526040902080546001820154600283015460038401546004909401549293919290919085565b604080519586526020860194909452928401919091526060830152608082015260a001610209565b3480156103fe57600080fd5b506101fd61040d366004612aaf565b60106020526000908152604090205460ff1681565b34801561042e57600080fd5b5061029f61043d366004612aaf565b610c8d565b34801561044e57600080fd5b5061028c610d27565b34801561046357600080fd5b5061028c610472366004612acc565b610d3b565b34801561048357600080fd5b506102546104923660046128c3565b6000908152600d60205260409020546001600160a01b031690565b3480156104b957600080fd5b506000546001600160a01b0316610254565b3480156104d757600080fd5b506102276110ba565b3480156104ec57600080fd5b5061029f6110c9565b34801561050157600080fd5b5061029f6105103660046128c3565b61125b565b34801561052157600080fd5b5061028c610530366004612b15565b61127c565b34801561054157600080fd5b50600e5461029f565b34801561055657600080fd5b5061028c610565366004612b4e565b61128b565b34801561057657600080fd5b5061028c610585366004612aaf565b611319565b34801561059657600080fd5b506102276105a53660046128c3565b61141a565b3480156105b657600080fd5b506101fd6105c53660046128c3565b6000908152600d60205260409020546001600160a01b0316151590565b3480156105ee57600080fd5b5061028c6105fd366004612aaf565b61148e565b34801561060e57600080fd5b506101fd61061d366004612bba565b6001600160a01b03918216600090815260076020908152604080832093909416825291909152205460ff1690565b34801561065757600080fd5b5061028c610666366004612aaf565b61158b565b60007fffffffff0000000000000000000000000000000000000000000000000000000082167f780e9d630000000000000000000000000000000000000000000000000000000014806106c157506106c18261161b565b92915050565b6060600280546106d690612be8565b80601f016020809104026020016040519081016040528092919081815260200182805461070290612be8565b801561074f5780601f106107245761010080835404028352916020019161074f565b820191906000526020600020905b81548152906001019060200180831161073257829003601f168201915b5050505050905090565b6000610764826116fe565b506000908152600660205260409020546001600160a01b031690565b600061078b82610c28565b9050806001600160a01b0316836001600160a01b0316036108195760405162461bcd60e51b815260206004820152602160248201527f4552433732313a20617070726f76616c20746f2063757272656e74206f776e6560448201527f720000000000000000000000000000000000000000000000000000000000000060648201526084015b60405180910390fd5b336001600160a01b03821614806108355750610835813361061d565b6108a75760405162461bcd60e51b815260206004820152603d60248201527f4552433732313a20617070726f76652063616c6c6572206973206e6f7420746f60448201527f6b656e206f776e6572206f7220617070726f76656420666f7220616c6c0000006064820152608401610810565b6108b18383611762565b505050565b6108c033826117e8565b6109325760405162461bcd60e51b815260206004820152602d60248201527f4552433732313a2063616c6c6572206973206e6f7420746f6b656e206f776e6560448201527f72206f7220617070726f766564000000000000000000000000000000000000006064820152608401610810565b6108b1838383611867565b610945611ad3565b6000848152600d60205260409020546001600160a01b0316156109aa5760405162461bcd60e51b815260206004820152600f60248201527f616c726561647920636c61696d656400000000000000000000000000000000006044820152606401610810565b6040805160208082018a9052818301899052606082018890526080820186905260a08083018690528351808403909101815260c083018085528151918301919091206000908152600f90925290839020610160830190935282548152600183015460e08301526002830154610100830181905260038401546101208401526004909301546101409092019190915290610a855760405162461bcd60e51b815260206004820152601060248201527f706c616365206e6f7420657869737473000000000000000000000000000000006044820152606401610810565b610a99601154338a8a8a8a8a8a8a34611b2c565b60118054906000610aa983612c6a565b919050555050610ab860018055565b50505050505050565b6000610acc83610c8d565b8210610b405760405162461bcd60e51b815260206004820152602b60248201527f455243373231456e756d657261626c653a206f776e657220696e646578206f7560448201527f74206f6620626f756e64730000000000000000000000000000000000000000006064820152608401610810565b506001600160a01b03919091166000908152600860209081526040808320938352929052205490565b6108b18383836040518060200160405280600081525061128b565b6000610b8f600a5490565b8210610c035760405162461bcd60e51b815260206004820152602c60248201527f455243373231456e756d657261626c653a20676c6f62616c20696e646578206f60448201527f7574206f6620626f756e647300000000000000000000000000000000000000006064820152608401610810565b600a8281548110610c1657610c16612ca2565b90600052602060002001549050919050565b6000818152600460205260408120546001600160a01b0316806106c15760405162461bcd60e51b815260206004820152601860248201527f4552433732313a20696e76616c696420746f6b656e20494400000000000000006044820152606401610810565b60006001600160a01b038216610d0b5760405162461bcd60e51b815260206004820152602960248201527f4552433732313a2061646472657373207a65726f206973206e6f74206120766160448201527f6c6964206f776e657200000000000000000000000000000000000000000000006064820152608401610810565b506001600160a01b031660009081526005602052604090205490565b610d2f611cd3565b610d396000611d2d565b565b3360009081526010602052604090205460ff16610dc05760405162461bcd60e51b815260206004820152603a60248201527f506562626c654d756c7469706c654c6f636174696f6e4e46543a2063616c6c6560448201527f72206973206e6f742074686520706c616365206d616e616765720000000000006064820152608401610810565b60008311610e105760405162461bcd60e51b815260206004820152601460248201527f696e76616c6964206d61782064697374616e63650000000000000000000000006044820152606401610810565b8181118015610e1e57504281115b610e6a5760405162461bcd60e51b815260206004820152601160248201527f696e76616c69642074696d657374616d700000000000000000000000000000006044820152606401610810565b7ffffffffffffffffffffffffffffffffffffffffffffffffffffffffffaa2b5808512158015610e9e575063055d4a808513155b610eea5760405162461bcd60e51b815260206004820152600b60248201527f696e76616c6964206c61740000000000000000000000000000000000000000006044820152606401610810565b7ffffffffffffffffffffffffffffffffffffffffffffffffffffffffff5456b008412158015610f1e5750630aba95008413155b610f6a5760405162461bcd60e51b815260206004820152600c60248201527f696e76616c6964206c6f6e6700000000000000000000000000000000000000006044820152606401610810565b6040805160208101879052908101859052606081018490526080810183905260a0810182905260009060c001604080517fffffffffffffffffffffffffffffffffffffffffffffffffffffffffffffffe081840301815291815281516020928301206000818152600f9093529120600201549091501561102c5760405162461bcd60e51b815260206004820152600e60248201527f726570656174656420706c6163650000000000000000000000000000000000006044820152606401610810565b6040805160a081018252968752602080880196875287820195865260608801948552608088019384526000838152600f909152908120965187559451600180880191909155935160028701559151600386015551600490940193909355600e805491820181559091527fbb7b4a454dc3493923482f07822329ed19e8244eff582cc204f8554c3620c3fd0155565b6060600380546106d690612be8565b600c54604080517fb17644c900000000000000000000000000000000000000000000000000000000815290516000926001600160a01b03169163b17644c99160048083019260209291908290030181865afa15801561112c573d6000803e3d6000fd5b505050506040513d601f19601f820116820180604052508101906111509190612cd1565b6040517f3245b6220000000000000000000000000000000000000000000000000000000081523060048201526001600160a01b039190911690633245b62290602401602060405180830381865afa1580156111af573d6000803e3d6000fd5b505050506040513d601f19601f820116820180604052508101906111d39190612cd1565b6040517f6fcca69b0000000000000000000000000000000000000000000000000000000081523060048201526001600160a01b039190911690636fcca69b90602401602060405180830381865afa158015611232573d6000803e3d6000fd5b505050506040513d601f19601f820116820180604052508101906112569190612cee565b905090565b600e818154811061126b57600080fd5b600091825260209091200154905081565b611287338383611d95565b5050565b61129533836117e8565b6113075760405162461bcd60e51b815260206004820152602d60248201527f4552433732313a2063616c6c6572206973206e6f7420746f6b656e206f776e6560448201527f72206f7220617070726f766564000000000000000000000000000000000000006064820152608401610810565b61131384848484611e81565b50505050565b611321611cd3565b6001600160a01b03811660009081526010602052604090205460ff16156113b05760405162461bcd60e51b815260206004820152602a60248201527f506562626c654d756c7469706c654c6f636174696f6e4e46543a20616c72656160448201527f6479206d616e61676572000000000000000000000000000000000000000000006064820152608401610810565b6001600160a01b03811660008181526010602052604080822080547fffffffffffffffffffffffffffffffffffffffffffffffffffffffffffffff00166001179055517f2f9ee5b083d19b4fbd83e4be14aa1001578c266abf2b290a1053718dd108f4f99190a250565b6060611425826116fe565b600061143c60408051602081019091526000815290565b9050600081511161145c5760405180602001604052806000815250611487565b8061146684611f0a565b604051602001611477929190612d07565b6040516020818303038152906040525b9392505050565b611496611cd3565b6001600160a01b03811660009081526010602052604090205460ff166115245760405162461bcd60e51b815260206004820152602660248201527f506562626c654d756c7469706c654c6f636174696f6e4e46543a206e6f74206d60448201527f616e6167657200000000000000000000000000000000000000000000000000006064820152608401610810565b6001600160a01b03811660008181526010602052604080822080547fffffffffffffffffffffffffffffffffffffffffffffffffffffffffffffff00169055517fb6f2279d13e81743ffa72180ff81661181aa50e834804a48f8019da533a790a39190a250565b611593611cd3565b6001600160a01b03811661160f5760405162461bcd60e51b815260206004820152602660248201527f4f776e61626c653a206e6577206f776e657220697320746865207a65726f206160448201527f64647265737300000000000000000000000000000000000000000000000000006064820152608401610810565b61161881611d2d565b50565b60007fffffffff0000000000000000000000000000000000000000000000000000000082167f80ac58cd0000000000000000000000000000000000000000000000000000000014806116ae57507fffffffff0000000000000000000000000000000000000000000000000000000082167f5b5e139f00000000000000000000000000000000000000000000000000000000145b806106c157507f01ffc9a7000000000000000000000000000000000000000000000000000000007fffffffff000000000000000000000000000000000000000000000000000000008316146106c1565b6000818152600460205260409020546001600160a01b03166116185760405162461bcd60e51b815260206004820152601860248201527f4552433732313a20696e76616c696420746f6b656e20494400000000000000006044820152606401610810565b600081815260066020526040902080547fffffffffffffffffffffffff0000000000000000000000000000000000000000166001600160a01b03841690811790915581906117af82610c28565b6001600160a01b03167f8c5be1e5ebec7d5bd14f71427d1e84f3dd0314c0f7b2291e5b200ac8c7c3b92560405160405180910390a45050565b6000806117f483610c28565b9050806001600160a01b0316846001600160a01b0316148061183b57506001600160a01b0380821660009081526007602090815260408083209388168352929052205460ff165b8061185f5750836001600160a01b031661185484610759565b6001600160a01b0316145b949350505050565b826001600160a01b031661187a82610c28565b6001600160a01b0316146118f65760405162461bcd60e51b815260206004820152602560248201527f4552433732313a207472616e736665722066726f6d20696e636f72726563742060448201527f6f776e65720000000000000000000000000000000000000000000000000000006064820152608401610810565b6001600160a01b0382166119715760405162461bcd60e51b8152602060048201526024808201527f4552433732313a207472616e7366657220746f20746865207a65726f2061646460448201527f72657373000000000000000000000000000000000000000000000000000000006064820152608401610810565b61197e8383836001611fc8565b826001600160a01b031661199182610c28565b6001600160a01b031614611a0d5760405162461bcd60e51b815260206004820152602560248201527f4552433732313a207472616e736665722066726f6d20696e636f72726563742060448201527f6f776e65720000000000000000000000000000000000000000000000000000006064820152608401610810565b600081815260066020908152604080832080547fffffffffffffffffffffffff00000000000000000000000000000000000000009081169091556001600160a01b038781168086526005855283862080547fffffffffffffffffffffffffffffffffffffffffffffffffffffffffffffffff01905590871680865283862080546001019055868652600490945282852080549092168417909155905184937fddf252ad1be2c89b69c2b068fc378daa952ba7f163c4a11628f55a4df523b3ef91a4505050565b600260015403611b255760405162461bcd60e51b815260206004820152601f60248201527f5265656e7472616e637947756172643a207265656e7472616e742063616c6c006044820152606401610810565b6002600155565b600c546040517fb499ffd10000000000000000000000000000000000000000000000000000000081526001600160a01b038b81166004830152602482018b9052604482018a9052606482018990526084820188905260a4820187905260c48201869052600092169063b499ffd19060e401602060405180830381865afa158015611bba573d6000803e3d6000fd5b505050506040513d601f19601f82011682018060405250810190611bde9190612cee565b600c546040517f258ae5820000000000000000000000000000000000000000000000000000000081529192506001600160a01b03169063258ae582908490611c2c9085908890600401612d36565b60206040518083038185885af1158015611c4a573d6000803e3d6000fd5b50505050506040513d601f19601f82011682018060405250810190611c6f9190612d4f565b611cbb5760405162461bcd60e51b815260206004820152601160248201527f696e76616c6964207369676e61747572650000000000000000000000000000006044820152606401610810565b611cc68b8b88612110565b5050505050505050505050565b6000546001600160a01b03163314610d395760405162461bcd60e51b815260206004820181905260248201527f4f776e61626c653a2063616c6c6572206973206e6f7420746865206f776e65726044820152606401610810565b600080546001600160a01b038381167fffffffffffffffffffffffff0000000000000000000000000000000000000000831681178455604051919092169283917f8be0079c531659141344cd1fd0a4f28419497f9722a3daafe3b4186f6b6457e09190a35050565b816001600160a01b0316836001600160a01b031603611df65760405162461bcd60e51b815260206004820152601960248201527f4552433732313a20617070726f766520746f2063616c6c6572000000000000006044820152606401610810565b6001600160a01b0383811660008181526007602090815260408083209487168084529482529182902080547fffffffffffffffffffffffffffffffffffffffffffffffffffffffffffffff001686151590811790915591519182527f17307eab39ab6107e8899845ad3d59bd9653f200f220920489ca2b5937696c31910160405180910390a3505050565b611e8c848484611867565b611e988484848461218d565b6113135760405162461bcd60e51b815260206004820152603260248201527f4552433732313a207472616e7366657220746f206e6f6e20455243373231526560448201527f63656976657220696d706c656d656e74657200000000000000000000000000006064820152608401610810565b60606000611f178361234c565b600101905060008167ffffffffffffffff811115611f3757611f3761295e565b6040519080825280601f01601f191660200182016040528015611f61576020820181803683370190505b5090508181016020015b7fffffffffffffffffffffffffffffffffffffffffffffffffffffffffffffffff017f3031323334353637383961626364656600000000000000000000000000000000600a86061a8153600a8504945084611f6b57509392505050565b611fd48484848461242e565b600181111561204b5760405162461bcd60e51b815260206004820152603560248201527f455243373231456e756d657261626c653a20636f6e736563757469766520747260448201527f616e7366657273206e6f7420737570706f7274656400000000000000000000006064820152608401610810565b816001600160a01b0385166120a7576120a281600a80546000838152600b60205260408120829055600182018355919091527fc65a7bb8d6351c1cf70c95a316cc6a92839c986682d98bc35f958f4883f9d2a80155565b6120ca565b836001600160a01b0316856001600160a01b0316146120ca576120ca85826124b6565b6001600160a01b0384166120e6576120e181612553565b612109565b846001600160a01b0316846001600160a01b031614612109576121098482612602565b5050505050565b61211a8284612646565b6000818152600d602052604080822080547fffffffffffffffffffffffff0000000000000000000000000000000000000000166001600160a01b038616908117909155905185928492917f9b01158d4bc10c112ba32b5240cda97e49e2eb86021f03f6a0f460342ac4dfda9190a4505050565b60006001600160a01b0384163b15612341576040517f150b7a020000000000000000000000000000000000000000000000000000000081526001600160a01b0385169063150b7a02906121ea903390899088908890600401612d6c565b6020604051808303816000875af1925050508015612243575060408051601f3d9081017fffffffffffffffffffffffffffffffffffffffffffffffffffffffffffffffe016820190925261224091810190612da8565b60015b6122f6573d808015612271576040519150601f19603f3d011682016040523d82523d6000602084013e612276565b606091505b5080516000036122ee5760405162461bcd60e51b815260206004820152603260248201527f4552433732313a207472616e7366657220746f206e6f6e20455243373231526560448201527f63656976657220696d706c656d656e74657200000000000000000000000000006064820152608401610810565b805181602001fd5b7fffffffff00000000000000000000000000000000000000000000000000000000167f150b7a020000000000000000000000000000000000000000000000000000000014905061185f565b506001949350505050565b6000807a184f03e93ff9f4daa797ed6e38ed64bf6a1f0100000000000000008310612395577a184f03e93ff9f4daa797ed6e38ed64bf6a1f010000000000000000830492506040015b6d04ee2d6d415b85acef810000000083106123c1576d04ee2d6d415b85acef8100000000830492506020015b662386f26fc1000083106123df57662386f26fc10000830492506010015b6305f5e10083106123f7576305f5e100830492506008015b612710831061240b57612710830492506004015b6064831061241d576064830492506002015b600a83106106c15760010192915050565b6001811115611313576001600160a01b03841615612474576001600160a01b0384166000908152600560205260408120805483929061246e908490612dc5565b90915550505b6001600160a01b03831615611313576001600160a01b038316600090815260056020526040812080548392906124ab908490612dd8565b909155505050505050565b600060016124c384610c8d565b6124cd9190612dc5565b600083815260096020526040902054909150808214612520576001600160a01b03841660009081526008602090815260408083208584528252808320548484528184208190558352600990915290208190555b5060009182526009602090815260408084208490556001600160a01b039094168352600881528383209183525290812055565b600a5460009061256590600190612dc5565b6000838152600b6020526040812054600a805493945090928490811061258d5761258d612ca2565b9060005260206000200154905080600a83815481106125ae576125ae612ca2565b6000918252602080832090910192909255828152600b9091526040808220849055858252812055600a8054806125e6576125e6612deb565b6001900381819060005260206000200160009055905550505050565b600061260d83610c8d565b6001600160a01b039093166000908152600860209081526040808320868452825280832085905593825260099052919091209190915550565b6001600160a01b03821661269c5760405162461bcd60e51b815260206004820181905260248201527f4552433732313a206d696e7420746f20746865207a65726f20616464726573736044820152606401610810565b6000818152600460205260409020546001600160a01b0316156127015760405162461bcd60e51b815260206004820152601c60248201527f4552433732313a20746f6b656e20616c7265616479206d696e746564000000006044820152606401610810565b61270f600083836001611fc8565b6000818152600460205260409020546001600160a01b0316156127745760405162461bcd60e51b815260206004820152601c60248201527f4552433732313a20746f6b656e20616c7265616479206d696e746564000000006044820152606401610810565b6001600160a01b038216600081815260056020908152604080832080546001019055848352600490915280822080547fffffffffffffffffffffffff0000000000000000000000000000000000000000168417905551839291907fddf252ad1be2c89b69c2b068fc378daa952ba7f163c4a11628f55a4df523b3ef908290a45050565b7fffffffff000000000000000000000000000000000000000000000000000000008116811461161857600080fd5b60006020828403121561283757600080fd5b8135611487816127f7565b60005b8381101561285d578181015183820152602001612845565b50506000910152565b6000815180845261287e816020860160208601612842565b601f017fffffffffffffffffffffffffffffffffffffffffffffffffffffffffffffffe0169290920160200192915050565b6020815260006114876020830184612866565b6000602082840312156128d557600080fd5b5035919050565b6001600160a01b038116811461161857600080fd5b6000806040838503121561290457600080fd5b823561290f816128dc565b946020939093013593505050565b60008060006060848603121561293257600080fd5b833561293d816128dc565b9250602084013561294d816128dc565b929592945050506040919091013590565b7f4e487b7100000000000000000000000000000000000000000000000000000000600052604160045260246000fd5b600082601f83011261299e57600080fd5b813567ffffffffffffffff808211156129b9576129b961295e565b604051601f83017fffffffffffffffffffffffffffffffffffffffffffffffffffffffffffffffe0908116603f011681019082821181831017156129ff576129ff61295e565b81604052838152866020858801011115612a1857600080fd5b836020870160208301376000602085830101528094505050505092915050565b600080600080600080600060e0888a031215612a5357600080fd5b873596506020880135955060408801359450606088013593506080880135925060a0880135915060c088013567ffffffffffffffff811115612a9457600080fd5b612aa08a828b0161298d565b91505092959891949750929550565b600060208284031215612ac157600080fd5b8135611487816128dc565b600080600080600060a08688031215612ae457600080fd5b505083359560208501359550604085013594606081013594506080013592509050565b801515811461161857600080fd5b60008060408385031215612b2857600080fd5b8235612b33816128dc565b91506020830135612b4381612b07565b809150509250929050565b60008060008060808587031215612b6457600080fd5b8435612b6f816128dc565b93506020850135612b7f816128dc565b925060408501359150606085013567ffffffffffffffff811115612ba257600080fd5b612bae8782880161298d565b91505092959194509250565b60008060408385031215612bcd57600080fd5b8235612bd8816128dc565b91506020830135612b43816128dc565b600181811c90821680612bfc57607f821691505b602082108103612c35577f4e487b7100000000000000000000000000000000000000000000000000000000600052602260045260246000fd5b50919050565b7f4e487b7100000000000000000000000000000000000000000000000000000000600052601160045260246000fd5b60007fffffffffffffffffffffffffffffffffffffffffffffffffffffffffffffffff8203612c9b57612c9b612c3b565b5060010190565b7f4e487b7100000000000000000000000000000000000000000000000000000000600052603260045260246000fd5b600060208284031215612ce357600080fd5b8151611487816128dc565b600060208284031215612d0057600080fd5b5051919050565b60008351612d19818460208801612842565b835190830190612d2d818360208801612842565b01949350505050565b82815260406020820152600061185f6040830184612866565b600060208284031215612d6157600080fd5b815161148781612b07565b60006001600160a01b03808716835280861660208401525083604083015260806060830152612d9e6080830184612866565b9695505050505050565b600060208284031215612dba57600080fd5b8151611487816127f7565b818103818111156106c1576106c1612c3b565b808201808211156106c1576106c1612c3b565b7f4e487b7100000000000000000000000000000000000000000000000000000000600052603160045260246000fdfea2646970667358221220584108aa59a11f671b880ef6701b6dafdbf65a4f67393697d635623a378e762f64736f6c63430008110033",
  "devdoc": {
    "kind": "dev",
    "methods": {
      "approve(address,uint256)": {
        "details": "See {IERC721-approve}."
      },
      "balanceOf(address)": {
        "details": "See {IERC721-balanceOf}."
      },
      "getApproved(uint256)": {
        "details": "See {IERC721-getApproved}."
      },
      "isApprovedForAll(address,address)": {
        "details": "See {IERC721-isApprovedForAll}."
      },
      "name()": {
        "details": "See {IERC721Metadata-name}."
      },
      "owner()": {
        "details": "Returns the address of the current owner."
      },
      "ownerOf(uint256)": {
        "details": "See {IERC721-ownerOf}."
      },
      "renounceOwnership()": {
        "details": "Leaves the contract without owner. It will not be possible to call `onlyOwner` functions anymore. Can only be called by the current owner. NOTE: Renouncing ownership will leave the contract without an owner, thereby removing any functionality that is only available to the owner."
      },
      "safeTransferFrom(address,address,uint256)": {
        "details": "See {IERC721-safeTransferFrom}."
      },
      "safeTransferFrom(address,address,uint256,bytes)": {
        "details": "See {IERC721-safeTransferFrom}."
      },
      "setApprovalForAll(address,bool)": {
        "details": "See {IERC721-setApprovalForAll}."
      },
      "supportsInterface(bytes4)": {
        "details": "See {IERC165-supportsInterface}."
      },
      "symbol()": {
        "details": "See {IERC721Metadata-symbol}."
      },
      "tokenByIndex(uint256)": {
        "details": "See {IERC721Enumerable-tokenByIndex}."
      },
      "tokenOfOwnerByIndex(address,uint256)": {
        "details": "See {IERC721Enumerable-tokenOfOwnerByIndex}."
      },
      "tokenURI(uint256)": {
        "details": "See {IERC721Metadata-tokenURI}."
      },
      "totalSupply()": {
        "details": "See {IERC721Enumerable-totalSupply}."
      },
      "transferFrom(address,address,uint256)": {
        "details": "See {IERC721-transferFrom}."
      },
      "transferOwnership(address)": {
        "details": "Transfers ownership of the contract to a new account (`newOwner`). Can only be called by the current owner."
      }
    },
    "version": 1
  },
  "userdoc": {
    "kind": "user",
    "methods": {},
    "version": 1
  },
  "storageLayout": {
    "storage": [
      {
        "astId": 7,
        "contract": "contracts/examples/PebbleMultipleLocationNFT.sol:PebbleMultipleLocationNFT",
        "label": "_owner",
        "offset": 0,
        "slot": "0",
        "type": "t_address"
      },
      {
        "astId": 123,
        "contract": "contracts/examples/PebbleMultipleLocationNFT.sol:PebbleMultipleLocationNFT",
        "label": "_status",
        "offset": 0,
        "slot": "1",
        "type": "t_uint256"
      },
      {
        "astId": 192,
        "contract": "contracts/examples/PebbleMultipleLocationNFT.sol:PebbleMultipleLocationNFT",
        "label": "_name",
        "offset": 0,
        "slot": "2",
        "type": "t_string_storage"
      },
      {
        "astId": 194,
        "contract": "contracts/examples/PebbleMultipleLocationNFT.sol:PebbleMultipleLocationNFT",
        "label": "_symbol",
        "offset": 0,
        "slot": "3",
        "type": "t_string_storage"
      },
      {
        "astId": 198,
        "contract": "contracts/examples/PebbleMultipleLocationNFT.sol:PebbleMultipleLocationNFT",
        "label": "_owners",
        "offset": 0,
        "slot": "4",
        "type": "t_mapping(t_uint256,t_address)"
      },
      {
        "astId": 202,
        "contract": "contracts/examples/PebbleMultipleLocationNFT.sol:PebbleMultipleLocationNFT",
        "label": "_balances",
        "offset": 0,
        "slot": "5",
        "type": "t_mapping(t_address,t_uint256)"
      },
      {
        "astId": 206,
        "contract": "contracts/examples/PebbleMultipleLocationNFT.sol:PebbleMultipleLocationNFT",
        "label": "_tokenApprovals",
        "offset": 0,
        "slot": "6",
        "type": "t_mapping(t_uint256,t_address)"
      },
      {
        "astId": 212,
        "contract": "contracts/examples/PebbleMultipleLocationNFT.sol:PebbleMultipleLocationNFT",
        "label": "_operatorApprovals",
        "offset": 0,
        "slot": "7",
        "type": "t_mapping(t_address,t_mapping(t_address,t_bool))"
      },
      {
        "astId": 1260,
        "contract": "contracts/examples/PebbleMultipleLocationNFT.sol:PebbleMultipleLocationNFT",
        "label": "_ownedTokens",
        "offset": 0,
        "slot": "8",
        "type": "t_mapping(t_address,t_mapping(t_uint256,t_uint256))"
      },
      {
        "astId": 1264,
        "contract": "contracts/examples/PebbleMultipleLocationNFT.sol:PebbleMultipleLocationNFT",
        "label": "_ownedTokensIndex",
        "offset": 0,
        "slot": "9",
        "type": "t_mapping(t_uint256,t_uint256)"
      },
      {
        "astId": 1267,
        "contract": "contracts/examples/PebbleMultipleLocationNFT.sol:PebbleMultipleLocationNFT",
        "label": "_allTokens",
        "offset": 0,
        "slot": "10",
        "type": "t_array(t_uint256)dyn_storage"
      },
      {
        "astId": 1271,
        "contract": "contracts/examples/PebbleMultipleLocationNFT.sol:PebbleMultipleLocationNFT",
        "label": "_allTokensIndex",
        "offset": 0,
        "slot": "11",
        "type": "t_mapping(t_uint256,t_uint256)"
      },
      {
        "astId": 3104,
        "contract": "contracts/examples/PebbleMultipleLocationNFT.sol:PebbleMultipleLocationNFT",
        "label": "verifier",
        "offset": 0,
        "slot": "12",
        "type": "t_contract(IMetapebbleDataVerifier)3868"
      },
      {
        "astId": 3128,
        "contract": "contracts/examples/PebbleMultipleLocationNFT.sol:PebbleMultipleLocationNFT",
        "label": "_claimedDevices",
        "offset": 0,
        "slot": "13",
        "type": "t_mapping(t_bytes32,t_address)"
      },
      {
        "astId": 3358,
        "contract": "contracts/examples/PebbleMultipleLocationNFT.sol:PebbleMultipleLocationNFT",
        "label": "placesHash",
        "offset": 0,
        "slot": "14",
        "type": "t_array(t_bytes32)dyn_storage"
      },
      {
        "astId": 3363,
        "contract": "contracts/examples/PebbleMultipleLocationNFT.sol:PebbleMultipleLocationNFT",
        "label": "places",
        "offset": 0,
        "slot": "15",
        "type": "t_mapping(t_bytes32,t_struct(Place)3332_storage)"
      },
      {
        "astId": 3367,
        "contract": "contracts/examples/PebbleMultipleLocationNFT.sol:PebbleMultipleLocationNFT",
        "label": "placeManagers",
        "offset": 0,
        "slot": "16",
        "type": "t_mapping(t_address,t_bool)"
      },
      {
        "astId": 3369,
        "contract": "contracts/examples/PebbleMultipleLocationNFT.sol:PebbleMultipleLocationNFT",
        "label": "tokenId",
        "offset": 0,
        "slot": "17",
        "type": "t_uint256"
      }
    ],
    "types": {
      "t_address": {
        "encoding": "inplace",
        "label": "address",
        "numberOfBytes": "20"
      },
      "t_array(t_bytes32)dyn_storage": {
        "base": "t_bytes32",
        "encoding": "dynamic_array",
        "label": "bytes32[]",
        "numberOfBytes": "32"
      },
      "t_array(t_uint256)dyn_storage": {
        "base": "t_uint256",
        "encoding": "dynamic_array",
        "label": "uint256[]",
        "numberOfBytes": "32"
      },
      "t_bool": {
        "encoding": "inplace",
        "label": "bool",
        "numberOfBytes": "1"
      },
      "t_bytes32": {
        "encoding": "inplace",
        "label": "bytes32",
        "numberOfBytes": "32"
      },
      "t_contract(IMetapebbleDataVerifier)3868": {
        "encoding": "inplace",
        "label": "contract IMetapebbleDataVerifier",
        "numberOfBytes": "20"
      },
      "t_int256": {
        "encoding": "inplace",
        "label": "int256",
        "numberOfBytes": "32"
      },
      "t_mapping(t_address,t_bool)": {
        "encoding": "mapping",
        "key": "t_address",
        "label": "mapping(address => bool)",
        "numberOfBytes": "32",
        "value": "t_bool"
      },
      "t_mapping(t_address,t_mapping(t_address,t_bool))": {
        "encoding": "mapping",
        "key": "t_address",
        "label": "mapping(address => mapping(address => bool))",
        "numberOfBytes": "32",
        "value": "t_mapping(t_address,t_bool)"
      },
      "t_mapping(t_address,t_mapping(t_uint256,t_uint256))": {
        "encoding": "mapping",
        "key": "t_address",
        "label": "mapping(address => mapping(uint256 => uint256))",
        "numberOfBytes": "32",
        "value": "t_mapping(t_uint256,t_uint256)"
      },
      "t_mapping(t_address,t_uint256)": {
        "encoding": "mapping",
        "key": "t_address",
        "label": "mapping(address => uint256)",
        "numberOfBytes": "32",
        "value": "t_uint256"
      },
      "t_mapping(t_bytes32,t_address)": {
        "encoding": "mapping",
        "key": "t_bytes32",
        "label": "mapping(bytes32 => address)",
        "numberOfBytes": "32",
        "value": "t_address"
      },
      "t_mapping(t_bytes32,t_struct(Place)3332_storage)": {
        "encoding": "mapping",
        "key": "t_bytes32",
        "label": "mapping(bytes32 => struct PebbleMultipleLocationNFT.Place)",
        "numberOfBytes": "32",
        "value": "t_struct(Place)3332_storage"
      },
      "t_mapping(t_uint256,t_address)": {
        "encoding": "mapping",
        "key": "t_uint256",
        "label": "mapping(uint256 => address)",
        "numberOfBytes": "32",
        "value": "t_address"
      },
      "t_mapping(t_uint256,t_uint256)": {
        "encoding": "mapping",
        "key": "t_uint256",
        "label": "mapping(uint256 => uint256)",
        "numberOfBytes": "32",
        "value": "t_uint256"
      },
      "t_string_storage": {
        "encoding": "bytes",
        "label": "string",
        "numberOfBytes": "32"
      },
      "t_struct(Place)3332_storage": {
        "encoding": "inplace",
        "label": "struct PebbleMultipleLocationNFT.Place",
        "members": [
          {
            "astId": 3323,
            "contract": "contracts/examples/PebbleMultipleLocationNFT.sol:PebbleMultipleLocationNFT",
            "label": "lat",
            "offset": 0,
            "slot": "0",
            "type": "t_int256"
          },
          {
            "astId": 3325,
            "contract": "contracts/examples/PebbleMultipleLocationNFT.sol:PebbleMultipleLocationNFT",
            "label": "long",
            "offset": 0,
            "slot": "1",
            "type": "t_int256"
          },
          {
            "astId": 3327,
            "contract": "contracts/examples/PebbleMultipleLocationNFT.sol:PebbleMultipleLocationNFT",
            "label": "maxDistance",
            "offset": 0,
            "slot": "2",
            "type": "t_uint256"
          },
          {
            "astId": 3329,
            "contract": "contracts/examples/PebbleMultipleLocationNFT.sol:PebbleMultipleLocationNFT",
            "label": "startTimestamp",
            "offset": 0,
            "slot": "3",
            "type": "t_uint256"
          },
          {
            "astId": 3331,
            "contract": "contracts/examples/PebbleMultipleLocationNFT.sol:PebbleMultipleLocationNFT",
            "label": "endTimestamp",
            "offset": 0,
            "slot": "4",
            "type": "t_uint256"
          }
        ],
        "numberOfBytes": "160"
      },
      "t_uint256": {
        "encoding": "inplace",
        "label": "uint256",
        "numberOfBytes": "32"
      }
    }
  }
}